No.     Time                       Source                Destination           Protocol Length Info
      1 2012-10-12 15:40:52.068286 192.168.0.71          62.148.192.130        DNS      81     Standard query A bfmc1.evenbalance.com

Frame 1: 81 bytes on wire (648 bits), 81 bytes captured (648 bits)
    Arrival Time: Oct 12, 2012 15:40:52.068286000 GTB Standard Time
    Epoch Time: 1350045652.068286000 seconds
    [Time delta from previous captured frame: 0.000000000 seconds]
    [Time delta from previous displayed frame: 0.000000000 seconds]
    [Time since reference or first frame: 0.000000000 seconds]
    Frame Number: 1
    Frame Length: 81 bytes (648 bits)
    Capture Length: 81 bytes (648 bits)
    [Frame is marked: False]
    [Frame is ignored: False]
    [Protocols in frame: eth:ip:udp:dns]
    [Coloring Rule Name: UDP]
    [Coloring Rule String: udp]
Ethernet II, Src: SonyComp_ea:13:f9 (00:19:c5:ea:13:f9), Dst: ZyxelCom_8d:62:30 (40:4a:03:8d:62:30)
    Destination: ZyxelCom_8d:62:30 (40:4a:03:8d:62:30)
        Address: ZyxelCom_8d:62:30 (40:4a:03:8d:62:30)
        .... ...0 .... .... .... .... = IG bit: Individual address (unicast)
        .... ..0. .... .... .... .... = LG bit: Globally unique address (factory default)
    Source: SonyComp_ea:13:f9 (00:19:c5:ea:13:f9)
        Address: SonyComp_ea:13:f9 (00:19:c5:ea:13:f9)
        .... ...0 .... .... .... .... = IG bit: Individual address (unicast)
        .... ..0. .... .... .... .... = LG bit: Globally unique address (factory default)
    Type: IP (0x0800)
Internet Protocol Version 4, Src: 192.168.0.71 (192.168.0.71), Dst: 62.148.192.130 (62.148.192.130)
    Version: 4
    Header length: 20 bytes
    Differentiated Services Field: 0x00 (DSCP 0x00: Default; ECN: 0x00: Not-ECT (Not ECN-Capable Transport))
        0000 00.. = Differentiated Services Codepoint: Default (0x00)
        .... ..00 = Explicit Congestion Notification: Not-ECT (Not ECN-Capable Transport) (0x00)
    Total Length: 67
    Identification: 0x0195 (405)
    Flags: 0x00
        0... .... = Reserved bit: Not set
        .0.. .... = Don't fragment: Not set
        ..0. .... = More fragments: Not set
    Fragment offset: 0
    Time to live: 64
    Protocol: UDP (17)
    Header checksum: 0xb90f [correct]
        [Good: True]
        [Bad: False]
    Source: 192.168.0.71 (192.168.0.71)
    Destination: 62.148.192.130 (62.148.192.130)
User Datagram Protocol, Src Port: 64861 (64861), Dst Port: domain (53)
    Source port: 64861 (64861)
    Destination port: domain (53)
    Length: 47
    Checksum: 0xd006 [validation disabled]
        [Good Checksum: False]
        [Bad Checksum: False]
Domain Name System (query)
    Transaction ID: 0x16b1
    Flags: 0x0100 (Standard query)
        0... .... .... .... = Response: Message is a query
        .000 0... .... .... = Opcode: Standard query (0)
        .... ..0. .... .... = Truncated: Message is not truncated
        .... ...1 .... .... = Recursion desired: Do query recursively
        .... .... .0.. .... = Z: reserved (0)
        .... .... ...0 .... = Non-authenticated data: Unacceptable
    Questions: 1
    Answer RRs: 0
    Authority RRs: 0
    Additional RRs: 0
    Queries
        bfmc1.evenbalance.com: type A, class IN
            Name: bfmc1.evenbalance.com
            Type: A (Host address)
            Class: IN (0x0001)

0000  40 4a 03 8d 62 30 00 19 c5 ea 13 f9 08 00 45 00   @J..b0........E.
0010  00 43 01 95 00 00 40 11 b9 0f c0 a8 00 47 3e 94   .C....@......G>.
0020  c0 82 fd 5d 00 35 00 2f d0 06 16 b1 01 00 00 01   ...].5./........
0030  00 00 00 00 00 00 05 62 66 6d 63 31 0b 65 76 65   .......bfmc1.eve
0040  6e 62 61 6c 61 6e 63 65 03 63 6f 6d 00 00 01 00   nbalance.com....
0050  01                                                .

No.     Time                       Source                Destination           Protocol Length Info
      2 2012-10-12 15:40:53.198877 192.168.0.71          62.148.192.130        DNS      81     Standard query A bfmc2.evenbalance.com

Frame 2: 81 bytes on wire (648 bits), 81 bytes captured (648 bits)
    Arrival Time: Oct 12, 2012 15:40:53.198877000 GTB Standard Time
    Epoch Time: 1350045653.198877000 seconds
    [Time delta from previous captured frame: 1.130591000 seconds]
    [Time delta from previous displayed frame: 1.130591000 seconds]
    [Time since reference or first frame: 1.130591000 seconds]
    Frame Number: 2
    Frame Length: 81 bytes (648 bits)
    Capture Length: 81 bytes (648 bits)
    [Frame is marked: False]
    [Frame is ignored: False]
    [Protocols in frame: eth:ip:udp:dns]
    [Coloring Rule Name: UDP]
    [Coloring Rule String: udp]
Ethernet II, Src: SonyComp_ea:13:f9 (00:19:c5:ea:13:f9), Dst: ZyxelCom_8d:62:30 (40:4a:03:8d:62:30)
    Destination: ZyxelCom_8d:62:30 (40:4a:03:8d:62:30)
        Address: ZyxelCom_8d:62:30 (40:4a:03:8d:62:30)
        .... ...0 .... .... .... .... = IG bit: Individual address (unicast)
        .... ..0. .... .... .... .... = LG bit: Globally unique address (factory default)
    Source: SonyComp_ea:13:f9 (00:19:c5:ea:13:f9)
        Address: SonyComp_ea:13:f9 (00:19:c5:ea:13:f9)
        .... ...0 .... .... .... .... = IG bit: Individual address (unicast)
        .... ..0. .... .... .... .... = LG bit: Globally unique address (factory default)
    Type: IP (0x0800)
Internet Protocol Version 4, Src: 192.168.0.71 (192.168.0.71), Dst: 62.148.192.130 (62.148.192.130)
    Version: 4
    Header length: 20 bytes
    Differentiated Services Field: 0x00 (DSCP 0x00: Default; ECN: 0x00: Not-ECT (Not ECN-Capable Transport))
        0000 00.. = Differentiated Services Codepoint: Default (0x00)
        .... ..00 = Explicit Congestion Notification: Not-ECT (Not ECN-Capable Transport) (0x00)
    Total Length: 67
    Identification: 0x0196 (406)
    Flags: 0x00
        0... .... = Reserved bit: Not set
        .0.. .... = Don't fragment: Not set
        ..0. .... = More fragments: Not set
    Fragment offset: 0
    Time to live: 64
    Protocol: UDP (17)
    Header checksum: 0xb90e [correct]
        [Good: True]
        [Bad: False]
    Source: 192.168.0.71 (192.168.0.71)
    Destination: 62.148.192.130 (62.148.192.130)
User Datagram Protocol, Src Port: 64860 (64860), Dst Port: domain (53)
    Source port: 64860 (64860)
    Destination port: domain (53)
    Length: 47
    Checksum: 0xd005 [validation disabled]
        [Good Checksum: False]
        [Bad Checksum: False]
Domain Name System (query)
    Transaction ID: 0x16b2
    Flags: 0x0100 (Standard query)
        0... .... .... .... = Response: Message is a query
        .000 0... .... .... = Opcode: Standard query (0)
        .... ..0. .... .... = Truncated: Message is not truncated
        .... ...1 .... .... = Recursion desired: Do query recursively
        .... .... .0.. .... = Z: reserved (0)
        .... .... ...0 .... = Non-authenticated data: Unacceptable
    Questions: 1
    Answer RRs: 0
    Authority RRs: 0
    Additional RRs: 0
    Queries
        bfmc2.evenbalance.com: type A, class IN
            Name: bfmc2.evenbalance.com
            Type: A (Host address)
            Class: IN (0x0001)

0000  40 4a 03 8d 62 30 00 19 c5 ea 13 f9 08 00 45 00   @J..b0........E.
0010  00 43 01 96 00 00 40 11 b9 0e c0 a8 00 47 3e 94   .C....@......G>.
0020  c0 82 fd 5c 00 35 00 2f d0 05 16 b2 01 00 00 01   ...\.5./........
0030  00 00 00 00 00 00 05 62 66 6d 63 32 0b 65 76 65   .......bfmc2.eve
0040  6e 62 61 6c 61 6e 63 65 03 63 6f 6d 00 00 01 00   nbalance.com....
0050  01                                                .

No.     Time                       Source                Destination           Protocol Length Info
      3 2012-10-12 15:40:53.335837 192.168.0.71          62.148.192.130        DNS      81     Standard query A bfmc3.evenbalance.com

Frame 3: 81 bytes on wire (648 bits), 81 bytes captured (648 bits)
    Arrival Time: Oct 12, 2012 15:40:53.335837000 GTB Standard Time
    Epoch Time: 1350045653.335837000 seconds
    [Time delta from previous captured frame: 0.136960000 seconds]
    [Time delta from previous displayed frame: 0.136960000 seconds]
    [Time since reference or first frame: 1.267551000 seconds]
    Frame Number: 3
    Frame Length: 81 bytes (648 bits)
    Capture Length: 81 bytes (648 bits)
    [Frame is marked: False]
    [Frame is ignored: False]
    [Protocols in frame: eth:ip:udp:dns]
    [Coloring Rule Name: UDP]
    [Coloring Rule String: udp]
Ethernet II, Src: SonyComp_ea:13:f9 (00:19:c5:ea:13:f9), Dst: ZyxelCom_8d:62:30 (40:4a:03:8d:62:30)
    Destination: ZyxelCom_8d:62:30 (40:4a:03:8d:62:30)
        Address: ZyxelCom_8d:62:30 (40:4a:03:8d:62:30)
        .... ...0 .... .... .... .... = IG bit: Individual address (unicast)
        .... ..0. .... .... .... .... = LG bit: Globally unique address (factory default)
    Source: SonyComp_ea:13:f9 (00:19:c5:ea:13:f9)
        Address: SonyComp_ea:13:f9 (00:19:c5:ea:13:f9)
        .... ...0 .... .... .... .... = IG bit: Individual address (unicast)
        .... ..0. .... .... .... .... = LG bit: Globally unique address (factory default)
    Type: IP (0x0800)
Internet Protocol Version 4, Src: 192.168.0.71 (192.168.0.71), Dst: 62.148.192.130 (62.148.192.130)
    Version: 4
    Header length: 20 bytes
    Differentiated Services Field: 0x00 (DSCP 0x00: Default; ECN: 0x00: Not-ECT (Not ECN-Capable Transport))
        0000 00.. = Differentiated Services Codepoint: Default (0x00)
        .... ..00 = Explicit Congestion Notification: Not-ECT (Not ECN-Capable Transport) (0x00)
    Total Length: 67
    Identification: 0x0197 (407)
    Flags: 0x00
        0... .... = Reserved bit: Not set
        .0.. .... = Don't fragment: Not set
        ..0. .... = More fragments: Not set
    Fragment offset: 0
    Time to live: 64
    Protocol: UDP (17)
    Header checksum: 0xb90d [correct]
        [Good: True]
        [Bad: False]
    Source: 192.168.0.71 (192.168.0.71)
    Destination: 62.148.192.130 (62.148.192.130)
User Datagram Protocol, Src Port: 64859 (64859), Dst Port: domain (53)
    Source port: 64859 (64859)
    Destination port: domain (53)
    Length: 47
    Checksum: 0xd004 [validation disabled]
        [Good Checksum: False]
        [Bad Checksum: False]
Domain Name System (query)
    Transaction ID: 0x16b3
    Flags: 0x0100 (Standard query)
        0... .... .... .... = Response: Message is a query
        .000 0... .... .... = Opcode: Standard query (0)
        .... ..0. .... .... = Truncated: Message is not truncated
        .... ...1 .... .... = Recursion desired: Do query recursively
        .... .... .0.. .... = Z: reserved (0)
        .... .... ...0 .... = Non-authenticated data: Unacceptable
    Questions: 1
    Answer RRs: 0
    Authority RRs: 0
    Additional RRs: 0
    Queries
        bfmc3.evenbalance.com: type A, class IN
            Name: bfmc3.evenbalance.com
            Type: A (Host address)
            Class: IN (0x0001)

0000  40 4a 03 8d 62 30 00 19 c5 ea 13 f9 08 00 45 00   @J..b0........E.
0010  00 43 01 97 00 00 40 11 b9 0d c0 a8 00 47 3e 94   .C....@......G>.
0020  c0 82 fd 5b 00 35 00 2f d0 04 16 b3 01 00 00 01   ...[.5./........
0030  00 00 00 00 00 00 05 62 66 6d 63 33 0b 65 76 65   .......bfmc3.eve
0040  6e 62 61 6c 61 6e 63 65 03 63 6f 6d 00 00 01 00   nbalance.com....
0050  01                                                .

No.     Time                       Source                Destination           Protocol Length Info
      4 2012-10-12 15:40:53.495144 192.168.0.71          62.148.192.130        DNS      81     Standard query A bfmc4.evenbalance.com

Frame 4: 81 bytes on wire (648 bits), 81 bytes captured (648 bits)
    Arrival Time: Oct 12, 2012 15:40:53.495144000 GTB Standard Time
    Epoch Time: 1350045653.495144000 seconds
    [Time delta from previous captured frame: 0.159307000 seconds]
    [Time delta from previous displayed frame: 0.159307000 seconds]
    [Time since reference or first frame: 1.426858000 seconds]
    Frame Number: 4
    Frame Length: 81 bytes (648 bits)
    Capture Length: 81 bytes (648 bits)
    [Frame is marked: False]
    [Frame is ignored: False]
    [Protocols in frame: eth:ip:udp:dns]
    [Coloring Rule Name: UDP]
    [Coloring Rule String: udp]
Ethernet II, Src: SonyComp_ea:13:f9 (00:19:c5:ea:13:f9), Dst: ZyxelCom_8d:62:30 (40:4a:03:8d:62:30)
    Destination: ZyxelCom_8d:62:30 (40:4a:03:8d:62:30)
        Address: ZyxelCom_8d:62:30 (40:4a:03:8d:62:30)
        .... ...0 .... .... .... .... = IG bit: Individual address (unicast)
        .... ..0. .... .... .... .... = LG bit: Globally unique address (factory default)
    Source: SonyComp_ea:13:f9 (00:19:c5:ea:13:f9)
        Address: SonyComp_ea:13:f9 (00:19:c5:ea:13:f9)
        .... ...0 .... .... .... .... = IG bit: Individual address (unicast)
        .... ..0. .... .... .... .... = LG bit: Globally unique address (factory default)
    Type: IP (0x0800)
Internet Protocol Version 4, Src: 192.168.0.71 (192.168.0.71), Dst: 62.148.192.130 (62.148.192.130)
    Version: 4
    Header length: 20 bytes
    Differentiated Services Field: 0x00 (DSCP 0x00: Default; ECN: 0x00: Not-ECT (Not ECN-Capable Transport))
        0000 00.. = Differentiated Services Codepoint: Default (0x00)
        .... ..00 = Explicit Congestion Notification: Not-ECT (Not ECN-Capable Transport) (0x00)
    Total Length: 67
    Identification: 0x0198 (408)
    Flags: 0x00
        0... .... = Reserved bit: Not set
        .0.. .... = Don't fragment: Not set
        ..0. .... = More fragments: Not set
    Fragment offset: 0
    Time to live: 64
    Protocol: UDP (17)
    Header checksum: 0xb90c [correct]
        [Good: True]
        [Bad: False]
    Source: 192.168.0.71 (192.168.0.71)
    Destination: 62.148.192.130 (62.148.192.130)
User Datagram Protocol, Src Port: 64858 (64858), Dst Port: domain (53)
    Source port: 64858 (64858)
    Destination port: domain (53)
    Length: 47
    Checksum: 0xd003 [validation disabled]
        [Good Checksum: False]
        [Bad Checksum: False]
Domain Name System (query)
    Transaction ID: 0x16b4
    Flags: 0x0100 (Standard query)
        0... .... .... .... = Response: Message is a query
        .000 0... .... .... = Opcode: Standard query (0)
        .... ..0. .... .... = Truncated: Message is not truncated
        .... ...1 .... .... = Recursion desired: Do query recursively
        .... .... .0.. .... = Z: reserved (0)
        .... .... ...0 .... = Non-authenticated data: Unacceptable
    Questions: 1
    Answer RRs: 0
    Authority RRs: 0
    Additional RRs: 0
    Queries
        bfmc4.evenbalance.com: type A, class IN
            Name: bfmc4.evenbalance.com
            Type: A (Host address)
            Class: IN (0x0001)

0000  40 4a 03 8d 62 30 00 19 c5 ea 13 f9 08 00 45 00   @J..b0........E.
0010  00 43 01 98 00 00 40 11 b9 0c c0 a8 00 47 3e 94   .C....@......G>.
0020  c0 82 fd 5a 00 35 00 2f d0 03 16 b4 01 00 00 01   ...Z.5./........
0030  00 00 00 00 00 00 05 62 66 6d 63 34 0b 65 76 65   .......bfmc4.eve
0040  6e 62 61 6c 61 6e 63 65 03 63 6f 6d 00 00 01 00   nbalance.com....
0050  01                                                .

No.     Time                       Source                Destination           Protocol Length Info
      5 2012-10-12 15:40:53.633785 192.168.0.71          62.148.192.130        DNS      81     Standard query A bfmc5.evenbalance.com

Frame 5: 81 bytes on wire (648 bits), 81 bytes captured (648 bits)
    Arrival Time: Oct 12, 2012 15:40:53.633785000 GTB Standard Time
    Epoch Time: 1350045653.633785000 seconds
    [Time delta from previous captured frame: 0.138641000 seconds]
    [Time delta from previous displayed frame: 0.138641000 seconds]
    [Time since reference or first frame: 1.565499000 seconds]
    Frame Number: 5
    Frame Length: 81 bytes (648 bits)
    Capture Length: 81 bytes (648 bits)
    [Frame is marked: False]
    [Frame is ignored: False]
    [Protocols in frame: eth:ip:udp:dns]
    [Coloring Rule Name: UDP]
    [Coloring Rule String: udp]
Ethernet II, Src: SonyComp_ea:13:f9 (00:19:c5:ea:13:f9), Dst: ZyxelCom_8d:62:30 (40:4a:03:8d:62:30)
    Destination: ZyxelCom_8d:62:30 (40:4a:03:8d:62:30)
        Address: ZyxelCom_8d:62:30 (40:4a:03:8d:62:30)
        .... ...0 .... .... .... .... = IG bit: Individual address (unicast)
        .... ..0. .... .... .... .... = LG bit: Globally unique address (factory default)
    Source: SonyComp_ea:13:f9 (00:19:c5:ea:13:f9)
        Address: SonyComp_ea:13:f9 (00:19:c5:ea:13:f9)
        .... ...0 .... .... .... .... = IG bit: Individual address (unicast)
        .... ..0. .... .... .... .... = LG bit: Globally unique address (factory default)
    Type: IP (0x0800)
Internet Protocol Version 4, Src: 192.168.0.71 (192.168.0.71), Dst: 62.148.192.130 (62.148.192.130)
    Version: 4
    Header length: 20 bytes
    Differentiated Services Field: 0x00 (DSCP 0x00: Default; ECN: 0x00: Not-ECT (Not ECN-Capable Transport))
        0000 00.. = Differentiated Services Codepoint: Default (0x00)
        .... ..00 = Explicit Congestion Notification: Not-ECT (Not ECN-Capable Transport) (0x00)
    Total Length: 67
    Identification: 0x0199 (409)
    Flags: 0x00
        0... .... = Reserved bit: Not set
        .0.. .... = Don't fragment: Not set
        ..0. .... = More fragments: Not set
    Fragment offset: 0
    Time to live: 64
    Protocol: UDP (17)
    Header checksum: 0xb90b [correct]
        [Good: True]
        [Bad: False]
    Source: 192.168.0.71 (192.168.0.71)
    Destination: 62.148.192.130 (62.148.192.130)
User Datagram Protocol, Src Port: 64857 (64857), Dst Port: domain (53)
    Source port: 64857 (64857)
    Destination port: domain (53)
    Length: 47
    Checksum: 0xd002 [validation disabled]
        [Good Checksum: False]
        [Bad Checksum: False]
Domain Name System (query)
    Transaction ID: 0x16b5
    Flags: 0x0100 (Standard query)
        0... .... .... .... = Response: Message is a query
        .000 0... .... .... = Opcode: Standard query (0)
        .... ..0. .... .... = Truncated: Message is not truncated
        .... ...1 .... .... = Recursion desired: Do query recursively
        .... .... .0.. .... = Z: reserved (0)
        .... .... ...0 .... = Non-authenticated data: Unacceptable
    Questions: 1
    Answer RRs: 0
    Authority RRs: 0
    Additional RRs: 0
    Queries
        bfmc5.evenbalance.com: type A, class IN
            Name: bfmc5.evenbalance.com
            Type: A (Host address)
            Class: IN (0x0001)

0000  40 4a 03 8d 62 30 00 19 c5 ea 13 f9 08 00 45 00   @J..b0........E.
0010  00 43 01 99 00 00 40 11 b9 0b c0 a8 00 47 3e 94   .C....@......G>.
0020  c0 82 fd 59 00 35 00 2f d0 02 16 b5 01 00 00 01   ...Y.5./........
0030  00 00 00 00 00 00 05 62 66 6d 63 35 0b 65 76 65   .......bfmc5.eve
0040  6e 62 61 6c 61 6e 63 65 03 63 6f 6d 00 00 01 00   nbalance.com....
0050  01                                                .

No.     Time                       Source                Destination           Protocol Length Info
      6 2012-10-12 15:40:53.771698 192.168.0.71          62.148.192.130        DNS      81     Standard query A bfmc6.evenbalance.com

Frame 6: 81 bytes on wire (648 bits), 81 bytes captured (648 bits)
    Arrival Time: Oct 12, 2012 15:40:53.771698000 GTB Standard Time
    Epoch Time: 1350045653.771698000 seconds
    [Time delta from previous captured frame: 0.137913000 seconds]
    [Time delta from previous displayed frame: 0.137913000 seconds]
    [Time since reference or first frame: 1.703412000 seconds]
    Frame Number: 6
    Frame Length: 81 bytes (648 bits)
    Capture Length: 81 bytes (648 bits)
    [Frame is marked: False]
    [Frame is ignored: False]
    [Protocols in frame: eth:ip:udp:dns]
    [Coloring Rule Name: UDP]
    [Coloring Rule String: udp]
Ethernet II, Src: SonyComp_ea:13:f9 (00:19:c5:ea:13:f9), Dst: ZyxelCom_8d:62:30 (40:4a:03:8d:62:30)
    Destination: ZyxelCom_8d:62:30 (40:4a:03:8d:62:30)
        Address: ZyxelCom_8d:62:30 (40:4a:03:8d:62:30)
        .... ...0 .... .... .... .... = IG bit: Individual address (unicast)
        .... ..0. .... .... .... .... = LG bit: Globally unique address (factory default)
    Source: SonyComp_ea:13:f9 (00:19:c5:ea:13:f9)
        Address: SonyComp_ea:13:f9 (00:19:c5:ea:13:f9)
        .... ...0 .... .... .... .... = IG bit: Individual address (unicast)
        .... ..0. .... .... .... .... = LG bit: Globally unique address (factory default)
    Type: IP (0x0800)
Internet Protocol Version 4, Src: 192.168.0.71 (192.168.0.71), Dst: 62.148.192.130 (62.148.192.130)
    Version: 4
    Header length: 20 bytes
    Differentiated Services Field: 0x00 (DSCP 0x00: Default; ECN: 0x00: Not-ECT (Not ECN-Capable Transport))
        0000 00.. = Differentiated Services Codepoint: Default (0x00)
        .... ..00 = Explicit Congestion Notification: Not-ECT (Not ECN-Capable Transport) (0x00)
    Total Length: 67
    Identification: 0x019a (410)
    Flags: 0x00
        0... .... = Reserved bit: Not set
        .0.. .... = Don't fragment: Not set
        ..0. .... = More fragments: Not set
    Fragment offset: 0
    Time to live: 64
    Protocol: UDP (17)
    Header checksum: 0xb90a [correct]
        [Good: True]
        [Bad: False]
    Source: 192.168.0.71 (192.168.0.71)
    Destination: 62.148.192.130 (62.148.192.130)
User Datagram Protocol, Src Port: 64856 (64856), Dst Port: domain (53)
    Source port: 64856 (64856)
    Destination port: domain (53)
    Length: 47
    Checksum: 0xd001 [validation disabled]
        [Good Checksum: False]
        [Bad Checksum: False]
Domain Name System (query)
    Transaction ID: 0x16b6
    Flags: 0x0100 (Standard query)
        0... .... .... .... = Response: Message is a query
        .000 0... .... .... = Opcode: Standard query (0)
        .... ..0. .... .... = Truncated: Message is not truncated
        .... ...1 .... .... = Recursion desired: Do query recursively
        .... .... .0.. .... = Z: reserved (0)
        .... .... ...0 .... = Non-authenticated data: Unacceptable
    Questions: 1
    Answer RRs: 0
    Authority RRs: 0
    Additional RRs: 0
    Queries
        bfmc6.evenbalance.com: type A, class IN
            Name: bfmc6.evenbalance.com
            Type: A (Host address)
            Class: IN (0x0001)

0000  40 4a 03 8d 62 30 00 19 c5 ea 13 f9 08 00 45 00   @J..b0........E.
0010  00 43 01 9a 00 00 40 11 b9 0a c0 a8 00 47 3e 94   .C....@......G>.
0020  c0 82 fd 58 00 35 00 2f d0 01 16 b6 01 00 00 01   ...X.5./........
0030  00 00 00 00 00 00 05 62 66 6d 63 36 0b 65 76 65   .......bfmc6.eve
0040  6e 62 61 6c 61 6e 63 65 03 63 6f 6d 00 00 01 00   nbalance.com....
0050  01                                                .

No.     Time                       Source                Destination           Protocol Length Info
      7 2012-10-12 15:40:53.930087 192.168.0.71          62.148.192.130        DNS      81     Standard query A bfmc7.evenbalance.com

Frame 7: 81 bytes on wire (648 bits), 81 bytes captured (648 bits)
    Arrival Time: Oct 12, 2012 15:40:53.930087000 GTB Standard Time
    Epoch Time: 1350045653.930087000 seconds
    [Time delta from previous captured frame: 0.158389000 seconds]
    [Time delta from previous displayed frame: 0.158389000 seconds]
    [Time since reference or first frame: 1.861801000 seconds]
    Frame Number: 7
    Frame Length: 81 bytes (648 bits)
    Capture Length: 81 bytes (648 bits)
    [Frame is marked: False]
    [Frame is ignored: False]
    [Protocols in frame: eth:ip:udp:dns]
    [Coloring Rule Name: UDP]
    [Coloring Rule String: udp]
Ethernet II, Src: SonyComp_ea:13:f9 (00:19:c5:ea:13:f9), Dst: ZyxelCom_8d:62:30 (40:4a:03:8d:62:30)
    Destination: ZyxelCom_8d:62:30 (40:4a:03:8d:62:30)
        Address: ZyxelCom_8d:62:30 (40:4a:03:8d:62:30)
        .... ...0 .... .... .... .... = IG bit: Individual address (unicast)
        .... ..0. .... .... .... .... = LG bit: Globally unique address (factory default)
    Source: SonyComp_ea:13:f9 (00:19:c5:ea:13:f9)
        Address: SonyComp_ea:13:f9 (00:19:c5:ea:13:f9)
        .... ...0 .... .... .... .... = IG bit: Individual address (unicast)
        .... ..0. .... .... .... .... = LG bit: Globally unique address (factory default)
    Type: IP (0x0800)
Internet Protocol Version 4, Src: 192.168.0.71 (192.168.0.71), Dst: 62.148.192.130 (62.148.192.130)
    Version: 4
    Header length: 20 bytes
    Differentiated Services Field: 0x00 (DSCP 0x00: Default; ECN: 0x00: Not-ECT (Not ECN-Capable Transport))
        0000 00.. = Differentiated Services Codepoint: Default (0x00)
        .... ..00 = Explicit Congestion Notification: Not-ECT (Not ECN-Capable Transport) (0x00)
    Total Length: 67
    Identification: 0x019b (411)
    Flags: 0x00
        0... .... = Reserved bit: Not set
        .0.. .... = Don't fragment: Not set
        ..0. .... = More fragments: Not set
    Fragment offset: 0
    Time to live: 64
    Protocol: UDP (17)
    Header checksum: 0xb909 [correct]
        [Good: True]
        [Bad: False]
    Source: 192.168.0.71 (192.168.0.71)
    Destination: 62.148.192.130 (62.148.192.130)
User Datagram Protocol, Src Port: 64855 (64855), Dst Port: domain (53)
    Source port: 64855 (64855)
    Destination port: domain (53)
    Length: 47
    Checksum: 0xd000 [validation disabled]
        [Good Checksum: False]
        [Bad Checksum: False]
Domain Name System (query)
    Transaction ID: 0x16b7
    Flags: 0x0100 (Standard query)
        0... .... .... .... = Response: Message is a query
        .000 0... .... .... = Opcode: Standard query (0)
        .... ..0. .... .... = Truncated: Message is not truncated
        .... ...1 .... .... = Recursion desired: Do query recursively
        .... .... .0.. .... = Z: reserved (0)
        .... .... ...0 .... = Non-authenticated data: Unacceptable
    Questions: 1
    Answer RRs: 0
    Authority RRs: 0
    Additional RRs: 0
    Queries
        bfmc7.evenbalance.com: type A, class IN
            Name: bfmc7.evenbalance.com
            Type: A (Host address)
            Class: IN (0x0001)

0000  40 4a 03 8d 62 30 00 19 c5 ea 13 f9 08 00 45 00   @J..b0........E.
0010  00 43 01 9b 00 00 40 11 b9 09 c0 a8 00 47 3e 94   .C....@......G>.
0020  c0 82 fd 57 00 35 00 2f d0 00 16 b7 01 00 00 01   ...W.5./........
0030  00 00 00 00 00 00 05 62 66 6d 63 37 0b 65 76 65   .......bfmc7.eve
0040  6e 62 61 6c 61 6e 63 65 03 63 6f 6d 00 00 01 00   nbalance.com....
0050  01                                                .

No.     Time                       Source                Destination           Protocol Length Info
      8 2012-10-12 15:40:54.086449 192.168.0.71          62.148.192.130        DNS      81     Standard query A bfmc8.evenbalance.com

Frame 8: 81 bytes on wire (648 bits), 81 bytes captured (648 bits)
    Arrival Time: Oct 12, 2012 15:40:54.086449000 GTB Standard Time
    Epoch Time: 1350045654.086449000 seconds
    [Time delta from previous captured frame: 0.156362000 seconds]
    [Time delta from previous displayed frame: 0.156362000 seconds]
    [Time since reference or first frame: 2.018163000 seconds]
    Frame Number: 8
    Frame Length: 81 bytes (648 bits)
    Capture Length: 81 bytes (648 bits)
    [Frame is marked: False]
    [Frame is ignored: False]
    [Protocols in frame: eth:ip:udp:dns]
    [Coloring Rule Name: UDP]
    [Coloring Rule String: udp]
Ethernet II, Src: SonyComp_ea:13:f9 (00:19:c5:ea:13:f9), Dst: ZyxelCom_8d:62:30 (40:4a:03:8d:62:30)
    Destination: ZyxelCom_8d:62:30 (40:4a:03:8d:62:30)
        Address: ZyxelCom_8d:62:30 (40:4a:03:8d:62:30)
        .... ...0 .... .... .... .... = IG bit: Individual address (unicast)
        .... ..0. .... .... .... .... = LG bit: Globally unique address (factory default)
    Source: SonyComp_ea:13:f9 (00:19:c5:ea:13:f9)
        Address: SonyComp_ea:13:f9 (00:19:c5:ea:13:f9)
        .... ...0 .... .... .... .... = IG bit: Individual address (unicast)
        .... ..0. .... .... .... .... = LG bit: Globally unique address (factory default)
    Type: IP (0x0800)
Internet Protocol Version 4, Src: 192.168.0.71 (192.168.0.71), Dst: 62.148.192.130 (62.148.192.130)
    Version: 4
    Header length: 20 bytes
    Differentiated Services Field: 0x00 (DSCP 0x00: Default; ECN: 0x00: Not-ECT (Not ECN-Capable Transport))
        0000 00.. = Differentiated Services Codepoint: Default (0x00)
        .... ..00 = Explicit Congestion Notification: Not-ECT (Not ECN-Capable Transport) (0x00)
    Total Length: 67
    Identification: 0x019c (412)
    Flags: 0x00
        0... .... = Reserved bit: Not set
        .0.. .... = Don't fragment: Not set
        ..0. .... = More fragments: Not set
    Fragment offset: 0
    Time to live: 64
    Protocol: UDP (17)
    Header checksum: 0xb908 [correct]
        [Good: True]
        [Bad: False]
    Source: 192.168.0.71 (192.168.0.71)
    Destination: 62.148.192.130 (62.148.192.130)
User Datagram Protocol, Src Port: 64854 (64854), Dst Port: domain (53)
    Source port: 64854 (64854)
    Destination port: domain (53)
    Length: 47
    Checksum: 0xcfff [validation disabled]
        [Good Checksum: False]
        [Bad Checksum: False]
Domain Name System (query)
    Transaction ID: 0x16b8
    Flags: 0x0100 (Standard query)
        0... .... .... .... = Response: Message is a query
        .000 0... .... .... = Opcode: Standard query (0)
        .... ..0. .... .... = Truncated: Message is not truncated
        .... ...1 .... .... = Recursion desired: Do query recursively
        .... .... .0.. .... = Z: reserved (0)
        .... .... ...0 .... = Non-authenticated data: Unacceptable
    Questions: 1
    Answer RRs: 0
    Authority RRs: 0
    Additional RRs: 0
    Queries
        bfmc8.evenbalance.com: type A, class IN
            Name: bfmc8.evenbalance.com
            Type: A (Host address)
            Class: IN (0x0001)

0000  40 4a 03 8d 62 30 00 19 c5 ea 13 f9 08 00 45 00   @J..b0........E.
0010  00 43 01 9c 00 00 40 11 b9 08 c0 a8 00 47 3e 94   .C....@......G>.
0020  c0 82 fd 56 00 35 00 2f cf ff 16 b8 01 00 00 01   ...V.5./........
0030  00 00 00 00 00 00 05 62 66 6d 63 38 0b 65 76 65   .......bfmc8.eve
0040  6e 62 61 6c 61 6e 63 65 03 63 6f 6d 00 00 01 00   nbalance.com....
0050  01                                                .

No.     Time                       Source                Destination           Protocol Length Info
      9 2012-10-12 15:40:54.297403 192.168.0.71          62.148.192.130        DNS      81     Standard query A bfmc9.evenbalance.com

Frame 9: 81 bytes on wire (648 bits), 81 bytes captured (648 bits)
    Arrival Time: Oct 12, 2012 15:40:54.297403000 GTB Standard Time
    Epoch Time: 1350045654.297403000 seconds
    [Time delta from previous captured frame: 0.210954000 seconds]
    [Time delta from previous displayed frame: 0.210954000 seconds]
    [Time since reference or first frame: 2.229117000 seconds]
    Frame Number: 9
    Frame Length: 81 bytes (648 bits)
    Capture Length: 81 bytes (648 bits)
    [Frame is marked: False]
    [Frame is ignored: False]
    [Protocols in frame: eth:ip:udp:dns]
    [Coloring Rule Name: UDP]
    [Coloring Rule String: udp]
Ethernet II, Src: SonyComp_ea:13:f9 (00:19:c5:ea:13:f9), Dst: ZyxelCom_8d:62:30 (40:4a:03:8d:62:30)
    Destination: ZyxelCom_8d:62:30 (40:4a:03:8d:62:30)
        Address: ZyxelCom_8d:62:30 (40:4a:03:8d:62:30)
        .... ...0 .... .... .... .... = IG bit: Individual address (unicast)
        .... ..0. .... .... .... .... = LG bit: Globally unique address (factory default)
    Source: SonyComp_ea:13:f9 (00:19:c5:ea:13:f9)
        Address: SonyComp_ea:13:f9 (00:19:c5:ea:13:f9)
        .... ...0 .... .... .... .... = IG bit: Individual address (unicast)
        .... ..0. .... .... .... .... = LG bit: Globally unique address (factory default)
    Type: IP (0x0800)
Internet Protocol Version 4, Src: 192.168.0.71 (192.168.0.71), Dst: 62.148.192.130 (62.148.192.130)
    Version: 4
    Header length: 20 bytes
    Differentiated Services Field: 0x00 (DSCP 0x00: Default; ECN: 0x00: Not-ECT (Not ECN-Capable Transport))
        0000 00.. = Differentiated Services Codepoint: Default (0x00)
        .... ..00 = Explicit Congestion Notification: Not-ECT (Not ECN-Capable Transport) (0x00)
    Total Length: 67
    Identification: 0x019d (413)
    Flags: 0x00
        0... .... = Reserved bit: Not set
        .0.. .... = Don't fragment: Not set
        ..0. .... = More fragments: Not set
    Fragment offset: 0
    Time to live: 64
    Protocol: UDP (17)
    Header checksum: 0xb907 [correct]
        [Good: True]
        [Bad: False]
    Source: 192.168.0.71 (192.168.0.71)
    Destination: 62.148.192.130 (62.148.192.130)
User Datagram Protocol, Src Port: 64853 (64853), Dst Port: domain (53)
    Source port: 64853 (64853)
    Destination port: domain (53)
    Length: 47
    Checksum: 0xcffe [validation disabled]
        [Good Checksum: False]
        [Bad Checksum: False]
Domain Name System (query)
    Transaction ID: 0x16b9
    Flags: 0x0100 (Standard query)
        0... .... .... .... = Response: Message is a query
        .000 0... .... .... = Opcode: Standard query (0)
        .... ..0. .... .... = Truncated: Message is not truncated
        .... ...1 .... .... = Recursion desired: Do query recursively
        .... .... .0.. .... = Z: reserved (0)
        .... .... ...0 .... = Non-authenticated data: Unacceptable
    Questions: 1
    Answer RRs: 0
    Authority RRs: 0
    Additional RRs: 0
    Queries
        bfmc9.evenbalance.com: type A, class IN
            Name: bfmc9.evenbalance.com
            Type: A (Host address)
            Class: IN (0x0001)

0000  40 4a 03 8d 62 30 00 19 c5 ea 13 f9 08 00 45 00   @J..b0........E.
0010  00 43 01 9d 00 00 40 11 b9 07 c0 a8 00 47 3e 94   .C....@......G>.
0020  c0 82 fd 55 00 35 00 2f cf fe 16 b9 01 00 00 01   ...U.5./........
0030  00 00 00 00 00 00 05 62 66 6d 63 39 0b 65 76 65   .......bfmc9.eve
0040  6e 62 61 6c 61 6e 63 65 03 63 6f 6d 00 00 01 00   nbalance.com....
0050  01                                                .

No.     Time                       Source                Destination           Protocol Length Info
     10 2012-10-12 15:40:54.446630 192.168.0.71          85.236.101.18         UDP      60     Source port: 64862  Destination port: 4258

Frame 10: 60 bytes on wire (480 bits), 60 bytes captured (480 bits)
    Arrival Time: Oct 12, 2012 15:40:54.446630000 GTB Standard Time
    Epoch Time: 1350045654.446630000 seconds
    [Time delta from previous captured frame: 0.149227000 seconds]
    [Time delta from previous displayed frame: 0.149227000 seconds]
    [Time since reference or first frame: 2.378344000 seconds]
    Frame Number: 10
    Frame Length: 60 bytes (480 bits)
    Capture Length: 60 bytes (480 bits)
    [Frame is marked: False]
    [Frame is ignored: False]
    [Protocols in frame: eth:ip:udp:data]
    [Coloring Rule Name: UDP]
    [Coloring Rule String: udp]
Ethernet II, Src: SonyComp_ea:13:f9 (00:19:c5:ea:13:f9), Dst: ZyxelCom_8d:62:30 (40:4a:03:8d:62:30)
    Destination: ZyxelCom_8d:62:30 (40:4a:03:8d:62:30)
        Address: ZyxelCom_8d:62:30 (40:4a:03:8d:62:30)
        .... ...0 .... .... .... .... = IG bit: Individual address (unicast)
        .... ..0. .... .... .... .... = LG bit: Globally unique address (factory default)
    Source: SonyComp_ea:13:f9 (00:19:c5:ea:13:f9)
        Address: SonyComp_ea:13:f9 (00:19:c5:ea:13:f9)
        .... ...0 .... .... .... .... = IG bit: Individual address (unicast)
        .... ..0. .... .... .... .... = LG bit: Globally unique address (factory default)
    Type: IP (0x0800)
    Trailer: 000000000000000000000000
Internet Protocol Version 4, Src: 192.168.0.71 (192.168.0.71), Dst: 85.236.101.18 (85.236.101.18)
    Version: 4
    Header length: 20 bytes
    Differentiated Services Field: 0x00 (DSCP 0x00: Default; ECN: 0x00: Not-ECT (Not ECN-Capable Transport))
        0000 00.. = Differentiated Services Codepoint: Default (0x00)
        .... ..00 = Explicit Congestion Notification: Not-ECT (Not ECN-Capable Transport) (0x00)
    Total Length: 34
    Identification: 0x019e (414)
    Flags: 0x00
        0... .... = Reserved bit: Not set
        .0.. .... = Don't fragment: Not set
        ..0. .... = More fragments: Not set
    Fragment offset: 0
    Time to live: 64
    Protocol: UDP (17)
    Header checksum: 0xfd3f [correct]
        [Good: True]
        [Bad: False]
    Source: 192.168.0.71 (192.168.0.71)
    Destination: 85.236.101.18 (85.236.101.18)
User Datagram Protocol, Src Port: 64862 (64862), Dst Port: 4258 (4258)
    Source port: 64862 (64862)
    Destination port: 4258 (4258)
    Length: 14
    Checksum: 0xb1ab [validation disabled]
        [Good Checksum: False]
        [Bad Checksum: False]
Data (6 bytes)
    Data: 0400c0000037
    [Length: 6]

0000  40 4a 03 8d 62 30 00 19 c5 ea 13 f9 08 00 45 00   @J..b0........E.
0010  00 22 01 9e 00 00 40 11 fd 3f c0 a8 00 47 55 ec   ."....@..?...GU.
0020  65 12 fd 5e 10 a2 00 0e b1 ab 04 00 c0 00 00 37   e..^...........7
0030  00 00 00 00 00 00 00 00 00 00 00 00               ............

No.     Time                       Source                Destination           Protocol Length Info
     11 2012-10-12 15:40:54.547031 192.168.0.71          85.236.101.18         UDP      60     Source port: 64862  Destination port: 4258

Frame 11: 60 bytes on wire (480 bits), 60 bytes captured (480 bits)
    Arrival Time: Oct 12, 2012 15:40:54.547031000 GTB Standard Time
    Epoch Time: 1350045654.547031000 seconds
    [Time delta from previous captured frame: 0.100401000 seconds]
    [Time delta from previous displayed frame: 0.100401000 seconds]
    [Time since reference or first frame: 2.478745000 seconds]
    Frame Number: 11
    Frame Length: 60 bytes (480 bits)
    Capture Length: 60 bytes (480 bits)
    [Frame is marked: False]
    [Frame is ignored: False]
    [Protocols in frame: eth:ip:udp:data]
    [Coloring Rule Name: UDP]
    [Coloring Rule String: udp]
Ethernet II, Src: SonyComp_ea:13:f9 (00:19:c5:ea:13:f9), Dst: ZyxelCom_8d:62:30 (40:4a:03:8d:62:30)
    Destination: ZyxelCom_8d:62:30 (40:4a:03:8d:62:30)
        Address: ZyxelCom_8d:62:30 (40:4a:03:8d:62:30)
        .... ...0 .... .... .... .... = IG bit: Individual address (unicast)
        .... ..0. .... .... .... .... = LG bit: Globally unique address (factory default)
    Source: SonyComp_ea:13:f9 (00:19:c5:ea:13:f9)
        Address: SonyComp_ea:13:f9 (00:19:c5:ea:13:f9)
        .... ...0 .... .... .... .... = IG bit: Individual address (unicast)
        .... ..0. .... .... .... .... = LG bit: Globally unique address (factory default)
    Type: IP (0x0800)
    Trailer: 000000000000000000000000
Internet Protocol Version 4, Src: 192.168.0.71 (192.168.0.71), Dst: 85.236.101.18 (85.236.101.18)
    Version: 4
    Header length: 20 bytes
    Differentiated Services Field: 0x00 (DSCP 0x00: Default; ECN: 0x00: Not-ECT (Not ECN-Capable Transport))
        0000 00.. = Differentiated Services Codepoint: Default (0x00)
        .... ..00 = Explicit Congestion Notification: Not-ECT (Not ECN-Capable Transport) (0x00)
    Total Length: 34
    Identification: 0x019f (415)
    Flags: 0x00
        0... .... = Reserved bit: Not set
        .0.. .... = Don't fragment: Not set
        ..0. .... = More fragments: Not set
    Fragment offset: 0
    Time to live: 64
    Protocol: UDP (17)
    Header checksum: 0xfd3e [correct]
        [Good: True]
        [Bad: False]
    Source: 192.168.0.71 (192.168.0.71)
    Destination: 85.236.101.18 (85.236.101.18)
User Datagram Protocol, Src Port: 64862 (64862), Dst Port: 4258 (4258)
    Source port: 64862 (64862)
    Destination port: 4258 (4258)
    Length: 14
    Checksum: 0xb1ab [validation disabled]
        [Good Checksum: False]
        [Bad Checksum: False]
Data (6 bytes)
    Data: 0400c0000037
    [Length: 6]

0000  40 4a 03 8d 62 30 00 19 c5 ea 13 f9 08 00 45 00   @J..b0........E.
0010  00 22 01 9f 00 00 40 11 fd 3e c0 a8 00 47 55 ec   ."....@..>...GU.
0020  65 12 fd 5e 10 a2 00 0e b1 ab 04 00 c0 00 00 37   e..^...........7
0030  00 00 00 00 00 00 00 00 00 00 00 00               ............

No.     Time                       Source                Destination           Protocol Length Info
     12 2012-10-12 15:40:54.667133 192.168.0.71          85.236.101.18         UDP      60     Source port: 64862  Destination port: 4258

Frame 12: 60 bytes on wire (480 bits), 60 bytes captured (480 bits)
    Arrival Time: Oct 12, 2012 15:40:54.667133000 GTB Standard Time
    Epoch Time: 1350045654.667133000 seconds
    [Time delta from previous captured frame: 0.120102000 seconds]
    [Time delta from previous displayed frame: 0.120102000 seconds]
    [Time since reference or first frame: 2.598847000 seconds]
    Frame Number: 12
    Frame Length: 60 bytes (480 bits)
    Capture Length: 60 bytes (480 bits)
    [Frame is marked: False]
    [Frame is ignored: False]
    [Protocols in frame: eth:ip:udp:data]
    [Coloring Rule Name: UDP]
    [Coloring Rule String: udp]
Ethernet II, Src: SonyComp_ea:13:f9 (00:19:c5:ea:13:f9), Dst: ZyxelCom_8d:62:30 (40:4a:03:8d:62:30)
    Destination: ZyxelCom_8d:62:30 (40:4a:03:8d:62:30)
        Address: ZyxelCom_8d:62:30 (40:4a:03:8d:62:30)
        .... ...0 .... .... .... .... = IG bit: Individual address (unicast)
        .... ..0. .... .... .... .... = LG bit: Globally unique address (factory default)
    Source: SonyComp_ea:13:f9 (00:19:c5:ea:13:f9)
        Address: SonyComp_ea:13:f9 (00:19:c5:ea:13:f9)
        .... ...0 .... .... .... .... = IG bit: Individual address (unicast)
        .... ..0. .... .... .... .... = LG bit: Globally unique address (factory default)
    Type: IP (0x0800)
    Trailer: 000000000000000000000000
Internet Protocol Version 4, Src: 192.168.0.71 (192.168.0.71), Dst: 85.236.101.18 (85.236.101.18)
    Version: 4
    Header length: 20 bytes
    Differentiated Services Field: 0x00 (DSCP 0x00: Default; ECN: 0x00: Not-ECT (Not ECN-Capable Transport))
        0000 00.. = Differentiated Services Codepoint: Default (0x00)
        .... ..00 = Explicit Congestion Notification: Not-ECT (Not ECN-Capable Transport) (0x00)
    Total Length: 34
    Identification: 0x01a0 (416)
    Flags: 0x00
        0... .... = Reserved bit: Not set
        .0.. .... = Don't fragment: Not set
        ..0. .... = More fragments: Not set
    Fragment offset: 0
    Time to live: 64
    Protocol: UDP (17)
    Header checksum: 0xfd3d [correct]
        [Good: True]
        [Bad: False]
    Source: 192.168.0.71 (192.168.0.71)
    Destination: 85.236.101.18 (85.236.101.18)
User Datagram Protocol, Src Port: 64862 (64862), Dst Port: 4258 (4258)
    Source port: 64862 (64862)
    Destination port: 4258 (4258)
    Length: 14
    Checksum: 0x91a1 [validation disabled]
        [Good Checksum: False]
        [Bad Checksum: False]
Data (6 bytes)
    Data: 0400e0000041
    [Length: 6]

0000  40 4a 03 8d 62 30 00 19 c5 ea 13 f9 08 00 45 00   @J..b0........E.
0010  00 22 01 a0 00 00 40 11 fd 3d c0 a8 00 47 55 ec   ."....@..=...GU.
0020  65 12 fd 5e 10 a2 00 0e 91 a1 04 00 e0 00 00 41   e..^...........A
0030  00 00 00 00 00 00 00 00 00 00 00 00               ............

No.     Time                       Source                Destination           Protocol Length Info
     13 2012-10-12 15:40:54.787248 192.168.0.71          85.236.101.18         UDP      60     Source port: 64862  Destination port: 4258

Frame 13: 60 bytes on wire (480 bits), 60 bytes captured (480 bits)
    Arrival Time: Oct 12, 2012 15:40:54.787248000 GTB Standard Time
    Epoch Time: 1350045654.787248000 seconds
    [Time delta from previous captured frame: 0.120115000 seconds]
    [Time delta from previous displayed frame: 0.120115000 seconds]
    [Time since reference or first frame: 2.718962000 seconds]
    Frame Number: 13
    Frame Length: 60 bytes (480 bits)
    Capture Length: 60 bytes (480 bits)
    [Frame is marked: False]
    [Frame is ignored: False]
    [Protocols in frame: eth:ip:udp:data]
    [Coloring Rule Name: UDP]
    [Coloring Rule String: udp]
Ethernet II, Src: SonyComp_ea:13:f9 (00:19:c5:ea:13:f9), Dst: ZyxelCom_8d:62:30 (40:4a:03:8d:62:30)
    Destination: ZyxelCom_8d:62:30 (40:4a:03:8d:62:30)
        Address: ZyxelCom_8d:62:30 (40:4a:03:8d:62:30)
        .... ...0 .... .... .... .... = IG bit: Individual address (unicast)
        .... ..0. .... .... .... .... = LG bit: Globally unique address (factory default)
    Source: SonyComp_ea:13:f9 (00:19:c5:ea:13:f9)
        Address: SonyComp_ea:13:f9 (00:19:c5:ea:13:f9)
        .... ...0 .... .... .... .... = IG bit: Individual address (unicast)
        .... ..0. .... .... .... .... = LG bit: Globally unique address (factory default)
    Type: IP (0x0800)
    Trailer: 000000000000000000000000
Internet Protocol Version 4, Src: 192.168.0.71 (192.168.0.71), Dst: 85.236.101.18 (85.236.101.18)
    Version: 4
    Header length: 20 bytes
    Differentiated Services Field: 0x00 (DSCP 0x00: Default; ECN: 0x00: Not-ECT (Not ECN-Capable Transport))
        0000 00.. = Differentiated Services Codepoint: Default (0x00)
        .... ..00 = Explicit Congestion Notification: Not-ECT (Not ECN-Capable Transport) (0x00)
    Total Length: 34
    Identification: 0x01a1 (417)
    Flags: 0x00
        0... .... = Reserved bit: Not set
        .0.. .... = Don't fragment: Not set
        ..0. .... = More fragments: Not set
    Fragment offset: 0
    Time to live: 64
    Protocol: UDP (17)
    Header checksum: 0xfd3c [correct]
        [Good: True]
        [Bad: False]
    Source: 192.168.0.71 (192.168.0.71)
    Destination: 85.236.101.18 (85.236.101.18)
User Datagram Protocol, Src Port: 64862 (64862), Dst Port: 4258 (4258)
    Source port: 64862 (64862)
    Destination port: 4258 (4258)
    Length: 14
    Checksum: 0x91a1 [validation disabled]
        [Good Checksum: False]
        [Bad Checksum: False]
Data (6 bytes)
    Data: 0400e0000041
    [Length: 6]

0000  40 4a 03 8d 62 30 00 19 c5 ea 13 f9 08 00 45 00   @J..b0........E.
0010  00 22 01 a1 00 00 40 11 fd 3c c0 a8 00 47 55 ec   ."....@..<...GU.
0020  65 12 fd 5e 10 a2 00 0e 91 a1 04 00 e0 00 00 41   e..^...........A
0030  00 00 00 00 00 00 00 00 00 00 00 00               ............

No.     Time                       Source                Destination           Protocol Length Info
     14 2012-10-12 15:40:54.807282 192.168.0.71          85.236.101.18         UDP      96     Source port: 64862  Destination port: 4258

Frame 14: 96 bytes on wire (768 bits), 96 bytes captured (768 bits)
    Arrival Time: Oct 12, 2012 15:40:54.807282000 GTB Standard Time
    Epoch Time: 1350045654.807282000 seconds
    [Time delta from previous captured frame: 0.020034000 seconds]
    [Time delta from previous displayed frame: 0.020034000 seconds]
    [Time since reference or first frame: 2.738996000 seconds]
    Frame Number: 14
    Frame Length: 96 bytes (768 bits)
    Capture Length: 96 bytes (768 bits)
    [Frame is marked: False]
    [Frame is ignored: False]
    [Protocols in frame: eth:ip:udp:data]
    [Coloring Rule Name: UDP]
    [Coloring Rule String: udp]
Ethernet II, Src: SonyComp_ea:13:f9 (00:19:c5:ea:13:f9), Dst: ZyxelCom_8d:62:30 (40:4a:03:8d:62:30)
    Destination: ZyxelCom_8d:62:30 (40:4a:03:8d:62:30)
        Address: ZyxelCom_8d:62:30 (40:4a:03:8d:62:30)
        .... ...0 .... .... .... .... = IG bit: Individual address (unicast)
        .... ..0. .... .... .... .... = LG bit: Globally unique address (factory default)
    Source: SonyComp_ea:13:f9 (00:19:c5:ea:13:f9)
        Address: SonyComp_ea:13:f9 (00:19:c5:ea:13:f9)
        .... ...0 .... .... .... .... = IG bit: Individual address (unicast)
        .... ..0. .... .... .... .... = LG bit: Globally unique address (factory default)
    Type: IP (0x0800)
Internet Protocol Version 4, Src: 192.168.0.71 (192.168.0.71), Dst: 85.236.101.18 (85.236.101.18)
    Version: 4
    Header length: 20 bytes
    Differentiated Services Field: 0x00 (DSCP 0x00: Default; ECN: 0x00: Not-ECT (Not ECN-Capable Transport))
        0000 00.. = Differentiated Services Codepoint: Default (0x00)
        .... ..00 = Explicit Congestion Notification: Not-ECT (Not ECN-Capable Transport) (0x00)
    Total Length: 82
    Identification: 0x01a2 (418)
    Flags: 0x00
        0... .... = Reserved bit: Not set
        .0.. .... = Don't fragment: Not set
        ..0. .... = More fragments: Not set
    Fragment offset: 0
    Time to live: 64
    Protocol: UDP (17)
    Header checksum: 0xfd0b [correct]
        [Good: True]
        [Bad: False]
    Source: 192.168.0.71 (192.168.0.71)
    Destination: 85.236.101.18 (85.236.101.18)
User Datagram Protocol, Src Port: 64862 (64862), Dst Port: 4258 (4258)
    Source port: 64862 (64862)
    Destination port: 4258 (4258)
    Length: 62
    Checksum: 0xa784 [validation disabled]
        [Good Checksum: False]
        [Bad Checksum: False]
Data (54 bytes)
    Data: 3400c000000ab1369c004a94f000020c0008008800298985...
    [Length: 54]

0000  40 4a 03 8d 62 30 00 19 c5 ea 13 f9 08 00 45 00   @J..b0........E.
0010  00 52 01 a2 00 00 40 11 fd 0b c0 a8 00 47 55 ec   .R....@......GU.
0020  65 12 fd 5e 10 a2 00 3e a7 84 34 00 c0 00 00 0a   e..^...>..4.....
0030  b1 36 9c 00 4a 94 f0 00 02 0c 00 08 00 88 00 29   .6..J..........)
0040  89 85 a9 cd b5 85 b9 b9 95 b8 00 00 00 40 c0 c0   .............@..
0050  c4 e5 0c d5 15 04 c4 cd 18 e4 c0 c0 c0 c0 10 24   ...............$

No.     Time                       Source                Destination           Protocol Length Info
     15 2012-10-12 15:40:54.970869 192.168.0.71          85.236.101.18         UDP      113    Source port: 64862  Destination port: 4258

Frame 15: 113 bytes on wire (904 bits), 113 bytes captured (904 bits)
    Arrival Time: Oct 12, 2012 15:40:54.970869000 GTB Standard Time
    Epoch Time: 1350045654.970869000 seconds
    [Time delta from previous captured frame: 0.163587000 seconds]
    [Time delta from previous displayed frame: 0.163587000 seconds]
    [Time since reference or first frame: 2.902583000 seconds]
    Frame Number: 15
    Frame Length: 113 bytes (904 bits)
    Capture Length: 113 bytes (904 bits)
    [Frame is marked: False]
    [Frame is ignored: False]
    [Protocols in frame: eth:ip:udp:data]
    [Coloring Rule Name: UDP]
    [Coloring Rule String: udp]
Ethernet II, Src: SonyComp_ea:13:f9 (00:19:c5:ea:13:f9), Dst: ZyxelCom_8d:62:30 (40:4a:03:8d:62:30)
    Destination: ZyxelCom_8d:62:30 (40:4a:03:8d:62:30)
        Address: ZyxelCom_8d:62:30 (40:4a:03:8d:62:30)
        .... ...0 .... .... .... .... = IG bit: Individual address (unicast)
        .... ..0. .... .... .... .... = LG bit: Globally unique address (factory default)
    Source: SonyComp_ea:13:f9 (00:19:c5:ea:13:f9)
        Address: SonyComp_ea:13:f9 (00:19:c5:ea:13:f9)
        .... ...0 .... .... .... .... = IG bit: Individual address (unicast)
        .... ..0. .... .... .... .... = LG bit: Globally unique address (factory default)
    Type: IP (0x0800)
Internet Protocol Version 4, Src: 192.168.0.71 (192.168.0.71), Dst: 85.236.101.18 (85.236.101.18)
    Version: 4
    Header length: 20 bytes
    Differentiated Services Field: 0x00 (DSCP 0x00: Default; ECN: 0x00: Not-ECT (Not ECN-Capable Transport))
        0000 00.. = Differentiated Services Codepoint: Default (0x00)
        .... ..00 = Explicit Congestion Notification: Not-ECT (Not ECN-Capable Transport) (0x00)
    Total Length: 99
    Identification: 0x01a3 (419)
    Flags: 0x00
        0... .... = Reserved bit: Not set
        .0.. .... = Don't fragment: Not set
        ..0. .... = More fragments: Not set
    Fragment offset: 0
    Time to live: 64
    Protocol: UDP (17)
    Header checksum: 0xfcf9 [correct]
        [Good: True]
        [Bad: False]
    Source: 192.168.0.71 (192.168.0.71)
    Destination: 85.236.101.18 (85.236.101.18)
User Datagram Protocol, Src Port: 64862 (64862), Dst Port: 4258 (4258)
    Source port: 64862 (64862)
    Destination port: 4258 (4258)
    Length: 79
    Checksum: 0xcef5 [validation disabled]
        [Good Checksum: False]
        [Bad Checksum: False]
Data (71 bytes)
    Data: 4500c000041501eecf36c95d68bd8c140f0d66984db1ea05...
    [Length: 71]

0000  40 4a 03 8d 62 30 00 19 c5 ea 13 f9 08 00 45 00   @J..b0........E.
0010  00 63 01 a3 00 00 40 11 fc f9 c0 a8 00 47 55 ec   .c....@......GU.
0020  65 12 fd 5e 10 a2 00 4f ce f5 45 00 c0 00 04 15   e..^...O..E.....
0030  01 ee cf 36 c9 5d 68 bd 8c 14 0f 0d 66 98 4d b1   ...6.]h.....f.M.
0040  ea 05 86 ec fe 1a 6f d6 e6 2d a0 f7 4f 22 e8 3a   ......o..-..O".:
0050  af c6 3e f6 8e 48 95 59 46 47 89 4f 55 3d ac 10   ..>..H.YFG.OU=..
0060  b4 88 26 79 e0 0b 9b 8a bd c9 ab fd 33 8d e9 11   ..&y........3...
0070  ed                                                .

No.     Time                       Source                Destination           Protocol Length Info
     16 2012-10-12 15:40:55.067649 192.168.0.71          85.236.101.18         UDP      76     Source port: 64862  Destination port: 4258

Frame 16: 76 bytes on wire (608 bits), 76 bytes captured (608 bits)
    Arrival Time: Oct 12, 2012 15:40:55.067649000 GTB Standard Time
    Epoch Time: 1350045655.067649000 seconds
    [Time delta from previous captured frame: 0.096780000 seconds]
    [Time delta from previous displayed frame: 0.096780000 seconds]
    [Time since reference or first frame: 2.999363000 seconds]
    Frame Number: 16
    Frame Length: 76 bytes (608 bits)
    Capture Length: 76 bytes (608 bits)
    [Frame is marked: False]
    [Frame is ignored: False]
    [Protocols in frame: eth:ip:udp:data]
    [Coloring Rule Name: UDP]
    [Coloring Rule String: udp]
Ethernet II, Src: SonyComp_ea:13:f9 (00:19:c5:ea:13:f9), Dst: ZyxelCom_8d:62:30 (40:4a:03:8d:62:30)
    Destination: ZyxelCom_8d:62:30 (40:4a:03:8d:62:30)
        Address: ZyxelCom_8d:62:30 (40:4a:03:8d:62:30)
        .... ...0 .... .... .... .... = IG bit: Individual address (unicast)
        .... ..0. .... .... .... .... = LG bit: Globally unique address (factory default)
    Source: SonyComp_ea:13:f9 (00:19:c5:ea:13:f9)
        Address: SonyComp_ea:13:f9 (00:19:c5:ea:13:f9)
        .... ...0 .... .... .... .... = IG bit: Individual address (unicast)
        .... ..0. .... .... .... .... = LG bit: Globally unique address (factory default)
    Type: IP (0x0800)
Internet Protocol Version 4, Src: 192.168.0.71 (192.168.0.71), Dst: 85.236.101.18 (85.236.101.18)
    Version: 4
    Header length: 20 bytes
    Differentiated Services Field: 0x00 (DSCP 0x00: Default; ECN: 0x00: Not-ECT (Not ECN-Capable Transport))
        0000 00.. = Differentiated Services Codepoint: Default (0x00)
        .... ..00 = Explicit Congestion Notification: Not-ECT (Not ECN-Capable Transport) (0x00)
    Total Length: 62
    Identification: 0x01a4 (420)
    Flags: 0x00
        0... .... = Reserved bit: Not set
        .0.. .... = Don't fragment: Not set
        ..0. .... = More fragments: Not set
    Fragment offset: 0
    Time to live: 64
    Protocol: UDP (17)
    Header checksum: 0xfd1d [correct]
        [Good: True]
        [Bad: False]
    Source: 192.168.0.71 (192.168.0.71)
    Destination: 85.236.101.18 (85.236.101.18)
User Datagram Protocol, Src Port: 64862 (64862), Dst Port: 4258 (4258)
    Source port: 64862 (64862)
    Destination port: 4258 (4258)
    Length: 42
    Checksum: 0xcfda [validation disabled]
        [Good Checksum: False]
        [Bad Checksum: False]
Data (34 bytes)
    Data: 1b00a400045001000000000000010aaae697034a759ccbab...
    [Length: 34]

0000  40 4a 03 8d 62 30 00 19 c5 ea 13 f9 08 00 45 00   @J..b0........E.
0010  00 3e 01 a4 00 00 40 11 fd 1d c0 a8 00 47 55 ec   .>....@......GU.
0020  65 12 fd 5e 10 a2 00 2a cf da 1b 00 a4 00 04 50   e..^...*.......P
0030  01 00 00 00 00 00 00 01 0a aa e6 97 03 4a 75 9c   .............Ju.
0040  cb ab 4b 2d 3c f9 22 80 00 84 00 80               ..K-<.".....

No.     Time                       Source                Destination           Protocol Length Info
     17 2012-10-12 15:40:55.107538 192.168.0.71          85.236.101.18         UDP      63     Source port: 64862  Destination port: 4258

Frame 17: 63 bytes on wire (504 bits), 63 bytes captured (504 bits)
    Arrival Time: Oct 12, 2012 15:40:55.107538000 GTB Standard Time
    Epoch Time: 1350045655.107538000 seconds
    [Time delta from previous captured frame: 0.039889000 seconds]
    [Time delta from previous displayed frame: 0.039889000 seconds]
    [Time since reference or first frame: 3.039252000 seconds]
    Frame Number: 17
    Frame Length: 63 bytes (504 bits)
    Capture Length: 63 bytes (504 bits)
    [Frame is marked: False]
    [Frame is ignored: False]
    [Protocols in frame: eth:ip:udp:data]
    [Coloring Rule Name: UDP]
    [Coloring Rule String: udp]
Ethernet II, Src: SonyComp_ea:13:f9 (00:19:c5:ea:13:f9), Dst: ZyxelCom_8d:62:30 (40:4a:03:8d:62:30)
    Destination: ZyxelCom_8d:62:30 (40:4a:03:8d:62:30)
        Address: ZyxelCom_8d:62:30 (40:4a:03:8d:62:30)
        .... ...0 .... .... .... .... = IG bit: Individual address (unicast)
        .... ..0. .... .... .... .... = LG bit: Globally unique address (factory default)
    Source: SonyComp_ea:13:f9 (00:19:c5:ea:13:f9)
        Address: SonyComp_ea:13:f9 (00:19:c5:ea:13:f9)
        .... ...0 .... .... .... .... = IG bit: Individual address (unicast)
        .... ..0. .... .... .... .... = LG bit: Globally unique address (factory default)
    Type: IP (0x0800)
Internet Protocol Version 4, Src: 192.168.0.71 (192.168.0.71), Dst: 85.236.101.18 (85.236.101.18)
    Version: 4
    Header length: 20 bytes
    Differentiated Services Field: 0x00 (DSCP 0x00: Default; ECN: 0x00: Not-ECT (Not ECN-Capable Transport))
        0000 00.. = Differentiated Services Codepoint: Default (0x00)
        .... ..00 = Explicit Congestion Notification: Not-ECT (Not ECN-Capable Transport) (0x00)
    Total Length: 49
    Identification: 0x01a5 (421)
    Flags: 0x00
        0... .... = Reserved bit: Not set
        .0.. .... = Don't fragment: Not set
        ..0. .... = More fragments: Not set
    Fragment offset: 0
    Time to live: 64
    Protocol: UDP (17)
    Header checksum: 0xfd29 [correct]
        [Good: True]
        [Bad: False]
    Source: 192.168.0.71 (192.168.0.71)
    Destination: 85.236.101.18 (85.236.101.18)
User Datagram Protocol, Src Port: 64862 (64862), Dst Port: 4258 (4258)
    Source port: 64862 (64862)
    Destination port: 4258 (4258)
    Length: 29
    Checksum: 0x7c5e [validation disabled]
        [Good Checksum: False]
        [Bad Checksum: False]
Data (21 bytes)
    Data: 13000800045002000000000000fb2eca34567afaf9
    [Length: 21]

0000  40 4a 03 8d 62 30 00 19 c5 ea 13 f9 08 00 45 00   @J..b0........E.
0010  00 31 01 a5 00 00 40 11 fd 29 c0 a8 00 47 55 ec   .1....@..)...GU.
0020  65 12 fd 5e 10 a2 00 1d 7c 5e 13 00 08 00 04 50   e..^....|^.....P
0030  02 00 00 00 00 00 00 fb 2e ca 34 56 7a fa f9      ..........4Vz..

No.     Time                       Source                Destination           Protocol Length Info
     18 2012-10-12 15:40:55.147250 192.168.0.71          85.236.101.18         UDP      79     Source port: 64862  Destination port: 4258

Frame 18: 79 bytes on wire (632 bits), 79 bytes captured (632 bits)
    Arrival Time: Oct 12, 2012 15:40:55.147250000 GTB Standard Time
    Epoch Time: 1350045655.147250000 seconds
    [Time delta from previous captured frame: 0.039712000 seconds]
    [Time delta from previous displayed frame: 0.039712000 seconds]
    [Time since reference or first frame: 3.078964000 seconds]
    Frame Number: 18
    Frame Length: 79 bytes (632 bits)
    Capture Length: 79 bytes (632 bits)
    [Frame is marked: False]
    [Frame is ignored: False]
    [Protocols in frame: eth:ip:udp:data]
    [Coloring Rule Name: UDP]
    [Coloring Rule String: udp]
Ethernet II, Src: SonyComp_ea:13:f9 (00:19:c5:ea:13:f9), Dst: ZyxelCom_8d:62:30 (40:4a:03:8d:62:30)
    Destination: ZyxelCom_8d:62:30 (40:4a:03:8d:62:30)
        Address: ZyxelCom_8d:62:30 (40:4a:03:8d:62:30)
        .... ...0 .... .... .... .... = IG bit: Individual address (unicast)
        .... ..0. .... .... .... .... = LG bit: Globally unique address (factory default)
    Source: SonyComp_ea:13:f9 (00:19:c5:ea:13:f9)
        Address: SonyComp_ea:13:f9 (00:19:c5:ea:13:f9)
        .... ...0 .... .... .... .... = IG bit: Individual address (unicast)
        .... ..0. .... .... .... .... = LG bit: Globally unique address (factory default)
    Type: IP (0x0800)
Internet Protocol Version 4, Src: 192.168.0.71 (192.168.0.71), Dst: 85.236.101.18 (85.236.101.18)
    Version: 4
    Header length: 20 bytes
    Differentiated Services Field: 0x00 (DSCP 0x00: Default; ECN: 0x00: Not-ECT (Not ECN-Capable Transport))
        0000 00.. = Differentiated Services Codepoint: Default (0x00)
        .... ..00 = Explicit Congestion Notification: Not-ECT (Not ECN-Capable Transport) (0x00)
    Total Length: 65
    Identification: 0x01a6 (422)
    Flags: 0x00
        0... .... = Reserved bit: Not set
        .0.. .... = Don't fragment: Not set
        ..0. .... = More fragments: Not set
    Fragment offset: 0
    Time to live: 64
    Protocol: UDP (17)
    Header checksum: 0xfd18 [correct]
        [Good: True]
        [Bad: False]
    Source: 192.168.0.71 (192.168.0.71)
    Destination: 85.236.101.18 (85.236.101.18)
User Datagram Protocol, Src Port: 64862 (64862), Dst Port: 4258 (4258)
    Source port: 64862 (64862)
    Destination port: 4258 (4258)
    Length: 45
    Checksum: 0x0e41 [validation disabled]
        [Good Checksum: False]
        [Bad Checksum: False]
Data (37 bytes)
    Data: 2300b000045003000000000000f9b321173fd649e0a2aad4...
    [Length: 37]

0000  40 4a 03 8d 62 30 00 19 c5 ea 13 f9 08 00 45 00   @J..b0........E.
0010  00 41 01 a6 00 00 40 11 fd 18 c0 a8 00 47 55 ec   .A....@......GU.
0020  65 12 fd 5e 10 a2 00 2d 0e 41 23 00 b0 00 04 50   e..^...-.A#....P
0030  03 00 00 00 00 00 00 f9 b3 21 17 3f d6 49 e0 a2   .........!.?.I..
0040  aa d4 11 b1 56 80 a2 8f 3f 29 67 f3 b4 19 fa      ....V...?)g....

No.     Time                       Source                Destination           Protocol Length Info
     19 2012-10-12 15:40:55.147962 192.168.0.71          69.10.30.242          TCP      180    60057 > 29900 [PSH, ACK] Seq=1 Ack=1 Win=17520 Len=114 TSval=1180 TSecr=26960860

Frame 19: 180 bytes on wire (1440 bits), 180 bytes captured (1440 bits)
    Arrival Time: Oct 12, 2012 15:40:55.147962000 GTB Standard Time
    Epoch Time: 1350045655.147962000 seconds
    [Time delta from previous captured frame: 0.000712000 seconds]
    [Time delta from previous displayed frame: 0.000712000 seconds]
    [Time since reference or first frame: 3.079676000 seconds]
    Frame Number: 19
    Frame Length: 180 bytes (1440 bits)
    Capture Length: 180 bytes (1440 bits)
    [Frame is marked: False]
    [Frame is ignored: False]
    [Protocols in frame: eth:ip:tcp:data]
    [Coloring Rule Name: TCP]
    [Coloring Rule String: tcp]
Ethernet II, Src: SonyComp_ea:13:f9 (00:19:c5:ea:13:f9), Dst: ZyxelCom_8d:62:30 (40:4a:03:8d:62:30)
    Destination: ZyxelCom_8d:62:30 (40:4a:03:8d:62:30)
        Address: ZyxelCom_8d:62:30 (40:4a:03:8d:62:30)
        .... ...0 .... .... .... .... = IG bit: Individual address (unicast)
        .... ..0. .... .... .... .... = LG bit: Globally unique address (factory default)
    Source: SonyComp_ea:13:f9 (00:19:c5:ea:13:f9)
        Address: SonyComp_ea:13:f9 (00:19:c5:ea:13:f9)
        .... ...0 .... .... .... .... = IG bit: Individual address (unicast)
        .... ..0. .... .... .... .... = LG bit: Globally unique address (factory default)
    Type: IP (0x0800)
Internet Protocol Version 4, Src: 192.168.0.71 (192.168.0.71), Dst: 69.10.30.242 (69.10.30.242)
    Version: 4
    Header length: 20 bytes
    Differentiated Services Field: 0x00 (DSCP 0x00: Default; ECN: 0x00: Not-ECT (Not ECN-Capable Transport))
        0000 00.. = Differentiated Services Codepoint: Default (0x00)
        .... ..00 = Explicit Congestion Notification: Not-ECT (Not ECN-Capable Transport) (0x00)
    Total Length: 166
    Identification: 0x01a7 (423)
    Flags: 0x02 (Don't Fragment)
        0... .... = Reserved bit: Not set
        .1.. .... = Don't fragment: Set
        ..0. .... = More fragments: Not set
    Fragment offset: 0
    Time to live: 64
    Protocol: TCP (6)
    Header checksum: 0x13c0 [correct]
        [Good: True]
        [Bad: False]
    Source: 192.168.0.71 (192.168.0.71)
    Destination: 69.10.30.242 (69.10.30.242)
Transmission Control Protocol, Src Port: 60057 (60057), Dst Port: 29900 (29900), Seq: 1, Ack: 1, Len: 114
    Source port: 60057 (60057)
    Destination port: 29900 (29900)
    [Stream index: 9]
    Sequence number: 1    (relative sequence number)
    [Next sequence number: 115    (relative sequence number)]
    Acknowledgement number: 1    (relative ack number)
    Header length: 32 bytes
    Flags: 0x018 (PSH, ACK)
        000. .... .... = Reserved: Not set
        ...0 .... .... = Nonce: Not set
        .... 0... .... = Congestion Window Reduced (CWR): Not set
        .... .0.. .... = ECN-Echo: Not set
        .... ..0. .... = Urgent: Not set
        .... ...1 .... = Acknowledgement: Set
        .... .... 1... = Push: Set
        .... .... .0.. = Reset: Not set
        .... .... ..0. = Syn: Not set
        .... .... ...0 = Fin: Not set
    Window size value: 17520
    [Calculated window size: 17520]
    [Window size scaling factor: -1 (unknown)]
    Checksum: 0xdfd9 [validation disabled]
        [Good Checksum: False]
        [Bad Checksum: False]
    Options: (12 bytes)
        No-Operation (NOP)
        No-Operation (NOP)
        Timestamps: TSval 1180, TSecr 26960860
            Kind: Timestamp (8)
            Length: 10
            Timestamp value: 1180
            Timestamp echo reply: 26960860
    [SEQ/ACK analysis]
        [Bytes in flight: 114]
Data (114 bytes)
    Data: 5c7374617475735c325c736573736b65795c313033303539...
    [Length: 114]

0000  40 4a 03 8d 62 30 00 19 c5 ea 13 f9 08 00 45 00   @J..b0........E.
0010  00 a6 01 a7 40 00 40 06 13 c0 c0 a8 00 47 45 0a   ....@.@......GE.
0020  1e f2 ea 99 74 cc a7 4c e2 71 ff f6 3e ee 80 18   ....t..L.q..>...
0030  44 70 df d9 00 00 01 01 08 0a 00 00 04 9c 01 9b   Dp..............
0040  63 dc 5c 73 74 61 74 75 73 5c 32 5c 73 65 73 73   c.\status\2\sess
0050  6b 65 79 5c 31 30 33 30 35 39 30 35 37 5c 73 74   key\103059057\st
0060  61 74 73 74 72 69 6e 67 5c 50 6c 61 79 69 6e 67   atstring\Playing
0070  5c 6c 6f 63 73 74 72 69 6e 67 5c 62 66 69 65 6c   \locstring\bfiel
0080  64 31 39 34 32 70 73 32 3a 2f 4d 75 6c 74 69 70   d1942ps2:/Multip
0090  6c 61 79 20 50 75 62 20 31 34 40 38 35 2e 32 33   lay Pub 14@85.23
00a0  36 2e 31 30 31 2e 31 38 3a 34 32 36 38 5c 66 69   6.101.18:4268\fi
00b0  6e 61 6c 5c                                       nal\

No.     Time                       Source                Destination           Protocol Length Info
     20 2012-10-12 15:40:55.148425 192.168.0.71          85.236.101.18         UDP      79     Source port: 64862  Destination port: 4258

Frame 20: 79 bytes on wire (632 bits), 79 bytes captured (632 bits)
    Arrival Time: Oct 12, 2012 15:40:55.148425000 GTB Standard Time
    Epoch Time: 1350045655.148425000 seconds
    [Time delta from previous captured frame: 0.000463000 seconds]
    [Time delta from previous displayed frame: 0.000463000 seconds]
    [Time since reference or first frame: 3.080139000 seconds]
    Frame Number: 20
    Frame Length: 79 bytes (632 bits)
    Capture Length: 79 bytes (632 bits)
    [Frame is marked: False]
    [Frame is ignored: False]
    [Protocols in frame: eth:ip:udp:data]
    [Coloring Rule Name: UDP]
    [Coloring Rule String: udp]
Ethernet II, Src: SonyComp_ea:13:f9 (00:19:c5:ea:13:f9), Dst: ZyxelCom_8d:62:30 (40:4a:03:8d:62:30)
    Destination: ZyxelCom_8d:62:30 (40:4a:03:8d:62:30)
        Address: ZyxelCom_8d:62:30 (40:4a:03:8d:62:30)
        .... ...0 .... .... .... .... = IG bit: Individual address (unicast)
        .... ..0. .... .... .... .... = LG bit: Globally unique address (factory default)
    Source: SonyComp_ea:13:f9 (00:19:c5:ea:13:f9)
        Address: SonyComp_ea:13:f9 (00:19:c5:ea:13:f9)
        .... ...0 .... .... .... .... = IG bit: Individual address (unicast)
        .... ..0. .... .... .... .... = LG bit: Globally unique address (factory default)
    Type: IP (0x0800)
Internet Protocol Version 4, Src: 192.168.0.71 (192.168.0.71), Dst: 85.236.101.18 (85.236.101.18)
    Version: 4
    Header length: 20 bytes
    Differentiated Services Field: 0x00 (DSCP 0x00: Default; ECN: 0x00: Not-ECT (Not ECN-Capable Transport))
        0000 00.. = Differentiated Services Codepoint: Default (0x00)
        .... ..00 = Explicit Congestion Notification: Not-ECT (Not ECN-Capable Transport) (0x00)
    Total Length: 65
    Identification: 0x01a8 (424)
    Flags: 0x00
        0... .... = Reserved bit: Not set
        .0.. .... = Don't fragment: Not set
        ..0. .... = More fragments: Not set
    Fragment offset: 0
    Time to live: 64
    Protocol: UDP (17)
    Header checksum: 0xfd16 [correct]
        [Good: True]
        [Bad: False]
    Source: 192.168.0.71 (192.168.0.71)
    Destination: 85.236.101.18 (85.236.101.18)
User Datagram Protocol, Src Port: 64862 (64862), Dst Port: 4258 (4258)
    Source port: 64862 (64862)
    Destination port: 4258 (4258)
    Length: 45
    Checksum: 0xed38 [validation disabled]
        [Good Checksum: False]
        [Bad Checksum: False]
Data (37 bytes)
    Data: 230018000450040080000000c079c451c2082e11e2f65039...
    [Length: 37]

0000  40 4a 03 8d 62 30 00 19 c5 ea 13 f9 08 00 45 00   @J..b0........E.
0010  00 41 01 a8 00 00 40 11 fd 16 c0 a8 00 47 55 ec   .A....@......GU.
0020  65 12 fd 5e 10 a2 00 2d ed 38 23 00 18 00 04 50   e..^...-.8#....P
0030  04 00 80 00 00 00 c0 79 c4 51 c2 08 2e 11 e2 f6   .......y.Q......
0040  50 39 a1 a2 67 cc 7f ad 78 e8 8a 0c 03 f4 8d      P9..g...x......

No.     Time                       Source                Destination           Protocol Length Info
     21 2012-10-12 15:40:55.187469 192.168.0.71          85.236.101.18         UDP      63     Source port: 64862  Destination port: 4258

Frame 21: 63 bytes on wire (504 bits), 63 bytes captured (504 bits)
    Arrival Time: Oct 12, 2012 15:40:55.187469000 GTB Standard Time
    Epoch Time: 1350045655.187469000 seconds
    [Time delta from previous captured frame: 0.039044000 seconds]
    [Time delta from previous displayed frame: 0.039044000 seconds]
    [Time since reference or first frame: 3.119183000 seconds]
    Frame Number: 21
    Frame Length: 63 bytes (504 bits)
    Capture Length: 63 bytes (504 bits)
    [Frame is marked: False]
    [Frame is ignored: False]
    [Protocols in frame: eth:ip:udp:data]
    [Coloring Rule Name: UDP]
    [Coloring Rule String: udp]
Ethernet II, Src: SonyComp_ea:13:f9 (00:19:c5:ea:13:f9), Dst: ZyxelCom_8d:62:30 (40:4a:03:8d:62:30)
    Destination: ZyxelCom_8d:62:30 (40:4a:03:8d:62:30)
        Address: ZyxelCom_8d:62:30 (40:4a:03:8d:62:30)
        .... ...0 .... .... .... .... = IG bit: Individual address (unicast)
        .... ..0. .... .... .... .... = LG bit: Globally unique address (factory default)
    Source: SonyComp_ea:13:f9 (00:19:c5:ea:13:f9)
        Address: SonyComp_ea:13:f9 (00:19:c5:ea:13:f9)
        .... ...0 .... .... .... .... = IG bit: Individual address (unicast)
        .... ..0. .... .... .... .... = LG bit: Globally unique address (factory default)
    Type: IP (0x0800)
Internet Protocol Version 4, Src: 192.168.0.71 (192.168.0.71), Dst: 85.236.101.18 (85.236.101.18)
    Version: 4
    Header length: 20 bytes
    Differentiated Services Field: 0x00 (DSCP 0x00: Default; ECN: 0x00: Not-ECT (Not ECN-Capable Transport))
        0000 00.. = Differentiated Services Codepoint: Default (0x00)
        .... ..00 = Explicit Congestion Notification: Not-ECT (Not ECN-Capable Transport) (0x00)
    Total Length: 49
    Identification: 0x01a9 (425)
    Flags: 0x00
        0... .... = Reserved bit: Not set
        .0.. .... = Don't fragment: Not set
        ..0. .... = More fragments: Not set
    Fragment offset: 0
    Time to live: 64
    Protocol: UDP (17)
    Header checksum: 0xfd25 [correct]
        [Good: True]
        [Bad: False]
    Source: 192.168.0.71 (192.168.0.71)
    Destination: 85.236.101.18 (85.236.101.18)
User Datagram Protocol, Src Port: 64862 (64862), Dst Port: 4258 (4258)
    Source port: 64862 (64862)
    Destination port: 4258 (4258)
    Length: 29
    Checksum: 0x4eda [validation disabled]
        [Good Checksum: False]
        [Bad Checksum: False]
Data (21 bytes)
    Data: 13000c000450050080000000c0ef32d9fc1f7ab114
    [Length: 21]

0000  40 4a 03 8d 62 30 00 19 c5 ea 13 f9 08 00 45 00   @J..b0........E.
0010  00 31 01 a9 00 00 40 11 fd 25 c0 a8 00 47 55 ec   .1....@..%...GU.
0020  65 12 fd 5e 10 a2 00 1d 4e da 13 00 0c 00 04 50   e..^....N......P
0030  05 00 80 00 00 00 c0 ef 32 d9 fc 1f 7a b1 14      ........2...z..

No.     Time                       Source                Destination           Protocol Length Info
     22 2012-10-12 15:40:58.207407 192.168.0.71          85.236.101.18         UDP      71     Source port: 64862  Destination port: 4258

Frame 22: 71 bytes on wire (568 bits), 71 bytes captured (568 bits)
    Arrival Time: Oct 12, 2012 15:40:58.207407000 GTB Standard Time
    Epoch Time: 1350045658.207407000 seconds
    [Time delta from previous captured frame: 3.019938000 seconds]
    [Time delta from previous displayed frame: 3.019938000 seconds]
    [Time since reference or first frame: 6.139121000 seconds]
    Frame Number: 22
    Frame Length: 71 bytes (568 bits)
    Capture Length: 71 bytes (568 bits)
    [Frame is marked: False]
    [Frame is ignored: False]
    [Protocols in frame: eth:ip:udp:data]
    [Coloring Rule Name: UDP]
    [Coloring Rule String: udp]
Ethernet II, Src: SonyComp_ea:13:f9 (00:19:c5:ea:13:f9), Dst: ZyxelCom_8d:62:30 (40:4a:03:8d:62:30)
    Destination: ZyxelCom_8d:62:30 (40:4a:03:8d:62:30)
        Address: ZyxelCom_8d:62:30 (40:4a:03:8d:62:30)
        .... ...0 .... .... .... .... = IG bit: Individual address (unicast)
        .... ..0. .... .... .... .... = LG bit: Globally unique address (factory default)
    Source: SonyComp_ea:13:f9 (00:19:c5:ea:13:f9)
        Address: SonyComp_ea:13:f9 (00:19:c5:ea:13:f9)
        .... ...0 .... .... .... .... = IG bit: Individual address (unicast)
        .... ..0. .... .... .... .... = LG bit: Globally unique address (factory default)
    Type: IP (0x0800)
Internet Protocol Version 4, Src: 192.168.0.71 (192.168.0.71), Dst: 85.236.101.18 (85.236.101.18)
    Version: 4
    Header length: 20 bytes
    Differentiated Services Field: 0x00 (DSCP 0x00: Default; ECN: 0x00: Not-ECT (Not ECN-Capable Transport))
        0000 00.. = Differentiated Services Codepoint: Default (0x00)
        .... ..00 = Explicit Congestion Notification: Not-ECT (Not ECN-Capable Transport) (0x00)
    Total Length: 57
    Identification: 0x01aa (426)
    Flags: 0x00
        0... .... = Reserved bit: Not set
        .0.. .... = Don't fragment: Not set
        ..0. .... = More fragments: Not set
    Fragment offset: 0
    Time to live: 64
    Protocol: UDP (17)
    Header checksum: 0xfd1c [correct]
        [Good: True]
        [Bad: False]
    Source: 192.168.0.71 (192.168.0.71)
    Destination: 85.236.101.18 (85.236.101.18)
User Datagram Protocol, Src Port: 64862 (64862), Dst Port: 4258 (4258)
    Source port: 64862 (64862)
    Destination port: 4258 (4258)
    Length: 37
    Checksum: 0x7fd2 [validation disabled]
        [Good Checksum: False]
        [Bad Checksum: False]
Data (29 bytes)
    Data: 1b00ac0004500608bfffffffc02f88596c92739b2a657fdd...
    [Length: 29]

0000  40 4a 03 8d 62 30 00 19 c5 ea 13 f9 08 00 45 00   @J..b0........E.
0010  00 39 01 aa 00 00 40 11 fd 1c c0 a8 00 47 55 ec   .9....@......GU.
0020  65 12 fd 5e 10 a2 00 25 7f d2 1b 00 ac 00 04 50   e..^...%.......P
0030  06 08 bf ff ff ff c0 2f 88 59 6c 92 73 9b 2a 65   ......./.Yl.s.*e
0040  7f dd e8 37 71 58 38                              ...7qX8

No.     Time                       Source                Destination           Protocol Length Info
     23 2012-10-12 15:40:58.227218 192.168.0.71          85.236.101.18         UDP      71     Source port: 64862  Destination port: 4258

Frame 23: 71 bytes on wire (568 bits), 71 bytes captured (568 bits)
    Arrival Time: Oct 12, 2012 15:40:58.227218000 GTB Standard Time
    Epoch Time: 1350045658.227218000 seconds
    [Time delta from previous captured frame: 0.019811000 seconds]
    [Time delta from previous displayed frame: 0.019811000 seconds]
    [Time since reference or first frame: 6.158932000 seconds]
    Frame Number: 23
    Frame Length: 71 bytes (568 bits)
    Capture Length: 71 bytes (568 bits)
    [Frame is marked: False]
    [Frame is ignored: False]
    [Protocols in frame: eth:ip:udp:data]
Ethernet II, Src: SonyComp_ea:13:f9 (00:19:c5:ea:13:f9), Dst: ZyxelCom_8d:62:30 (40:4a:03:8d:62:30)
    Destination: ZyxelCom_8d:62:30 (40:4a:03:8d:62:30)
        Address: ZyxelCom_8d:62:30 (40:4a:03:8d:62:30)
        .... ...0 .... .... .... .... = IG bit: Individual address (unicast)
        .... ..0. .... .... .... .... = LG bit: Globally unique address (factory default)
    Source: SonyComp_ea:13:f9 (00:19:c5:ea:13:f9)
        Address: SonyComp_ea:13:f9 (00:19:c5:ea:13:f9)
        .... ...0 .... .... .... .... = IG bit: Individual address (unicast)
        .... ..0. .... .... .... .... = LG bit: Globally unique address (factory default)
    Type: IP (0x0800)
Internet Protocol Version 4, Src: 192.168.0.71 (192.168.0.71), Dst: 85.236.101.18 (85.236.101.18)
    Version: 4
    Header length: 20 bytes
    Differentiated Services Field: 0x00 (DSCP 0x00: Default; ECN: 0x00: Not-ECT (Not ECN-Capable Transport))
        0000 00.. = Differentiated Services Codepoint: Default (0x00)
        .... ..00 = Explicit Congestion Notification: Not-ECT (Not ECN-Capable Transport) (0x00)
    Total Length: 57
    Identification: 0x01ab (427)
    Flags: 0x00
        0... .... = Reserved bit: Not set
        .0.. .... = Don't fragment: Not set
        ..0. .... = More fragments: Not set
    Fragment offset: 0
    Time to live: 64
    Protocol: UDP (17)
    Header checksum: 0xfd1b [correct]
        [Good: True]
        [Bad: False]
    Source: 192.168.0.71 (192.168.0.71)
    Destination: 85.236.101.18 (85.236.101.18)
User Datagram Protocol, Src Port: 64862 (64862), Dst Port: 4258 (4258)
    Source port: 64862 (64862)
    Destination port: 4258 (4258)
    Length: 37
    Checksum: 0x7087 [validation disabled]
        [Good Checksum: False]
        [Bad Checksum: False]
Data (29 bytes)
    Data: 1b00ac0004500708bfffffffc0f6180bf1dc7a239e7e0737...
    [Length: 29]

0000  40 4a 03 8d 62 30 00 19 c5 ea 13 f9 08 00 45 00   @J..b0........E.
0010  00 39 01 ab 00 00 40 11 fd 1b c0 a8 00 47 55 ec   .9....@......GU.
0020  65 12 fd 5e 10 a2 00 25 70 87 1b 00 ac 00 04 50   e..^...%p......P
0030  07 08 bf ff ff ff c0 f6 18 0b f1 dc 7a 23 9e 7e   ............z#.~
0040  07 37 f6 20 02 fc 8f                              .7. ...

No.     Time                       Source                Destination           Protocol Length Info
     24 2012-10-12 15:40:58.247339 192.168.0.71          85.236.101.18         UDP      71     Source port: 64862  Destination port: 4258

Frame 24: 71 bytes on wire (568 bits), 71 bytes captured (568 bits)
    Arrival Time: Oct 12, 2012 15:40:58.247339000 GTB Standard Time
    Epoch Time: 1350045658.247339000 seconds
    [Time delta from previous captured frame: 0.020121000 seconds]
    [Time delta from previous displayed frame: 0.020121000 seconds]
    [Time since reference or first frame: 6.179053000 seconds]
    Frame Number: 24
    Frame Length: 71 bytes (568 bits)
    Capture Length: 71 bytes (568 bits)
    [Frame is marked: False]
    [Frame is ignored: False]
    [Protocols in frame: eth:ip:udp:data]
Ethernet II, Src: SonyComp_ea:13:f9 (00:19:c5:ea:13:f9), Dst: ZyxelCom_8d:62:30 (40:4a:03:8d:62:30)
    Destination: ZyxelCom_8d:62:30 (40:4a:03:8d:62:30)
        Address: ZyxelCom_8d:62:30 (40:4a:03:8d:62:30)
        .... ...0 .... .... .... .... = IG bit: Individual address (unicast)
        .... ..0. .... .... .... .... = LG bit: Globally unique address (factory default)
    Source: SonyComp_ea:13:f9 (00:19:c5:ea:13:f9)
        Address: SonyComp_ea:13:f9 (00:19:c5:ea:13:f9)
        .... ...0 .... .... .... .... = IG bit: Individual address (unicast)
        .... ..0. .... .... .... .... = LG bit: Globally unique address (factory default)
    Type: IP (0x0800)
Internet Protocol Version 4, Src: 192.168.0.71 (192.168.0.71), Dst: 85.236.101.18 (85.236.101.18)
    Version: 4
    Header length: 20 bytes
    Differentiated Services Field: 0x00 (DSCP 0x00: Default; ECN: 0x00: Not-ECT (Not ECN-Capable Transport))
        0000 00.. = Differentiated Services Codepoint: Default (0x00)
        .... ..00 = Explicit Congestion Notification: Not-ECT (Not ECN-Capable Transport) (0x00)
    Total Length: 57
    Identification: 0x01ac (428)
    Flags: 0x00
        0... .... = Reserved bit: Not set
        .0.. .... = Don't fragment: Not set
        ..0. .... = More fragments: Not set
    Fragment offset: 0
    Time to live: 64
    Protocol: UDP (17)
    Header checksum: 0xfd1a [correct]
        [Good: True]
        [Bad: False]
    Source: 192.168.0.71 (192.168.0.71)
    Destination: 85.236.101.18 (85.236.101.18)
User Datagram Protocol, Src Port: 64862 (64862), Dst Port: 4258 (4258)
    Source port: 64862 (64862)
    Destination port: 4258 (4258)
    Length: 37
    Checksum: 0x801d [validation disabled]
        [Good Checksum: False]
        [Bad Checksum: False]
Data (29 bytes)
    Data: 1b00ac0004500808bfffffffc02ec2d2b51a1c452d014b7a...
    [Length: 29]

0000  40 4a 03 8d 62 30 00 19 c5 ea 13 f9 08 00 45 00   @J..b0........E.
0010  00 39 01 ac 00 00 40 11 fd 1a c0 a8 00 47 55 ec   .9....@......GU.
0020  65 12 fd 5e 10 a2 00 25 80 1d 1b 00 ac 00 04 50   e..^...%.......P
0030  08 08 bf ff ff ff c0 2e c2 d2 b5 1a 1c 45 2d 01   .............E-.
0040  4b 7a 49 fb 58 66 f3                              KzI.Xf.

No.     Time                       Source                Destination           Protocol Length Info
     25 2012-10-12 15:40:58.267343 192.168.0.71          85.236.101.18         UDP      71     Source port: 64862  Destination port: 4258

Frame 25: 71 bytes on wire (568 bits), 71 bytes captured (568 bits)
    Arrival Time: Oct 12, 2012 15:40:58.267343000 GTB Standard Time
    Epoch Time: 1350045658.267343000 seconds
    [Time delta from previous captured frame: 0.020004000 seconds]
    [Time delta from previous displayed frame: 0.020004000 seconds]
    [Time since reference or first frame: 6.199057000 seconds]
    Frame Number: 25
    Frame Length: 71 bytes (568 bits)
    Capture Length: 71 bytes (568 bits)
    [Frame is marked: False]
    [Frame is ignored: False]
    [Protocols in frame: eth:ip:udp:data]
Ethernet II, Src: SonyComp_ea:13:f9 (00:19:c5:ea:13:f9), Dst: ZyxelCom_8d:62:30 (40:4a:03:8d:62:30)
    Destination: ZyxelCom_8d:62:30 (40:4a:03:8d:62:30)
        Address: ZyxelCom_8d:62:30 (40:4a:03:8d:62:30)
        .... ...0 .... .... .... .... = IG bit: Individual address (unicast)
        .... ..0. .... .... .... .... = LG bit: Globally unique address (factory default)
    Source: SonyComp_ea:13:f9 (00:19:c5:ea:13:f9)
        Address: SonyComp_ea:13:f9 (00:19:c5:ea:13:f9)
        .... ...0 .... .... .... .... = IG bit: Individual address (unicast)
        .... ..0. .... .... .... .... = LG bit: Globally unique address (factory default)
    Type: IP (0x0800)
Internet Protocol Version 4, Src: 192.168.0.71 (192.168.0.71), Dst: 85.236.101.18 (85.236.101.18)
    Version: 4
    Header length: 20 bytes
    Differentiated Services Field: 0x00 (DSCP 0x00: Default; ECN: 0x00: Not-ECT (Not ECN-Capable Transport))
        0000 00.. = Differentiated Services Codepoint: Default (0x00)
        .... ..00 = Explicit Congestion Notification: Not-ECT (Not ECN-Capable Transport) (0x00)
    Total Length: 57
    Identification: 0x01ad (429)
    Flags: 0x00
        0... .... = Reserved bit: Not set
        .0.. .... = Don't fragment: Not set
        ..0. .... = More fragments: Not set
    Fragment offset: 0
    Time to live: 64
    Protocol: UDP (17)
    Header checksum: 0xfd19 [correct]
        [Good: True]
        [Bad: False]
    Source: 192.168.0.71 (192.168.0.71)
    Destination: 85.236.101.18 (85.236.101.18)
User Datagram Protocol, Src Port: 64862 (64862), Dst Port: 4258 (4258)
    Source port: 64862 (64862)
    Destination port: 4258 (4258)
    Length: 37
    Checksum: 0x9add [validation disabled]
        [Good Checksum: False]
        [Bad Checksum: False]
Data (29 bytes)
    Data: 1b00ac0004500908bfffffffc0264fe1fb4c677a1d5d3e32...
    [Length: 29]

0000  40 4a 03 8d 62 30 00 19 c5 ea 13 f9 08 00 45 00   @J..b0........E.
0010  00 39 01 ad 00 00 40 11 fd 19 c0 a8 00 47 55 ec   .9....@......GU.
0020  65 12 fd 5e 10 a2 00 25 9a dd 1b 00 ac 00 04 50   e..^...%.......P
0030  09 08 bf ff ff ff c0 26 4f e1 fb 4c 67 7a 1d 5d   .......&O..Lgz.]
0040  3e 32 b4 3b 7e e4 45                              >2.;~.E

No.     Time                       Source                Destination           Protocol Length Info
     26 2012-10-12 15:40:58.287887 192.168.0.71          85.236.101.18         UDP      71     Source port: 64862  Destination port: 4258

Frame 26: 71 bytes on wire (568 bits), 71 bytes captured (568 bits)
    Arrival Time: Oct 12, 2012 15:40:58.287887000 GTB Standard Time
    Epoch Time: 1350045658.287887000 seconds
    [Time delta from previous captured frame: 0.020544000 seconds]
    [Time delta from previous displayed frame: 0.020544000 seconds]
    [Time since reference or first frame: 6.219601000 seconds]
    Frame Number: 26
    Frame Length: 71 bytes (568 bits)
    Capture Length: 71 bytes (568 bits)
    [Frame is marked: False]
    [Frame is ignored: False]
    [Protocols in frame: eth:ip:udp:data]
Ethernet II, Src: SonyComp_ea:13:f9 (00:19:c5:ea:13:f9), Dst: ZyxelCom_8d:62:30 (40:4a:03:8d:62:30)
    Destination: ZyxelCom_8d:62:30 (40:4a:03:8d:62:30)
        Address: ZyxelCom_8d:62:30 (40:4a:03:8d:62:30)
        .... ...0 .... .... .... .... = IG bit: Individual address (unicast)
        .... ..0. .... .... .... .... = LG bit: Globally unique address (factory default)
    Source: SonyComp_ea:13:f9 (00:19:c5:ea:13:f9)
        Address: SonyComp_ea:13:f9 (00:19:c5:ea:13:f9)
        .... ...0 .... .... .... .... = IG bit: Individual address (unicast)
        .... ..0. .... .... .... .... = LG bit: Globally unique address (factory default)
    Type: IP (0x0800)
Internet Protocol Version 4, Src: 192.168.0.71 (192.168.0.71), Dst: 85.236.101.18 (85.236.101.18)
    Version: 4
    Header length: 20 bytes
    Differentiated Services Field: 0x00 (DSCP 0x00: Default; ECN: 0x00: Not-ECT (Not ECN-Capable Transport))
        0000 00.. = Differentiated Services Codepoint: Default (0x00)
        .... ..00 = Explicit Congestion Notification: Not-ECT (Not ECN-Capable Transport) (0x00)
    Total Length: 57
    Identification: 0x01ae (430)
    Flags: 0x00
        0... .... = Reserved bit: Not set
        .0.. .... = Don't fragment: Not set
        ..0. .... = More fragments: Not set
    Fragment offset: 0
    Time to live: 64
    Protocol: UDP (17)
    Header checksum: 0xfd18 [correct]
        [Good: True]
        [Bad: False]
    Source: 192.168.0.71 (192.168.0.71)
    Destination: 85.236.101.18 (85.236.101.18)
User Datagram Protocol, Src Port: 64862 (64862), Dst Port: 4258 (4258)
    Source port: 64862 (64862)
    Destination port: 4258 (4258)
    Length: 37
    Checksum: 0xd04a [validation disabled]
        [Good Checksum: False]
        [Bad Checksum: False]
Data (29 bytes)
    Data: 1b00ac0004500a093fffffffc067a1145e5726030cac9bb8...
    [Length: 29]

0000  40 4a 03 8d 62 30 00 19 c5 ea 13 f9 08 00 45 00   @J..b0........E.
0010  00 39 01 ae 00 00 40 11 fd 18 c0 a8 00 47 55 ec   .9....@......GU.
0020  65 12 fd 5e 10 a2 00 25 d0 4a 1b 00 ac 00 04 50   e..^...%.J.....P
0030  0a 09 3f ff ff ff c0 67 a1 14 5e 57 26 03 0c ac   ..?....g..^W&...
0040  9b b8 2a bb 0d 1a ca                              ..*....

No.     Time                       Source                Destination           Protocol Length Info
     27 2012-10-12 15:40:58.307324 192.168.0.71          85.236.101.18         UDP      71     Source port: 64862  Destination port: 4258

Frame 27: 71 bytes on wire (568 bits), 71 bytes captured (568 bits)
    Arrival Time: Oct 12, 2012 15:40:58.307324000 GTB Standard Time
    Epoch Time: 1350045658.307324000 seconds
    [Time delta from previous captured frame: 0.019437000 seconds]
    [Time delta from previous displayed frame: 0.019437000 seconds]
    [Time since reference or first frame: 6.239038000 seconds]
    Frame Number: 27
    Frame Length: 71 bytes (568 bits)
    Capture Length: 71 bytes (568 bits)
    [Frame is marked: False]
    [Frame is ignored: False]
    [Protocols in frame: eth:ip:udp:data]
Ethernet II, Src: SonyComp_ea:13:f9 (00:19:c5:ea:13:f9), Dst: ZyxelCom_8d:62:30 (40:4a:03:8d:62:30)
    Destination: ZyxelCom_8d:62:30 (40:4a:03:8d:62:30)
        Address: ZyxelCom_8d:62:30 (40:4a:03:8d:62:30)
        .... ...0 .... .... .... .... = IG bit: Individual address (unicast)
        .... ..0. .... .... .... .... = LG bit: Globally unique address (factory default)
    Source: SonyComp_ea:13:f9 (00:19:c5:ea:13:f9)
        Address: SonyComp_ea:13:f9 (00:19:c5:ea:13:f9)
        .... ...0 .... .... .... .... = IG bit: Individual address (unicast)
        .... ..0. .... .... .... .... = LG bit: Globally unique address (factory default)
    Type: IP (0x0800)
Internet Protocol Version 4, Src: 192.168.0.71 (192.168.0.71), Dst: 85.236.101.18 (85.236.101.18)
    Version: 4
    Header length: 20 bytes
    Differentiated Services Field: 0x00 (DSCP 0x00: Default; ECN: 0x00: Not-ECT (Not ECN-Capable Transport))
        0000 00.. = Differentiated Services Codepoint: Default (0x00)
        .... ..00 = Explicit Congestion Notification: Not-ECT (Not ECN-Capable Transport) (0x00)
    Total Length: 57
    Identification: 0x01af (431)
    Flags: 0x00
        0... .... = Reserved bit: Not set
        .0.. .... = Don't fragment: Not set
        ..0. .... = More fragments: Not set
    Fragment offset: 0
    Time to live: 64
    Protocol: UDP (17)
    Header checksum: 0xfd17 [correct]
        [Good: True]
        [Bad: False]
    Source: 192.168.0.71 (192.168.0.71)
    Destination: 85.236.101.18 (85.236.101.18)
User Datagram Protocol, Src Port: 64862 (64862), Dst Port: 4258 (4258)
    Source port: 64862 (64862)
    Destination port: 4258 (4258)
    Length: 37
    Checksum: 0x5656 [validation disabled]
        [Good Checksum: False]
        [Bad Checksum: False]
Data (29 bytes)
    Data: 1b00ac0004500b093fffffffc0a7e82c628ef0c7e4cf562f...
    [Length: 29]

0000  40 4a 03 8d 62 30 00 19 c5 ea 13 f9 08 00 45 00   @J..b0........E.
0010  00 39 01 af 00 00 40 11 fd 17 c0 a8 00 47 55 ec   .9....@......GU.
0020  65 12 fd 5e 10 a2 00 25 56 56 1b 00 ac 00 04 50   e..^...%VV.....P
0030  0b 09 3f ff ff ff c0 a7 e8 2c 62 8e f0 c7 e4 cf   ..?......,b.....
0040  56 2f 7d 97 ca 43 8a                              V/}..C.

No.     Time                       Source                Destination           Protocol Length Info
     28 2012-10-12 15:40:58.327637 192.168.0.71          85.236.101.18         UDP      71     Source port: 64862  Destination port: 4258

Frame 28: 71 bytes on wire (568 bits), 71 bytes captured (568 bits)
    Arrival Time: Oct 12, 2012 15:40:58.327637000 GTB Standard Time
    Epoch Time: 1350045658.327637000 seconds
    [Time delta from previous captured frame: 0.020313000 seconds]
    [Time delta from previous displayed frame: 0.020313000 seconds]
    [Time since reference or first frame: 6.259351000 seconds]
    Frame Number: 28
    Frame Length: 71 bytes (568 bits)
    Capture Length: 71 bytes (568 bits)
    [Frame is marked: False]
    [Frame is ignored: False]
    [Protocols in frame: eth:ip:udp:data]
Ethernet II, Src: SonyComp_ea:13:f9 (00:19:c5:ea:13:f9), Dst: ZyxelCom_8d:62:30 (40:4a:03:8d:62:30)
    Destination: ZyxelCom_8d:62:30 (40:4a:03:8d:62:30)
        Address: ZyxelCom_8d:62:30 (40:4a:03:8d:62:30)
        .... ...0 .... .... .... .... = IG bit: Individual address (unicast)
        .... ..0. .... .... .... .... = LG bit: Globally unique address (factory default)
    Source: SonyComp_ea:13:f9 (00:19:c5:ea:13:f9)
        Address: SonyComp_ea:13:f9 (00:19:c5:ea:13:f9)
        .... ...0 .... .... .... .... = IG bit: Individual address (unicast)
        .... ..0. .... .... .... .... = LG bit: Globally unique address (factory default)
    Type: IP (0x0800)
Internet Protocol Version 4, Src: 192.168.0.71 (192.168.0.71), Dst: 85.236.101.18 (85.236.101.18)
    Version: 4
    Header length: 20 bytes
    Differentiated Services Field: 0x00 (DSCP 0x00: Default; ECN: 0x00: Not-ECT (Not ECN-Capable Transport))
        0000 00.. = Differentiated Services Codepoint: Default (0x00)
        .... ..00 = Explicit Congestion Notification: Not-ECT (Not ECN-Capable Transport) (0x00)
    Total Length: 57
    Identification: 0x01b0 (432)
    Flags: 0x00
        0... .... = Reserved bit: Not set
        .0.. .... = Don't fragment: Not set
        ..0. .... = More fragments: Not set
    Fragment offset: 0
    Time to live: 64
    Protocol: UDP (17)
    Header checksum: 0xfd16 [correct]
        [Good: True]
        [Bad: False]
    Source: 192.168.0.71 (192.168.0.71)
    Destination: 85.236.101.18 (85.236.101.18)
User Datagram Protocol, Src Port: 64862 (64862), Dst Port: 4258 (4258)
    Source port: 64862 (64862)
    Destination port: 4258 (4258)
    Length: 37
    Checksum: 0x5def [validation disabled]
        [Good Checksum: False]
        [Bad Checksum: False]
Data (29 bytes)
    Data: 1b00ac0004500c097fffffffc08ff01bc880804e21a38221...
    [Length: 29]

0000  40 4a 03 8d 62 30 00 19 c5 ea 13 f9 08 00 45 00   @J..b0........E.
0010  00 39 01 b0 00 00 40 11 fd 16 c0 a8 00 47 55 ec   .9....@......GU.
0020  65 12 fd 5e 10 a2 00 25 5d ef 1b 00 ac 00 04 50   e..^...%]......P
0030  0c 09 7f ff ff ff c0 8f f0 1b c8 80 80 4e 21 a3   .............N!.
0040  82 21 68 b3 2d 79 8d                              .!h.-y.

No.     Time                       Source                Destination           Protocol Length Info
     29 2012-10-12 15:40:58.347659 192.168.0.71          85.236.101.18         UDP      71     Source port: 64862  Destination port: 4258

Frame 29: 71 bytes on wire (568 bits), 71 bytes captured (568 bits)
    Arrival Time: Oct 12, 2012 15:40:58.347659000 GTB Standard Time
    Epoch Time: 1350045658.347659000 seconds
    [Time delta from previous captured frame: 0.020022000 seconds]
    [Time delta from previous displayed frame: 0.020022000 seconds]
    [Time since reference or first frame: 6.279373000 seconds]
    Frame Number: 29
    Frame Length: 71 bytes (568 bits)
    Capture Length: 71 bytes (568 bits)
    [Frame is marked: False]
    [Frame is ignored: False]
    [Protocols in frame: eth:ip:udp:data]
Ethernet II, Src: SonyComp_ea:13:f9 (00:19:c5:ea:13:f9), Dst: ZyxelCom_8d:62:30 (40:4a:03:8d:62:30)
    Destination: ZyxelCom_8d:62:30 (40:4a:03:8d:62:30)
        Address: ZyxelCom_8d:62:30 (40:4a:03:8d:62:30)
        .... ...0 .... .... .... .... = IG bit: Individual address (unicast)
        .... ..0. .... .... .... .... = LG bit: Globally unique address (factory default)
    Source: SonyComp_ea:13:f9 (00:19:c5:ea:13:f9)
        Address: SonyComp_ea:13:f9 (00:19:c5:ea:13:f9)
        .... ...0 .... .... .... .... = IG bit: Individual address (unicast)
        .... ..0. .... .... .... .... = LG bit: Globally unique address (factory default)
    Type: IP (0x0800)
Internet Protocol Version 4, Src: 192.168.0.71 (192.168.0.71), Dst: 85.236.101.18 (85.236.101.18)
    Version: 4
    Header length: 20 bytes
    Differentiated Services Field: 0x00 (DSCP 0x00: Default; ECN: 0x00: Not-ECT (Not ECN-Capable Transport))
        0000 00.. = Differentiated Services Codepoint: Default (0x00)
        .... ..00 = Explicit Congestion Notification: Not-ECT (Not ECN-Capable Transport) (0x00)
    Total Length: 57
    Identification: 0x01b1 (433)
    Flags: 0x00
        0... .... = Reserved bit: Not set
        .0.. .... = Don't fragment: Not set
        ..0. .... = More fragments: Not set
    Fragment offset: 0
    Time to live: 64
    Protocol: UDP (17)
    Header checksum: 0xfd15 [correct]
        [Good: True]
        [Bad: False]
    Source: 192.168.0.71 (192.168.0.71)
    Destination: 85.236.101.18 (85.236.101.18)
User Datagram Protocol, Src Port: 64862 (64862), Dst Port: 4258 (4258)
    Source port: 64862 (64862)
    Destination port: 4258 (4258)
    Length: 37
    Checksum: 0x1d70 [validation disabled]
        [Good Checksum: False]
        [Bad Checksum: False]
Data (29 bytes)
    Data: 1b00ac0004500d09ffffffffc0d9ee618b5aae8d73af5fbf...
    [Length: 29]

0000  40 4a 03 8d 62 30 00 19 c5 ea 13 f9 08 00 45 00   @J..b0........E.
0010  00 39 01 b1 00 00 40 11 fd 15 c0 a8 00 47 55 ec   .9....@......GU.
0020  65 12 fd 5e 10 a2 00 25 1d 70 1b 00 ac 00 04 50   e..^...%.p.....P
0030  0d 09 ff ff ff ff c0 d9 ee 61 8b 5a ae 8d 73 af   .........a.Z..s.
0040  5f bf 58 1d ff 3a 6c                              _.X..:l

No.     Time                       Source                Destination           Protocol Length Info
     30 2012-10-12 15:40:58.367899 192.168.0.71          85.236.101.18         UDP      103    Source port: 64862  Destination port: 4258

Frame 30: 103 bytes on wire (824 bits), 103 bytes captured (824 bits)
    Arrival Time: Oct 12, 2012 15:40:58.367899000 GTB Standard Time
    Epoch Time: 1350045658.367899000 seconds
    [Time delta from previous captured frame: 0.020240000 seconds]
    [Time delta from previous displayed frame: 0.020240000 seconds]
    [Time since reference or first frame: 6.299613000 seconds]
