No.     Time                       Source                Destination           Protocol Length Info
      1 2012-10-11 23:31:24.544757 192.168.0.71          69.10.30.242          TCP      74     52117 > 29900 [SYN] Seq=0 Win=16384 Len=0 MSS=1460 WS=1 TSval=5590 TSecr=0

Frame 1: 74 bytes on wire (592 bits), 74 bytes captured (592 bits)
    Arrival Time: Oct 11, 2012 23:31:24.544757000 GTB Standard Time
    Epoch Time: 1349987484.544757000 seconds
    [Time delta from previous captured frame: 0.000000000 seconds]
    [Time delta from previous displayed frame: 0.000000000 seconds]
    [Time since reference or first frame: 0.000000000 seconds]
    Frame Number: 1
    Frame Length: 74 bytes (592 bits)
    Capture Length: 74 bytes (592 bits)
    [Frame is marked: False]
    [Frame is ignored: False]
    [Protocols in frame: eth:ip:tcp]
    [Coloring Rule Name: TCP SYN/FIN]
    [Coloring Rule String: tcp.flags & 0x02 || tcp.flags.fin == 1]
Ethernet II, Src: SonyComp_ea:13:f9 (00:19:c5:ea:13:f9), Dst: ZyxelCom_8d:62:30 (40:4a:03:8d:62:30)
    Destination: ZyxelCom_8d:62:30 (40:4a:03:8d:62:30)
        Address: ZyxelCom_8d:62:30 (40:4a:03:8d:62:30)
        .... ...0 .... .... .... .... = IG bit: Individual address (unicast)
        .... ..0. .... .... .... .... = LG bit: Globally unique address (factory default)
    Source: SonyComp_ea:13:f9 (00:19:c5:ea:13:f9)
        Address: SonyComp_ea:13:f9 (00:19:c5:ea:13:f9)
        .... ...0 .... .... .... .... = IG bit: Individual address (unicast)
        .... ..0. .... .... .... .... = LG bit: Globally unique address (factory default)
    Type: IP (0x0800)
Internet Protocol Version 4, Src: 192.168.0.71 (192.168.0.71), Dst: 69.10.30.242 (69.10.30.242)
    Version: 4
    Header length: 20 bytes
    Differentiated Services Field: 0x00 (DSCP 0x00: Default; ECN: 0x00: Not-ECT (Not ECN-Capable Transport))
        0000 00.. = Differentiated Services Codepoint: Default (0x00)
        .... ..00 = Explicit Congestion Notification: Not-ECT (Not ECN-Capable Transport) (0x00)
    Total Length: 60
    Identification: 0x00bf (191)
    Flags: 0x02 (Don't Fragment)
        0... .... = Reserved bit: Not set
        .1.. .... = Don't fragment: Set
        ..0. .... = More fragments: Not set
    Fragment offset: 0
    Time to live: 64
    Protocol: TCP (6)
    Header checksum: 0x1512 [correct]
        [Good: True]
        [Bad: False]
    Source: 192.168.0.71 (192.168.0.71)
    Destination: 69.10.30.242 (69.10.30.242)
Transmission Control Protocol, Src Port: 52117 (52117), Dst Port: 29900 (29900), Seq: 0, Len: 0
    Source port: 52117 (52117)
    Destination port: 29900 (29900)
    [Stream index: 0]
    Sequence number: 0    (relative sequence number)
    Header length: 40 bytes
    Flags: 0x002 (SYN)
        000. .... .... = Reserved: Not set
        ...0 .... .... = Nonce: Not set
        .... 0... .... = Congestion Window Reduced (CWR): Not set
        .... .0.. .... = ECN-Echo: Not set
        .... ..0. .... = Urgent: Not set
        .... ...0 .... = Acknowledgement: Not set
        .... .... 0... = Push: Not set
        .... .... .0.. = Reset: Not set
        .... .... ..1. = Syn: Set
            [Expert Info (Chat/Sequence): Connection establish request (SYN): server port 29900]
                [Message: Connection establish request (SYN): server port 29900]
                [Severity level: Chat]
                [Group: Sequence]
        .... .... ...0 = Fin: Not set
    Window size value: 16384
    [Calculated window size: 16384]
    Checksum: 0xf288 [validation disabled]
        [Good Checksum: False]
        [Bad Checksum: False]
    Options: (20 bytes)
        Maximum segment size: 1460 bytes
        No-Operation (NOP)
        Window scale: 0 (multiply by 1)
            Kind: Window Scale (3)
            Length: 3
            Shift count: 0
            [Multiplier: 1]
        No-Operation (NOP)
        No-Operation (NOP)
        Timestamps: TSval 5590, TSecr 0
            Kind: Timestamp (8)
            Length: 10
            Timestamp value: 5590
            Timestamp echo reply: 0

0000  40 4a 03 8d 62 30 00 19 c5 ea 13 f9 08 00 45 00   @J..b0........E.
0010  00 3c 00 bf 40 00 40 06 15 12 c0 a8 00 47 45 0a   .<..@.@......GE.
0020  1e f2 cb 95 74 cc e6 ea b6 70 00 00 00 00 a0 02   ....t....p......
0030  40 00 f2 88 00 00 02 04 05 b4 01 03 03 00 01 01   @...............
0040  08 0a 00 00 15 d6 00 00 00 00                     ..........

No.     Time                       Source                Destination           Protocol Length Info
      3 2012-10-11 23:31:24.758381 192.168.0.71          69.10.30.242          TCP      66     52117 > 29900 [ACK] Seq=1 Ack=1 Win=17520 Len=0 TSval=5590 TSecr=0

Frame 3: 66 bytes on wire (528 bits), 66 bytes captured (528 bits)
    Arrival Time: Oct 11, 2012 23:31:24.758381000 GTB Standard Time
    Epoch Time: 1349987484.758381000 seconds
    [Time delta from previous captured frame: 0.000420000 seconds]
    [Time delta from previous displayed frame: 0.213624000 seconds]
    [Time since reference or first frame: 0.213624000 seconds]
    Frame Number: 3
    Frame Length: 66 bytes (528 bits)
    Capture Length: 66 bytes (528 bits)
    [Frame is marked: False]
    [Frame is ignored: False]
    [Protocols in frame: eth:ip:tcp]
    [Coloring Rule Name: TCP]
    [Coloring Rule String: tcp]
Ethernet II, Src: SonyComp_ea:13:f9 (00:19:c5:ea:13:f9), Dst: ZyxelCom_8d:62:30 (40:4a:03:8d:62:30)
    Destination: ZyxelCom_8d:62:30 (40:4a:03:8d:62:30)
        Address: ZyxelCom_8d:62:30 (40:4a:03:8d:62:30)
        .... ...0 .... .... .... .... = IG bit: Individual address (unicast)
        .... ..0. .... .... .... .... = LG bit: Globally unique address (factory default)
    Source: SonyComp_ea:13:f9 (00:19:c5:ea:13:f9)
        Address: SonyComp_ea:13:f9 (00:19:c5:ea:13:f9)
        .... ...0 .... .... .... .... = IG bit: Individual address (unicast)
        .... ..0. .... .... .... .... = LG bit: Globally unique address (factory default)
    Type: IP (0x0800)
Internet Protocol Version 4, Src: 192.168.0.71 (192.168.0.71), Dst: 69.10.30.242 (69.10.30.242)
    Version: 4
    Header length: 20 bytes
    Differentiated Services Field: 0x00 (DSCP 0x00: Default; ECN: 0x00: Not-ECT (Not ECN-Capable Transport))
        0000 00.. = Differentiated Services Codepoint: Default (0x00)
        .... ..00 = Explicit Congestion Notification: Not-ECT (Not ECN-Capable Transport) (0x00)
    Total Length: 52
    Identification: 0x00c0 (192)
    Flags: 0x02 (Don't Fragment)
        0... .... = Reserved bit: Not set
        .1.. .... = Don't fragment: Set
        ..0. .... = More fragments: Not set
    Fragment offset: 0
    Time to live: 64
    Protocol: TCP (6)
    Header checksum: 0x1519 [correct]
        [Good: True]
        [Bad: False]
    Source: 192.168.0.71 (192.168.0.71)
    Destination: 69.10.30.242 (69.10.30.242)
Transmission Control Protocol, Src Port: 52117 (52117), Dst Port: 29900 (29900), Seq: 1, Ack: 1, Len: 0
    Source port: 52117 (52117)
    Destination port: 29900 (29900)
    [Stream index: 0]
    Sequence number: 1    (relative sequence number)
    Acknowledgement number: 1    (relative ack number)
    Header length: 32 bytes
    Flags: 0x010 (ACK)
        000. .... .... = Reserved: Not set
        ...0 .... .... = Nonce: Not set
        .... 0... .... = Congestion Window Reduced (CWR): Not set
        .... .0.. .... = ECN-Echo: Not set
        .... ..0. .... = Urgent: Not set
        .... ...1 .... = Acknowledgement: Set
        .... .... 0... = Push: Not set
        .... .... .0.. = Reset: Not set
        .... .... ..0. = Syn: Not set
        .... .... ...0 = Fin: Not set
    Window size value: 17520
    [Calculated window size: 17520]
    [Window size scaling factor: 1]
    Checksum: 0x8ef5 [validation disabled]
        [Good Checksum: False]
        [Bad Checksum: False]
    Options: (12 bytes)
        No-Operation (NOP)
        No-Operation (NOP)
        Timestamps: TSval 5590, TSecr 0
            Kind: Timestamp (8)
            Length: 10
            Timestamp value: 5590
            Timestamp echo reply: 0

0000  40 4a 03 8d 62 30 00 19 c5 ea 13 f9 08 00 45 00   @J..b0........E.
0010  00 34 00 c0 40 00 40 06 15 19 c0 a8 00 47 45 0a   .4..@.@......GE.
0020  1e f2 cb 95 74 cc e6 ea b6 71 ac 56 de 80 80 10   ....t....q.V....
0030  44 70 8e f5 00 00 01 01 08 0a 00 00 15 d6 00 00   Dp..............
0040  00 00                                             ..

No.     Time                       Source                Destination           Protocol Length Info
      4 2012-10-11 23:31:25.003919 192.168.0.71          69.10.30.242          TCP      264    52117 > 29900 [PSH, ACK] Seq=1 Ack=39 Win=17520 Len=198 TSval=5591 TSecr=16028883

Frame 4: 264 bytes on wire (2112 bits), 264 bytes captured (2112 bits)
    Arrival Time: Oct 11, 2012 23:31:25.003919000 GTB Standard Time
    Epoch Time: 1349987485.003919000 seconds
    [Time delta from previous captured frame: 0.245538000 seconds]
    [Time delta from previous displayed frame: 0.245538000 seconds]
    [Time since reference or first frame: 0.459162000 seconds]
    Frame Number: 4
    Frame Length: 264 bytes (2112 bits)
    Capture Length: 264 bytes (2112 bits)
    [Frame is marked: False]
    [Frame is ignored: False]
    [Protocols in frame: eth:ip:tcp:data]
    [Coloring Rule Name: TCP]
    [Coloring Rule String: tcp]
Ethernet II, Src: SonyComp_ea:13:f9 (00:19:c5:ea:13:f9), Dst: ZyxelCom_8d:62:30 (40:4a:03:8d:62:30)
    Destination: ZyxelCom_8d:62:30 (40:4a:03:8d:62:30)
        Address: ZyxelCom_8d:62:30 (40:4a:03:8d:62:30)
        .... ...0 .... .... .... .... = IG bit: Individual address (unicast)
        .... ..0. .... .... .... .... = LG bit: Globally unique address (factory default)
    Source: SonyComp_ea:13:f9 (00:19:c5:ea:13:f9)
        Address: SonyComp_ea:13:f9 (00:19:c5:ea:13:f9)
        .... ...0 .... .... .... .... = IG bit: Individual address (unicast)
        .... ..0. .... .... .... .... = LG bit: Globally unique address (factory default)
    Type: IP (0x0800)
Internet Protocol Version 4, Src: 192.168.0.71 (192.168.0.71), Dst: 69.10.30.242 (69.10.30.242)
    Version: 4
    Header length: 20 bytes
    Differentiated Services Field: 0x00 (DSCP 0x00: Default; ECN: 0x00: Not-ECT (Not ECN-Capable Transport))
        0000 00.. = Differentiated Services Codepoint: Default (0x00)
        .... ..00 = Explicit Congestion Notification: Not-ECT (Not ECN-Capable Transport) (0x00)
    Total Length: 250
    Identification: 0x00c1 (193)
    Flags: 0x02 (Don't Fragment)
        0... .... = Reserved bit: Not set
        .1.. .... = Don't fragment: Set
        ..0. .... = More fragments: Not set
    Fragment offset: 0
    Time to live: 64
    Protocol: TCP (6)
    Header checksum: 0x1452 [correct]
        [Good: True]
        [Bad: False]
    Source: 192.168.0.71 (192.168.0.71)
    Destination: 69.10.30.242 (69.10.30.242)
Transmission Control Protocol, Src Port: 52117 (52117), Dst Port: 29900 (29900), Seq: 1, Ack: 39, Len: 198
    Source port: 52117 (52117)
    Destination port: 29900 (29900)
    [Stream index: 0]
    Sequence number: 1    (relative sequence number)
    [Next sequence number: 199    (relative sequence number)]
    Acknowledgement number: 39    (relative ack number)
    Header length: 32 bytes
    Flags: 0x018 (PSH, ACK)
        000. .... .... = Reserved: Not set
        ...0 .... .... = Nonce: Not set
        .... 0... .... = Congestion Window Reduced (CWR): Not set
        .... .0.. .... = ECN-Echo: Not set
        .... ..0. .... = Urgent: Not set
        .... ...1 .... = Acknowledgement: Set
        .... .... 1... = Push: Set
        .... .... .0.. = Reset: Not set
        .... .... ..0. = Syn: Not set
        .... .... ...0 = Fin: Not set
    Window size value: 17520
    [Calculated window size: 17520]
    [Window size scaling factor: 1]
    Checksum: 0x1554 [validation disabled]
        [Good Checksum: False]
        [Bad Checksum: False]
    Options: (12 bytes)
        No-Operation (NOP)
        No-Operation (NOP)
        Timestamps: TSval 5591, TSecr 16028883
            Kind: Timestamp (8)
            Length: 10
            Timestamp value: 5591
            Timestamp echo reply: 16028883
    [SEQ/ACK analysis]
        [Bytes in flight: 199]
Data (198 bytes)
    Data: 5c6c6f67696e5c5c6368616c6c656e67655c327a34315970...
    [Length: 198]

0000  40 4a 03 8d 62 30 00 19 c5 ea 13 f9 08 00 45 00   @J..b0........E.
0010  00 fa 00 c1 40 00 40 06 14 52 c0 a8 00 47 45 0a   ....@.@..R...GE.
0020  1e f2 cb 95 74 cc e6 ea b6 71 ac 56 de a6 80 18   ....t....q.V....
0030  44 70 15 54 00 00 01 01 08 0a 00 00 15 d7 00 f4   Dp.T............
0040  94 d3 5c 6c 6f 67 69 6e 5c 5c 63 68 61 6c 6c 65   ..\login\\challe
0050  6e 67 65 5c 32 7a 34 31 59 70 30 66 57 33 61 7a   nge\2z41Yp0fW3az
0060  32 42 55 6a 51 44 53 74 67 39 4f 35 75 39 6d 39   2BUjQDStg9O5u9m9
0070  55 35 61 58 5c 75 6e 69 71 75 65 6e 69 63 6b 5c   U5aX\uniquenick\
0080  62 61 6a 73 6d 61 6e 6e 65 6e 5c 72 65 73 70 6f   bajsmannen\respo
0090  6e 73 65 5c 39 66 33 37 33 39 37 65 66 66 61 39   nse\9f37397effa9
00a0  35 66 63 39 32 62 32 66 66 37 37 64 62 32 39 64   5fc92b2ff77db29d
00b0  61 38 36 33 5c 66 69 72 65 77 61 6c 6c 5c 31 5c   a863\firewall\1\
00c0  70 6f 72 74 5c 30 5c 70 72 6f 64 75 63 74 69 64   port\0\productid
00d0  5c 31 30 33 30 37 5c 67 61 6d 65 6e 61 6d 65 5c   \10307\gamename\
00e0  62 66 69 65 6c 64 31 39 34 32 70 73 32 5c 6e 61   bfield1942ps2\na
00f0  6d 65 73 70 61 63 65 69 64 5c 31 33 5c 69 64 5c   mespaceid\13\id\
0100  31 5c 66 69 6e 61 6c 5c                           1\final\

No.     Time                       Source                Destination           Protocol Length Info
      5 2012-10-11 23:31:25.244911 192.168.0.71          69.10.24.135          TCP      74     52116 > http [SYN] Seq=0 Win=16384 Len=0 MSS=1460 WS=1 TSval=5591 TSecr=0

Frame 5: 74 bytes on wire (592 bits), 74 bytes captured (592 bits)
    Arrival Time: Oct 11, 2012 23:31:25.244911000 GTB Standard Time
    Epoch Time: 1349987485.244911000 seconds
    [Time delta from previous captured frame: 0.240992000 seconds]
    [Time delta from previous displayed frame: 0.240992000 seconds]
    [Time since reference or first frame: 0.700154000 seconds]
    Frame Number: 5
    Frame Length: 74 bytes (592 bits)
    Capture Length: 74 bytes (592 bits)
    [Frame is marked: False]
    [Frame is ignored: False]
    [Protocols in frame: eth:ip:tcp]
    [Coloring Rule Name: HTTP]
    [Coloring Rule String: http || tcp.port == 80]
Ethernet II, Src: SonyComp_ea:13:f9 (00:19:c5:ea:13:f9), Dst: ZyxelCom_8d:62:30 (40:4a:03:8d:62:30)
    Destination: ZyxelCom_8d:62:30 (40:4a:03:8d:62:30)
        Address: ZyxelCom_8d:62:30 (40:4a:03:8d:62:30)
        .... ...0 .... .... .... .... = IG bit: Individual address (unicast)
        .... ..0. .... .... .... .... = LG bit: Globally unique address (factory default)
    Source: SonyComp_ea:13:f9 (00:19:c5:ea:13:f9)
        Address: SonyComp_ea:13:f9 (00:19:c5:ea:13:f9)
        .... ...0 .... .... .... .... = IG bit: Individual address (unicast)
        .... ..0. .... .... .... .... = LG bit: Globally unique address (factory default)
    Type: IP (0x0800)
Internet Protocol Version 4, Src: 192.168.0.71 (192.168.0.71), Dst: 69.10.24.135 (69.10.24.135)
    Version: 4
    Header length: 20 bytes
    Differentiated Services Field: 0x00 (DSCP 0x00: Default; ECN: 0x00: Not-ECT (Not ECN-Capable Transport))
        0000 00.. = Differentiated Services Codepoint: Default (0x00)
        .... ..00 = Explicit Congestion Notification: Not-ECT (Not ECN-Capable Transport) (0x00)
    Total Length: 60
    Identification: 0x00c2 (194)
    Flags: 0x02 (Don't Fragment)
        0... .... = Reserved bit: Not set
        .1.. .... = Don't fragment: Set
        ..0. .... = More fragments: Not set
    Fragment offset: 0
    Time to live: 64
    Protocol: TCP (6)
    Header checksum: 0x1b7a [correct]
        [Good: True]
        [Bad: False]
    Source: 192.168.0.71 (192.168.0.71)
    Destination: 69.10.24.135 (69.10.24.135)
Transmission Control Protocol, Src Port: 52116 (52116), Dst Port: http (80), Seq: 0, Len: 0
    Source port: 52116 (52116)
    Destination port: http (80)
    [Stream index: 1]
    Sequence number: 0    (relative sequence number)
    Header length: 40 bytes
    Flags: 0x002 (SYN)
        000. .... .... = Reserved: Not set
        ...0 .... .... = Nonce: Not set
        .... 0... .... = Congestion Window Reduced (CWR): Not set
        .... .0.. .... = ECN-Echo: Not set
        .... ..0. .... = Urgent: Not set
        .... ...0 .... = Acknowledgement: Not set
        .... .... 0... = Push: Not set
        .... .... .0.. = Reset: Not set
        .... .... ..1. = Syn: Set
            [Expert Info (Chat/Sequence): Connection establish request (SYN): server port http]
                [Message: Connection establish request (SYN): server port http]
                [Severity level: Chat]
                [Group: Sequence]
        .... .... ...0 = Fin: Not set
    Window size value: 16384
    [Calculated window size: 16384]
    Checksum: 0xa828 [validation disabled]
        [Good Checksum: False]
        [Bad Checksum: False]
    Options: (20 bytes)
        Maximum segment size: 1460 bytes
        No-Operation (NOP)
        Window scale: 0 (multiply by 1)
            Kind: Window Scale (3)
            Length: 3
            Shift count: 0
            [Multiplier: 1]
        No-Operation (NOP)
        No-Operation (NOP)
        Timestamps: TSval 5591, TSecr 0
            Kind: Timestamp (8)
            Length: 10
            Timestamp value: 5591
            Timestamp echo reply: 0

0000  40 4a 03 8d 62 30 00 19 c5 ea 13 f9 08 00 45 00   @J..b0........E.
0010  00 3c 00 c2 40 00 40 06 1b 7a c0 a8 00 47 45 0a   .<..@.@..z...GE.
0020  18 87 cb 94 00 50 e8 6f 7a 33 00 00 00 00 a0 02   .....P.oz3......
0030  40 00 a8 28 00 00 02 04 05 b4 01 03 03 00 01 01   @..(............
0040  08 0a 00 00 15 d7 00 00 00 00                     ..........

No.     Time                       Source                Destination           Protocol Length Info
      6 2012-10-11 23:31:25.245212 192.168.0.71          69.10.24.135          TCP      74     52115 > http [SYN] Seq=0 Win=16384 Len=0 MSS=1460 WS=1 TSval=5591 TSecr=0

Frame 6: 74 bytes on wire (592 bits), 74 bytes captured (592 bits)
    Arrival Time: Oct 11, 2012 23:31:25.245212000 GTB Standard Time
    Epoch Time: 1349987485.245212000 seconds
    [Time delta from previous captured frame: 0.000301000 seconds]
    [Time delta from previous displayed frame: 0.000301000 seconds]
    [Time since reference or first frame: 0.700455000 seconds]
    Frame Number: 6
    Frame Length: 74 bytes (592 bits)
    Capture Length: 74 bytes (592 bits)
    [Frame is marked: False]
    [Frame is ignored: False]
    [Protocols in frame: eth:ip:tcp]
    [Coloring Rule Name: HTTP]
    [Coloring Rule String: http || tcp.port == 80]
Ethernet II, Src: SonyComp_ea:13:f9 (00:19:c5:ea:13:f9), Dst: ZyxelCom_8d:62:30 (40:4a:03:8d:62:30)
    Destination: ZyxelCom_8d:62:30 (40:4a:03:8d:62:30)
        Address: ZyxelCom_8d:62:30 (40:4a:03:8d:62:30)
        .... ...0 .... .... .... .... = IG bit: Individual address (unicast)
        .... ..0. .... .... .... .... = LG bit: Globally unique address (factory default)
    Source: SonyComp_ea:13:f9 (00:19:c5:ea:13:f9)
        Address: SonyComp_ea:13:f9 (00:19:c5:ea:13:f9)
        .... ...0 .... .... .... .... = IG bit: Individual address (unicast)
        .... ..0. .... .... .... .... = LG bit: Globally unique address (factory default)
    Type: IP (0x0800)
Internet Protocol Version 4, Src: 192.168.0.71 (192.168.0.71), Dst: 69.10.24.135 (69.10.24.135)
    Version: 4
    Header length: 20 bytes
    Differentiated Services Field: 0x00 (DSCP 0x00: Default; ECN: 0x00: Not-ECT (Not ECN-Capable Transport))
        0000 00.. = Differentiated Services Codepoint: Default (0x00)
        .... ..00 = Explicit Congestion Notification: Not-ECT (Not ECN-Capable Transport) (0x00)
    Total Length: 60
    Identification: 0x00c3 (195)
    Flags: 0x02 (Don't Fragment)
        0... .... = Reserved bit: Not set
        .1.. .... = Don't fragment: Set
        ..0. .... = More fragments: Not set
    Fragment offset: 0
    Time to live: 64
    Protocol: TCP (6)
    Header checksum: 0x1b79 [correct]
        [Good: True]
        [Bad: False]
    Source: 192.168.0.71 (192.168.0.71)
    Destination: 69.10.24.135 (69.10.24.135)
Transmission Control Protocol, Src Port: 52115 (52115), Dst Port: http (80), Seq: 0, Len: 0
    Source port: 52115 (52115)
    Destination port: http (80)
    [Stream index: 2]
    Sequence number: 0    (relative sequence number)
    Header length: 40 bytes
    Flags: 0x002 (SYN)
        000. .... .... = Reserved: Not set
        ...0 .... .... = Nonce: Not set
        .... 0... .... = Congestion Window Reduced (CWR): Not set
        .... .0.. .... = ECN-Echo: Not set
        .... ..0. .... = Urgent: Not set
        .... ...0 .... = Acknowledgement: Not set
        .... .... 0... = Push: Not set
        .... .... .0.. = Reset: Not set
        .... .... ..1. = Syn: Set
            [Expert Info (Chat/Sequence): Connection establish request (SYN): server port http]
                [Message: Connection establish request (SYN): server port http]
                [Severity level: Chat]
                [Group: Sequence]
        .... .... ...0 = Fin: Not set
    Window size value: 16384
    [Calculated window size: 16384]
    Checksum: 0x5ffd [validation disabled]
        [Good Checksum: False]
        [Bad Checksum: False]
    Options: (20 bytes)
        Maximum segment size: 1460 bytes
        No-Operation (NOP)
        Window scale: 0 (multiply by 1)
            Kind: Window Scale (3)
            Length: 3
            Shift count: 0
            [Multiplier: 1]
        No-Operation (NOP)
        No-Operation (NOP)
        Timestamps: TSval 5591, TSecr 0
            Kind: Timestamp (8)
            Length: 10
            Timestamp value: 5591
            Timestamp echo reply: 0

0000  40 4a 03 8d 62 30 00 19 c5 ea 13 f9 08 00 45 00   @J..b0........E.
0010  00 3c 00 c3 40 00 40 06 1b 79 c0 a8 00 47 45 0a   .<..@.@..y...GE.
0020  18 87 cb 93 00 50 e9 bf c1 0f 00 00 00 00 a0 02   .....P..........
0030  40 00 5f fd 00 00 02 04 05 b4 01 03 03 00 01 01   @._.............
0040  08 0a 00 00 15 d7 00 00 00 00                     ..........

No.     Time                       Source                Destination           Protocol Length Info
      7 2012-10-11 23:31:25.245539 192.168.0.71          69.10.24.135          TCP      74     52114 > http [SYN] Seq=0 Win=16384 Len=0 MSS=1460 WS=1 TSval=5591 TSecr=0

Frame 7: 74 bytes on wire (592 bits), 74 bytes captured (592 bits)
    Arrival Time: Oct 11, 2012 23:31:25.245539000 GTB Standard Time
    Epoch Time: 1349987485.245539000 seconds
    [Time delta from previous captured frame: 0.000327000 seconds]
    [Time delta from previous displayed frame: 0.000327000 seconds]
    [Time since reference or first frame: 0.700782000 seconds]
    Frame Number: 7
    Frame Length: 74 bytes (592 bits)
    Capture Length: 74 bytes (592 bits)
    [Frame is marked: False]
    [Frame is ignored: False]
    [Protocols in frame: eth:ip:tcp]
    [Coloring Rule Name: HTTP]
    [Coloring Rule String: http || tcp.port == 80]
Ethernet II, Src: SonyComp_ea:13:f9 (00:19:c5:ea:13:f9), Dst: ZyxelCom_8d:62:30 (40:4a:03:8d:62:30)
    Destination: ZyxelCom_8d:62:30 (40:4a:03:8d:62:30)
        Address: ZyxelCom_8d:62:30 (40:4a:03:8d:62:30)
        .... ...0 .... .... .... .... = IG bit: Individual address (unicast)
        .... ..0. .... .... .... .... = LG bit: Globally unique address (factory default)
    Source: SonyComp_ea:13:f9 (00:19:c5:ea:13:f9)
        Address: SonyComp_ea:13:f9 (00:19:c5:ea:13:f9)
        .... ...0 .... .... .... .... = IG bit: Individual address (unicast)
        .... ..0. .... .... .... .... = LG bit: Globally unique address (factory default)
    Type: IP (0x0800)
Internet Protocol Version 4, Src: 192.168.0.71 (192.168.0.71), Dst: 69.10.24.135 (69.10.24.135)
    Version: 4
    Header length: 20 bytes
    Differentiated Services Field: 0x00 (DSCP 0x00: Default; ECN: 0x00: Not-ECT (Not ECN-Capable Transport))
        0000 00.. = Differentiated Services Codepoint: Default (0x00)
        .... ..00 = Explicit Congestion Notification: Not-ECT (Not ECN-Capable Transport) (0x00)
    Total Length: 60
    Identification: 0x00c4 (196)
    Flags: 0x02 (Don't Fragment)
        0... .... = Reserved bit: Not set
        .1.. .... = Don't fragment: Set
        ..0. .... = More fragments: Not set
    Fragment offset: 0
    Time to live: 64
    Protocol: TCP (6)
    Header checksum: 0x1b78 [correct]
        [Good: True]
        [Bad: False]
    Source: 192.168.0.71 (192.168.0.71)
    Destination: 69.10.24.135 (69.10.24.135)
Transmission Control Protocol, Src Port: 52114 (52114), Dst Port: http (80), Seq: 0, Len: 0
    Source port: 52114 (52114)
    Destination port: http (80)
    [Stream index: 3]
    Sequence number: 0    (relative sequence number)
    Header length: 40 bytes
    Flags: 0x002 (SYN)
        000. .... .... = Reserved: Not set
        ...0 .... .... = Nonce: Not set
        .... 0... .... = Congestion Window Reduced (CWR): Not set
        .... .0.. .... = ECN-Echo: Not set
        .... ..0. .... = Urgent: Not set
        .... ...0 .... = Acknowledgement: Not set
        .... .... 0... = Push: Not set
        .... .... .0.. = Reset: Not set
        .... .... ..1. = Syn: Set
            [Expert Info (Chat/Sequence): Connection establish request (SYN): server port http]
                [Message: Connection establish request (SYN): server port http]
                [Severity level: Chat]
                [Group: Sequence]
        .... .... ...0 = Fin: Not set
    Window size value: 16384
    [Calculated window size: 16384]
    Checksum: 0x3a92 [validation disabled]
        [Good Checksum: False]
        [Bad Checksum: False]
    Options: (20 bytes)
        Maximum segment size: 1460 bytes
        No-Operation (NOP)
        Window scale: 0 (multiply by 1)
            Kind: Window Scale (3)
            Length: 3
            Shift count: 0
            [Multiplier: 1]
        No-Operation (NOP)
        No-Operation (NOP)
        Timestamps: TSval 5591, TSecr 0
            Kind: Timestamp (8)
            Length: 10
            Timestamp value: 5591
            Timestamp echo reply: 0

0000  40 4a 03 8d 62 30 00 19 c5 ea 13 f9 08 00 45 00   @J..b0........E.
0010  00 3c 00 c4 40 00 40 06 1b 78 c0 a8 00 47 45 0a   .<..@.@..x...GE.
0020  18 87 cb 92 00 50 ea 1b e6 1f 00 00 00 00 a0 02   .....P..........
0030  40 00 3a 92 00 00 02 04 05 b4 01 03 03 00 01 01   @.:.............
0040  08 0a 00 00 15 d7 00 00 00 00                     ..........

No.     Time                       Source                Destination           Protocol Length Info
      8 2012-10-11 23:31:25.262555 192.168.0.71          69.10.30.242          TCP      66     52117 > 29900 [ACK] Seq=199 Ack=199 Win=17520 Len=0 TSval=5591 TSecr=16028886

Frame 8: 66 bytes on wire (528 bits), 66 bytes captured (528 bits)
    Arrival Time: Oct 11, 2012 23:31:25.262555000 GTB Standard Time
    Epoch Time: 1349987485.262555000 seconds
    [Time delta from previous captured frame: 0.017016000 seconds]
    [Time delta from previous displayed frame: 0.017016000 seconds]
    [Time since reference or first frame: 0.717798000 seconds]
    Frame Number: 8
    Frame Length: 66 bytes (528 bits)
    Capture Length: 66 bytes (528 bits)
    [Frame is marked: False]
    [Frame is ignored: False]
    [Protocols in frame: eth:ip:tcp]
    [Coloring Rule Name: TCP]
    [Coloring Rule String: tcp]
Ethernet II, Src: SonyComp_ea:13:f9 (00:19:c5:ea:13:f9), Dst: ZyxelCom_8d:62:30 (40:4a:03:8d:62:30)
    Destination: ZyxelCom_8d:62:30 (40:4a:03:8d:62:30)
        Address: ZyxelCom_8d:62:30 (40:4a:03:8d:62:30)
        .... ...0 .... .... .... .... = IG bit: Individual address (unicast)
        .... ..0. .... .... .... .... = LG bit: Globally unique address (factory default)
    Source: SonyComp_ea:13:f9 (00:19:c5:ea:13:f9)
        Address: SonyComp_ea:13:f9 (00:19:c5:ea:13:f9)
        .... ...0 .... .... .... .... = IG bit: Individual address (unicast)
        .... ..0. .... .... .... .... = LG bit: Globally unique address (factory default)
    Type: IP (0x0800)
Internet Protocol Version 4, Src: 192.168.0.71 (192.168.0.71), Dst: 69.10.30.242 (69.10.30.242)
    Version: 4
    Header length: 20 bytes
    Differentiated Services Field: 0x00 (DSCP 0x00: Default; ECN: 0x00: Not-ECT (Not ECN-Capable Transport))
        0000 00.. = Differentiated Services Codepoint: Default (0x00)
        .... ..00 = Explicit Congestion Notification: Not-ECT (Not ECN-Capable Transport) (0x00)
    Total Length: 52
    Identification: 0x00c5 (197)
    Flags: 0x02 (Don't Fragment)
        0... .... = Reserved bit: Not set
        .1.. .... = Don't fragment: Set
        ..0. .... = More fragments: Not set
    Fragment offset: 0
    Time to live: 64
    Protocol: TCP (6)
    Header checksum: 0x1514 [correct]
        [Good: True]
        [Bad: False]
    Source: 192.168.0.71 (192.168.0.71)
    Destination: 69.10.30.242 (69.10.30.242)
Transmission Control Protocol, Src Port: 52117 (52117), Dst Port: 29900 (29900), Seq: 199, Ack: 199, Len: 0
    Source port: 52117 (52117)
    Destination port: 29900 (29900)
    [Stream index: 0]
    Sequence number: 199    (relative sequence number)
    Acknowledgement number: 199    (relative ack number)
    Header length: 32 bytes
    Flags: 0x010 (ACK)
        000. .... .... = Reserved: Not set
        ...0 .... .... = Nonce: Not set
        .... 0... .... = Congestion Window Reduced (CWR): Not set
        .... .0.. .... = ECN-Echo: Not set
        .... ..0. .... = Urgent: Not set
        .... ...1 .... = Acknowledgement: Set
        .... .... 0... = Push: Not set
        .... .... .0.. = Reset: Not set
        .... .... ..0. = Syn: Not set
        .... .... ...0 = Fin: Not set
    Window size value: 17520
    [Calculated window size: 17520]
    [Window size scaling factor: 1]
    Checksum: 0xf79d [validation disabled]
        [Good Checksum: False]
        [Bad Checksum: False]
    Options: (12 bytes)
        No-Operation (NOP)
        No-Operation (NOP)
        Timestamps: TSval 5591, TSecr 16028886
            Kind: Timestamp (8)
            Length: 10
            Timestamp value: 5591
            Timestamp echo reply: 16028886

0000  40 4a 03 8d 62 30 00 19 c5 ea 13 f9 08 00 45 00   @J..b0........E.
0010  00 34 00 c5 40 00 40 06 15 14 c0 a8 00 47 45 0a   .4..@.@......GE.
0020  1e f2 cb 95 74 cc e6 ea b7 37 ac 56 df 46 80 10   ....t....7.V.F..
0030  44 70 f7 9d 00 00 01 01 08 0a 00 00 15 d7 00 f4   Dp..............
0040  94 d6                                             ..

No.     Time                       Source                Destination           Protocol Length Info
      9 2012-10-11 23:31:25.264778 192.168.0.71          69.10.30.242          TCP      254    52117 > 29900 [PSH, ACK] Seq=199 Ack=199 Win=17520 Len=188 TSval=5591 TSecr=16028886

Frame 9: 254 bytes on wire (2032 bits), 254 bytes captured (2032 bits)
    Arrival Time: Oct 11, 2012 23:31:25.264778000 GTB Standard Time
    Epoch Time: 1349987485.264778000 seconds
    [Time delta from previous captured frame: 0.002223000 seconds]
    [Time delta from previous displayed frame: 0.002223000 seconds]
    [Time since reference or first frame: 0.720021000 seconds]
    Frame Number: 9
    Frame Length: 254 bytes (2032 bits)
    Capture Length: 254 bytes (2032 bits)
    [Frame is marked: False]
    [Frame is ignored: False]
    [Protocols in frame: eth:ip:tcp:data]
    [Coloring Rule Name: TCP]
    [Coloring Rule String: tcp]
Ethernet II, Src: SonyComp_ea:13:f9 (00:19:c5:ea:13:f9), Dst: ZyxelCom_8d:62:30 (40:4a:03:8d:62:30)
    Destination: ZyxelCom_8d:62:30 (40:4a:03:8d:62:30)
        Address: ZyxelCom_8d:62:30 (40:4a:03:8d:62:30)
        .... ...0 .... .... .... .... = IG bit: Individual address (unicast)
        .... ..0. .... .... .... .... = LG bit: Globally unique address (factory default)
    Source: SonyComp_ea:13:f9 (00:19:c5:ea:13:f9)
        Address: SonyComp_ea:13:f9 (00:19:c5:ea:13:f9)
        .... ...0 .... .... .... .... = IG bit: Individual address (unicast)
        .... ..0. .... .... .... .... = LG bit: Globally unique address (factory default)
    Type: IP (0x0800)
Internet Protocol Version 4, Src: 192.168.0.71 (192.168.0.71), Dst: 69.10.30.242 (69.10.30.242)
    Version: 4
    Header length: 20 bytes
    Differentiated Services Field: 0x00 (DSCP 0x00: Default; ECN: 0x00: Not-ECT (Not ECN-Capable Transport))
        0000 00.. = Differentiated Services Codepoint: Default (0x00)
        .... ..00 = Explicit Congestion Notification: Not-ECT (Not ECN-Capable Transport) (0x00)
    Total Length: 240
    Identification: 0x00c6 (198)
    Flags: 0x02 (Don't Fragment)
        0... .... = Reserved bit: Not set
        .1.. .... = Don't fragment: Set
        ..0. .... = More fragments: Not set
    Fragment offset: 0
    Time to live: 64
    Protocol: TCP (6)
    Header checksum: 0x1457 [correct]
        [Good: True]
        [Bad: False]
    Source: 192.168.0.71 (192.168.0.71)
    Destination: 69.10.30.242 (69.10.30.242)
Transmission Control Protocol, Src Port: 52117 (52117), Dst Port: 29900 (29900), Seq: 199, Ack: 199, Len: 188
    Source port: 52117 (52117)
    Destination port: 29900 (29900)
    [Stream index: 0]
    Sequence number: 199    (relative sequence number)
    [Next sequence number: 387    (relative sequence number)]
    Acknowledgement number: 199    (relative ack number)
    Header length: 32 bytes
    Flags: 0x018 (PSH, ACK)
        000. .... .... = Reserved: Not set
        ...0 .... .... = Nonce: Not set
        .... 0... .... = Congestion Window Reduced (CWR): Not set
        .... .0.. .... = ECN-Echo: Not set
        .... ..0. .... = Urgent: Not set
        .... ...1 .... = Acknowledgement: Set
        .... .... 1... = Push: Set
        .... .... .0.. = Reset: Not set
        .... .... ..0. = Syn: Not set
        .... .... ...0 = Fin: Not set
    Window size value: 17520
    [Calculated window size: 17520]
    [Window size scaling factor: 1]
    Checksum: 0x2407 [validation disabled]
        [Good Checksum: False]
        [Bad Checksum: False]
    Options: (12 bytes)
        No-Operation (NOP)
        No-Operation (NOP)
        Timestamps: TSval 5591, TSecr 16028886
            Kind: Timestamp (8)
            Length: 10
            Timestamp value: 5591
            Timestamp echo reply: 16028886
    [SEQ/ACK analysis]
        [Bytes in flight: 387]
Data (188 bytes)
    Data: 5c696e76697465746f5c5c736573736b65795c3533333238...
    [Length: 188]

0000  40 4a 03 8d 62 30 00 19 c5 ea 13 f9 08 00 45 00   @J..b0........E.
0010  00 f0 00 c6 40 00 40 06 14 57 c0 a8 00 47 45 0a   ....@.@..W...GE.
0020  1e f2 cb 95 74 cc e6 ea b7 37 ac 56 df 46 80 18   ....t....7.V.F..
0030  44 70 24 07 00 00 01 01 08 0a 00 00 15 d7 00 f4   Dp$.............
0040  94 d6 5c 69 6e 76 69 74 65 74 6f 5c 5c 73 65 73   ..\inviteto\\ses
0050  73 6b 65 79 5c 35 33 33 32 38 39 36 37 5c 70 72   skey\53328967\pr
0060  6f 64 75 63 74 73 5c 31 30 33 30 37 5c 66 69 6e   oducts\10307\fin
0070  61 6c 5c 5c 67 65 74 70 72 6f 66 69 6c 65 5c 5c   al\\getprofile\\
0080  73 65 73 73 6b 65 79 5c 35 33 33 32 38 39 36 37   sesskey\53328967
0090  5c 70 72 6f 66 69 6c 65 69 64 5c 34 31 31 30 31   \profileid\41101
00a0  30 37 30 32 5c 69 64 5c 34 5c 66 69 6e 61 6c 5c   0702\id\4\final\
00b0  5c 73 74 61 74 75 73 5c 31 5c 73 65 73 73 6b 65   \status\1\sesske
00c0  79 5c 35 33 33 32 38 39 36 37 5c 73 74 61 74 73   y\53328967\stats
00d0  74 72 69 6e 67 5c 52 65 73 74 69 6e 67 5c 6c 6f   tring\Resting\lo
00e0  63 73 74 72 69 6e 67 5c 62 66 69 65 6c 64 31 39   cstring\bfield19
00f0  34 32 70 73 32 3a 2f 5c 66 69 6e 61 6c 5c         42ps2:/\final\

No.     Time                       Source                Destination           Protocol Length Info
     10 2012-10-11 23:31:25.265170 192.168.0.71          69.10.24.135          TCP      74     52113 > http [SYN] Seq=0 Win=16384 Len=0 MSS=1460 WS=1 TSval=5591 TSecr=0

Frame 10: 74 bytes on wire (592 bits), 74 bytes captured (592 bits)
    Arrival Time: Oct 11, 2012 23:31:25.265170000 GTB Standard Time
    Epoch Time: 1349987485.265170000 seconds
    [Time delta from previous captured frame: 0.000392000 seconds]
    [Time delta from previous displayed frame: 0.000392000 seconds]
    [Time since reference or first frame: 0.720413000 seconds]
    Frame Number: 10
    Frame Length: 74 bytes (592 bits)
    Capture Length: 74 bytes (592 bits)
    [Frame is marked: False]
    [Frame is ignored: False]
    [Protocols in frame: eth:ip:tcp]
    [Coloring Rule Name: HTTP]
    [Coloring Rule String: http || tcp.port == 80]
Ethernet II, Src: SonyComp_ea:13:f9 (00:19:c5:ea:13:f9), Dst: ZyxelCom_8d:62:30 (40:4a:03:8d:62:30)
    Destination: ZyxelCom_8d:62:30 (40:4a:03:8d:62:30)
        Address: ZyxelCom_8d:62:30 (40:4a:03:8d:62:30)
        .... ...0 .... .... .... .... = IG bit: Individual address (unicast)
        .... ..0. .... .... .... .... = LG bit: Globally unique address (factory default)
    Source: SonyComp_ea:13:f9 (00:19:c5:ea:13:f9)
        Address: SonyComp_ea:13:f9 (00:19:c5:ea:13:f9)
        .... ...0 .... .... .... .... = IG bit: Individual address (unicast)
        .... ..0. .... .... .... .... = LG bit: Globally unique address (factory default)
    Type: IP (0x0800)
Internet Protocol Version 4, Src: 192.168.0.71 (192.168.0.71), Dst: 69.10.24.135 (69.10.24.135)
    Version: 4
    Header length: 20 bytes
    Differentiated Services Field: 0x00 (DSCP 0x00: Default; ECN: 0x00: Not-ECT (Not ECN-Capable Transport))
        0000 00.. = Differentiated Services Codepoint: Default (0x00)
        .... ..00 = Explicit Congestion Notification: Not-ECT (Not ECN-Capable Transport) (0x00)
    Total Length: 60
    Identification: 0x00c7 (199)
    Flags: 0x02 (Don't Fragment)
        0... .... = Reserved bit: Not set
        .1.. .... = Don't fragment: Set
        ..0. .... = More fragments: Not set
    Fragment offset: 0
    Time to live: 64
    Protocol: TCP (6)
    Header checksum: 0x1b75 [correct]
        [Good: True]
        [Bad: False]
    Source: 192.168.0.71 (192.168.0.71)
    Destination: 69.10.24.135 (69.10.24.135)
Transmission Control Protocol, Src Port: 52113 (52113), Dst Port: http (80), Seq: 0, Len: 0
    Source port: 52113 (52113)
    Destination port: http (80)
    [Stream index: 4]
    Sequence number: 0    (relative sequence number)
    Header length: 40 bytes
    Flags: 0x002 (SYN)
        000. .... .... = Reserved: Not set
        ...0 .... .... = Nonce: Not set
        .... 0... .... = Congestion Window Reduced (CWR): Not set
        .... .0.. .... = ECN-Echo: Not set
        .... ..0. .... = Urgent: Not set
        .... ...0 .... = Acknowledgement: Not set
        .... .... 0... = Push: Not set
        .... .... .0.. = Reset: Not set
        .... .... ..1. = Syn: Set
            [Expert Info (Chat/Sequence): Connection establish request (SYN): server port http]
                [Message: Connection establish request (SYN): server port http]
                [Severity level: Chat]
                [Group: Sequence]
        .... .... ...0 = Fin: Not set
    Window size value: 16384
    [Calculated window size: 16384]
    Checksum: 0xe6e9 [validation disabled]
        [Good Checksum: False]
        [Bad Checksum: False]
    Options: (20 bytes)
        Maximum segment size: 1460 bytes
        No-Operation (NOP)
        Window scale: 0 (multiply by 1)
            Kind: Window Scale (3)
            Length: 3
            Shift count: 0
            [Multiplier: 1]
        No-Operation (NOP)
        No-Operation (NOP)
        Timestamps: TSval 5591, TSecr 0
            Kind: Timestamp (8)
            Length: 10
            Timestamp value: 5591
            Timestamp echo reply: 0

0000  40 4a 03 8d 62 30 00 19 c5 ea 13 f9 08 00 45 00   @J..b0........E.
0010  00 3c 00 c7 40 00 40 06 1b 75 c0 a8 00 47 45 0a   .<..@.@..u...GE.
0020  18 87 cb 91 00 50 eb a1 38 43 00 00 00 00 a0 02   .....P..8C......
0030  40 00 e6 e9 00 00 02 04 05 b4 01 03 03 00 01 01   @...............
0040  08 0a 00 00 15 d7 00 00 00 00                     ..........

No.     Time                       Source                Destination           Protocol Length Info
     11 2012-10-11 23:31:25.265473 192.168.0.71          69.10.24.135          TCP      74     52112 > http [SYN] Seq=0 Win=16384 Len=0 MSS=1460 WS=1 TSval=5591 TSecr=0

Frame 11: 74 bytes on wire (592 bits), 74 bytes captured (592 bits)
    Arrival Time: Oct 11, 2012 23:31:25.265473000 GTB Standard Time
    Epoch Time: 1349987485.265473000 seconds
    [Time delta from previous captured frame: 0.000303000 seconds]
    [Time delta from previous displayed frame: 0.000303000 seconds]
    [Time since reference or first frame: 0.720716000 seconds]
    Frame Number: 11
    Frame Length: 74 bytes (592 bits)
    Capture Length: 74 bytes (592 bits)
    [Frame is marked: False]
    [Frame is ignored: False]
    [Protocols in frame: eth:ip:tcp]
    [Coloring Rule Name: HTTP]
    [Coloring Rule String: http || tcp.port == 80]
Ethernet II, Src: SonyComp_ea:13:f9 (00:19:c5:ea:13:f9), Dst: ZyxelCom_8d:62:30 (40:4a:03:8d:62:30)
    Destination: ZyxelCom_8d:62:30 (40:4a:03:8d:62:30)
        Address: ZyxelCom_8d:62:30 (40:4a:03:8d:62:30)
        .... ...0 .... .... .... .... = IG bit: Individual address (unicast)
        .... ..0. .... .... .... .... = LG bit: Globally unique address (factory default)
    Source: SonyComp_ea:13:f9 (00:19:c5:ea:13:f9)
        Address: SonyComp_ea:13:f9 (00:19:c5:ea:13:f9)
        .... ...0 .... .... .... .... = IG bit: Individual address (unicast)
        .... ..0. .... .... .... .... = LG bit: Globally unique address (factory default)
    Type: IP (0x0800)
Internet Protocol Version 4, Src: 192.168.0.71 (192.168.0.71), Dst: 69.10.24.135 (69.10.24.135)
    Version: 4
    Header length: 20 bytes
    Differentiated Services Field: 0x00 (DSCP 0x00: Default; ECN: 0x00: Not-ECT (Not ECN-Capable Transport))
        0000 00.. = Differentiated Services Codepoint: Default (0x00)
        .... ..00 = Explicit Congestion Notification: Not-ECT (Not ECN-Capable Transport) (0x00)
    Total Length: 60
    Identification: 0x00c8 (200)
    Flags: 0x02 (Don't Fragment)
        0... .... = Reserved bit: Not set
        .1.. .... = Don't fragment: Set
        ..0. .... = More fragments: Not set
    Fragment offset: 0
    Time to live: 64
    Protocol: TCP (6)
    Header checksum: 0x1b74 [correct]
        [Good: True]
        [Bad: False]
    Source: 192.168.0.71 (192.168.0.71)
    Destination: 69.10.24.135 (69.10.24.135)
Transmission Control Protocol, Src Port: 52112 (52112), Dst Port: http (80), Seq: 0, Len: 0
    Source port: 52112 (52112)
    Destination port: http (80)
    [Stream index: 5]
    Sequence number: 0    (relative sequence number)
    Header length: 40 bytes
    Flags: 0x002 (SYN)
        000. .... .... = Reserved: Not set
        ...0 .... .... = Nonce: Not set
        .... 0... .... = Congestion Window Reduced (CWR): Not set
        .... .0.. .... = ECN-Echo: Not set
        .... ..0. .... = Urgent: Not set
        .... ...0 .... = Acknowledgement: Not set
        .... .... 0... = Push: Not set
        .... .... .0.. = Reset: Not set
        .... .... ..1. = Syn: Set
            [Expert Info (Chat/Sequence): Connection establish request (SYN): server port http]
                [Message: Connection establish request (SYN): server port http]
                [Severity level: Chat]
                [Group: Sequence]
        .... .... ...0 = Fin: Not set
    Window size value: 16384
    [Calculated window size: 16384]
    Checksum: 0x50c1 [validation disabled]
        [Good Checksum: False]
        [Bad Checksum: False]
    Options: (20 bytes)
        Maximum segment size: 1460 bytes
        No-Operation (NOP)
        Window scale: 0 (multiply by 1)
            Kind: Window Scale (3)
            Length: 3
            Shift count: 0
            [Multiplier: 1]
        No-Operation (NOP)
        No-Operation (NOP)
        Timestamps: TSval 5591, TSecr 0
            Kind: Timestamp (8)
            Length: 10
            Timestamp value: 5591
            Timestamp echo reply: 0

0000  40 4a 03 8d 62 30 00 19 c5 ea 13 f9 08 00 45 00   @J..b0........E.
0010  00 3c 00 c8 40 00 40 06 1b 74 c0 a8 00 47 45 0a   .<..@.@..t...GE.
0020  18 87 cb 90 00 50 ec 74 cd 99 00 00 00 00 a0 02   .....P.t........
0030  40 00 50 c1 00 00 02 04 05 b4 01 03 03 00 01 01   @.P.............
0040  08 0a 00 00 15 d7 00 00 00 00                     ..........

No.     Time                       Source                Destination           Protocol Length Info
     12 2012-10-11 23:31:25.265871 192.168.0.71          69.10.24.135          TCP      74     52111 > http [SYN] Seq=0 Win=16384 Len=0 MSS=1460 WS=1 TSval=5591 TSecr=0

Frame 12: 74 bytes on wire (592 bits), 74 bytes captured (592 bits)
    Arrival Time: Oct 11, 2012 23:31:25.265871000 GTB Standard Time
    Epoch Time: 1349987485.265871000 seconds
    [Time delta from previous captured frame: 0.000398000 seconds]
    [Time delta from previous displayed frame: 0.000398000 seconds]
    [Time since reference or first frame: 0.721114000 seconds]
    Frame Number: 12
    Frame Length: 74 bytes (592 bits)
    Capture Length: 74 bytes (592 bits)
    [Frame is marked: False]
    [Frame is ignored: False]
    [Protocols in frame: eth:ip:tcp]
    [Coloring Rule Name: HTTP]
    [Coloring Rule String: http || tcp.port == 80]
Ethernet II, Src: SonyComp_ea:13:f9 (00:19:c5:ea:13:f9), Dst: ZyxelCom_8d:62:30 (40:4a:03:8d:62:30)
    Destination: ZyxelCom_8d:62:30 (40:4a:03:8d:62:30)
        Address: ZyxelCom_8d:62:30 (40:4a:03:8d:62:30)
        .... ...0 .... .... .... .... = IG bit: Individual address (unicast)
        .... ..0. .... .... .... .... = LG bit: Globally unique address (factory default)
    Source: SonyComp_ea:13:f9 (00:19:c5:ea:13:f9)
        Address: SonyComp_ea:13:f9 (00:19:c5:ea:13:f9)
        .... ...0 .... .... .... .... = IG bit: Individual address (unicast)
        .... ..0. .... .... .... .... = LG bit: Globally unique address (factory default)
    Type: IP (0x0800)
Internet Protocol Version 4, Src: 192.168.0.71 (192.168.0.71), Dst: 69.10.24.135 (69.10.24.135)
    Version: 4
    Header length: 20 bytes
    Differentiated Services Field: 0x00 (DSCP 0x00: Default; ECN: 0x00: Not-ECT (Not ECN-Capable Transport))
        0000 00.. = Differentiated Services Codepoint: Default (0x00)
        .... ..00 = Explicit Congestion Notification: Not-ECT (Not ECN-Capable Transport) (0x00)
    Total Length: 60
    Identification: 0x00c9 (201)
    Flags: 0x02 (Don't Fragment)
        0... .... = Reserved bit: Not set
        .1.. .... = Don't fragment: Set
        ..0. .... = More fragments: Not set
    Fragment offset: 0
    Time to live: 64
    Protocol: TCP (6)
    Header checksum: 0x1b73 [correct]
        [Good: True]
        [Bad: False]
    Source: 192.168.0.71 (192.168.0.71)
    Destination: 69.10.24.135 (69.10.24.135)
Transmission Control Protocol, Src Port: 52111 (52111), Dst Port: http (80), Seq: 0, Len: 0
    Source port: 52111 (52111)
    Destination port: http (80)
    [Stream index: 6]
    Sequence number: 0    (relative sequence number)
    Header length: 40 bytes
    Flags: 0x002 (SYN)
        000. .... .... = Reserved: Not set
        ...0 .... .... = Nonce: Not set
        .... 0... .... = Congestion Window Reduced (CWR): Not set
        .... .0.. .... = ECN-Echo: Not set
        .... ..0. .... = Urgent: Not set
        .... ...0 .... = Acknowledgement: Not set
        .... .... 0... = Push: Not set
        .... .... .0.. = Reset: Not set
        .... .... ..1. = Syn: Set
            [Expert Info (Chat/Sequence): Connection establish request (SYN): server port http]
                [Message: Connection establish request (SYN): server port http]
                [Severity level: Chat]
                [Group: Sequence]
        .... .... ...0 = Fin: Not set
    Window size value: 16384
    [Calculated window size: 16384]
    Checksum: 0x1f38 [validation disabled]
        [Good Checksum: False]
        [Bad Checksum: False]
    Options: (20 bytes)
        Maximum segment size: 1460 bytes
        No-Operation (NOP)
        Window scale: 0 (multiply by 1)
            Kind: Window Scale (3)
            Length: 3
            Shift count: 0
            [Multiplier: 1]
        No-Operation (NOP)
        No-Operation (NOP)
        Timestamps: TSval 5591, TSecr 0
            Kind: Timestamp (8)
            Length: 10
            Timestamp value: 5591
            Timestamp echo reply: 0

0000  40 4a 03 8d 62 30 00 19 c5 ea 13 f9 08 00 45 00   @J..b0........E.
0010  00 3c 00 c9 40 00 40 06 1b 73 c0 a8 00 47 45 0a   .<..@.@..s...GE.
0020  18 87 cb 8f 00 50 ed 65 fe 32 00 00 00 00 a0 02   .....P.e.2......
0030  40 00 1f 38 00 00 02 04 05 b4 01 03 03 00 01 01   @..8............
0040  08 0a 00 00 15 d7 00 00 00 00                     ..........

No.     Time                       Source                Destination           Protocol Length Info
     13 2012-10-11 23:31:25.457725 192.168.0.71          69.10.24.135          TCP      60     52116 > http [ACK] Seq=1 Ack=1 Win=17520 Len=0

Frame 13: 60 bytes on wire (480 bits), 60 bytes captured (480 bits)
    Arrival Time: Oct 11, 2012 23:31:25.457725000 GTB Standard Time
    Epoch Time: 1349987485.457725000 seconds
    [Time delta from previous captured frame: 0.191854000 seconds]
    [Time delta from previous displayed frame: 0.191854000 seconds]
    [Time since reference or first frame: 0.912968000 seconds]
    Frame Number: 13
    Frame Length: 60 bytes (480 bits)
    Capture Length: 60 bytes (480 bits)
    [Frame is marked: False]
    [Frame is ignored: False]
    [Protocols in frame: eth:ip:tcp]
    [Coloring Rule Name: HTTP]
    [Coloring Rule String: http || tcp.port == 80]
Ethernet II, Src: SonyComp_ea:13:f9 (00:19:c5:ea:13:f9), Dst: ZyxelCom_8d:62:30 (40:4a:03:8d:62:30)
    Destination: ZyxelCom_8d:62:30 (40:4a:03:8d:62:30)
        Address: ZyxelCom_8d:62:30 (40:4a:03:8d:62:30)
        .... ...0 .... .... .... .... = IG bit: Individual address (unicast)
        .... ..0. .... .... .... .... = LG bit: Globally unique address (factory default)
    Source: SonyComp_ea:13:f9 (00:19:c5:ea:13:f9)
        Address: SonyComp_ea:13:f9 (00:19:c5:ea:13:f9)
        .... ...0 .... .... .... .... = IG bit: Individual address (unicast)
        .... ..0. .... .... .... .... = LG bit: Globally unique address (factory default)
    Type: IP (0x0800)
    Trailer: 000000000000
Internet Protocol Version 4, Src: 192.168.0.71 (192.168.0.71), Dst: 69.10.24.135 (69.10.24.135)
    Version: 4
    Header length: 20 bytes
    Differentiated Services Field: 0x00 (DSCP 0x00: Default; ECN: 0x00: Not-ECT (Not ECN-Capable Transport))
        0000 00.. = Differentiated Services Codepoint: Default (0x00)
        .... ..00 = Explicit Congestion Notification: Not-ECT (Not ECN-Capable Transport) (0x00)
    Total Length: 40
    Identification: 0x00ca (202)
    Flags: 0x02 (Don't Fragment)
        0... .... = Reserved bit: Not set
        .1.. .... = Don't fragment: Set
        ..0. .... = More fragments: Not set
    Fragment offset: 0
    Time to live: 64
    Protocol: TCP (6)
    Header checksum: 0x1b86 [correct]
        [Good: True]
        [Bad: False]
    Source: 192.168.0.71 (192.168.0.71)
    Destination: 69.10.24.135 (69.10.24.135)
Transmission Control Protocol, Src Port: 52116 (52116), Dst Port: http (80), Seq: 1, Ack: 1, Len: 0
    Source port: 52116 (52116)
    Destination port: http (80)
    [Stream index: 1]
    Sequence number: 1    (relative sequence number)
    Acknowledgement number: 1    (relative ack number)
    Header length: 20 bytes
    Flags: 0x010 (ACK)
        000. .... .... = Reserved: Not set
        ...0 .... .... = Nonce: Not set
        .... 0... .... = Congestion Window Reduced (CWR): Not set
        .... .0.. .... = ECN-Echo: Not set
        .... ..0. .... = Urgent: Not set
        .... ...1 .... = Acknowledgement: Set
        .... .... 0... = Push: Not set
        .... .... .0.. = Reset: Not set
        .... .... ..0. = Syn: Not set
        .... .... ...0 = Fin: Not set
    Window size value: 17520
    [Calculated window size: 17520]
    [Window size scaling factor: 1]
    Checksum: 0x930e [validation disabled]
        [Good Checksum: False]
        [Bad Checksum: False]

0000  40 4a 03 8d 62 30 00 19 c5 ea 13 f9 08 00 45 00   @J..b0........E.
0010  00 28 00 ca 40 00 40 06 1b 86 c0 a8 00 47 45 0a   .(..@.@......GE.
0020  18 87 cb 94 00 50 e8 6f 7a 34 f6 b6 94 95 50 10   .....P.oz4....P.
0030  44 70 93 0e 00 00 00 00 00 00 00 00               Dp..........

No.     Time                       Source                Destination           Protocol Length Info
     14 2012-10-11 23:31:25.461963 192.168.0.71          69.10.24.135          TCP      60     52114 > http [ACK] Seq=1 Ack=1 Win=17520 Len=0

Frame 14: 60 bytes on wire (480 bits), 60 bytes captured (480 bits)
    Arrival Time: Oct 11, 2012 23:31:25.461963000 GTB Standard Time
    Epoch Time: 1349987485.461963000 seconds
    [Time delta from previous captured frame: 0.004238000 seconds]
    [Time delta from previous displayed frame: 0.004238000 seconds]
    [Time since reference or first frame: 0.917206000 seconds]
    Frame Number: 14
    Frame Length: 60 bytes (480 bits)
    Capture Length: 60 bytes (480 bits)
    [Frame is marked: False]
    [Frame is ignored: False]
    [Protocols in frame: eth:ip:tcp]
Ethernet II, Src: SonyComp_ea:13:f9 (00:19:c5:ea:13:f9), Dst: ZyxelCom_8d:62:30 (40:4a:03:8d:62:30)
    Destination: ZyxelCom_8d:62:30 (40:4a:03:8d:62:30)
        Address: ZyxelCom_8d:62:30 (40:4a:03:8d:62:30)
        .... ...0 .... .... .... .... = IG bit: Individual address (unicast)
        .... ..0. .... .... .... .... = LG bit: Globally unique address (factory default)
    Source: SonyComp_ea:13:f9 (00:19:c5:ea:13:f9)
        Address: SonyComp_ea:13:f9 (00:19:c5:ea:13:f9)
        .... ...0 .... .... .... .... = IG bit: Individual address (unicast)
        .... ..0. .... .... .... .... = LG bit: Globally unique address (factory default)
    Type: IP (0x0800)
    Trailer: 000000000000
Internet Protocol Version 4, Src: 192.168.0.71 (192.168.0.71), Dst: 69.10.24.135 (69.10.24.135)
    Version: 4
    Header length: 20 bytes
    Differentiated Services Field: 0x00 (DSCP 0x00: Default; ECN: 0x00: Not-ECT (Not ECN-Capable Transport))
        0000 00.. = Differentiated Services Codepoint: Default (0x00)
        .... ..00 = Explicit Congestion Notification: Not-ECT (Not ECN-Capable Transport) (0x00)
    Total Length: 40
    Identification: 0x00cb (203)
    Flags: 0x02 (Don't Fragment)
        0... .... = Reserved bit: Not set
        .1.. .... = Don't fragment: Set
        ..0. .... = More fragments: Not set
    Fragment offset: 0
    Time to live: 64
    Protocol: TCP (6)
    Header checksum: 0x1b85 [correct]
        [Good: True]
        [Bad: False]
    Source: 192.168.0.71 (192.168.0.71)
    Destination: 69.10.24.135 (69.10.24.135)
Transmission Control Protocol, Src Port: 52114 (52114), Dst Port: http (80), Seq: 1, Ack: 1, Len: 0
    Source port: 52114 (52114)
    Destination port: http (80)
    [Stream index: 3]
    Sequence number: 1    (relative sequence number)
    Acknowledgement number: 1    (relative ack number)
    Header length: 20 bytes
    Flags: 0x010 (ACK)
        000. .... .... = Reserved: Not set
        ...0 .... .... = Nonce: Not set
        .... 0... .... = Congestion Window Reduced (CWR): Not set
        .... .0.. .... = ECN-Echo: Not set
        .... ..0. .... = Urgent: Not set
        .... ...1 .... = Acknowledgement: Set
        .... .... 0... = Push: Not set
        .... .... .0.. = Reset: Not set
        .... .... ..0. = Syn: Not set
        .... .... ...0 = Fin: Not set
    Window size value: 17520
    [Calculated window size: 17520]
    [Window size scaling factor: 1]
    Checksum: 0x6acc [validation disabled]
        [Good Checksum: False]
        [Bad Checksum: False]

0000  40 4a 03 8d 62 30 00 19 c5 ea 13 f9 08 00 45 00   @J..b0........E.
0010  00 28 00 cb 40 00 40 06 1b 85 c0 a8 00 47 45 0a   .(..@.@......GE.
0020  18 87 cb 92 00 50 ea 1b e6 20 81 2e c4 c9 50 10   .....P... ....P.
0030  44 70 6a cc 00 00 00 00 00 00 00 00               Dpj.........

No.     Time                       Source                Destination           Protocol Length Info
     15 2012-10-11 23:31:25.462192 192.168.0.71          69.10.24.135          TCP      60     52115 > http [ACK] Seq=1 Ack=1 Win=17520 Len=0

Frame 15: 60 bytes on wire (480 bits), 60 bytes captured (480 bits)
    Arrival Time: Oct 11, 2012 23:31:25.462192000 GTB Standard Time
    Epoch Time: 1349987485.462192000 seconds
    [Time delta from previous captured frame: 0.000229000 seconds]
    [Time delta from previous displayed frame: 0.000229000 seconds]
    [Time since reference or first frame: 0.917435000 seconds]
    Frame Number: 15
    Frame Length: 60 bytes (480 bits)
    Capture Length: 60 bytes (480 bits)
    [Frame is marked: False]
    [Frame is ignored: False]
    [Protocols in frame: eth:ip:tcp]
Ethernet II, Src: SonyComp_ea:13:f9 (00:19:c5:ea:13:f9), Dst: ZyxelCom_8d:62:30 (40:4a:03:8d:62:30)
    Destination: ZyxelCom_8d:62:30 (40:4a:03:8d:62:30)
        Address: ZyxelCom_8d:62:30 (40:4a:03:8d:62:30)
        .... ...0 .... .... .... .... = IG bit: Individual address (unicast)
        .... ..0. .... .... .... .... = LG bit: Globally unique address (factory default)
    Source: SonyComp_ea:13:f9 (00:19:c5:ea:13:f9)
        Address: SonyComp_ea:13:f9 (00:19:c5:ea:13:f9)
        .... ...0 .... .... .... .... = IG bit: Individual address (unicast)
        .... ..0. .... .... .... .... = LG bit: Globally unique address (factory default)
    Type: IP (0x0800)
    Trailer: 000000000000
Internet Protocol Version 4, Src: 192.168.0.71 (192.168.0.71), Dst: 69.10.24.135 (69.10.24.135)
    Version: 4
    Header length: 20 bytes
    Differentiated Services Field: 0x00 (DSCP 0x00: Default; ECN: 0x00: Not-ECT (Not ECN-Capable Transport))
        0000 00.. = Differentiated Services Codepoint: Default (0x00)
        .... ..00 = Explicit Congestion Notification: Not-ECT (Not ECN-Capable Transport) (0x00)
    Total Length: 40
    Identification: 0x00cc (204)
    Flags: 0x02 (Don't Fragment)
        0... .... = Reserved bit: Not set
        .1.. .... = Don't fragment: Set
        ..0. .... = More fragments: Not set
    Fragment offset: 0
    Time to live: 64
    Protocol: TCP (6)
    Header checksum: 0x1b84 [correct]
        [Good: True]
        [Bad: False]
    Source: 192.168.0.71 (192.168.0.71)
    Destination: 69.10.24.135 (69.10.24.135)
Transmission Control Protocol, Src Port: 52115 (52115), Dst Port: http (80), Seq: 1, Ack: 1, Len: 0
    Source port: 52115 (52115)
    Destination port: http (80)
    [Stream index: 2]
    Sequence number: 1    (relative sequence number)
    Acknowledgement number: 1    (relative ack number)
    Header length: 20 bytes
    Flags: 0x010 (ACK)
        000. .... .... = Reserved: Not set
        ...0 .... .... = Nonce: Not set
        .... 0... .... = Congestion Window Reduced (CWR): Not set
        .... .0.. .... = ECN-Echo: Not set
        .... ..0. .... = Urgent: Not set
        .... ...1 .... = Acknowledgement: Set
        .... .... 0... = Push: Not set
        .... .... .0.. = Reset: Not set
        .... .... ..0. = Syn: Not set
        .... .... ...0 = Fin: Not set
    Window size value: 17520
    [Calculated window size: 17520]
    [Window size scaling factor: 1]
    Checksum: 0x83a6 [validation disabled]
        [Good Checksum: False]
        [Bad Checksum: False]

0000  40 4a 03 8d 62 30 00 19 c5 ea 13 f9 08 00 45 00   @J..b0........E.
0010  00 28 00 cc 40 00 40 06 1b 84 c0 a8 00 47 45 0a   .(..@.@......GE.
0020  18 87 cb 93 00 50 e9 bf c1 10 02 e6 4f a3 50 10   .....P......O.P.
0030  44 70 83 a6 00 00 00 00 00 00 00 00               Dp..........

No.     Time                       Source                Destination           Protocol Length Info
     16 2012-10-11 23:31:25.465191 192.168.0.71          69.10.24.135          HTTP     188    GET /BFMC/Clans/claninfo.aspx?profileid=411010702 HTTP/1.1 

Frame 16: 188 bytes on wire (1504 bits), 188 bytes captured (1504 bits)
    Arrival Time: Oct 11, 2012 23:31:25.465191000 GTB Standard Time
    Epoch Time: 1349987485.465191000 seconds
    [Time delta from previous captured frame: 0.002999000 seconds]
    [Time delta from previous displayed frame: 0.002999000 seconds]
    [Time since reference or first frame: 0.920434000 seconds]
    Frame Number: 16
    Frame Length: 188 bytes (1504 bits)
    Capture Length: 188 bytes (1504 bits)
    [Frame is marked: False]
    [Frame is ignored: False]
    [Protocols in frame: eth:ip:tcp:http]
Ethernet II, Src: SonyComp_ea:13:f9 (00:19:c5:ea:13:f9), Dst: ZyxelCom_8d:62:30 (40:4a:03:8d:62:30)
    Destination: ZyxelCom_8d:62:30 (40:4a:03:8d:62:30)
        Address: ZyxelCom_8d:62:30 (40:4a:03:8d:62:30)
        .... ...0 .... .... .... .... = IG bit: Individual address (unicast)
        .... ..0. .... .... .... .... = LG bit: Globally unique address (factory default)
    Source: SonyComp_ea:13:f9 (00:19:c5:ea:13:f9)
        Address: SonyComp_ea:13:f9 (00:19:c5:ea:13:f9)
        .... ...0 .... .... .... .... = IG bit: Individual address (unicast)
        .... ..0. .... .... .... .... = LG bit: Globally unique address (factory default)
    Type: IP (0x0800)
Internet Protocol Version 4, Src: 192.168.0.71 (192.168.0.71), Dst: 69.10.24.135 (69.10.24.135)
    Version: 4
    Header length: 20 bytes
    Differentiated Services Field: 0x00 (DSCP 0x00: Default; ECN: 0x00: Not-ECT (Not ECN-Capable Transport))
        0000 00.. = Differentiated Services Codepoint: Default (0x00)
        .... ..00 = Explicit Congestion Notification: Not-ECT (Not ECN-Capable Transport) (0x00)
    Total Length: 174
    Identification: 0x00cd (205)
    Flags: 0x02 (Don't Fragment)
        0... .... = Reserved bit: Not set
        .1.. .... = Don't fragment: Set
        ..0. .... = More fragments: Not set
    Fragment offset: 0
    Time to live: 64
    Protocol: TCP (6)
    Header checksum: 0x1afd [correct]
        [Good: True]
        [Bad: False]
    Source: 192.168.0.71 (192.168.0.71)
    Destination: 69.10.24.135 (69.10.24.135)
Transmission Control Protocol, Src Port: 52116 (52116), Dst Port: http (80), Seq: 1, Ack: 1, Len: 134
    Source port: 52116 (52116)
    Destination port: http (80)
    [Stream index: 1]
    Sequence number: 1    (relative sequence number)
    [Next sequence number: 135    (relative sequence number)]
    Acknowledgement number: 1    (relative ack number)
    Header length: 20 bytes
    Flags: 0x018 (PSH, ACK)
        000. .... .... = Reserved: Not set
        ...0 .... .... = Nonce: Not set
        .... 0... .... = Congestion Window Reduced (CWR): Not set
        .... .0.. .... = ECN-Echo: Not set
        .... ..0. .... = Urgent: Not set
        .... ...1 .... = Acknowledgement: Set
        .... .... 1... = Push: Set
        .... .... .0.. = Reset: Not set
        .... .... ..0. = Syn: Not set
        .... .... ...0 = Fin: Not set
    Window size value: 17520
    [Calculated window size: 17520]
    [Window size scaling factor: 1]
    Checksum: 0xca5e [validation disabled]
        [Good Checksum: False]
        [Bad Checksum: False]
    [SEQ/ACK analysis]
        [Bytes in flight: 135]
Hypertext Transfer Protocol
    GET /BFMC/Clans/claninfo.aspx?profileid=411010702 HTTP/1.1\r\n
        [Expert Info (Chat/Sequence): GET /BFMC/Clans/claninfo.aspx?profileid=411010702 HTTP/1.1\r\n]
            [Message: GET /BFMC/Clans/claninfo.aspx?profileid=411010702 HTTP/1.1\r\n]
            [Severity level: Chat]
            [Group: Sequence]
        Request Method: GET
        Request URI: /BFMC/Clans/claninfo.aspx?profileid=411010702
        Request Version: HTTP/1.1
    Host: bfmc.gamespy.com\r\n
    User-Agent: GameSpyHTTP/1.0\r\n
    Connection: close\r\n
    \r\n
    [Full request URI: http://bfmc.gamespy.com/BFMC/Clans/claninfo.aspx?profileid=411010702]

0000  40 4a 03 8d 62 30 00 19 c5 ea 13 f9 08 00 45 00   @J..b0........E.
0010  00 ae 00 cd 40 00 40 06 1a fd c0 a8 00 47 45 0a   ....@.@......GE.
0020  18 87 cb 94 00 50 e8 6f 7a 34 f6 b6 94 95 50 18   .....P.oz4....P.
0030  44 70 ca 5e 00 00 47 45 54 20 2f 42 46 4d 43 2f   Dp.^..GET /BFMC/
0040  43 6c 61 6e 73 2f 63 6c 61 6e 69 6e 66 6f 2e 61   Clans/claninfo.a
0050  73 70 78 3f 70 72 6f 66 69 6c 65 69 64 3d 34 31   spx?profileid=41
0060  31 30 31 30 37 30 32 20 48 54 54 50 2f 31 2e 31   1010702 HTTP/1.1
0070  0d 0a 48 6f 73 74 3a 20 62 66 6d 63 2e 67 61 6d   ..Host: bfmc.gam
0080  65 73 70 79 2e 63 6f 6d 0d 0a 55 73 65 72 2d 41   espy.com..User-A
0090  67 65 6e 74 3a 20 47 61 6d 65 53 70 79 48 54 54   gent: GameSpyHTT
00a0  50 2f 31 2e 30 0d 0a 43 6f 6e 6e 65 63 74 69 6f   P/1.0..Connectio
00b0  6e 3a 20 63 6c 6f 73 65 0d 0a 0d 0a               n: close....

No.     Time                       Source                Destination           Protocol Length Info
     17 2012-10-11 23:31:25.465522 192.168.0.71          69.10.24.135          HTTP     307    GET /BFMC/Stats/getplayerinfo.aspx?pid=411010702&getarg=score,rank,pph,kills,suicides,time,lavd,mavd,havd,hed,pld,bod,k1,s1,k2,s2,k3,s3,k4,s4,k5,s5,tk,medals,ttb,mv,ngp HTTP/1.1 

Frame 17: 307 bytes on wire (2456 bits), 307 bytes captured (2456 bits)
    Arrival Time: Oct 11, 2012 23:31:25.465522000 GTB Standard Time
    Epoch Time: 1349987485.465522000 seconds
    [Time delta from previous captured frame: 0.000331000 seconds]
    [Time delta from previous displayed frame: 0.000331000 seconds]
    [Time since reference or first frame: 0.920765000 seconds]
    Frame Number: 17
    Frame Length: 307 bytes (2456 bits)
    Capture Length: 307 bytes (2456 bits)
    [Frame is marked: False]
    [Frame is ignored: False]
    [Protocols in frame: eth:ip:tcp:http]
Ethernet II, Src: SonyComp_ea:13:f9 (00:19:c5:ea:13:f9), Dst: ZyxelCom_8d:62:30 (40:4a:03:8d:62:30)
    Destination: ZyxelCom_8d:62:30 (40:4a:03:8d:62:30)
        Address: ZyxelCom_8d:62:30 (40:4a:03:8d:62:30)
        .... ...0 .... .... .... .... = IG bit: Individual address (unicast)
        .... ..0. .... .... .... .... = LG bit: Globally unique address (factory default)
    Source: SonyComp_ea:13:f9 (00:19:c5:ea:13:f9)
        Address: SonyComp_ea:13:f9 (00:19:c5:ea:13:f9)
        .... ...0 .... .... .... .... = IG bit: Individual address (unicast)
        .... ..0. .... .... .... .... = LG bit: Globally unique address (factory default)
    Type: IP (0x0800)
Internet Protocol Version 4, Src: 192.168.0.71 (192.168.0.71), Dst: 69.10.24.135 (69.10.24.135)
    Version: 4
    Header length: 20 bytes
    Differentiated Services Field: 0x00 (DSCP 0x00: Default; ECN: 0x00: Not-ECT (Not ECN-Capable Transport))
        0000 00.. = Differentiated Services Codepoint: Default (0x00)
        .... ..00 = Explicit Congestion Notification: Not-ECT (Not ECN-Capable Transport) (0x00)
    Total Length: 293
    Identification: 0x00ce (206)
    Flags: 0x02 (Don't Fragment)
        0... .... = Reserved bit: Not set
        .1.. .... = Don't fragment: Set
        ..0. .... = More fragments: Not set
    Fragment offset: 0
    Time to live: 64
    Protocol: TCP (6)
    Header checksum: 0x1a85 [correct]
        [Good: True]
        [Bad: False]
    Source: 192.168.0.71 (192.168.0.71)
    Destination: 69.10.24.135 (69.10.24.135)
Transmission Control Protocol, Src Port: 52115 (52115), Dst Port: http (80), Seq: 1, Ack: 1, Len: 253
    Source port: 52115 (52115)
    Destination port: http (80)
    [Stream index: 2]
    Sequence number: 1    (relative sequence number)
    [Next sequence number: 254    (relative sequence number)]
    Acknowledgement number: 1    (relative ack number)
    Header length: 20 bytes
    Flags: 0x018 (PSH, ACK)
        000. .... .... = Reserved: Not set
        ...0 .... .... = Nonce: Not set
        .... 0... .... = Congestion Window Reduced (CWR): Not set
        .... .0.. .... = ECN-Echo: Not set
        .... ..0. .... = Urgent: Not set
        .... ...1 .... = Acknowledgement: Set
        .... .... 1... = Push: Set
        .... .... .0.. = Reset: Not set
        .... .... ..0. = Syn: Not set
        .... .... ...0 = Fin: Not set
    Window size value: 17520
    [Calculated window size: 17520]
    [Window size scaling factor: 1]
    Checksum: 0x4bba [validation disabled]
        [Good Checksum: False]
        [Bad Checksum: False]
    [SEQ/ACK analysis]
        [Bytes in flight: 254]
Hypertext Transfer Protocol
    GET /BFMC/Stats/getplayerinfo.aspx?pid=411010702&getarg=score,rank,pph,kills,suicides,time,lavd,mavd,havd,hed,pld,bod,k1,s1,k2,s2,k3,s3,k4,s4,k5,s5,tk,medals,ttb,mv,ngp HTTP/1.1\r\n
        [Expert Info (Chat/Sequence): GET /BFMC/Stats/getplayerinfo.aspx?pid=411010702&getarg=score,rank,pph,kills,suicides,time,lavd,mavd,havd,hed,pld,bod,k1,s1,k2,s2,k3,s3,k4,s4,k5,s5,tk,medals,ttb,mv,ngp HTTP/1.1\r\n]
            [Message: GET /BFMC/Stats/getplayerinfo.aspx?pid=411010702&getarg=score,rank,pph,kills,suicides,time,lavd,mavd,havd,hed,pld,bod,k1,s1,k2,s2,k3,s3,k4,s4,k5,s5,tk,medals,ttb,mv,ngp HTTP/1.1\r\n]
            [Severity level: Chat]
            [Group: Sequence]
        Request Method: GET
        Request URI: /BFMC/Stats/getplayerinfo.aspx?pid=411010702&getarg=score,rank,pph,kills,suicides,time,lavd,mavd,havd,hed,pld,bod,k1,s1,k2,s2,k3,s3,k4,s4,k5,s5,tk,medals,ttb,mv,ngp
        Request Version: HTTP/1.1
    Host: bfmc.gamespy.com\r\n
    User-Agent: GameSpyHTTP/1.0\r\n
    Connection: close\r\n
    \r\n
    [Full request URI: http://bfmc.gamespy.com/BFMC/Stats/getplayerinfo.aspx?pid=411010702&getarg=score,rank,pph,kills,suicides,time,lavd,mavd,havd,hed,pld,bod,k1,s1,k2,s2,k3,s3,k4,s4,k5,s5,tk,medals,ttb,mv,ngp]

0000  40 4a 03 8d 62 30 00 19 c5 ea 13 f9 08 00 45 00   @J..b0........E.
0010  01 25 00 ce 40 00 40 06 1a 85 c0 a8 00 47 45 0a   .%..@.@......GE.
0020  18 87 cb 93 00 50 e9 bf c1 10 02 e6 4f a3 50 18   .....P......O.P.
0030  44 70 4b ba 00 00 47 45 54 20 2f 42 46 4d 43 2f   DpK...GET /BFMC/
0040  53 74 61 74 73 2f 67 65 74 70 6c 61 79 65 72 69   Stats/getplayeri
0050  6e 66 6f 2e 61 73 70 78 3f 70 69 64 3d 34 31 31   nfo.aspx?pid=411
0060  30 31 30 37 30 32 26 67 65 74 61 72 67 3d 73 63   010702&getarg=sc
0070  6f 72 65 2c 72 61 6e 6b 2c 70 70 68 2c 6b 69 6c   ore,rank,pph,kil
0080  6c 73 2c 73 75 69 63 69 64 65 73 2c 74 69 6d 65   ls,suicides,time
0090  2c 6c 61 76 64 2c 6d 61 76 64 2c 68 61 76 64 2c   ,lavd,mavd,havd,
00a0  68 65 64 2c 70 6c 64 2c 62 6f 64 2c 6b 31 2c 73   hed,pld,bod,k1,s
00b0  31 2c 6b 32 2c 73 32 2c 6b 33 2c 73 33 2c 6b 34   1,k2,s2,k3,s3,k4
00c0  2c 73 34 2c 6b 35 2c 73 35 2c 74 6b 2c 6d 65 64   ,s4,k5,s5,tk,med
00d0  61 6c 73 2c 74 74 62 2c 6d 76 2c 6e 67 70 20 48   als,ttb,mv,ngp H
00e0  54 54 50 2f 31 2e 31 0d 0a 48 6f 73 74 3a 20 62   TTP/1.1..Host: b
00f0  66 6d 63 2e 67 61 6d 65 73 70 79 2e 63 6f 6d 0d   fmc.gamespy.com.
0100  0a 55 73 65 72 2d 41 67 65 6e 74 3a 20 47 61 6d   .User-Agent: Gam
0110  65 53 70 79 48 54 54 50 2f 31 2e 30 0d 0a 43 6f   eSpyHTTP/1.0..Co
0120  6e 6e 65 63 74 69 6f 6e 3a 20 63 6c 6f 73 65 0d   nnection: close.
0130  0a 0d 0a                                          ...

No.     Time                       Source                Destination           Protocol Length Info
     18 2012-10-11 23:31:25.465802 192.168.0.71          69.10.24.135          HTTP     193    GET /BFMC/Clans/leaderboard.aspx?startrank=1&endrank=7 HTTP/1.1 

Frame 18: 193 bytes on wire (1544 bits), 193 bytes captured (1544 bits)
    Arrival Time: Oct 11, 2012 23:31:25.465802000 GTB Standard Time
    Epoch Time: 1349987485.465802000 seconds
    [Time delta from previous captured frame: 0.000280000 seconds]
    [Time delta from previous displayed frame: 0.000280000 seconds]
    [Time since reference or first frame: 0.921045000 seconds]
    Frame Number: 18
    Frame Length: 193 bytes (1544 bits)
    Capture Length: 193 bytes (1544 bits)
    [Frame is marked: False]
    [Frame is ignored: False]
    [Protocols in frame: eth:ip:tcp:http]
Ethernet II, Src: SonyComp_ea:13:f9 (00:19:c5:ea:13:f9), Dst: ZyxelCom_8d:62:30 (40:4a:03:8d:62:30)
    Destination: ZyxelCom_8d:62:30 (40:4a:03:8d:62:30)
        Address: ZyxelCom_8d:62:30 (40:4a:03:8d:62:30)
        .... ...0 .... .... .... .... = IG bit: Individual address (unicast)
        .... ..0. .... .... .... .... = LG bit: Globally unique address (factory default)
    Source: SonyComp_ea:13:f9 (00:19:c5:ea:13:f9)
        Address: SonyComp_ea:13:f9 (00:19:c5:ea:13:f9)
        .... ...0 .... .... .... .... = IG bit: Individual address (unicast)
        .... ..0. .... .... .... .... = LG bit: Globally unique address (factory default)
    Type: IP (0x0800)
Internet Protocol Version 4, Src: 192.168.0.71 (192.168.0.71), Dst: 69.10.24.135 (69.10.24.135)
    Version: 4
    Header length: 20 bytes
    Differentiated Services Field: 0x00 (DSCP 0x00: Default; ECN: 0x00: Not-ECT (Not ECN-Capable Transport))
        0000 00.. = Differentiated Services Codepoint: Default (0x00)
        .... ..00 = Explicit Congestion Notification: Not-ECT (Not ECN-Capable Transport) (0x00)
    Total Length: 179
    Identification: 0x00cf (207)
    Flags: 0x02 (Don't Fragment)
        0... .... = Reserved bit: Not set
        .1.. .... = Don't fragment: Set
        ..0. .... = More fragments: Not set
    Fragment offset: 0
    Time to live: 64
    Protocol: TCP (6)
    Header checksum: 0x1af6 [correct]
        [Good: True]
        [Bad: False]
    Source: 192.168.0.71 (192.168.0.71)
    Destination: 69.10.24.135 (69.10.24.135)
Transmission Control Protocol, Src Port: 52114 (52114), Dst Port: http (80), Seq: 1, Ack: 1, Len: 139
    Source port: 52114 (52114)
    Destination port: http (80)
    [Stream index: 3]
    Sequence number: 1    (relative sequence number)
    [Next sequence number: 140    (relative sequence number)]
    Acknowledgement number: 1    (relative ack number)
    Header length: 20 bytes
    Flags: 0x018 (PSH, ACK)
        000. .... .... = Reserved: Not set
        ...0 .... .... = Nonce: Not set
        .... 0... .... = Congestion Window Reduced (CWR): Not set
        .... .0.. .... = ECN-Echo: Not set
        .... ..0. .... = Urgent: Not set
        .... ...1 .... = Acknowledgement: Set
        .... .... 1... = Push: Set
        .... .... .0.. = Reset: Not set
        .... .... ..0. = Syn: Not set
        .... .... ...0 = Fin: Not set
    Window size value: 17520
    [Calculated window size: 17520]
    [Window size scaling factor: 1]
    Checksum: 0x5e23 [validation disabled]
        [Good Checksum: False]
        [Bad Checksum: False]
    [SEQ/ACK analysis]
        [Bytes in flight: 140]
Hypertext Transfer Protocol
    GET /BFMC/Clans/leaderboard.aspx?startrank=1&endrank=7 HTTP/1.1\r\n
        [Expert Info (Chat/Sequence): GET /BFMC/Clans/leaderboard.aspx?startrank=1&endrank=7 HTTP/1.1\r\n]
            [Message: GET /BFMC/Clans/leaderboard.aspx?startrank=1&endrank=7 HTTP/1.1\r\n]
            [Severity level: Chat]
            [Group: Sequence]
        Request Method: GET
        Request URI: /BFMC/Clans/leaderboard.aspx?startrank=1&endrank=7
        Request Version: HTTP/1.1
    Host: bfmc.gamespy.com\r\n
    User-Agent: GameSpyHTTP/1.0\r\n
    Connection: close\r\n
    \r\n
    [Full request URI: http://bfmc.gamespy.com/BFMC/Clans/leaderboard.aspx?startrank=1&endrank=7]

0000  40 4a 03 8d 62 30 00 19 c5 ea 13 f9 08 00 45 00   @J..b0........E.
0010  00 b3 00 cf 40 00 40 06 1a f6 c0 a8 00 47 45 0a   ....@.@......GE.
0020  18 87 cb 92 00 50 ea 1b e6 20 81 2e c4 c9 50 18   .....P... ....P.
0030  44 70 5e 23 00 00 47 45 54 20 2f 42 46 4d 43 2f   Dp^#..GET /BFMC/
0040  43 6c 61 6e 73 2f 6c 65 61 64 65 72 62 6f 61 72   Clans/leaderboar
0050  64 2e 61 73 70 78 3f 73 74 61 72 74 72 61 6e 6b   d.aspx?startrank
0060  3d 31 26 65 6e 64 72 61 6e 6b 3d 37 20 48 54 54   =1&endrank=7 HTT
0070  50 2f 31 2e 31 0d 0a 48 6f 73 74 3a 20 62 66 6d   P/1.1..Host: bfm
0080  63 2e 67 61 6d 65 73 70 79 2e 63 6f 6d 0d 0a 55   c.gamespy.com..U
0090  73 65 72 2d 41 67 65 6e 74 3a 20 47 61 6d 65 53   ser-Agent: GameS
00a0  70 79 48 54 54 50 2f 31 2e 30 0d 0a 43 6f 6e 6e   pyHTTP/1.0..Conn
00b0  65 63 74 69 6f 6e 3a 20 63 6c 6f 73 65 0d 0a 0d   ection: close...
00c0  0a                                                .

No.     Time                       Source                Destination           Protocol Length Info
     19 2012-10-11 23:31:25.482141 192.168.0.71          69.10.24.135          TCP      60     52113 > http [ACK] Seq=1 Ack=1 Win=17520 Len=0

Frame 19: 60 bytes on wire (480 bits), 60 bytes captured (480 bits)
    Arrival Time: Oct 11, 2012 23:31:25.482141000 GTB Standard Time
    Epoch Time: 1349987485.482141000 seconds
    [Time delta from previous captured frame: 0.016339000 seconds]
    [Time delta from previous displayed frame: 0.016339000 seconds]
    [Time since reference or first frame: 0.937384000 seconds]
    Frame Number: 19
    Frame Length: 60 bytes (480 bits)
    Capture Length: 60 bytes (480 bits)
    [Frame is marked: False]
    [Frame is ignored: False]
    [Protocols in frame: eth:ip:tcp]
Ethernet II, Src: SonyComp_ea:13:f9 (00:19:c5:ea:13:f9), Dst: ZyxelCom_8d:62:30 (40:4a:03:8d:62:30)
    Destination: ZyxelCom_8d:62:30 (40:4a:03:8d:62:30)
        Address: ZyxelCom_8d:62:30 (40:4a:03:8d:62:30)
        .... ...0 .... .... .... .... = IG bit: Individual address (unicast)
        .... ..0. .... .... .... .... = LG bit: Globally unique address (factory default)
    Source: SonyComp_ea:13:f9 (00:19:c5:ea:13:f9)
        Address: SonyComp_ea:13:f9 (00:19:c5:ea:13:f9)
        .... ...0 .... .... .... .... = IG bit: Individual address (unicast)
        .... ..0. .... .... .... .... = LG bit: Globally unique address (factory default)
    Type: IP (0x0800)
    Trailer: 000000000000
Internet Protocol Version 4, Src: 192.168.0.71 (192.168.0.71), Dst: 69.10.24.135 (69.10.24.135)
    Version: 4
    Header length: 20 bytes
    Differentiated Services Field: 0x00 (DSCP 0x00: Default; ECN: 0x00: Not-ECT (Not ECN-Capable Transport))
        0000 00.. = Differentiated Services Codepoint: Default (0x00)
        .... ..00 = Explicit Congestion Notification: Not-ECT (Not ECN-Capable Transport) (0x00)
    Total Length: 40
    Identification: 0x00d0 (208)
    Flags: 0x02 (Don't Fragment)
        0... .... = Reserved bit: Not set
        .1.. .... = Don't fragment: Set
        ..0. .... = More fragments: Not set
    Fragment offset: 0
    Time to live: 64
    Protocol: TCP (6)
    Header checksum: 0x1b80 [correct]
        [Good: True]
        [Bad: False]
    Source: 192.168.0.71 (192.168.0.71)
    Destination: 69.10.24.135 (69.10.24.135)
Transmission Control Protocol, Src Port: 52113 (52113), Dst Port: http (80), Seq: 1, Ack: 1, Len: 0
    Source port: 52113 (52113)
    Destination port: http (80)
    [Stream index: 4]
    Sequence number: 1    (relative sequence number)
    Acknowledgement number: 1    (relative ack number)
    Header length: 20 bytes
    Flags: 0x010 (ACK)
        000. .... .... = Reserved: Not set
        ...0 .... .... = Nonce: Not set
        .... 0... .... = Congestion Window Reduced (CWR): Not set
        .... .0.. .... = ECN-Echo: Not set
        .... ..0. .... = Urgent: Not set
        .... ...1 .... = Acknowledgement: Set
        .... .... 0... = Push: Not set
        .... .... .0.. = Reset: Not set
        .... .... ..0. = Syn: Not set
        .... .... ...0 = Fin: Not set
    Window size value: 17520
    [Calculated window size: 17520]
    [Window size scaling factor: 1]
    Checksum: 0x6d58 [validation disabled]
        [Good Checksum: False]
        [Bad Checksum: False]

0000  40 4a 03 8d 62 30 00 19 c5 ea 13 f9 08 00 45 00   @J..b0........E.
0010  00 28 00 d0 40 00 40 06 1b 80 c0 a8 00 47 45 0a   .(..@.@......GE.
0020  18 87 cb 91 00 50 eb a1 38 44 f5 17 fa ab 50 10   .....P..8D....P.
0030  44 70 6d 58 00 00 00 00 00 00 00 00               DpmX........

No.     Time                       Source                Destination           Protocol Length Info
     20 2012-10-11 23:31:25.482332 192.168.0.71          69.10.24.135          TCP      60     52112 > http [ACK] Seq=1 Ack=1 Win=17520 Len=0

Frame 20: 60 bytes on wire (480 bits), 60 bytes captured (480 bits)
    Arrival Time: Oct 11, 2012 23:31:25.482332000 GTB Standard Time
    Epoch Time: 1349987485.482332000 seconds
    [Time delta from previous captured frame: 0.000191000 seconds]
    [Time delta from previous displayed frame: 0.000191000 seconds]
    [Time since reference or first frame: 0.937575000 seconds]
    Frame Number: 20
    Frame Length: 60 bytes (480 bits)
    Capture Length: 60 bytes (480 bits)
    [Frame is marked: False]
    [Frame is ignored: False]
    [Protocols in frame: eth:ip:tcp]
Ethernet II, Src: SonyComp_ea:13:f9 (00:19:c5:ea:13:f9), Dst: ZyxelCom_8d:62:30 (40:4a:03:8d:62:30)
    Destination: ZyxelCom_8d:62:30 (40:4a:03:8d:62:30)
        Address: ZyxelCom_8d:62:30 (40:4a:03:8d:62:30)
        .... ...0 .... .... .... .... = IG bit: Individual address (unicast)
        .... ..0. .... .... .... .... = LG bit: Globally unique address (factory default)
    Source: SonyComp_ea:13:f9 (00:19:c5:ea:13:f9)
        Address: SonyComp_ea:13:f9 (00:19:c5:ea:13:f9)
        .... ...0 .... .... .... .... = IG bit: Individual address (unicast)
        .... ..0. .... .... .... .... = LG bit: Globally unique address (factory default)
    Type: IP (0x0800)
    Trailer: 000000000000
Internet Protocol Version 4, Src: 192.168.0.71 (192.168.0.71), Dst: 69.10.24.135 (69.10.24.135)
    Version: 4
    Header length: 20 bytes
    Differentiated Services Field: 0x00 (DSCP 0x00: Default; ECN: 0x00: Not-ECT (Not ECN-Capable Transport))
        0000 00.. = Differentiated Services Codepoint: Default (0x00)
        .... ..00 = Explicit Congestion Notification: Not-ECT (Not ECN-Capable Transport) (0x00)
    Total Length: 40
    Identification: 0x00d1 (209)
    Flags: 0x02 (Don't Fragment)
        0... .... = Reserved bit: Not set
        .1.. .... = Don't fragment: Set
        ..0. .... = More fragments: Not set
    Fragment offset: 0
    Time to live: 64
    Protocol: TCP (6)
    Header checksum: 0x1b7f [correct]
        [Good: True]
        [Bad: False]
    Source: 192.168.0.71 (192.168.0.71)
    Destination: 69.10.24.135 (69.10.24.135)
Transmission Control Protocol, Src Port: 52112 (52112), Dst Port: http (80), Seq: 1, Ack: 1, Len: 0
    Source port: 52112 (52112)
    Destination port: http (80)
    [Stream index: 5]
    Sequence number: 1    (relative sequence number)
    Acknowledgement number: 1    (relative ack number)
    Header length: 20 bytes
    Flags: 0x010 (ACK)
        000. .... .... = Reserved: Not set
        ...0 .... .... = Nonce: Not set
        .... 0... .... = Congestion Window Reduced (CWR): Not set
        .... .0.. .... = ECN-Echo: Not set
        .... ..0. .... = Urgent: Not set
        .... ...1 .... = Acknowledgement: Set
        .... .... 0... = Push: Not set
        .... .... .0.. = Reset: Not set
        .... .... ..0. = Syn: Not set
        .... .... ...0 = Fin: Not set
    Window size value: 17520
    [Calculated window size: 17520]
    [Window size scaling factor: 1]
    Checksum: 0x373f [validation disabled]
        [Good Checksum: False]
        [Bad Checksum: False]

0000  40 4a 03 8d 62 30 00 19 c5 ea 13 f9 08 00 45 00   @J..b0........E.
0010  00 28 00 d1 40 00 40 06 1b 7f c0 a8 00 47 45 0a   .(..@.@......GE.
0020  18 87 cb 90 00 50 ec 74 cd 9a d8 3c b7 77 50 10   .....P.t...<.wP.
0030  44 70 37 3f 00 00 00 00 00 00 00 00               Dp7?........

No.     Time                       Source                Destination           Protocol Length Info
     21 2012-10-11 23:31:25.482533 192.168.0.71          69.10.24.135          TCP      60     52111 > http [ACK] Seq=1 Ack=1 Win=17520 Len=0

Frame 21: 60 bytes on wire (480 bits), 60 bytes captured (480 bits)
    Arrival Time: Oct 11, 2012 23:31:25.482533000 GTB Standard Time
    Epoch Time: 1349987485.482533000 seconds
    [Time delta from previous captured frame: 0.000201000 seconds]
    [Time delta from previous displayed frame: 0.000201000 seconds]
    [Time since reference or first frame: 0.937776000 seconds]
    Frame Number: 21
    Frame Length: 60 bytes (480 bits)
    Capture Length: 60 bytes (480 bits)
    [Frame is marked: False]
    [Frame is ignored: False]
    [Protocols in frame: eth:ip:tcp]
Ethernet II, Src: SonyComp_ea:13:f9 (00:19:c5:ea:13:f9), Dst: ZyxelCom_8d:62:30 (40:4a:03:8d:62:30)
    Destination: ZyxelCom_8d:62:30 (40:4a:03:8d:62:30)
        Address: ZyxelCom_8d:62:30 (40:4a:03:8d:62:30)
        .... ...0 .... .... .... .... = IG bit: Individual address (unicast)
        .... ..0. .... .... .... .... = LG bit: Globally unique address (factory default)
    Source: SonyComp_ea:13:f9 (00:19:c5:ea:13:f9)
        Address: SonyComp_ea:13:f9 (00:19:c5:ea:13:f9)
        .... ...0 .... .... .... .... = IG bit: Individual address (unicast)
        .... ..0. .... .... .... .... = LG bit: Globally unique address (factory default)
    Type: IP (0x0800)
    Trailer: 000000000000
Internet Protocol Version 4, Src: 192.168.0.71 (192.168.0.71), Dst: 69.10.24.135 (69.10.24.135)
    Version: 4
    Header length: 20 bytes
    Differentiated Services Field: 0x00 (DSCP 0x00: Default; ECN: 0x00: Not-ECT (Not ECN-Capable Transport))
        0000 00.. = Differentiated Services Codepoint: Default (0x00)
        .... ..00 = Explicit Congestion Notification: Not-ECT (Not ECN-Capable Transport) (0x00)
    Total Length: 40
    Identification: 0x00d2 (210)
    Flags: 0x02 (Don't Fragment)
        0... .... = Reserved bit: Not set
        .1.. .... = Don't fragment: Set
        ..0. .... = More fragments: Not set
    Fragment offset: 0
    Time to live: 64
    Protocol: TCP (6)
    Header checksum: 0x1b7e [correct]
        [Good: True]
        [Bad: False]
    Source: 192.168.0.71 (192.168.0.71)
    Destination: 69.10.24.135 (69.10.24.135)
Transmission Control Protocol, Src Port: 52111 (52111), Dst Port: http (80), Seq: 1, Ack: 1, Len: 0
    Source port: 52111 (52111)
    Destination port: http (80)
    [Stream index: 6]
    Sequence number: 1    (relative sequence number)
    Acknowledgement number: 1    (relative ack number)
    Header length: 20 bytes
    Flags: 0x010 (ACK)
        000. .... .... = Reserved: Not set
        ...0 .... .... = Nonce: Not set
        .... 0... .... = Congestion Window Reduced (CWR): Not set
        .... .0.. .... = ECN-Echo: Not set
        .... ..0. .... = Urgent: Not set
        .... ...1 .... = Acknowledgement: Set
        .... .... 0... = Push: Not set
        .... .... .0.. = Reset: Not set
        .... .... ..0. = Syn: Not set
        .... .... ...0 = Fin: Not set
    Window size value: 17520
    [Calculated window size: 17520]
    [Window size scaling factor: 1]
    Checksum: 0xc45b [validation disabled]
        [Good Checksum: False]
        [Bad Checksum: False]

0000  40 4a 03 8d 62 30 00 19 c5 ea 13 f9 08 00 45 00   @J..b0........E.
0010  00 28 00 d2 40 00 40 06 1b 7e c0 a8 00 47 45 0a   .(..@.@..~...GE.
0020  18 87 cb 8f 00 50 ed 65 fe 33 ec 2d e4 e0 50 10   .....P.e.3.-..P.
0030  44 70 c4 5b 00 00 00 00 00 00 00 00               Dp.[........

No.     Time                       Source                Destination           Protocol Length Info
     22 2012-10-11 23:31:25.487524 192.168.0.71          69.10.24.135          HTTP     193    GET /BFMC/Stats/stats.aspx?sort=ratio&pos=1&posafter=9 HTTP/1.1 

Frame 22: 193 bytes on wire (1544 bits), 193 bytes captured (1544 bits)
    Arrival Time: Oct 11, 2012 23:31:25.487524000 GTB Standard Time
    Epoch Time: 1349987485.487524000 seconds
    [Time delta from previous captured frame: 0.004991000 seconds]
    [Time delta from previous displayed frame: 0.004991000 seconds]
    [Time since reference or first frame: 0.942767000 seconds]
    Frame Number: 22
    Frame Length: 193 bytes (1544 bits)
    Capture Length: 193 bytes (1544 bits)
    [Frame is marked: False]
    [Frame is ignored: False]
    [Protocols in frame: eth:ip:tcp:http]
Ethernet II, Src: SonyComp_ea:13:f9 (00:19:c5:ea:13:f9), Dst: ZyxelCom_8d:62:30 (40:4a:03:8d:62:30)
    Destination: ZyxelCom_8d:62:30 (40:4a:03:8d:62:30)
        Address: ZyxelCom_8d:62:30 (40:4a:03:8d:62:30)
        .... ...0 .... .... .... .... = IG bit: Individual address (unicast)
        .... ..0. .... .... .... .... = LG bit: Globally unique address (factory default)
    Source: SonyComp_ea:13:f9 (00:19:c5:ea:13:f9)
        Address: SonyComp_ea:13:f9 (00:19:c5:ea:13:f9)
        .... ...0 .... .... .... .... = IG bit: Individual address (unicast)
        .... ..0. .... .... .... .... = LG bit: Globally unique address (factory default)
    Type: IP (0x0800)
Internet Protocol Version 4, Src: 192.168.0.71 (192.168.0.71), Dst: 69.10.24.135 (69.10.24.135)
    Version: 4
    Header length: 20 bytes
    Differentiated Services Field: 0x00 (DSCP 0x00: Default; ECN: 0x00: Not-ECT (Not ECN-Capable Transport))
        0000 00.. = Differentiated Services Codepoint: Default (0x00)
        .... ..00 = Explicit Congestion Notification: Not-ECT (Not ECN-Capable Transport) (0x00)
    Total Length: 179
    Identification: 0x00d3 (211)
    Flags: 0x02 (Don't Fragment)
        0... .... = Reserved bit: Not set
        .1.. .... = Don't fragment: Set
        ..0. .... = More fragments: Not set
    Fragment offset: 0
    Time to live: 64
    Protocol: TCP (6)
    Header checksum: 0x1af2 [correct]
        [Good: True]
        [Bad: False]
    Source: 192.168.0.71 (192.168.0.71)
    Destination: 69.10.24.135 (69.10.24.135)
Transmission Control Protocol, Src Port: 52113 (52113), Dst Port: http (80), Seq: 1, Ack: 1, Len: 139
    Source port: 52113 (52113)
    Destination port: http (80)
    [Stream index: 4]
    Sequence number: 1    (relative sequence number)
    [Next sequence number: 140    (relative sequence number)]
    Acknowledgement number: 1    (relative ack number)
    Header length: 20 bytes
    Flags: 0x018 (PSH, ACK)
        000. .... .... = Reserved: Not set
        ...0 .... .... = Nonce: Not set
        .... 0... .... = Congestion Window Reduced (CWR): Not set
        .... .0.. .... = ECN-Echo: Not set
        .... ..0. .... = Urgent: Not set
        .... ...1 .... = Acknowledgement: Set
        .... .... 1... = Push: Set
        .... .... .0.. = Reset: Not set
        .... .... ..0. = Syn: Not set
        .... .... ...0 = Fin: Not set
    Window size value: 17520
    [Calculated window size: 17520]
    [Window size scaling factor: 1]
    Checksum: 0xe012 [validation disabled]
        [Good Checksum: False]
        [Bad Checksum: False]
    [SEQ/ACK analysis]
        [Bytes in flight: 140]
Hypertext Transfer Protocol
    GET /BFMC/Stats/stats.aspx?sort=ratio&pos=1&posafter=9 HTTP/1.1\r\n
        [Expert Info (Chat/Sequence): GET /BFMC/Stats/stats.aspx?sort=ratio&pos=1&posafter=9 HTTP/1.1\r\n]
            [Message: GET /BFMC/Stats/stats.aspx?sort=ratio&pos=1&posafter=9 HTTP/1.1\r\n]
            [Severity level: Chat]
            [Group: Sequence]
        Request Method: GET
        Request URI: /BFMC/Stats/stats.aspx?sort=ratio&pos=1&posafter=9
        Request Version: HTTP/1.1
    Host: bfmc.gamespy.com\r\n
    User-Agent: GameSpyHTTP/1.0\r\n
    Connection: close\r\n
    \r\n
    [Full request URI: http://bfmc.gamespy.com/BFMC/Stats/stats.aspx?sort=ratio&pos=1&posafter=9]

0000  40 4a 03 8d 62 30 00 19 c5 ea 13 f9 08 00 45 00   @J..b0........E.
0010  00 b3 00 d3 40 00 40 06 1a f2 c0 a8 00 47 45 0a   ....@.@......GE.
0020  18 87 cb 91 00 50 eb a1 38 44 f5 17 fa ab 50 18   .....P..8D....P.
0030  44 70 e0 12 00 00 47 45 54 20 2f 42 46 4d 43 2f   Dp....GET /BFMC/
0040  53 74 61 74 73 2f 73 74 61 74 73 2e 61 73 70 78   Stats/stats.aspx
0050  3f 73 6f 72 74 3d 72 61 74 69 6f 26 70 6f 73 3d   ?sort=ratio&pos=
0060  31 26 70 6f 73 61 66 74 65 72 3d 39 20 48 54 54   1&posafter=9 HTT
0070  50 2f 31 2e 31 0d 0a 48 6f 73 74 3a 20 62 66 6d   P/1.1..Host: bfm
0080  63 2e 67 61 6d 65 73 70 79 2e 63 6f 6d 0d 0a 55   c.gamespy.com..U
0090  73 65 72 2d 41 67 65 6e 74 3a 20 47 61 6d 65 53   ser-Agent: GameS
00a0  70 79 48 54 54 50 2f 31 2e 30 0d 0a 43 6f 6e 6e   pyHTTP/1.0..Conn
00b0  65 63 74 69 6f 6e 3a 20 63 6c 6f 73 65 0d 0a 0d   ection: close...
00c0  0a                                                .

No.     Time                       Source                Destination           Protocol Length Info
     23 2012-10-11 23:31:25.487826 192.168.0.71          69.10.24.135          HTTP     213    GET /BFMC/Stats/stats.aspx?sort=ratio&posbefore=4&posafter=5&pid=411010702 HTTP/1.1 

Frame 23: 213 bytes on wire (1704 bits), 213 bytes captured (1704 bits)
    Arrival Time: Oct 11, 2012 23:31:25.487826000 GTB Standard Time
    Epoch Time: 1349987485.487826000 seconds
    [Time delta from previous captured frame: 0.000302000 seconds]
    [Time delta from previous displayed frame: 0.000302000 seconds]
    [Time since reference or first frame: 0.943069000 seconds]
    Frame Number: 23
    Frame Length: 213 bytes (1704 bits)
    Capture Length: 213 bytes (1704 bits)
    [Frame is marked: False]
    [Frame is ignored: False]
    [Protocols in frame: eth:ip:tcp:http]
Ethernet II, Src: SonyComp_ea:13:f9 (00:19:c5:ea:13:f9), Dst: ZyxelCom_8d:62:30 (40:4a:03:8d:62:30)
    Destination: ZyxelCom_8d:62:30 (40:4a:03:8d:62:30)
        Address: ZyxelCom_8d:62:30 (40:4a:03:8d:62:30)
        .... ...0 .... .... .... .... = IG bit: Individual address (unicast)
        .... ..0. .... .... .... .... = LG bit: Globally unique address (factory default)
    Source: SonyComp_ea:13:f9 (00:19:c5:ea:13:f9)
        Address: SonyComp_ea:13:f9 (00:19:c5:ea:13:f9)
        .... ...0 .... .... .... .... = IG bit: Individual address (unicast)
        .... ..0. .... .... .... .... = LG bit: Globally unique address (factory default)
    Type: IP (0x0800)
Internet Protocol Version 4, Src: 192.168.0.71 (192.168.0.71), Dst: 69.10.24.135 (69.10.24.135)
    Version: 4
    Header length: 20 bytes
    Differentiated Services Field: 0x00 (DSCP 0x00: Default; ECN: 0x00: Not-ECT (Not ECN-Capable Transport))
        0000 00.. = Differentiated Services Codepoint: Default (0x00)
        .... ..00 = Explicit Congestion Notification: Not-ECT (Not ECN-Capable Transport) (0x00)
    Total Length: 199
    Identification: 0x00d4 (212)
    Flags: 0x02 (Don't Fragment)
        0... .... = Reserved bit: Not set
        .1.. .... = Don't fragment: Set
        ..0. .... = More fragments: Not set
    Fragment offset: 0
    Time to live: 64
    Protocol: TCP (6)
    Header checksum: 0x1add [correct]
        [Good: True]
        [Bad: False]
    Source: 192.168.0.71 (192.168.0.71)
    Destination: 69.10.24.135 (69.10.24.135)
Transmission Control Protocol, Src Port: 52112 (52112), Dst Port: http (80), Seq: 1, Ack: 1, Len: 159
    Source port: 52112 (52112)
    Destination port: http (80)
    [Stream index: 5]
    Sequence number: 1    (relative sequence number)
    [Next sequence number: 160    (relative sequence number)]
    Acknowledgement number: 1    (relative ack number)
    Header length: 20 bytes
    Flags: 0x018 (PSH, ACK)
        000. .... .... = Reserved: Not set
        ...0 .... .... = Nonce: Not set
        .... 0... .... = Congestion Window Reduced (CWR): Not set
        .... .0.. .... = ECN-Echo: Not set
        .... ..0. .... = Urgent: Not set
        .... ...1 .... = Acknowledgement: Set
        .... .... 1... = Push: Set
        .... .... .0.. = Reset: Not set
        .... .... ..0. = Syn: Not set
        .... .... ...0 = Fin: Not set
    Window size value: 17520
    [Calculated window size: 17520]
    [Window size scaling factor: 1]
    Checksum: 0xddd9 [validation disabled]
        [Good Checksum: False]
        [Bad Checksum: False]
    [SEQ/ACK analysis]
        [Bytes in flight: 160]
Hypertext Transfer Protocol
    GET /BFMC/Stats/stats.aspx?sort=ratio&posbefore=4&posafter=5&pid=411010702 HTTP/1.1\r\n
        [Expert Info (Chat/Sequence): GET /BFMC/Stats/stats.aspx?sort=ratio&posbefore=4&posafter=5&pid=411010702 HTTP/1.1\r\n]
            [Message: GET /BFMC/Stats/stats.aspx?sort=ratio&posbefore=4&posafter=5&pid=411010702 HTTP/1.1\r\n]
            [Severity level: Chat]
            [Group: Sequence]
        Request Method: GET
        Request URI: /BFMC/Stats/stats.aspx?sort=ratio&posbefore=4&posafter=5&pid=411010702
        Request Version: HTTP/1.1
    Host: bfmc.gamespy.com\r\n
    User-Agent: GameSpyHTTP/1.0\r\n
    Connection: close\r\n
    \r\n
    [Full request URI: http://bfmc.gamespy.com/BFMC/Stats/stats.aspx?sort=ratio&posbefore=4&posafter=5&pid=411010702]

0000  40 4a 03 8d 62 30 00 19 c5 ea 13 f9 08 00 45 00   @J..b0........E.
0010  00 c7 00 d4 40 00 40 06 1a dd c0 a8 00 47 45 0a   ....@.@......GE.
0020  18 87 cb 90 00 50 ec 74 cd 9a d8 3c b7 77 50 18   .....P.t...<.wP.
0030  44 70 dd d9 00 00 47 45 54 20 2f 42 46 4d 43 2f   Dp....GET /BFMC/
0040  53 74 61 74 73 2f 73 74 61 74 73 2e 61 73 70 78   Stats/stats.aspx
0050  3f 73 6f 72 74 3d 72 61 74 69 6f 26 70 6f 73 62   ?sort=ratio&posb
0060  65 66 6f 72 65 3d 34 26 70 6f 73 61 66 74 65 72   efore=4&posafter
0070  3d 35 26 70 69 64 3d 34 31 31 30 31 30 37 30 32   =5&pid=411010702
0080  20 48 54 54 50 2f 31 2e 31 0d 0a 48 6f 73 74 3a    HTTP/1.1..Host:
0090  20 62 66 6d 63 2e 67 61 6d 65 73 70 79 2e 63 6f    bfmc.gamespy.co
00a0  6d 0d 0a 55 73 65 72 2d 41 67 65 6e 74 3a 20 47   m..User-Agent: G
00b0  61 6d 65 53 70 79 48 54 54 50 2f 31 2e 30 0d 0a   ameSpyHTTP/1.0..
