No.     Time                       Source                Destination           Protocol Length Info
      1 2012-10-11 22:26:50.286747 192.168.0.71          85.236.101.18         UDP      60     Source port: 55800  Destination port: kingfisher

Frame 1: 60 bytes on wire (480 bits), 60 bytes captured (480 bits)
    Arrival Time: Oct 11, 2012 22:26:50.286747000 GTB Standard Time
    Epoch Time: 1349983610.286747000 seconds
    [Time delta from previous captured frame: 0.000000000 seconds]
    [Time delta from previous displayed frame: 0.000000000 seconds]
    [Time since reference or first frame: 0.000000000 seconds]
    Frame Number: 1
    Frame Length: 60 bytes (480 bits)
    Capture Length: 60 bytes (480 bits)
    [Frame is marked: False]
    [Frame is ignored: False]
    [Protocols in frame: eth:ip:udp:data]
    [Coloring Rule Name: UDP]
    [Coloring Rule String: udp]
Ethernet II, Src: SonyComp_ea:13:f9 (00:19:c5:ea:13:f9), Dst: ZyxelCom_8d:62:30 (40:4a:03:8d:62:30)
    Destination: ZyxelCom_8d:62:30 (40:4a:03:8d:62:30)
        Address: ZyxelCom_8d:62:30 (40:4a:03:8d:62:30)
        .... ...0 .... .... .... .... = IG bit: Individual address (unicast)
        .... ..0. .... .... .... .... = LG bit: Globally unique address (factory default)
    Source: SonyComp_ea:13:f9 (00:19:c5:ea:13:f9)
        Address: SonyComp_ea:13:f9 (00:19:c5:ea:13:f9)
        .... ...0 .... .... .... .... = IG bit: Individual address (unicast)
        .... ..0. .... .... .... .... = LG bit: Globally unique address (factory default)
    Type: IP (0x0800)
    Trailer: 000000000000000000000000
Internet Protocol Version 4, Src: 192.168.0.71 (192.168.0.71), Dst: 85.236.101.18 (85.236.101.18)
    Version: 4
    Header length: 20 bytes
    Differentiated Services Field: 0x00 (DSCP 0x00: Default; ECN: 0x00: Not-ECT (Not ECN-Capable Transport))
        0000 00.. = Differentiated Services Codepoint: Default (0x00)
        .... ..00 = Explicit Congestion Notification: Not-ECT (Not ECN-Capable Transport) (0x00)
    Total Length: 34
    Identification: 0x02af (687)
    Flags: 0x00
        0... .... = Reserved bit: Not set
        .0.. .... = Don't fragment: Not set
        ..0. .... = More fragments: Not set
    Fragment offset: 0
    Time to live: 64
    Protocol: UDP (17)
    Header checksum: 0xfc2e [correct]
        [Good: True]
        [Bad: False]
    Source: 192.168.0.71 (192.168.0.71)
    Destination: 85.236.101.18 (85.236.101.18)
User Datagram Protocol, Src Port: 55800 (55800), Dst Port: kingfisher (4058)
    Source port: 55800 (55800)
    Destination port: kingfisher (4058)
    Length: 14
    Checksum: 0xd5dc [validation disabled]
        [Good Checksum: False]
        [Bad Checksum: False]
Data (6 bytes)
    Data: 0400c0000034
    [Length: 6]

0000  40 4a 03 8d 62 30 00 19 c5 ea 13 f9 08 00 45 00   @J..b0........E.
0010  00 22 02 af 00 00 40 11 fc 2e c0 a8 00 47 55 ec   ."....@......GU.
0020  65 12 d9 f8 0f da 00 0e d5 dc 04 00 c0 00 00 34   e..............4
0030  00 00 00 00 00 00 00 00 00 00 00 00               ............

No.     Time                       Source                Destination           Protocol Length Info
      2 2012-10-11 22:26:50.366265 192.168.0.71          85.236.101.18         UDP      60     Source port: 55800  Destination port: kingfisher

Frame 2: 60 bytes on wire (480 bits), 60 bytes captured (480 bits)
    Arrival Time: Oct 11, 2012 22:26:50.366265000 GTB Standard Time
    Epoch Time: 1349983610.366265000 seconds
    [Time delta from previous captured frame: 0.079518000 seconds]
    [Time delta from previous displayed frame: 0.079518000 seconds]
    [Time since reference or first frame: 0.079518000 seconds]
    Frame Number: 2
    Frame Length: 60 bytes (480 bits)
    Capture Length: 60 bytes (480 bits)
    [Frame is marked: False]
    [Frame is ignored: False]
    [Protocols in frame: eth:ip:udp:data]
    [Coloring Rule Name: UDP]
    [Coloring Rule String: udp]
Ethernet II, Src: SonyComp_ea:13:f9 (00:19:c5:ea:13:f9), Dst: ZyxelCom_8d:62:30 (40:4a:03:8d:62:30)
    Destination: ZyxelCom_8d:62:30 (40:4a:03:8d:62:30)
        Address: ZyxelCom_8d:62:30 (40:4a:03:8d:62:30)
        .... ...0 .... .... .... .... = IG bit: Individual address (unicast)
        .... ..0. .... .... .... .... = LG bit: Globally unique address (factory default)
    Source: SonyComp_ea:13:f9 (00:19:c5:ea:13:f9)
        Address: SonyComp_ea:13:f9 (00:19:c5:ea:13:f9)
        .... ...0 .... .... .... .... = IG bit: Individual address (unicast)
        .... ..0. .... .... .... .... = LG bit: Globally unique address (factory default)
    Type: IP (0x0800)
    Trailer: 000000000000000000000000
Internet Protocol Version 4, Src: 192.168.0.71 (192.168.0.71), Dst: 85.236.101.18 (85.236.101.18)
    Version: 4
    Header length: 20 bytes
    Differentiated Services Field: 0x00 (DSCP 0x00: Default; ECN: 0x00: Not-ECT (Not ECN-Capable Transport))
        0000 00.. = Differentiated Services Codepoint: Default (0x00)
        .... ..00 = Explicit Congestion Notification: Not-ECT (Not ECN-Capable Transport) (0x00)
    Total Length: 34
    Identification: 0x02b0 (688)
    Flags: 0x00
        0... .... = Reserved bit: Not set
        .0.. .... = Don't fragment: Not set
        ..0. .... = More fragments: Not set
    Fragment offset: 0
    Time to live: 64
    Protocol: UDP (17)
    Header checksum: 0xfc2d [correct]
        [Good: True]
        [Bad: False]
    Source: 192.168.0.71 (192.168.0.71)
    Destination: 85.236.101.18 (85.236.101.18)
User Datagram Protocol, Src Port: 55800 (55800), Dst Port: kingfisher (4058)
    Source port: 55800 (55800)
    Destination port: kingfisher (4058)
    Length: 14
    Checksum: 0xd5dc [validation disabled]
        [Good Checksum: False]
        [Bad Checksum: False]
Data (6 bytes)
    Data: 0400c0000034
    [Length: 6]

0000  40 4a 03 8d 62 30 00 19 c5 ea 13 f9 08 00 45 00   @J..b0........E.
0010  00 22 02 b0 00 00 40 11 fc 2d c0 a8 00 47 55 ec   ."....@..-...GU.
0020  65 12 d9 f8 0f da 00 0e d5 dc 04 00 c0 00 00 34   e..............4
0030  00 00 00 00 00 00 00 00 00 00 00 00               ............

No.     Time                       Source                Destination           Protocol Length Info
      3 2012-10-11 22:26:50.486266 192.168.0.71          85.236.101.18         UDP      60     Source port: 55800  Destination port: kingfisher

Frame 3: 60 bytes on wire (480 bits), 60 bytes captured (480 bits)
    Arrival Time: Oct 11, 2012 22:26:50.486266000 GTB Standard Time
    Epoch Time: 1349983610.486266000 seconds
    [Time delta from previous captured frame: 0.120001000 seconds]
    [Time delta from previous displayed frame: 0.120001000 seconds]
    [Time since reference or first frame: 0.199519000 seconds]
    Frame Number: 3
    Frame Length: 60 bytes (480 bits)
    Capture Length: 60 bytes (480 bits)
    [Frame is marked: False]
    [Frame is ignored: False]
    [Protocols in frame: eth:ip:udp:data]
    [Coloring Rule Name: UDP]
    [Coloring Rule String: udp]
Ethernet II, Src: SonyComp_ea:13:f9 (00:19:c5:ea:13:f9), Dst: ZyxelCom_8d:62:30 (40:4a:03:8d:62:30)
    Destination: ZyxelCom_8d:62:30 (40:4a:03:8d:62:30)
        Address: ZyxelCom_8d:62:30 (40:4a:03:8d:62:30)
        .... ...0 .... .... .... .... = IG bit: Individual address (unicast)
        .... ..0. .... .... .... .... = LG bit: Globally unique address (factory default)
    Source: SonyComp_ea:13:f9 (00:19:c5:ea:13:f9)
        Address: SonyComp_ea:13:f9 (00:19:c5:ea:13:f9)
        .... ...0 .... .... .... .... = IG bit: Individual address (unicast)
        .... ..0. .... .... .... .... = LG bit: Globally unique address (factory default)
    Type: IP (0x0800)
    Trailer: 000000000000000000000000
Internet Protocol Version 4, Src: 192.168.0.71 (192.168.0.71), Dst: 85.236.101.18 (85.236.101.18)
    Version: 4
    Header length: 20 bytes
    Differentiated Services Field: 0x00 (DSCP 0x00: Default; ECN: 0x00: Not-ECT (Not ECN-Capable Transport))
        0000 00.. = Differentiated Services Codepoint: Default (0x00)
        .... ..00 = Explicit Congestion Notification: Not-ECT (Not ECN-Capable Transport) (0x00)
    Total Length: 34
    Identification: 0x02b1 (689)
    Flags: 0x00
        0... .... = Reserved bit: Not set
        .0.. .... = Don't fragment: Not set
        ..0. .... = More fragments: Not set
    Fragment offset: 0
    Time to live: 64
    Protocol: UDP (17)
    Header checksum: 0xfc2c [correct]
        [Good: True]
        [Bad: False]
    Source: 192.168.0.71 (192.168.0.71)
    Destination: 85.236.101.18 (85.236.101.18)
User Datagram Protocol, Src Port: 55800 (55800), Dst Port: kingfisher (4058)
    Source port: 55800 (55800)
    Destination port: kingfisher (4058)
    Length: 14
    Checksum: 0xb5d0 [validation disabled]
        [Good Checksum: False]
        [Bad Checksum: False]
Data (6 bytes)
    Data: 0400e0000040
    [Length: 6]

0000  40 4a 03 8d 62 30 00 19 c5 ea 13 f9 08 00 45 00   @J..b0........E.
0010  00 22 02 b1 00 00 40 11 fc 2c c0 a8 00 47 55 ec   ."....@..,...GU.
0020  65 12 d9 f8 0f da 00 0e b5 d0 04 00 e0 00 00 40   e..............@
0030  00 00 00 00 00 00 00 00 00 00 00 00               ............

No.     Time                       Source                Destination           Protocol Length Info
      4 2012-10-11 22:26:50.586313 192.168.0.71          85.236.101.18         UDP      60     Source port: 55800  Destination port: kingfisher

Frame 4: 60 bytes on wire (480 bits), 60 bytes captured (480 bits)
    Arrival Time: Oct 11, 2012 22:26:50.586313000 GTB Standard Time
    Epoch Time: 1349983610.586313000 seconds
    [Time delta from previous captured frame: 0.100047000 seconds]
    [Time delta from previous displayed frame: 0.100047000 seconds]
    [Time since reference or first frame: 0.299566000 seconds]
    Frame Number: 4
    Frame Length: 60 bytes (480 bits)
    Capture Length: 60 bytes (480 bits)
    [Frame is marked: False]
    [Frame is ignored: False]
    [Protocols in frame: eth:ip:udp:data]
    [Coloring Rule Name: UDP]
    [Coloring Rule String: udp]
Ethernet II, Src: SonyComp_ea:13:f9 (00:19:c5:ea:13:f9), Dst: ZyxelCom_8d:62:30 (40:4a:03:8d:62:30)
    Destination: ZyxelCom_8d:62:30 (40:4a:03:8d:62:30)
        Address: ZyxelCom_8d:62:30 (40:4a:03:8d:62:30)
        .... ...0 .... .... .... .... = IG bit: Individual address (unicast)
        .... ..0. .... .... .... .... = LG bit: Globally unique address (factory default)
    Source: SonyComp_ea:13:f9 (00:19:c5:ea:13:f9)
        Address: SonyComp_ea:13:f9 (00:19:c5:ea:13:f9)
        .... ...0 .... .... .... .... = IG bit: Individual address (unicast)
        .... ..0. .... .... .... .... = LG bit: Globally unique address (factory default)
    Type: IP (0x0800)
    Trailer: 000000000000000000000000
Internet Protocol Version 4, Src: 192.168.0.71 (192.168.0.71), Dst: 85.236.101.18 (85.236.101.18)
    Version: 4
    Header length: 20 bytes
    Differentiated Services Field: 0x00 (DSCP 0x00: Default; ECN: 0x00: Not-ECT (Not ECN-Capable Transport))
        0000 00.. = Differentiated Services Codepoint: Default (0x00)
        .... ..00 = Explicit Congestion Notification: Not-ECT (Not ECN-Capable Transport) (0x00)
    Total Length: 34
    Identification: 0x02b2 (690)
    Flags: 0x00
        0... .... = Reserved bit: Not set
        .0.. .... = Don't fragment: Not set
        ..0. .... = More fragments: Not set
    Fragment offset: 0
    Time to live: 64
    Protocol: UDP (17)
    Header checksum: 0xfc2b [correct]
        [Good: True]
        [Bad: False]
    Source: 192.168.0.71 (192.168.0.71)
    Destination: 85.236.101.18 (85.236.101.18)
User Datagram Protocol, Src Port: 55800 (55800), Dst Port: kingfisher (4058)
    Source port: 55800 (55800)
    Destination port: kingfisher (4058)
    Length: 14
    Checksum: 0xb5d0 [validation disabled]
        [Good Checksum: False]
        [Bad Checksum: False]
Data (6 bytes)
    Data: 0400e0000040
    [Length: 6]

0000  40 4a 03 8d 62 30 00 19 c5 ea 13 f9 08 00 45 00   @J..b0........E.
0010  00 22 02 b2 00 00 40 11 fc 2b c0 a8 00 47 55 ec   ."....@..+...GU.
0020  65 12 d9 f8 0f da 00 0e b5 d0 04 00 e0 00 00 40   e..............@
0030  00 00 00 00 00 00 00 00 00 00 00 00               ............

No.     Time                       Source                Destination           Protocol Length Info
      5 2012-10-11 22:26:50.626246 192.168.0.71          85.236.101.18         UDP      96     Source port: 55800  Destination port: kingfisher

Frame 5: 96 bytes on wire (768 bits), 96 bytes captured (768 bits)
    Arrival Time: Oct 11, 2012 22:26:50.626246000 GTB Standard Time
    Epoch Time: 1349983610.626246000 seconds
    [Time delta from previous captured frame: 0.039933000 seconds]
    [Time delta from previous displayed frame: 0.039933000 seconds]
    [Time since reference or first frame: 0.339499000 seconds]
    Frame Number: 5
    Frame Length: 96 bytes (768 bits)
    Capture Length: 96 bytes (768 bits)
    [Frame is marked: False]
    [Frame is ignored: False]
    [Protocols in frame: eth:ip:udp:data]
    [Coloring Rule Name: UDP]
    [Coloring Rule String: udp]
Ethernet II, Src: SonyComp_ea:13:f9 (00:19:c5:ea:13:f9), Dst: ZyxelCom_8d:62:30 (40:4a:03:8d:62:30)
    Destination: ZyxelCom_8d:62:30 (40:4a:03:8d:62:30)
        Address: ZyxelCom_8d:62:30 (40:4a:03:8d:62:30)
        .... ...0 .... .... .... .... = IG bit: Individual address (unicast)
        .... ..0. .... .... .... .... = LG bit: Globally unique address (factory default)
    Source: SonyComp_ea:13:f9 (00:19:c5:ea:13:f9)
        Address: SonyComp_ea:13:f9 (00:19:c5:ea:13:f9)
        .... ...0 .... .... .... .... = IG bit: Individual address (unicast)
        .... ..0. .... .... .... .... = LG bit: Globally unique address (factory default)
    Type: IP (0x0800)
Internet Protocol Version 4, Src: 192.168.0.71 (192.168.0.71), Dst: 85.236.101.18 (85.236.101.18)
    Version: 4
    Header length: 20 bytes
    Differentiated Services Field: 0x00 (DSCP 0x00: Default; ECN: 0x00: Not-ECT (Not ECN-Capable Transport))
        0000 00.. = Differentiated Services Codepoint: Default (0x00)
        .... ..00 = Explicit Congestion Notification: Not-ECT (Not ECN-Capable Transport) (0x00)
    Total Length: 82
    Identification: 0x02b3 (691)
    Flags: 0x00
        0... .... = Reserved bit: Not set
        .0.. .... = Don't fragment: Not set
        ..0. .... = More fragments: Not set
    Fragment offset: 0
    Time to live: 64
    Protocol: UDP (17)
    Header checksum: 0xfbfa [correct]
        [Good: True]
        [Bad: False]
    Source: 192.168.0.71 (192.168.0.71)
    Destination: 85.236.101.18 (85.236.101.18)
User Datagram Protocol, Src Port: 55800 (55800), Dst Port: kingfisher (4058)
    Source port: 55800 (55800)
    Destination port: kingfisher (4058)
    Length: 62
    Checksum: 0xcbaf [validation disabled]
        [Good Checksum: False]
        [Bad Checksum: False]
Data (54 bytes)
    Data: 3400c000000ab1369c004a94f000020c0008008800298985...
    [Length: 54]

0000  40 4a 03 8d 62 30 00 19 c5 ea 13 f9 08 00 45 00   @J..b0........E.
0010  00 52 02 b3 00 00 40 11 fb fa c0 a8 00 47 55 ec   .R....@......GU.
0020  65 12 d9 f8 0f da 00 3e cb af 34 00 c0 00 00 0a   e......>..4.....
0030  b1 36 9c 00 4a 94 f0 00 02 0c 00 08 00 88 00 29   .6..J..........)
0040  89 85 a9 cd b5 85 b9 b9 95 b8 00 00 00 40 c0 c0   .............@..
0050  c4 e5 0c d5 15 04 c4 cd 18 e4 c0 c0 c0 c0 10 27   ...............'

No.     Time                       Source                Destination           Protocol Length Info
      6 2012-10-11 22:26:50.769886 192.168.0.71          85.236.101.18         UDP      113    Source port: 55800  Destination port: kingfisher

Frame 6: 113 bytes on wire (904 bits), 113 bytes captured (904 bits)
    Arrival Time: Oct 11, 2012 22:26:50.769886000 GTB Standard Time
    Epoch Time: 1349983610.769886000 seconds
    [Time delta from previous captured frame: 0.143640000 seconds]
    [Time delta from previous displayed frame: 0.143640000 seconds]
    [Time since reference or first frame: 0.483139000 seconds]
    Frame Number: 6
    Frame Length: 113 bytes (904 bits)
    Capture Length: 113 bytes (904 bits)
    [Frame is marked: False]
    [Frame is ignored: False]
    [Protocols in frame: eth:ip:udp:data]
    [Coloring Rule Name: UDP]
    [Coloring Rule String: udp]
Ethernet II, Src: SonyComp_ea:13:f9 (00:19:c5:ea:13:f9), Dst: ZyxelCom_8d:62:30 (40:4a:03:8d:62:30)
    Destination: ZyxelCom_8d:62:30 (40:4a:03:8d:62:30)
        Address: ZyxelCom_8d:62:30 (40:4a:03:8d:62:30)
        .... ...0 .... .... .... .... = IG bit: Individual address (unicast)
        .... ..0. .... .... .... .... = LG bit: Globally unique address (factory default)
    Source: SonyComp_ea:13:f9 (00:19:c5:ea:13:f9)
        Address: SonyComp_ea:13:f9 (00:19:c5:ea:13:f9)
        .... ...0 .... .... .... .... = IG bit: Individual address (unicast)
        .... ..0. .... .... .... .... = LG bit: Globally unique address (factory default)
    Type: IP (0x0800)
Internet Protocol Version 4, Src: 192.168.0.71 (192.168.0.71), Dst: 85.236.101.18 (85.236.101.18)
    Version: 4
    Header length: 20 bytes
    Differentiated Services Field: 0x00 (DSCP 0x00: Default; ECN: 0x00: Not-ECT (Not ECN-Capable Transport))
        0000 00.. = Differentiated Services Codepoint: Default (0x00)
        .... ..00 = Explicit Congestion Notification: Not-ECT (Not ECN-Capable Transport) (0x00)
    Total Length: 99
    Identification: 0x02b4 (692)
    Flags: 0x00
        0... .... = Reserved bit: Not set
        .0.. .... = Don't fragment: Not set
        ..0. .... = More fragments: Not set
    Fragment offset: 0
    Time to live: 64
    Protocol: UDP (17)
    Header checksum: 0xfbe8 [correct]
        [Good: True]
        [Bad: False]
    Source: 192.168.0.71 (192.168.0.71)
    Destination: 85.236.101.18 (85.236.101.18)
User Datagram Protocol, Src Port: 55800 (55800), Dst Port: kingfisher (4058)
    Source port: 55800 (55800)
    Destination port: kingfisher (4058)
    Length: 79
    Checksum: 0xf7ed [validation disabled]
        [Good Checksum: False]
        [Bad Checksum: False]
Data (71 bytes)
    Data: 4500c000081502c542d173aa9d048bff62973e5841c36c56...
    [Length: 71]

0000  40 4a 03 8d 62 30 00 19 c5 ea 13 f9 08 00 45 00   @J..b0........E.
0010  00 63 02 b4 00 00 40 11 fb e8 c0 a8 00 47 55 ec   .c....@......GU.
0020  65 12 d9 f8 0f da 00 4f f7 ed 45 00 c0 00 08 15   e......O..E.....
0030  02 c5 42 d1 73 aa 9d 04 8b ff 62 97 3e 58 41 c3   ..B.s.....b.>XA.
0040  6c 56 c6 77 a0 0a 82 fd 57 87 18 4a e8 c1 6f 3a   lV.w....W..J..o:
0050  bb 7b ac 8c 76 7b fc 0b da 4a 62 da 56 a3 77 6a   .{..v{...Jb.V.wj
0060  d2 6b f7 f4 ef 23 ef 9e 48 62 c9 bf e6 8a 2f 5b   .k...#..Hb..../[
0070  fb                                                .

No.     Time                       Source                Destination           Protocol Length Info
      7 2012-10-11 22:26:50.846975 192.168.0.71          85.236.101.18         UDP      76     Source port: 55800  Destination port: kingfisher

Frame 7: 76 bytes on wire (608 bits), 76 bytes captured (608 bits)
    Arrival Time: Oct 11, 2012 22:26:50.846975000 GTB Standard Time
    Epoch Time: 1349983610.846975000 seconds
    [Time delta from previous captured frame: 0.077089000 seconds]
    [Time delta from previous displayed frame: 0.077089000 seconds]
    [Time since reference or first frame: 0.560228000 seconds]
    Frame Number: 7
    Frame Length: 76 bytes (608 bits)
    Capture Length: 76 bytes (608 bits)
    [Frame is marked: False]
    [Frame is ignored: False]
    [Protocols in frame: eth:ip:udp:data]
    [Coloring Rule Name: UDP]
    [Coloring Rule String: udp]
Ethernet II, Src: SonyComp_ea:13:f9 (00:19:c5:ea:13:f9), Dst: ZyxelCom_8d:62:30 (40:4a:03:8d:62:30)
    Destination: ZyxelCom_8d:62:30 (40:4a:03:8d:62:30)
        Address: ZyxelCom_8d:62:30 (40:4a:03:8d:62:30)
        .... ...0 .... .... .... .... = IG bit: Individual address (unicast)
        .... ..0. .... .... .... .... = LG bit: Globally unique address (factory default)
    Source: SonyComp_ea:13:f9 (00:19:c5:ea:13:f9)
        Address: SonyComp_ea:13:f9 (00:19:c5:ea:13:f9)
        .... ...0 .... .... .... .... = IG bit: Individual address (unicast)
        .... ..0. .... .... .... .... = LG bit: Globally unique address (factory default)
    Type: IP (0x0800)
Internet Protocol Version 4, Src: 192.168.0.71 (192.168.0.71), Dst: 85.236.101.18 (85.236.101.18)
    Version: 4
    Header length: 20 bytes
    Differentiated Services Field: 0x00 (DSCP 0x00: Default; ECN: 0x00: Not-ECT (Not ECN-Capable Transport))
        0000 00.. = Differentiated Services Codepoint: Default (0x00)
        .... ..00 = Explicit Congestion Notification: Not-ECT (Not ECN-Capable Transport) (0x00)
    Total Length: 62
    Identification: 0x02b5 (693)
    Flags: 0x00
        0... .... = Reserved bit: Not set
        .0.. .... = Don't fragment: Not set
        ..0. .... = More fragments: Not set
    Fragment offset: 0
    Time to live: 64
    Protocol: UDP (17)
    Header checksum: 0xfc0c [correct]
        [Good: True]
        [Bad: False]
    Source: 192.168.0.71 (192.168.0.71)
    Destination: 85.236.101.18 (85.236.101.18)
User Datagram Protocol, Src Port: 55800 (55800), Dst Port: kingfisher (4058)
    Source port: 55800 (55800)
    Destination port: kingfisher (4058)
    Length: 42
    Checksum: 0xc125 [validation disabled]
        [Good Checksum: False]
        [Bad Checksum: False]
Data (34 bytes)
    Data: 1b00a400085001000000000000e9b1936a40705f99655e95...
    [Length: 34]

0000  40 4a 03 8d 62 30 00 19 c5 ea 13 f9 08 00 45 00   @J..b0........E.
0010  00 3e 02 b5 00 00 40 11 fc 0c c0 a8 00 47 55 ec   .>....@......GU.
0020  65 12 d9 f8 0f da 00 2a c1 25 1b 00 a4 00 08 50   e......*.%.....P
0030  01 00 00 00 00 00 00 e9 b1 93 6a 40 70 5f 99 65   ..........j@p_.e
0040  5e 95 e9 de 9d e3 02 80 00 84 00 85               ^...........

No.     Time                       Source                Destination           Protocol Length Info
      8 2012-10-11 22:26:50.886670 192.168.0.71          85.236.101.18         UDP      63     Source port: 55800  Destination port: kingfisher

Frame 8: 63 bytes on wire (504 bits), 63 bytes captured (504 bits)
    Arrival Time: Oct 11, 2012 22:26:50.886670000 GTB Standard Time
    Epoch Time: 1349983610.886670000 seconds
    [Time delta from previous captured frame: 0.039695000 seconds]
    [Time delta from previous displayed frame: 0.039695000 seconds]
    [Time since reference or first frame: 0.599923000 seconds]
    Frame Number: 8
    Frame Length: 63 bytes (504 bits)
    Capture Length: 63 bytes (504 bits)
    [Frame is marked: False]
    [Frame is ignored: False]
    [Protocols in frame: eth:ip:udp:data]
    [Coloring Rule Name: UDP]
    [Coloring Rule String: udp]
Ethernet II, Src: SonyComp_ea:13:f9 (00:19:c5:ea:13:f9), Dst: ZyxelCom_8d:62:30 (40:4a:03:8d:62:30)
    Destination: ZyxelCom_8d:62:30 (40:4a:03:8d:62:30)
        Address: ZyxelCom_8d:62:30 (40:4a:03:8d:62:30)
        .... ...0 .... .... .... .... = IG bit: Individual address (unicast)
        .... ..0. .... .... .... .... = LG bit: Globally unique address (factory default)
    Source: SonyComp_ea:13:f9 (00:19:c5:ea:13:f9)
        Address: SonyComp_ea:13:f9 (00:19:c5:ea:13:f9)
        .... ...0 .... .... .... .... = IG bit: Individual address (unicast)
        .... ..0. .... .... .... .... = LG bit: Globally unique address (factory default)
    Type: IP (0x0800)
Internet Protocol Version 4, Src: 192.168.0.71 (192.168.0.71), Dst: 85.236.101.18 (85.236.101.18)
    Version: 4
    Header length: 20 bytes
    Differentiated Services Field: 0x00 (DSCP 0x00: Default; ECN: 0x00: Not-ECT (Not ECN-Capable Transport))
        0000 00.. = Differentiated Services Codepoint: Default (0x00)
        .... ..00 = Explicit Congestion Notification: Not-ECT (Not ECN-Capable Transport) (0x00)
    Total Length: 49
    Identification: 0x02b6 (694)
    Flags: 0x00
        0... .... = Reserved bit: Not set
        .0.. .... = Don't fragment: Not set
        ..0. .... = More fragments: Not set
    Fragment offset: 0
    Time to live: 64
    Protocol: UDP (17)
    Header checksum: 0xfc18 [correct]
        [Good: True]
        [Bad: False]
    Source: 192.168.0.71 (192.168.0.71)
    Destination: 85.236.101.18 (85.236.101.18)
User Datagram Protocol, Src Port: 55800 (55800), Dst Port: kingfisher (4058)
    Source port: 55800 (55800)
    Destination port: kingfisher (4058)
    Length: 29
    Checksum: 0xfff7 [validation disabled]
        [Good Checksum: False]
        [Bad Checksum: False]
Data (21 bytes)
    Data: 13000800085002000000000000da152e2bf387afab
    [Length: 21]

0000  40 4a 03 8d 62 30 00 19 c5 ea 13 f9 08 00 45 00   @J..b0........E.
0010  00 31 02 b6 00 00 40 11 fc 18 c0 a8 00 47 55 ec   .1....@......GU.
0020  65 12 d9 f8 0f da 00 1d ff f7 13 00 08 00 08 50   e..............P
0030  02 00 00 00 00 00 00 da 15 2e 2b f3 87 af ab      ..........+....

No.     Time                       Source                Destination           Protocol Length Info
      9 2012-10-11 22:26:50.926555 192.168.0.71          85.236.101.18         UDP      79     Source port: 55800  Destination port: kingfisher

Frame 9: 79 bytes on wire (632 bits), 79 bytes captured (632 bits)
    Arrival Time: Oct 11, 2012 22:26:50.926555000 GTB Standard Time
    Epoch Time: 1349983610.926555000 seconds
    [Time delta from previous captured frame: 0.039885000 seconds]
    [Time delta from previous displayed frame: 0.039885000 seconds]
    [Time since reference or first frame: 0.639808000 seconds]
    Frame Number: 9
    Frame Length: 79 bytes (632 bits)
    Capture Length: 79 bytes (632 bits)
    [Frame is marked: False]
    [Frame is ignored: False]
    [Protocols in frame: eth:ip:udp:data]
Ethernet II, Src: SonyComp_ea:13:f9 (00:19:c5:ea:13:f9), Dst: ZyxelCom_8d:62:30 (40:4a:03:8d:62:30)
    Destination: ZyxelCom_8d:62:30 (40:4a:03:8d:62:30)
        Address: ZyxelCom_8d:62:30 (40:4a:03:8d:62:30)
        .... ...0 .... .... .... .... = IG bit: Individual address (unicast)
        .... ..0. .... .... .... .... = LG bit: Globally unique address (factory default)
    Source: SonyComp_ea:13:f9 (00:19:c5:ea:13:f9)
        Address: SonyComp_ea:13:f9 (00:19:c5:ea:13:f9)
        .... ...0 .... .... .... .... = IG bit: Individual address (unicast)
        .... ..0. .... .... .... .... = LG bit: Globally unique address (factory default)
    Type: IP (0x0800)
Internet Protocol Version 4, Src: 192.168.0.71 (192.168.0.71), Dst: 85.236.101.18 (85.236.101.18)
    Version: 4
    Header length: 20 bytes
    Differentiated Services Field: 0x00 (DSCP 0x00: Default; ECN: 0x00: Not-ECT (Not ECN-Capable Transport))
        0000 00.. = Differentiated Services Codepoint: Default (0x00)
        .... ..00 = Explicit Congestion Notification: Not-ECT (Not ECN-Capable Transport) (0x00)
    Total Length: 65
    Identification: 0x02b7 (695)
    Flags: 0x00
        0... .... = Reserved bit: Not set
        .0.. .... = Don't fragment: Not set
        ..0. .... = More fragments: Not set
    Fragment offset: 0
    Time to live: 64
    Protocol: UDP (17)
    Header checksum: 0xfc07 [correct]
        [Good: True]
        [Bad: False]
    Source: 192.168.0.71 (192.168.0.71)
    Destination: 85.236.101.18 (85.236.101.18)
User Datagram Protocol, Src Port: 55800 (55800), Dst Port: kingfisher (4058)
    Source port: 55800 (55800)
    Destination port: kingfisher (4058)
    Length: 45
    Checksum: 0xa2c9 [validation disabled]
        [Good Checksum: False]
        [Bad Checksum: False]
Data (37 bytes)
    Data: 2300b00008500300000000000047d29e5331b39ab5d8e7c5...
    [Length: 37]

0000  40 4a 03 8d 62 30 00 19 c5 ea 13 f9 08 00 45 00   @J..b0........E.
0010  00 41 02 b7 00 00 40 11 fc 07 c0 a8 00 47 55 ec   .A....@......GU.
0020  65 12 d9 f8 0f da 00 2d a2 c9 23 00 b0 00 08 50   e......-..#....P
0030  03 00 00 00 00 00 00 47 d2 9e 53 31 b3 9a b5 d8   .......G..S1....
0040  e7 c5 2a 3b 5f 78 da ed 32 8c 16 79 ea c1 09      ..*;_x..2..y...

No.     Time                       Source                Destination           Protocol Length Info
     10 2012-10-11 22:26:50.927283 192.168.0.71          69.10.30.242          TCP      180    58625 > 29900 [PSH, ACK] Seq=1 Ack=1 Win=17520 Len=114 TSval=6957 TSecr=26308001

Frame 10: 180 bytes on wire (1440 bits), 180 bytes captured (1440 bits)
    Arrival Time: Oct 11, 2012 22:26:50.927283000 GTB Standard Time
    Epoch Time: 1349983610.927283000 seconds
    [Time delta from previous captured frame: 0.000728000 seconds]
    [Time delta from previous displayed frame: 0.000728000 seconds]
    [Time since reference or first frame: 0.640536000 seconds]
    Frame Number: 10
    Frame Length: 180 bytes (1440 bits)
    Capture Length: 180 bytes (1440 bits)
    [Frame is marked: False]
    [Frame is ignored: False]
    [Protocols in frame: eth:ip:tcp:data]
Ethernet II, Src: SonyComp_ea:13:f9 (00:19:c5:ea:13:f9), Dst: ZyxelCom_8d:62:30 (40:4a:03:8d:62:30)
    Destination: ZyxelCom_8d:62:30 (40:4a:03:8d:62:30)
        Address: ZyxelCom_8d:62:30 (40:4a:03:8d:62:30)
        .... ...0 .... .... .... .... = IG bit: Individual address (unicast)
        .... ..0. .... .... .... .... = LG bit: Globally unique address (factory default)
    Source: SonyComp_ea:13:f9 (00:19:c5:ea:13:f9)
        Address: SonyComp_ea:13:f9 (00:19:c5:ea:13:f9)
        .... ...0 .... .... .... .... = IG bit: Individual address (unicast)
        .... ..0. .... .... .... .... = LG bit: Globally unique address (factory default)
    Type: IP (0x0800)
Internet Protocol Version 4, Src: 192.168.0.71 (192.168.0.71), Dst: 69.10.30.242 (69.10.30.242)
    Version: 4
    Header length: 20 bytes
    Differentiated Services Field: 0x00 (DSCP 0x00: Default; ECN: 0x00: Not-ECT (Not ECN-Capable Transport))
        0000 00.. = Differentiated Services Codepoint: Default (0x00)
        .... ..00 = Explicit Congestion Notification: Not-ECT (Not ECN-Capable Transport) (0x00)
    Total Length: 166
    Identification: 0x02b8 (696)
    Flags: 0x02 (Don't Fragment)
        0... .... = Reserved bit: Not set
        .1.. .... = Don't fragment: Set
        ..0. .... = More fragments: Not set
    Fragment offset: 0
    Time to live: 64
    Protocol: TCP (6)
    Header checksum: 0x12af [correct]
        [Good: True]
        [Bad: False]
    Source: 192.168.0.71 (192.168.0.71)
    Destination: 69.10.30.242 (69.10.30.242)
Transmission Control Protocol, Src Port: 58625 (58625), Dst Port: 29900 (29900), Seq: 1, Ack: 1, Len: 114
    Source port: 58625 (58625)
    Destination port: 29900 (29900)
    [Stream index: 0]
    Sequence number: 1    (relative sequence number)
    [Next sequence number: 115    (relative sequence number)]
    Acknowledgement number: 1    (relative ack number)
    Header length: 32 bytes
    Flags: 0x018 (PSH, ACK)
        000. .... .... = Reserved: Not set
        ...0 .... .... = Nonce: Not set
        .... 0... .... = Congestion Window Reduced (CWR): Not set
        .... .0.. .... = ECN-Echo: Not set
        .... ..0. .... = Urgent: Not set
        .... ...1 .... = Acknowledgement: Set
        .... .... 1... = Push: Set
        .... .... .0.. = Reset: Not set
        .... .... ..0. = Syn: Not set
        .... .... ...0 = Fin: Not set
    Window size value: 17520
    [Calculated window size: 17520]
    [Window size scaling factor: -1 (unknown)]
    Checksum: 0xe2e1 [validation disabled]
        [Good Checksum: False]
        [Bad Checksum: False]
    Options: (12 bytes)
        No-Operation (NOP)
        No-Operation (NOP)
        Timestamps: TSval 6957, TSecr 26308001
            Kind: Timestamp (8)
            Length: 10
            Timestamp value: 6957
            Timestamp echo reply: 26308001
    [SEQ/ACK analysis]
        [Bytes in flight: 114]
Data (114 bytes)
    Data: 5c7374617475735c325c736573736b65795c313031363434...
    [Length: 114]

0000  40 4a 03 8d 62 30 00 19 c5 ea 13 f9 08 00 45 00   @J..b0........E.
0010  00 a6 02 b8 40 00 40 06 12 af c0 a8 00 47 45 0a   ....@.@......GE.
0020  1e f2 e5 01 74 cc b8 50 c5 b2 20 c9 13 13 80 18   ....t..P.. .....
0030  44 70 e2 e1 00 00 01 01 08 0a 00 00 1b 2d 01 91   Dp...........-..
0040  6d a1 5c 73 74 61 74 75 73 5c 32 5c 73 65 73 73   m.\status\2\sess
0050  6b 65 79 5c 31 30 31 36 34 34 36 39 30 5c 73 74   key\101644690\st
0060  61 74 73 74 72 69 6e 67 5c 50 6c 61 79 69 6e 67   atstring\Playing
0070  5c 6c 6f 63 73 74 72 69 6e 67 5c 62 66 69 65 6c   \locstring\bfiel
0080  64 31 39 34 32 70 73 32 3a 2f 4d 75 6c 74 69 70   d1942ps2:/Multip
0090  6c 61 79 20 50 75 62 20 30 37 40 38 35 2e 32 33   lay Pub 07@85.23
00a0  36 2e 31 30 31 2e 31 38 3a 34 30 36 38 5c 66 69   6.101.18:4068\fi
00b0  6e 61 6c 5c                                       nal\

No.     Time                       Source                Destination           Protocol Length Info
     11 2012-10-11 22:26:50.927824 192.168.0.71          85.236.101.18         UDP      79     Source port: 55800  Destination port: kingfisher

Frame 11: 79 bytes on wire (632 bits), 79 bytes captured (632 bits)
    Arrival Time: Oct 11, 2012 22:26:50.927824000 GTB Standard Time
    Epoch Time: 1349983610.927824000 seconds
    [Time delta from previous captured frame: 0.000541000 seconds]
    [Time delta from previous displayed frame: 0.000541000 seconds]
    [Time since reference or first frame: 0.641077000 seconds]
    Frame Number: 11
    Frame Length: 79 bytes (632 bits)
    Capture Length: 79 bytes (632 bits)
    [Frame is marked: False]
    [Frame is ignored: False]
    [Protocols in frame: eth:ip:udp:data]
Ethernet II, Src: SonyComp_ea:13:f9 (00:19:c5:ea:13:f9), Dst: ZyxelCom_8d:62:30 (40:4a:03:8d:62:30)
    Destination: ZyxelCom_8d:62:30 (40:4a:03:8d:62:30)
        Address: ZyxelCom_8d:62:30 (40:4a:03:8d:62:30)
        .... ...0 .... .... .... .... = IG bit: Individual address (unicast)
        .... ..0. .... .... .... .... = LG bit: Globally unique address (factory default)
    Source: SonyComp_ea:13:f9 (00:19:c5:ea:13:f9)
        Address: SonyComp_ea:13:f9 (00:19:c5:ea:13:f9)
        .... ...0 .... .... .... .... = IG bit: Individual address (unicast)
        .... ..0. .... .... .... .... = LG bit: Globally unique address (factory default)
    Type: IP (0x0800)
Internet Protocol Version 4, Src: 192.168.0.71 (192.168.0.71), Dst: 85.236.101.18 (85.236.101.18)
    Version: 4
    Header length: 20 bytes
    Differentiated Services Field: 0x00 (DSCP 0x00: Default; ECN: 0x00: Not-ECT (Not ECN-Capable Transport))
        0000 00.. = Differentiated Services Codepoint: Default (0x00)
        .... ..00 = Explicit Congestion Notification: Not-ECT (Not ECN-Capable Transport) (0x00)
    Total Length: 65
    Identification: 0x02b9 (697)
    Flags: 0x00
        0... .... = Reserved bit: Not set
        .0.. .... = Don't fragment: Not set
        ..0. .... = More fragments: Not set
    Fragment offset: 0
    Time to live: 64
    Protocol: UDP (17)
    Header checksum: 0xfc05 [correct]
        [Good: True]
        [Bad: False]
    Source: 192.168.0.71 (192.168.0.71)
    Destination: 85.236.101.18 (85.236.101.18)
User Datagram Protocol, Src Port: 55800 (55800), Dst Port: kingfisher (4058)
    Source port: 55800 (55800)
    Destination port: kingfisher (4058)
    Length: 45
    Checksum: 0xbc34 [validation disabled]
        [Good Checksum: False]
        [Bad Checksum: False]
Data (37 bytes)
    Data: 230018000850040080000000c0bf803487877d82dd9b3a75...
    [Length: 37]

0000  40 4a 03 8d 62 30 00 19 c5 ea 13 f9 08 00 45 00   @J..b0........E.
0010  00 41 02 b9 00 00 40 11 fc 05 c0 a8 00 47 55 ec   .A....@......GU.
0020  65 12 d9 f8 0f da 00 2d bc 34 23 00 18 00 08 50   e......-.4#....P
0030  04 00 80 00 00 00 c0 bf 80 34 87 87 7d 82 dd 9b   .........4..}...
0040  3a 75 94 0a fe 20 79 38 63 0c 2d 79 d3 54 49      :u... y8c.-y.TI

No.     Time                       Source                Destination           Protocol Length Info
     12 2012-10-11 22:26:50.966763 192.168.0.71          85.236.101.18         UDP      63     Source port: 55800  Destination port: kingfisher

Frame 12: 63 bytes on wire (504 bits), 63 bytes captured (504 bits)
    Arrival Time: Oct 11, 2012 22:26:50.966763000 GTB Standard Time
    Epoch Time: 1349983610.966763000 seconds
    [Time delta from previous captured frame: 0.038939000 seconds]
    [Time delta from previous displayed frame: 0.038939000 seconds]
    [Time since reference or first frame: 0.680016000 seconds]
    Frame Number: 12
    Frame Length: 63 bytes (504 bits)
    Capture Length: 63 bytes (504 bits)
    [Frame is marked: False]
    [Frame is ignored: False]
    [Protocols in frame: eth:ip:udp:data]
Ethernet II, Src: SonyComp_ea:13:f9 (00:19:c5:ea:13:f9), Dst: ZyxelCom_8d:62:30 (40:4a:03:8d:62:30)
    Destination: ZyxelCom_8d:62:30 (40:4a:03:8d:62:30)
        Address: ZyxelCom_8d:62:30 (40:4a:03:8d:62:30)
        .... ...0 .... .... .... .... = IG bit: Individual address (unicast)
        .... ..0. .... .... .... .... = LG bit: Globally unique address (factory default)
    Source: SonyComp_ea:13:f9 (00:19:c5:ea:13:f9)
        Address: SonyComp_ea:13:f9 (00:19:c5:ea:13:f9)
        .... ...0 .... .... .... .... = IG bit: Individual address (unicast)
        .... ..0. .... .... .... .... = LG bit: Globally unique address (factory default)
    Type: IP (0x0800)
Internet Protocol Version 4, Src: 192.168.0.71 (192.168.0.71), Dst: 85.236.101.18 (85.236.101.18)
    Version: 4
    Header length: 20 bytes
    Differentiated Services Field: 0x00 (DSCP 0x00: Default; ECN: 0x00: Not-ECT (Not ECN-Capable Transport))
        0000 00.. = Differentiated Services Codepoint: Default (0x00)
        .... ..00 = Explicit Congestion Notification: Not-ECT (Not ECN-Capable Transport) (0x00)
    Total Length: 49
    Identification: 0x02ba (698)
    Flags: 0x00
        0... .... = Reserved bit: Not set
        .0.. .... = Don't fragment: Not set
        ..0. .... = More fragments: Not set
    Fragment offset: 0
    Time to live: 64
    Protocol: UDP (17)
    Header checksum: 0xfc14 [correct]
        [Good: True]
        [Bad: False]
    Source: 192.168.0.71 (192.168.0.71)
    Destination: 85.236.101.18 (85.236.101.18)
User Datagram Protocol, Src Port: 55800 (55800), Dst Port: kingfisher (4058)
    Source port: 55800 (55800)
    Destination port: kingfisher (4058)
    Length: 29
    Checksum: 0x17bc [validation disabled]
        [Good Checksum: False]
        [Bad Checksum: False]
Data (21 bytes)
    Data: 13000c000850050080000000c07c5a599eef1f20fd
    [Length: 21]

0000  40 4a 03 8d 62 30 00 19 c5 ea 13 f9 08 00 45 00   @J..b0........E.
0010  00 31 02 ba 00 00 40 11 fc 14 c0 a8 00 47 55 ec   .1....@......GU.
0020  65 12 d9 f8 0f da 00 1d 17 bc 13 00 0c 00 08 50   e..............P
0030  05 00 80 00 00 00 c0 7c 5a 59 9e ef 1f 20 fd      .......|ZY... .

No.     Time                       Source                Destination           Protocol Length Info
     13 2012-10-11 22:26:51.126694 192.168.0.71          85.236.101.18         UDP      71     Source port: 55800  Destination port: kingfisher

Frame 13: 71 bytes on wire (568 bits), 71 bytes captured (568 bits)
    Arrival Time: Oct 11, 2012 22:26:51.126694000 GTB Standard Time
    Epoch Time: 1349983611.126694000 seconds
    [Time delta from previous captured frame: 0.159931000 seconds]
    [Time delta from previous displayed frame: 0.159931000 seconds]
    [Time since reference or first frame: 0.839947000 seconds]
    Frame Number: 13
    Frame Length: 71 bytes (568 bits)
    Capture Length: 71 bytes (568 bits)
    [Frame is marked: False]
    [Frame is ignored: False]
    [Protocols in frame: eth:ip:udp:data]
Ethernet II, Src: SonyComp_ea:13:f9 (00:19:c5:ea:13:f9), Dst: ZyxelCom_8d:62:30 (40:4a:03:8d:62:30)
    Destination: ZyxelCom_8d:62:30 (40:4a:03:8d:62:30)
        Address: ZyxelCom_8d:62:30 (40:4a:03:8d:62:30)
        .... ...0 .... .... .... .... = IG bit: Individual address (unicast)
        .... ..0. .... .... .... .... = LG bit: Globally unique address (factory default)
    Source: SonyComp_ea:13:f9 (00:19:c5:ea:13:f9)
        Address: SonyComp_ea:13:f9 (00:19:c5:ea:13:f9)
        .... ...0 .... .... .... .... = IG bit: Individual address (unicast)
        .... ..0. .... .... .... .... = LG bit: Globally unique address (factory default)
    Type: IP (0x0800)
Internet Protocol Version 4, Src: 192.168.0.71 (192.168.0.71), Dst: 85.236.101.18 (85.236.101.18)
    Version: 4
    Header length: 20 bytes
    Differentiated Services Field: 0x00 (DSCP 0x00: Default; ECN: 0x00: Not-ECT (Not ECN-Capable Transport))
        0000 00.. = Differentiated Services Codepoint: Default (0x00)
        .... ..00 = Explicit Congestion Notification: Not-ECT (Not ECN-Capable Transport) (0x00)
    Total Length: 57
    Identification: 0x02bb (699)
    Flags: 0x00
        0... .... = Reserved bit: Not set
        .0.. .... = Don't fragment: Not set
        ..0. .... = More fragments: Not set
    Fragment offset: 0
    Time to live: 64
    Protocol: UDP (17)
    Header checksum: 0xfc0b [correct]
        [Good: True]
        [Bad: False]
    Source: 192.168.0.71 (192.168.0.71)
    Destination: 85.236.101.18 (85.236.101.18)
User Datagram Protocol, Src Port: 55800 (55800), Dst Port: kingfisher (4058)
    Source port: 55800 (55800)
    Destination port: kingfisher (4058)
    Length: 37
    Checksum: 0xc6c2 [validation disabled]
        [Good Checksum: False]
        [Bad Checksum: False]
Data (29 bytes)
    Data: 1b00ac000850060140000007c02a03e0e29e3b3a33be49d9...
    [Length: 29]

0000  40 4a 03 8d 62 30 00 19 c5 ea 13 f9 08 00 45 00   @J..b0........E.
0010  00 39 02 bb 00 00 40 11 fc 0b c0 a8 00 47 55 ec   .9....@......GU.
0020  65 12 d9 f8 0f da 00 25 c6 c2 1b 00 ac 00 08 50   e......%.......P
0030  06 01 40 00 00 07 c0 2a 03 e0 e2 9e 3b 3a 33 be   ..@....*....;:3.
0040  49 d9 b2 c2 4a 89 61                              I...J.a

No.     Time                       Source                Destination           Protocol Length Info
     14 2012-10-11 22:26:51.146285 192.168.0.71          85.236.101.18         UDP      71     Source port: 55800  Destination port: kingfisher

Frame 14: 71 bytes on wire (568 bits), 71 bytes captured (568 bits)
    Arrival Time: Oct 11, 2012 22:26:51.146285000 GTB Standard Time
    Epoch Time: 1349983611.146285000 seconds
    [Time delta from previous captured frame: 0.019591000 seconds]
    [Time delta from previous displayed frame: 0.019591000 seconds]
    [Time since reference or first frame: 0.859538000 seconds]
    Frame Number: 14
    Frame Length: 71 bytes (568 bits)
    Capture Length: 71 bytes (568 bits)
    [Frame is marked: False]
    [Frame is ignored: False]
    [Protocols in frame: eth:ip:udp:data]
Ethernet II, Src: SonyComp_ea:13:f9 (00:19:c5:ea:13:f9), Dst: ZyxelCom_8d:62:30 (40:4a:03:8d:62:30)
    Destination: ZyxelCom_8d:62:30 (40:4a:03:8d:62:30)
        Address: ZyxelCom_8d:62:30 (40:4a:03:8d:62:30)
        .... ...0 .... .... .... .... = IG bit: Individual address (unicast)
        .... ..0. .... .... .... .... = LG bit: Globally unique address (factory default)
    Source: SonyComp_ea:13:f9 (00:19:c5:ea:13:f9)
        Address: SonyComp_ea:13:f9 (00:19:c5:ea:13:f9)
        .... ...0 .... .... .... .... = IG bit: Individual address (unicast)
        .... ..0. .... .... .... .... = LG bit: Globally unique address (factory default)
    Type: IP (0x0800)
Internet Protocol Version 4, Src: 192.168.0.71 (192.168.0.71), Dst: 85.236.101.18 (85.236.101.18)
    Version: 4
    Header length: 20 bytes
    Differentiated Services Field: 0x00 (DSCP 0x00: Default; ECN: 0x00: Not-ECT (Not ECN-Capable Transport))
        0000 00.. = Differentiated Services Codepoint: Default (0x00)
        .... ..00 = Explicit Congestion Notification: Not-ECT (Not ECN-Capable Transport) (0x00)
    Total Length: 57
    Identification: 0x02bc (700)
    Flags: 0x00
        0... .... = Reserved bit: Not set
        .0.. .... = Don't fragment: Not set
        ..0. .... = More fragments: Not set
    Fragment offset: 0
    Time to live: 64
    Protocol: UDP (17)
    Header checksum: 0xfc0a [correct]
        [Good: True]
        [Bad: False]
    Source: 192.168.0.71 (192.168.0.71)
    Destination: 85.236.101.18 (85.236.101.18)
User Datagram Protocol, Src Port: 55800 (55800), Dst Port: kingfisher (4058)
    Source port: 55800 (55800)
    Destination port: kingfisher (4058)
    Length: 37
    Checksum: 0x971d [validation disabled]
        [Good Checksum: False]
        [Bad Checksum: False]
Data (29 bytes)
    Data: 1b00ac000850070140000007c0f1bf2c77d70ed25563654b...
    [Length: 29]

0000  40 4a 03 8d 62 30 00 19 c5 ea 13 f9 08 00 45 00   @J..b0........E.
0010  00 39 02 bc 00 00 40 11 fc 0a c0 a8 00 47 55 ec   .9....@......GU.
0020  65 12 d9 f8 0f da 00 25 97 1d 1b 00 ac 00 08 50   e......%.......P
0030  07 01 40 00 00 07 c0 f1 bf 2c 77 d7 0e d2 55 63   ..@......,w...Uc
0040  65 4b df d2 f8 22 53                              eK..."S

No.     Time                       Source                Destination           Protocol Length Info
     15 2012-10-11 22:26:51.166281 192.168.0.71          85.236.101.18         UDP      71     Source port: 55800  Destination port: kingfisher

Frame 15: 71 bytes on wire (568 bits), 71 bytes captured (568 bits)
    Arrival Time: Oct 11, 2012 22:26:51.166281000 GTB Standard Time
    Epoch Time: 1349983611.166281000 seconds
    [Time delta from previous captured frame: 0.019996000 seconds]
    [Time delta from previous displayed frame: 0.019996000 seconds]
    [Time since reference or first frame: 0.879534000 seconds]
    Frame Number: 15
    Frame Length: 71 bytes (568 bits)
    Capture Length: 71 bytes (568 bits)
    [Frame is marked: False]
    [Frame is ignored: False]
    [Protocols in frame: eth:ip:udp:data]
Ethernet II, Src: SonyComp_ea:13:f9 (00:19:c5:ea:13:f9), Dst: ZyxelCom_8d:62:30 (40:4a:03:8d:62:30)
    Destination: ZyxelCom_8d:62:30 (40:4a:03:8d:62:30)
        Address: ZyxelCom_8d:62:30 (40:4a:03:8d:62:30)
        .... ...0 .... .... .... .... = IG bit: Individual address (unicast)
        .... ..0. .... .... .... .... = LG bit: Globally unique address (factory default)
    Source: SonyComp_ea:13:f9 (00:19:c5:ea:13:f9)
        Address: SonyComp_ea:13:f9 (00:19:c5:ea:13:f9)
        .... ...0 .... .... .... .... = IG bit: Individual address (unicast)
        .... ..0. .... .... .... .... = LG bit: Globally unique address (factory default)
    Type: IP (0x0800)
Internet Protocol Version 4, Src: 192.168.0.71 (192.168.0.71), Dst: 85.236.101.18 (85.236.101.18)
    Version: 4
    Header length: 20 bytes
    Differentiated Services Field: 0x00 (DSCP 0x00: Default; ECN: 0x00: Not-ECT (Not ECN-Capable Transport))
        0000 00.. = Differentiated Services Codepoint: Default (0x00)
        .... ..00 = Explicit Congestion Notification: Not-ECT (Not ECN-Capable Transport) (0x00)
    Total Length: 57
    Identification: 0x02bd (701)
    Flags: 0x00
        0... .... = Reserved bit: Not set
        .0.. .... = Don't fragment: Not set
        ..0. .... = More fragments: Not set
    Fragment offset: 0
    Time to live: 64
    Protocol: UDP (17)
    Header checksum: 0xfc09 [correct]
        [Good: True]
        [Bad: False]
    Source: 192.168.0.71 (192.168.0.71)
    Destination: 85.236.101.18 (85.236.101.18)
User Datagram Protocol, Src Port: 55800 (55800), Dst Port: kingfisher (4058)
    Source port: 55800 (55800)
    Destination port: kingfisher (4058)
    Length: 37
    Checksum: 0x3ac5 [validation disabled]
        [Good Checksum: False]
        [Bad Checksum: False]
Data (29 bytes)
    Data: 1b00ac000850080140000007c00c40d497d1fa7e756662cc...
    [Length: 29]

0000  40 4a 03 8d 62 30 00 19 c5 ea 13 f9 08 00 45 00   @J..b0........E.
0010  00 39 02 bd 00 00 40 11 fc 09 c0 a8 00 47 55 ec   .9....@......GU.
0020  65 12 d9 f8 0f da 00 25 3a c5 1b 00 ac 00 08 50   e......%:......P
0030  08 01 40 00 00 07 c0 0c 40 d4 97 d1 fa 7e 75 66   ..@.....@....~uf
0040  62 cc 56 69 8b f6 fa                              b.Vi...

No.     Time                       Source                Destination           Protocol Length Info
     16 2012-10-11 22:26:51.186351 192.168.0.71          85.236.101.18         UDP      71     Source port: 55800  Destination port: kingfisher

Frame 16: 71 bytes on wire (568 bits), 71 bytes captured (568 bits)
    Arrival Time: Oct 11, 2012 22:26:51.186351000 GTB Standard Time
    Epoch Time: 1349983611.186351000 seconds
    [Time delta from previous captured frame: 0.020070000 seconds]
    [Time delta from previous displayed frame: 0.020070000 seconds]
    [Time since reference or first frame: 0.899604000 seconds]
    Frame Number: 16
    Frame Length: 71 bytes (568 bits)
    Capture Length: 71 bytes (568 bits)
    [Frame is marked: False]
    [Frame is ignored: False]
    [Protocols in frame: eth:ip:udp:data]
Ethernet II, Src: SonyComp_ea:13:f9 (00:19:c5:ea:13:f9), Dst: ZyxelCom_8d:62:30 (40:4a:03:8d:62:30)
    Destination: ZyxelCom_8d:62:30 (40:4a:03:8d:62:30)
        Address: ZyxelCom_8d:62:30 (40:4a:03:8d:62:30)
        .... ...0 .... .... .... .... = IG bit: Individual address (unicast)
        .... ..0. .... .... .... .... = LG bit: Globally unique address (factory default)
    Source: SonyComp_ea:13:f9 (00:19:c5:ea:13:f9)
        Address: SonyComp_ea:13:f9 (00:19:c5:ea:13:f9)
        .... ...0 .... .... .... .... = IG bit: Individual address (unicast)
        .... ..0. .... .... .... .... = LG bit: Globally unique address (factory default)
    Type: IP (0x0800)
Internet Protocol Version 4, Src: 192.168.0.71 (192.168.0.71), Dst: 85.236.101.18 (85.236.101.18)
    Version: 4
    Header length: 20 bytes
    Differentiated Services Field: 0x00 (DSCP 0x00: Default; ECN: 0x00: Not-ECT (Not ECN-Capable Transport))
        0000 00.. = Differentiated Services Codepoint: Default (0x00)
        .... ..00 = Explicit Congestion Notification: Not-ECT (Not ECN-Capable Transport) (0x00)
    Total Length: 57
    Identification: 0x02be (702)
    Flags: 0x00
        0... .... = Reserved bit: Not set
        .0.. .... = Don't fragment: Not set
        ..0. .... = More fragments: Not set
    Fragment offset: 0
    Time to live: 64
    Protocol: UDP (17)
    Header checksum: 0xfc08 [correct]
        [Good: True]
        [Bad: False]
    Source: 192.168.0.71 (192.168.0.71)
    Destination: 85.236.101.18 (85.236.101.18)
User Datagram Protocol, Src Port: 55800 (55800), Dst Port: kingfisher (4058)
    Source port: 55800 (55800)
    Destination port: kingfisher (4058)
    Length: 37
    Checksum: 0x5f11 [validation disabled]
        [Good Checksum: False]
        [Bad Checksum: False]
Data (29 bytes)
    Data: 1b00ac000850090140000007c0369dd5a61bab224d91e4cc...
    [Length: 29]

0000  40 4a 03 8d 62 30 00 19 c5 ea 13 f9 08 00 45 00   @J..b0........E.
0010  00 39 02 be 00 00 40 11 fc 08 c0 a8 00 47 55 ec   .9....@......GU.
0020  65 12 d9 f8 0f da 00 25 5f 11 1b 00 ac 00 08 50   e......%_......P
0030  09 01 40 00 00 07 c0 36 9d d5 a6 1b ab 22 4d 91   ..@....6....."M.
0040  e4 cc 0f 8a b0 45 81                              .....E.

No.     Time                       Source                Destination           Protocol Length Info
     17 2012-10-11 22:26:51.206600 192.168.0.71          85.236.101.18         UDP      71     Source port: 55800  Destination port: kingfisher

Frame 17: 71 bytes on wire (568 bits), 71 bytes captured (568 bits)
    Arrival Time: Oct 11, 2012 22:26:51.206600000 GTB Standard Time
    Epoch Time: 1349983611.206600000 seconds
    [Time delta from previous captured frame: 0.020249000 seconds]
    [Time delta from previous displayed frame: 0.020249000 seconds]
    [Time since reference or first frame: 0.919853000 seconds]
    Frame Number: 17
    Frame Length: 71 bytes (568 bits)
    Capture Length: 71 bytes (568 bits)
    [Frame is marked: False]
    [Frame is ignored: False]
    [Protocols in frame: eth:ip:udp:data]
Ethernet II, Src: SonyComp_ea:13:f9 (00:19:c5:ea:13:f9), Dst: ZyxelCom_8d:62:30 (40:4a:03:8d:62:30)
    Destination: ZyxelCom_8d:62:30 (40:4a:03:8d:62:30)
        Address: ZyxelCom_8d:62:30 (40:4a:03:8d:62:30)
        .... ...0 .... .... .... .... = IG bit: Individual address (unicast)
        .... ..0. .... .... .... .... = LG bit: Globally unique address (factory default)
    Source: SonyComp_ea:13:f9 (00:19:c5:ea:13:f9)
        Address: SonyComp_ea:13:f9 (00:19:c5:ea:13:f9)
        .... ...0 .... .... .... .... = IG bit: Individual address (unicast)
        .... ..0. .... .... .... .... = LG bit: Globally unique address (factory default)
    Type: IP (0x0800)
Internet Protocol Version 4, Src: 192.168.0.71 (192.168.0.71), Dst: 85.236.101.18 (85.236.101.18)
    Version: 4
    Header length: 20 bytes
    Differentiated Services Field: 0x00 (DSCP 0x00: Default; ECN: 0x00: Not-ECT (Not ECN-Capable Transport))
        0000 00.. = Differentiated Services Codepoint: Default (0x00)
        .... ..00 = Explicit Congestion Notification: Not-ECT (Not ECN-Capable Transport) (0x00)
    Total Length: 57
    Identification: 0x02bf (703)
    Flags: 0x00
        0... .... = Reserved bit: Not set
        .0.. .... = Don't fragment: Not set
        ..0. .... = More fragments: Not set
    Fragment offset: 0
    Time to live: 64
    Protocol: UDP (17)
    Header checksum: 0xfc07 [correct]
        [Good: True]
        [Bad: False]
    Source: 192.168.0.71 (192.168.0.71)
    Destination: 85.236.101.18 (85.236.101.18)
User Datagram Protocol, Src Port: 55800 (55800), Dst Port: kingfisher (4058)
    Source port: 55800 (55800)
    Destination port: kingfisher (4058)
    Length: 37
    Checksum: 0x851d [validation disabled]
        [Good Checksum: False]
        [Bad Checksum: False]
Data (29 bytes)
    Data: 1b00ac0008500a01c000001fc0bb4e766888e75a264fe2ff...
    [Length: 29]

0000  40 4a 03 8d 62 30 00 19 c5 ea 13 f9 08 00 45 00   @J..b0........E.
0010  00 39 02 bf 00 00 40 11 fc 07 c0 a8 00 47 55 ec   .9....@......GU.
0020  65 12 d9 f8 0f da 00 25 85 1d 1b 00 ac 00 08 50   e......%.......P
0030  0a 01 c0 00 00 1f c0 bb 4e 76 68 88 e7 5a 26 4f   ........Nvh..Z&O
0040  e2 ff 8f 8e e8 60 9b                              .....`.

No.     Time                       Source                Destination           Protocol Length Info
     18 2012-10-11 22:26:51.226586 192.168.0.71          85.236.101.18         UDP      71     Source port: 55800  Destination port: kingfisher

Frame 18: 71 bytes on wire (568 bits), 71 bytes captured (568 bits)
    Arrival Time: Oct 11, 2012 22:26:51.226586000 GTB Standard Time
    Epoch Time: 1349983611.226586000 seconds
    [Time delta from previous captured frame: 0.019986000 seconds]
    [Time delta from previous displayed frame: 0.019986000 seconds]
    [Time since reference or first frame: 0.939839000 seconds]
    Frame Number: 18
    Frame Length: 71 bytes (568 bits)
    Capture Length: 71 bytes (568 bits)
    [Frame is marked: False]
    [Frame is ignored: False]
    [Protocols in frame: eth:ip:udp:data]
    [Coloring Rule Name: UDP]
    [Coloring Rule String: udp]
Ethernet II, Src: SonyComp_ea:13:f9 (00:19:c5:ea:13:f9), Dst: ZyxelCom_8d:62:30 (40:4a:03:8d:62:30)
    Destination: ZyxelCom_8d:62:30 (40:4a:03:8d:62:30)
        Address: ZyxelCom_8d:62:30 (40:4a:03:8d:62:30)
        .... ...0 .... .... .... .... = IG bit: Individual address (unicast)
        .... ..0. .... .... .... .... = LG bit: Globally unique address (factory default)
    Source: SonyComp_ea:13:f9 (00:19:c5:ea:13:f9)
        Address: SonyComp_ea:13:f9 (00:19:c5:ea:13:f9)
        .... ...0 .... .... .... .... = IG bit: Individual address (unicast)
        .... ..0. .... .... .... .... = LG bit: Globally unique address (factory default)
    Type: IP (0x0800)
Internet Protocol Version 4, Src: 192.168.0.71 (192.168.0.71), Dst: 85.236.101.18 (85.236.101.18)
    Version: 4
    Header length: 20 bytes
    Differentiated Services Field: 0x00 (DSCP 0x00: Default; ECN: 0x00: Not-ECT (Not ECN-Capable Transport))
        0000 00.. = Differentiated Services Codepoint: Default (0x00)
        .... ..00 = Explicit Congestion Notification: Not-ECT (Not ECN-Capable Transport) (0x00)
    Total Length: 57
    Identification: 0x02c0 (704)
    Flags: 0x00
        0... .... = Reserved bit: Not set
        .0.. .... = Don't fragment: Not set
        ..0. .... = More fragments: Not set
    Fragment offset: 0
    Time to live: 64
    Protocol: UDP (17)
    Header checksum: 0xfc06 [correct]
        [Good: True]
        [Bad: False]
    Source: 192.168.0.71 (192.168.0.71)
    Destination: 85.236.101.18 (85.236.101.18)
User Datagram Protocol, Src Port: 55800 (55800), Dst Port: kingfisher (4058)
    Source port: 55800 (55800)
    Destination port: kingfisher (4058)
    Length: 37
    Checksum: 0x61cb [validation disabled]
        [Good Checksum: False]
        [Bad Checksum: False]
Data (29 bytes)
    Data: 1b00ac0008500b020000003fc01b54ed9fcfd084a393d2a2...
    [Length: 29]

0000  40 4a 03 8d 62 30 00 19 c5 ea 13 f9 08 00 45 00   @J..b0........E.
0010  00 39 02 c0 00 00 40 11 fc 06 c0 a8 00 47 55 ec   .9....@......GU.
0020  65 12 d9 f8 0f da 00 25 61 cb 1b 00 ac 00 08 50   e......%a......P
0030  0b 02 00 00 00 3f c0 1b 54 ed 9f cf d0 84 a3 93   .....?..T.......
0040  d2 a2 ae 32 db be d8                              ...2...

No.     Time                       Source                Destination           Protocol Length Info
     19 2012-10-11 22:26:51.246619 192.168.0.71          85.236.101.18         UDP      71     Source port: 55800  Destination port: kingfisher

Frame 19: 71 bytes on wire (568 bits), 71 bytes captured (568 bits)
    Arrival Time: Oct 11, 2012 22:26:51.246619000 GTB Standard Time
    Epoch Time: 1349983611.246619000 seconds
    [Time delta from previous captured frame: 0.020033000 seconds]
    [Time delta from previous displayed frame: 0.020033000 seconds]
    [Time since reference or first frame: 0.959872000 seconds]
    Frame Number: 19
    Frame Length: 71 bytes (568 bits)
    Capture Length: 71 bytes (568 bits)
    [Frame is marked: False]
    [Frame is ignored: False]
    [Protocols in frame: eth:ip:udp:data]
    [Coloring Rule Name: UDP]
    [Coloring Rule String: udp]
Ethernet II, Src: SonyComp_ea:13:f9 (00:19:c5:ea:13:f9), Dst: ZyxelCom_8d:62:30 (40:4a:03:8d:62:30)
    Destination: ZyxelCom_8d:62:30 (40:4a:03:8d:62:30)
        Address: ZyxelCom_8d:62:30 (40:4a:03:8d:62:30)
        .... ...0 .... .... .... .... = IG bit: Individual address (unicast)
        .... ..0. .... .... .... .... = LG bit: Globally unique address (factory default)
    Source: SonyComp_ea:13:f9 (00:19:c5:ea:13:f9)
        Address: SonyComp_ea:13:f9 (00:19:c5:ea:13:f9)
        .... ...0 .... .... .... .... = IG bit: Individual address (unicast)
        .... ..0. .... .... .... .... = LG bit: Globally unique address (factory default)
    Type: IP (0x0800)
Internet Protocol Version 4, Src: 192.168.0.71 (192.168.0.71), Dst: 85.236.101.18 (85.236.101.18)
    Version: 4
    Header length: 20 bytes
    Differentiated Services Field: 0x00 (DSCP 0x00: Default; ECN: 0x00: Not-ECT (Not ECN-Capable Transport))
        0000 00.. = Differentiated Services Codepoint: Default (0x00)
        .... ..00 = Explicit Congestion Notification: Not-ECT (Not ECN-Capable Transport) (0x00)
    Total Length: 57
    Identification: 0x02c1 (705)
    Flags: 0x00
        0... .... = Reserved bit: Not set
        .0.. .... = Don't fragment: Not set
        ..0. .... = More fragments: Not set
    Fragment offset: 0
    Time to live: 64
    Protocol: UDP (17)
    Header checksum: 0xfc05 [correct]
        [Good: True]
        [Bad: False]
    Source: 192.168.0.71 (192.168.0.71)
    Destination: 85.236.101.18 (85.236.101.18)
User Datagram Protocol, Src Port: 55800 (55800), Dst Port: kingfisher (4058)
    Source port: 55800 (55800)
    Destination port: kingfisher (4058)
    Length: 37
    Checksum: 0x0a8d [validation disabled]
        [Good Checksum: False]
        [Bad Checksum: False]
Data (29 bytes)
    Data: 1b00ac0008500c024000007fc0ca842c66cd40ce71537126...
    [Length: 29]

0000  40 4a 03 8d 62 30 00 19 c5 ea 13 f9 08 00 45 00   @J..b0........E.
0010  00 39 02 c1 00 00 40 11 fc 05 c0 a8 00 47 55 ec   .9....@......GU.
0020  65 12 d9 f8 0f da 00 25 0a 8d 1b 00 ac 00 08 50   e......%.......P
0030  0c 02 40 00 00 7f c0 ca 84 2c 66 cd 40 ce 71 53   ..@......,f.@.qS
0040  71 26 81 8b 9b eb 87                              q&.....

No.     Time                       Source                Destination           Protocol Length Info
     20 2012-10-11 22:26:51.267474 192.168.0.71          85.236.101.18         UDP      103    Source port: 55800  Destination port: kingfisher

Frame 20: 103 bytes on wire (824 bits), 103 bytes captured (824 bits)
    Arrival Time: Oct 11, 2012 22:26:51.267474000 GTB Standard Time
    Epoch Time: 1349983611.267474000 seconds
    [Time delta from previous captured frame: 0.020855000 seconds]
    [Time delta from previous displayed frame: 0.020855000 seconds]
    [Time since reference or first frame: 0.980727000 seconds]
    Frame Number: 20
    Frame Length: 103 bytes (824 bits)
    Capture Length: 103 bytes (824 bits)
    [Frame is marked: False]
    [Frame is ignored: False]
    [Protocols in frame: eth:ip:udp:data]
    [Coloring Rule Name: UDP]
    [Coloring Rule String: udp]
Ethernet II, Src: SonyComp_ea:13:f9 (00:19:c5:ea:13:f9), Dst: ZyxelCom_8d:62:30 (40:4a:03:8d:62:30)
    Destination: ZyxelCom_8d:62:30 (40:4a:03:8d:62:30)
        Address: ZyxelCom_8d:62:30 (40:4a:03:8d:62:30)
        .... ...0 .... .... .... .... = IG bit: Individual address (unicast)
        .... ..0. .... .... .... .... = LG bit: Globally unique address (factory default)
    Source: SonyComp_ea:13:f9 (00:19:c5:ea:13:f9)
        Address: SonyComp_ea:13:f9 (00:19:c5:ea:13:f9)
        .... ...0 .... .... .... .... = IG bit: Individual address (unicast)
        .... ..0. .... .... .... .... = LG bit: Globally unique address (factory default)
    Type: IP (0x0800)
Internet Protocol Version 4, Src: 192.168.0.71 (192.168.0.71), Dst: 85.236.101.18 (85.236.101.18)
    Version: 4
    Header length: 20 bytes
    Differentiated Services Field: 0x00 (DSCP 0x00: Default; ECN: 0x00: Not-ECT (Not ECN-Capable Transport))
        0000 00.. = Differentiated Services Codepoint: Default (0x00)
        .... ..00 = Explicit Congestion Notification: Not-ECT (Not ECN-Capable Transport) (0x00)
    Total Length: 89
    Identification: 0x02c2 (706)
    Flags: 0x00
        0... .... = Reserved bit: Not set
        .0.. .... = Don't fragment: Not set
        ..0. .... = More fragments: Not set
    Fragment offset: 0
    Time to live: 64
    Protocol: UDP (17)
    Header checksum: 0xfbe4 [correct]
        [Good: True]
        [Bad: False]
    Source: 192.168.0.71 (192.168.0.71)
    Destination: 85.236.101.18 (85.236.101.18)
User Datagram Protocol, Src Port: 55800 (55800), Dst Port: kingfisher (4058)
    Source port: 55800 (55800)
    Destination port: kingfisher (4058)
    Length: 69
    Checksum: 0x020a [validation disabled]
        [Good Checksum: False]
        [Bad Checksum: False]
Data (61 bytes)
    Data: 3b00100008500d02c00001ffc06c7933d584a8b7e6c85251...
    [Length: 61]

0000  40 4a 03 8d 62 30 00 19 c5 ea 13 f9 08 00 45 00   @J..b0........E.
0010  00 59 02 c2 00 00 40 11 fb e4 c0 a8 00 47 55 ec   .Y....@......GU.
0020  65 12 d9 f8 0f da 00 45 02 0a 3b 00 10 00 08 50   e......E..;....P
0030  0d 02 c0 00 01 ff c0 6c 79 33 d5 84 a8 b7 e6 c8   .......ly3......
0040  52 51 99 81 36 1d 34 fe 05 f4 a0 80 91 41 5a f6   RQ..6.4......AZ.
0050  e6 19 d7 16 11 94 d4 53 28 b3 ab 54 bf 3a e8 b6   .......S(..T.:..
0060  83 6b f5 e6 4c a2 08                              .k..L..

No.     Time                       Source                Destination           Protocol Length Info
     21 2012-10-11 22:26:51.286442 192.168.0.71          85.236.101.18         UDP      71     Source port: 55800  Destination port: kingfisher

Frame 21: 71 bytes on wire (568 bits), 71 bytes captured (568 bits)
    Arrival Time: Oct 11, 2012 22:26:51.286442000 GTB Standard Time
    Epoch Time: 1349983611.286442000 seconds
    [Time delta from previous captured frame: 0.018968000 seconds]
    [Time delta from previous displayed frame: 0.018968000 seconds]
    [Time since reference or first frame: 0.999695000 seconds]
    Frame Number: 21
    Frame Length: 71 bytes (568 bits)
    Capture Length: 71 bytes (568 bits)
    [Frame is marked: False]
    [Frame is ignored: False]
    [Protocols in frame: eth:ip:udp:data]
    [Coloring Rule Name: UDP]
    [Coloring Rule String: udp]
Ethernet II, Src: SonyComp_ea:13:f9 (00:19:c5:ea:13:f9), Dst: ZyxelCom_8d:62:30 (40:4a:03:8d:62:30)
    Destination: ZyxelCom_8d:62:30 (40:4a:03:8d:62:30)
        Address: ZyxelCom_8d:62:30 (40:4a:03:8d:62:30)
        .... ...0 .... .... .... .... = IG bit: Individual address (unicast)
        .... ..0. .... .... .... .... = LG bit: Globally unique address (factory default)
    Source: SonyComp_ea:13:f9 (00:19:c5:ea:13:f9)
        Address: SonyComp_ea:13:f9 (00:19:c5:ea:13:f9)
        .... ...0 .... .... .... .... = IG bit: Individual address (unicast)
        .... ..0. .... .... .... .... = LG bit: Globally unique address (factory default)
    Type: IP (0x0800)
Internet Protocol Version 4, Src: 192.168.0.71 (192.168.0.71), Dst: 85.236.101.18 (85.236.101.18)
    Version: 4
    Header length: 20 bytes
    Differentiated Services Field: 0x00 (DSCP 0x00: Default; ECN: 0x00: Not-ECT (Not ECN-Capable Transport))
        0000 00.. = Differentiated Services Codepoint: Default (0x00)
        .... ..00 = Explicit Congestion Notification: Not-ECT (Not ECN-Capable Transport) (0x00)
    Total Length: 57
    Identification: 0x02c3 (707)
    Flags: 0x00
        0... .... = Reserved bit: Not set
        .0.. .... = Don't fragment: Not set
        ..0. .... = More fragments: Not set
    Fragment offset: 0
    Time to live: 64
    Protocol: UDP (17)
    Header checksum: 0xfc03 [correct]
        [Good: True]
        [Bad: False]
    Source: 192.168.0.71 (192.168.0.71)
    Destination: 85.236.101.18 (85.236.101.18)
User Datagram Protocol, Src Port: 55800 (55800), Dst Port: kingfisher (4058)
    Source port: 55800 (55800)
    Destination port: kingfisher (4058)
    Length: 37
    Checksum: 0xf483 [validation disabled]
        [Good Checksum: False]
        [Bad Checksum: False]
Data (29 bytes)
    Data: 1b00ac0008500e03000003ffc0fe55739f1675172f37c368...
    [Length: 29]

0000  40 4a 03 8d 62 30 00 19 c5 ea 13 f9 08 00 45 00   @J..b0........E.
0010  00 39 02 c3 00 00 40 11 fc 03 c0 a8 00 47 55 ec   .9....@......GU.
0020  65 12 d9 f8 0f da 00 25 f4 83 1b 00 ac 00 08 50   e......%.......P
0030  0e 03 00 00 03 ff c0 fe 55 73 9f 16 75 17 2f 37   ........Us..u./7
0040  c3 68 7c 5e c1 6d 69                              .h|^.mi

No.     Time                       Source                Destination           Protocol Length Info
     22 2012-10-11 22:26:51.306875 192.168.0.71          85.236.101.18         UDP      63     Source port: 55800  Destination port: kingfisher

Frame 22: 63 bytes on wire (504 bits), 63 bytes captured (504 bits)
    Arrival Time: Oct 11, 2012 22:26:51.306875000 GTB Standard Time
    Epoch Time: 1349983611.306875000 seconds
    [Time delta from previous captured frame: 0.020433000 seconds]
    [Time delta from previous displayed frame: 0.020433000 seconds]
    [Time since reference or first frame: 1.020128000 seconds]
    Frame Number: 22
    Frame Length: 63 bytes (504 bits)
    Capture Length: 63 bytes (504 bits)
    [Frame is marked: False]
    [Frame is ignored: False]
    [Protocols in frame: eth:ip:udp:data]
    [Coloring Rule Name: UDP]
    [Coloring Rule String: udp]
Ethernet II, Src: SonyComp_ea:13:f9 (00:19:c5:ea:13:f9), Dst: ZyxelCom_8d:62:30 (40:4a:03:8d:62:30)
    Destination: ZyxelCom_8d:62:30 (40:4a:03:8d:62:30)
        Address: ZyxelCom_8d:62:30 (40:4a:03:8d:62:30)
        .... ...0 .... .... .... .... = IG bit: Individual address (unicast)
        .... ..0. .... .... .... .... = LG bit: Globally unique address (factory default)
    Source: SonyComp_ea:13:f9 (00:19:c5:ea:13:f9)
        Address: SonyComp_ea:13:f9 (00:19:c5:ea:13:f9)
        .... ...0 .... .... .... .... = IG bit: Individual address (unicast)
        .... ..0. .... .... .... .... = LG bit: Globally unique address (factory default)
    Type: IP (0x0800)
Internet Protocol Version 4, Src: 192.168.0.71 (192.168.0.71), Dst: 85.236.101.18 (85.236.101.18)
    Version: 4
    Header length: 20 bytes
    Differentiated Services Field: 0x00 (DSCP 0x00: Default; ECN: 0x00: Not-ECT (Not ECN-Capable Transport))
        0000 00.. = Differentiated Services Codepoint: Default (0x00)
        .... ..00 = Explicit Congestion Notification: Not-ECT (Not ECN-Capable Transport) (0x00)
    Total Length: 49
    Identification: 0x02c4 (708)
    Flags: 0x00
        0... .... = Reserved bit: Not set
        .0.. .... = Don't fragment: Not set
        ..0. .... = More fragments: Not set
    Fragment offset: 0
    Time to live: 64
    Protocol: UDP (17)
    Header checksum: 0xfc0a [correct]
        [Good: True]
        [Bad: False]
    Source: 192.168.0.71 (192.168.0.71)
    Destination: 85.236.101.18 (85.236.101.18)
User Datagram Protocol, Src Port: 55800 (55800), Dst Port: kingfisher (4058)
    Source port: 55800 (55800)
    Destination port: kingfisher (4058)
    Length: 29
    Checksum: 0x4311 [validation disabled]
        [Good Checksum: False]
        [Bad Checksum: False]
Data (21 bytes)
    Data: 13000c0008500f03400007ffc044b35ed71ee6cca7
    [Length: 21]

0000  40 4a 03 8d 62 30 00 19 c5 ea 13 f9 08 00 45 00   @J..b0........E.
0010  00 31 02 c4 00 00 40 11 fc 0a c0 a8 00 47 55 ec   .1....@......GU.
0020  65 12 d9 f8 0f da 00 1d 43 11 13 00 0c 00 08 50   e.......C......P
0030  0f 03 40 00 07 ff c0 44 b3 5e d7 1e e6 cc a7      ..@....D.^.....

No.     Time                       Source                Destination           Protocol Length Info
     23 2012-10-11 22:26:51.346848 192.168.0.71          85.236.101.18         UDP      63     Source port: 55800  Destination port: kingfisher

Frame 23: 63 bytes on wire (504 bits), 63 bytes captured (504 bits)
    Arrival Time: Oct 11, 2012 22:26:51.346848000 GTB Standard Time
    Epoch Time: 1349983611.346848000 seconds
    [Time delta from previous captured frame: 0.039973000 seconds]
    [Time delta from previous displayed frame: 0.039973000 seconds]
    [Time since reference or first frame: 1.060101000 seconds]
    Frame Number: 23
    Frame Length: 63 bytes (504 bits)
    Capture Length: 63 bytes (504 bits)
    [Frame is marked: False]
    [Frame is ignored: False]
    [Protocols in frame: eth:ip:udp:data]
    [Coloring Rule Name: UDP]
    [Coloring Rule String: udp]
Ethernet II, Src: SonyComp_ea:13:f9 (00:19:c5:ea:13:f9), Dst: ZyxelCom_8d:62:30 (40:4a:03:8d:62:30)
    Destination: ZyxelCom_8d:62:30 (40:4a:03:8d:62:30)
        Address: ZyxelCom_8d:62:30 (40:4a:03:8d:62:30)
        .... ...0 .... .... .... .... = IG bit: Individual address (unicast)
        .... ..0. .... .... .... .... = LG bit: Globally unique address (factory default)
    Source: SonyComp_ea:13:f9 (00:19:c5:ea:13:f9)
        Address: SonyComp_ea:13:f9 (00:19:c5:ea:13:f9)
        .... ...0 .... .... .... .... = IG bit: Individual address (unicast)
        .... ..0. .... .... .... .... = LG bit: Globally unique address (factory default)
    Type: IP (0x0800)
Internet Protocol Version 4, Src: 192.168.0.71 (192.168.0.71), Dst: 85.236.101.18 (85.236.101.18)
    Version: 4
    Header length: 20 bytes
    Differentiated Services Field: 0x00 (DSCP 0x00: Default; ECN: 0x00: Not-ECT (Not ECN-Capable Transport))
        0000 00.. = Differentiated Services Codepoint: Default (0x00)
        .... ..00 = Explicit Congestion Notification: Not-ECT (Not ECN-Capable Transport) (0x00)
    Total Length: 49
    Identification: 0x02c5 (709)
    Flags: 0x00
        0... .... = Reserved bit: Not set
        .0.. .... = Don't fragment: Not set
        ..0. .... = More fragments: Not set
    Fragment offset: 0
    Time to live: 64
    Protocol: UDP (17)
    Header checksum: 0xfc09 [correct]
        [Good: True]
        [Bad: False]
    Source: 192.168.0.71 (192.168.0.71)
    Destination: 85.236.101.18 (85.236.101.18)
User Datagram Protocol, Src Port: 55800 (55800), Dst Port: kingfisher (4058)
    Source port: 55800 (55800)
    Destination port: kingfisher (4058)
    Length: 29
    Checksum: 0xc7e8 [validation disabled]
        [Good Checksum: False]
        [Bad Checksum: False]
Data (21 bytes)
    Data: 13000c0008501003c0001fffc0d872584cd82bae0f
    [Length: 21]

0000  40 4a 03 8d 62 30 00 19 c5 ea 13 f9 08 00 45 00   @J..b0........E.
0010  00 31 02 c5 00 00 40 11 fc 09 c0 a8 00 47 55 ec   .1....@......GU.
0020  65 12 d9 f8 0f da 00 1d c7 e8 13 00 0c 00 08 50   e..............P
0030  10 03 c0 00 1f ff c0 d8 72 58 4c d8 2b ae 0f      ........rXL.+..

No.     Time                       Source                Destination           Protocol Length Info
     24 2012-10-11 22:26:51.386713 192.168.0.71          85.236.101.18         UDP      63     Source port: 55800  Destination port: kingfisher

Frame 24: 63 bytes on wire (504 bits), 63 bytes captured (504 bits)
    Arrival Time: Oct 11, 2012 22:26:51.386713000 GTB Standard Time
    Epoch Time: 1349983611.386713000 seconds
    [Time delta from previous captured frame: 0.039865000 seconds]
    [Time delta from previous displayed frame: 0.039865000 seconds]
    [Time since reference or first frame: 1.099966000 seconds]
    Frame Number: 24
    Frame Length: 63 bytes (504 bits)
    Capture Length: 63 bytes (504 bits)
    [Frame is marked: False]
    [Frame is ignored: False]
    [Protocols in frame: eth:ip:udp:data]
    [Coloring Rule Name: UDP]
    [Coloring Rule String: udp]
Ethernet II, Src: SonyComp_ea:13:f9 (00:19:c5:ea:13:f9), Dst: ZyxelCom_8d:62:30 (40:4a:03:8d:62:30)
    Destination: ZyxelCom_8d:62:30 (40:4a:03:8d:62:30)
        Address: ZyxelCom_8d:62:30 (40:4a:03:8d:62:30)
        .... ...0 .... .... .... .... = IG bit: Individual address (unicast)
        .... ..0. .... .... .... .... = LG bit: Globally unique address (factory default)
    Source: SonyComp_ea:13:f9 (00:19:c5:ea:13:f9)
        Address: SonyComp_ea:13:f9 (00:19:c5:ea:13:f9)
        .... ...0 .... .... .... .... = IG bit: Individual address (unicast)
        .... ..0. .... .... .... .... = LG bit: Globally unique address (factory default)
    Type: IP (0x0800)
Internet Protocol Version 4, Src: 192.168.0.71 (192.168.0.71), Dst: 85.236.101.18 (85.236.101.18)
    Version: 4
    Header length: 20 bytes
    Differentiated Services Field: 0x00 (DSCP 0x00: Default; ECN: 0x00: Not-ECT (Not ECN-Capable Transport))
        0000 00.. = Differentiated Services Codepoint: Default (0x00)
        .... ..00 = Explicit Congestion Notification: Not-ECT (Not ECN-Capable Transport) (0x00)
    Total Length: 49
    Identification: 0x02c6 (710)
    Flags: 0x00
        0... .... = Reserved bit: Not set
        .0.. .... = Don't fragment: Not set
        ..0. .... = More fragments: Not set
    Fragment offset: 0
    Time to live: 64
    Protocol: UDP (17)
    Header checksum: 0xfc08 [correct]
        [Good: True]
        [Bad: False]
    Source: 192.168.0.71 (192.168.0.71)
    Destination: 85.236.101.18 (85.236.101.18)
User Datagram Protocol, Src Port: 55800 (55800), Dst Port: kingfisher (4058)
    Source port: 55800 (55800)
    Destination port: kingfisher (4058)
    Length: 29
    Checksum: 0x6c82 [validation disabled]
        [Good Checksum: False]
        [Bad Checksum: False]
Data (21 bytes)
    Data: 13000c000850110400003fffc07200f39b98951ec3
    [Length: 21]

0000  40 4a 03 8d 62 30 00 19 c5 ea 13 f9 08 00 45 00   @J..b0........E.
0010  00 31 02 c6 00 00 40 11 fc 08 c0 a8 00 47 55 ec   .1....@......GU.
0020  65 12 d9 f8 0f da 00 1d 6c 82 13 00 0c 00 08 50   e.......l......P
0030  11 04 00 00 3f ff c0 72 00 f3 9b 98 95 1e c3      ....?..r.......

No.     Time                       Source                Destination           Protocol Length Info
     25 2012-10-11 22:26:51.406290 192.168.0.71          85.236.101.18         UDP      117    Source port: 55800  Destination port: kingfisher

Frame 25: 117 bytes on wire (936 bits), 117 bytes captured (936 bits)
    Arrival Time: Oct 11, 2012 22:26:51.406290000 GTB Standard Time
    Epoch Time: 1349983611.406290000 seconds
    [Time delta from previous captured frame: 0.019577000 seconds]
    [Time delta from previous displayed frame: 0.019577000 seconds]
    [Time since reference or first frame: 1.119543000 seconds]
    Frame Number: 25
    Frame Length: 117 bytes (936 bits)
    Capture Length: 117 bytes (936 bits)
    [Frame is marked: False]
    [Frame is ignored: False]
    [Protocols in frame: eth:ip:udp:data]
    [Coloring Rule Name: UDP]
    [Coloring Rule String: udp]
Ethernet II, Src: SonyComp_ea:13:f9 (00:19:c5:ea:13:f9), Dst: ZyxelCom_8d:62:30 (40:4a:03:8d:62:30)
    Destination: ZyxelCom_8d:62:30 (40:4a:03:8d:62:30)
        Address: ZyxelCom_8d:62:30 (40:4a:03:8d:62:30)
        .... ...0 .... .... .... .... = IG bit: Individual address (unicast)
        .... ..0. .... .... .... .... = LG bit: Globally unique address (factory default)
    Source: SonyComp_ea:13:f9 (00:19:c5:ea:13:f9)
        Address: SonyComp_ea:13:f9 (00:19:c5:ea:13:f9)
        .... ...0 .... .... .... .... = IG bit: Individual address (unicast)
        .... ..0. .... .... .... .... = LG bit: Globally unique address (factory default)
    Type: IP (0x0800)
Internet Protocol Version 4, Src: 192.168.0.71 (192.168.0.71), Dst: 85.236.101.18 (85.236.101.18)
    Version: 4
    Header length: 20 bytes
    Differentiated Services Field: 0x00 (DSCP 0x00: Default; ECN: 0x00: Not-ECT (Not ECN-Capable Transport))
        0000 00.. = Differentiated Services Codepoint: Default (0x00)
        .... ..00 = Explicit Congestion Notification: Not-ECT (Not ECN-Capable Transport) (0x00)
    Total Length: 103
    Identification: 0x02c7 (711)
    Flags: 0x00
        0... .... = Reserved bit: Not set
        .0.. .... = Don't fragment: Not set
        ..0. .... = More fragments: Not set
    Fragment offset: 0
    Time to live: 64
    Protocol: UDP (17)
    Header checksum: 0xfbd1 [correct]
        [Good: True]
        [Bad: False]
    Source: 192.168.0.71 (192.168.0.71)
    Destination: 85.236.101.18 (85.236.101.18)
User Datagram Protocol, Src Port: 55800 (55800), Dst Port: kingfisher (4058)
    Source port: 55800 (55800)
    Destination port: kingfisher (4058)
    Length: 83
    Checksum: 0x05de [validation disabled]
        [Good Checksum: False]
        [Bad Checksum: False]
Data (75 bytes)
    Data: ffffffff50425f51683220746e6f74687779736f6b7a6674...
    [Length: 75]

0000  40 4a 03 8d 62 30 00 19 c5 ea 13 f9 08 00 45 00   @J..b0........E.
0010  00 67 02 c7 00 00 40 11 fb d1 c0 a8 00 47 55 ec   .g....@......GU.
0020  65 12 d9 f8 0f da 00 53 05 de ff ff ff ff 50 42   e......S......PB
0030  5f 51 68 32 20 74 6e 6f 74 68 77 79 73 6f 6b 7a   _Qh2 tnothwysokz
0040  66 74 66 79 71 71 66 71 70 66 70 75 77 77 77 76   ftfyqqfqpfpuwwwv
0050  73 72 75 69 7a 6c 61 74 6f 66 61 7a 69 6a 70 69   sruizlatofazijpi
0060  6f 62 70 69 79 66 6b 70 6c 71 6c 6e 61 66 65 75   obpiyfkplqlnafeu
0070  6e 61 6b 68 00                                    nakh.

No.     Time                       Source                Destination           Protocol Length Info
     26 2012-10-11 22:26:51.426815 192.168.0.71          85.236.101.18         UDP      63     Source port: 55800  Destination port: kingfisher

Frame 26: 63 bytes on wire (504 bits), 63 bytes captured (504 bits)
    Arrival Time: Oct 11, 2012 22:26:51.426815000 GTB Standard Time
    Epoch Time: 1349983611.426815000 seconds
    [Time delta from previous captured frame: 0.020525000 seconds]
    [Time delta from previous displayed frame: 0.020525000 seconds]
    [Time since reference or first frame: 1.140068000 seconds]
    Frame Number: 26
    Frame Length: 63 bytes (504 bits)
    Capture Length: 63 bytes (504 bits)
    [Frame is marked: False]
    [Frame is ignored: False]
    [Protocols in frame: eth:ip:udp:data]
    [Coloring Rule Name: UDP]
    [Coloring Rule String: udp]
Ethernet II, Src: SonyComp_ea:13:f9 (00:19:c5:ea:13:f9), Dst: ZyxelCom_8d:62:30 (40:4a:03:8d:62:30)
    Destination: ZyxelCom_8d:62:30 (40:4a:03:8d:62:30)
        Address: ZyxelCom_8d:62:30 (40:4a:03:8d:62:30)
        .... ...0 .... .... .... .... = IG bit: Individual address (unicast)
        .... ..0. .... .... .... .... = LG bit: Globally unique address (factory default)
    Source: SonyComp_ea:13:f9 (00:19:c5:ea:13:f9)
        Address: SonyComp_ea:13:f9 (00:19:c5:ea:13:f9)
        .... ...0 .... .... .... .... = IG bit: Individual address (unicast)
        .... ..0. .... .... .... .... = LG bit: Globally unique address (factory default)
    Type: IP (0x0800)
Internet Protocol Version 4, Src: 192.168.0.71 (192.168.0.71), Dst: 85.236.101.18 (85.236.101.18)
    Version: 4
    Header length: 20 bytes
    Differentiated Services Field: 0x00 (DSCP 0x00: Default; ECN: 0x00: Not-ECT (Not ECN-Capable Transport))
        0000 00.. = Differentiated Services Codepoint: Default (0x00)
        .... ..00 = Explicit Congestion Notification: Not-ECT (Not ECN-Capable Transport) (0x00)
    Total Length: 49
    Identification: 0x02c8 (712)
    Flags: 0x00
        0... .... = Reserved bit: Not set
        .0.. .... = Don't fragment: Not set
        ..0. .... = More fragments: Not set
    Fragment offset: 0
    Time to live: 64
    Protocol: UDP (17)
    Header checksum: 0xfc06 [correct]
        [Good: True]
        [Bad: False]
    Source: 192.168.0.71 (192.168.0.71)
    Destination: 85.236.101.18 (85.236.101.18)
User Datagram Protocol, Src Port: 55800 (55800), Dst Port: kingfisher (4058)
    Source port: 55800 (55800)
    Destination port: kingfisher (4058)
    Length: 29
    Checksum: 0xeb79 [validation disabled]
        [Good Checksum: False]
        [Bad Checksum: False]
Data (21 bytes)
    Data: 13000c000850120440007fffc0d1a591bad5b4ebdf
    [Length: 21]

0000  40 4a 03 8d 62 30 00 19 c5 ea 13 f9 08 00 45 00   @J..b0........E.
0010  00 31 02 c8 00 00 40 11 fc 06 c0 a8 00 47 55 ec   .1....@......GU.
0020  65 12 d9 f8 0f da 00 1d eb 79 13 00 0c 00 08 50   e........y.....P
0030  12 04 40 00 7f ff c0 d1 a5 91 ba d5 b4 eb df      ..@............

No.     Time                       Source                Destination           Protocol Length Info
     27 2012-10-11 22:26:51.467043 192.168.0.71          85.236.101.18         UDP      63     Source port: 55800  Destination port: kingfisher

Frame 27: 63 bytes on wire (504 bits), 63 bytes captured (504 bits)
    Arrival Time: Oct 11, 2012 22:26:51.467043000 GTB Standard Time
    Epoch Time: 1349983611.467043000 seconds
    [Time delta from previous captured frame: 0.040228000 seconds]
    [Time delta from previous displayed frame: 0.040228000 seconds]
    [Time since reference or first frame: 1.180296000 seconds]
    Frame Number: 27
    Frame Length: 63 bytes (504 bits)
    Capture Length: 63 bytes (504 bits)
    [Frame is marked: False]
    [Frame is ignored: False]
    [Protocols in frame: eth:ip:udp:data]
    [Coloring Rule Name: UDP]
    [Coloring Rule String: udp]
Ethernet II, Src: SonyComp_ea:13:f9 (00:19:c5:ea:13:f9), Dst: ZyxelCom_8d:62:30 (40:4a:03:8d:62:30)
    Destination: ZyxelCom_8d:62:30 (40:4a:03:8d:62:30)
        Address: ZyxelCom_8d:62:30 (40:4a:03:8d:62:30)
        .... ...0 .... .... .... .... = IG bit: Individual address (unicast)
        .... ..0. .... .... .... .... = LG bit: Globally unique address (factory default)
    Source: SonyComp_ea:13:f9 (00:19:c5:ea:13:f9)
        Address: SonyComp_ea:13:f9 (00:19:c5:ea:13:f9)
        .... ...0 .... .... .... .... = IG bit: Individual address (unicast)
        .... ..0. .... .... .... .... = LG bit: Globally unique address (factory default)
    Type: IP (0x0800)
Internet Protocol Version 4, Src: 192.168.0.71 (192.168.0.71), Dst: 85.236.101.18 (85.236.101.18)
    Version: 4
    Header length: 20 bytes
    Differentiated Services Field: 0x00 (DSCP 0x00: Default; ECN: 0x00: Not-ECT (Not ECN-Capable Transport))
        0000 00.. = Differentiated Services Codepoint: Default (0x00)
        .... ..00 = Explicit Congestion Notification: Not-ECT (Not ECN-Capable Transport) (0x00)
    Total Length: 49
    Identification: 0x02c9 (713)
    Flags: 0x00
        0... .... = Reserved bit: Not set
        .0.. .... = Don't fragment: Not set
        ..0. .... = More fragments: Not set
    Fragment offset: 0
    Time to live: 64
    Protocol: UDP (17)
    Header checksum: 0xfc05 [correct]
        [Good: True]
        [Bad: False]
    Source: 192.168.0.71 (192.168.0.71)
    Destination: 85.236.101.18 (85.236.101.18)
User Datagram Protocol, Src Port: 55800 (55800), Dst Port: kingfisher (4058)
    Source port: 55800 (55800)
    Destination port: kingfisher (4058)
    Length: 29
    Checksum: 0x0562 [validation disabled]
        [Good Checksum: False]
        [Bad Checksum: False]
Data (21 bytes)
    Data: 13000c00085013048000ffffc0a8a49b47783f7fee
    [Length: 21]

0000  40 4a 03 8d 62 30 00 19 c5 ea 13 f9 08 00 45 00   @J..b0........E.
0010  00 31 02 c9 00 00 40 11 fc 05 c0 a8 00 47 55 ec   .1....@......GU.
0020  65 12 d9 f8 0f da 00 1d 05 62 13 00 0c 00 08 50   e........b.....P
0030  13 04 80 00 ff ff c0 a8 a4 9b 47 78 3f 7f ee      ..........Gx?..

No.     Time                       Source                Destination           Protocol Length Info
     28 2012-10-11 22:26:51.486791 192.168.0.71          216.240.146.139       UDP      87     Source port: 55800  Destination port: 9876

Frame 28: 87 bytes on wire (696 bits), 87 bytes captured (696 bits)
    Arrival Time: Oct 11, 2012 22:26:51.486791000 GTB Standard Time
    Epoch Time: 1349983611.486791000 seconds
    [Time delta from previous captured frame: 0.019748000 seconds]
    [Time delta from previous displayed frame: 0.019748000 seconds]
    [Time since reference or first frame: 1.200044000 seconds]
    Frame Number: 28
    Frame Length: 87 bytes (696 bits)
    Capture Length: 87 bytes (696 bits)
    [Frame is marked: False]
    [Frame is ignored: False]
    [Protocols in frame: eth:ip:udp:data]
    [Coloring Rule Name: UDP]
    [Coloring Rule String: udp]
Ethernet II, Src: SonyComp_ea:13:f9 (00:19:c5:ea:13:f9), Dst: ZyxelCom_8d:62:30 (40:4a:03:8d:62:30)
    Destination: ZyxelCom_8d:62:30 (40:4a:03:8d:62:30)
        Address: ZyxelCom_8d:62:30 (40:4a:03:8d:62:30)
        .... ...0 .... .... .... .... = IG bit: Individual address (unicast)
        .... ..0. .... .... .... .... = LG bit: Globally unique address (factory default)
    Source: SonyComp_ea:13:f9 (00:19:c5:ea:13:f9)
        Address: SonyComp_ea:13:f9 (00:19:c5:ea:13:f9)
        .... ...0 .... .... .... .... = IG bit: Individual address (unicast)
        .... ..0. .... .... .... .... = LG bit: Globally unique address (factory default)
    Type: IP (0x0800)
Internet Protocol Version 4, Src: 192.168.0.71 (192.168.0.71), Dst: 216.240.146.139 (216.240.146.139)
    Version: 4
    Header length: 20 bytes
    Differentiated Services Field: 0x00 (DSCP 0x00: Default; ECN: 0x00: Not-ECT (Not ECN-Capable Transport))
        0000 00.. = Differentiated Services Codepoint: Default (0x00)
        .... ..00 = Explicit Congestion Notification: Not-ECT (Not ECN-Capable Transport) (0x00)
    Total Length: 73
    Identification: 0x02ca (714)
    Flags: 0x00
        0... .... = Reserved bit: Not set
        .0.. .... = Don't fragment: Not set
        ..0. .... = More fragments: Not set
    Fragment offset: 0
    Time to live: 64
    Protocol: UDP (17)
    Header checksum: 0x4b6f [correct]
        [Good: True]
        [Bad: False]
    Source: 192.168.0.71 (192.168.0.71)
    Destination: 216.240.146.139 (216.240.146.139)
User Datagram Protocol, Src Port: 55800 (55800), Dst Port: 9876 (9876)
    Source port: 55800 (55800)
    Destination port: 9876 (9876)
    Length: 53
    Checksum: 0x55f4 [validation disabled]
        [Good Checksum: False]
        [Bad Checksum: False]
Data (45 bytes)
    Data: 66696c65207365632f633030303035302e73656320686561...
    [Length: 45]

0000  40 4a 03 8d 62 30 00 19 c5 ea 13 f9 08 00 45 00   @J..b0........E.
0010  00 49 02 ca 00 00 40 11 4b 6f c0 a8 00 47 d8 f0   .I....@.Ko...G..
0020  92 8b d9 f8 26 94 00 35 55 f4 66 69 6c 65 20 73   ....&..5U.file s
0030  65 63 2f 63 30 30 30 30 35 30 2e 73 65 63 20 68   ec/c000050.sec h
0040  65 61 64 65 72 20 22 ff ff ff ff 50 42 5f 42 22   eader "....PB_B"
0050  20 6b 65 79 20 22 22                               key ""

No.     Time                       Source                Destination           Protocol Length Info
     29 2012-10-11 22:26:51.506714 192.168.0.71          85.236.101.18         UDP      63     Source port: 55800  Destination port: kingfisher

Frame 29: 63 bytes on wire (504 bits), 63 bytes captured (504 bits)
    Arrival Time: Oct 11, 2012 22:26:51.506714000 GTB Standard Time
    Epoch Time: 1349983611.506714000 seconds
    [Time delta from previous captured frame: 0.019923000 seconds]
    [Time delta from previous displayed frame: 0.019923000 seconds]
    [Time since reference or first frame: 1.219967000 seconds]
    Frame Number: 29
    Frame Length: 63 bytes (504 bits)
    Capture Length: 63 bytes (504 bits)
    [Frame is marked: False]
    [Frame is ignored: False]
    [Protocols in frame: eth:ip:udp:data]
    [Coloring Rule Name: UDP]
    [Coloring Rule String: udp]
Ethernet II, Src: SonyComp_ea:13:f9 (00:19:c5:ea:13:f9), Dst: ZyxelCom_8d:62:30 (40:4a:03:8d:62:30)
    Destination: ZyxelCom_8d:62:30 (40:4a:03:8d:62:30)
        Address: ZyxelCom_8d:62:30 (40:4a:03:8d:62:30)
        .... ...0 .... .... .... .... = IG bit: Individual address (unicast)
        .... ..0. .... .... .... .... = LG bit: Globally unique address (factory default)
    Source: SonyComp_ea:13:f9 (00:19:c5:ea:13:f9)
        Address: SonyComp_ea:13:f9 (00:19:c5:ea:13:f9)
        .... ...0 .... .... .... .... = IG bit: Individual address (unicast)
        .... ..0. .... .... .... .... = LG bit: Globally unique address (factory default)
    Type: IP (0x0800)
Internet Protocol Version 4, Src: 192.168.0.71 (192.168.0.71), Dst: 85.236.101.18 (85.236.101.18)
    Version: 4
    Header length: 20 bytes
    Differentiated Services Field: 0x00 (DSCP 0x00: Default; ECN: 0x00: Not-ECT (Not ECN-Capable Transport))
        0000 00.. = Differentiated Services Codepoint: Default (0x00)
        .... ..00 = Explicit Congestion Notification: Not-ECT (Not ECN-Capable Transport) (0x00)
    Total Length: 49
    Identification: 0x02cb (715)
    Flags: 0x00
        0... .... = Reserved bit: Not set
        .0.. .... = Don't fragment: Not set
        ..0. .... = More fragments: Not set
    Fragment offset: 0
    Time to live: 64
    Protocol: UDP (17)
    Header checksum: 0xfc03 [correct]
        [Good: True]
        [Bad: False]
    Source: 192.168.0.71 (192.168.0.71)
    Destination: 85.236.101.18 (85.236.101.18)
User Datagram Protocol, Src Port: 55800 (55800), Dst Port: kingfisher (4058)
    Source port: 55800 (55800)
    Destination port: kingfisher (4058)
    Length: 29
    Checksum: 0x35fc [validation disabled]
        [Good Checksum: False]
        [Bad Checksum: False]
Data (21 bytes)
    Data: 13000c00085014048000ffffc0cf551bf8ac4e0a4c
    [Length: 21]

0000  40 4a 03 8d 62 30 00 19 c5 ea 13 f9 08 00 45 00   @J..b0........E.
0010  00 31 02 cb 00 00 40 11 fc 03 c0 a8 00 47 55 ec   .1....@......GU.
0020  65 12 d9 f8 0f da 00 1d 35 fc 13 00 0c 00 08 50   e.......5......P
0030  14 04 80 00 ff ff c0 cf 55 1b f8 ac 4e 0a 4c      ........U...N.L

No.     Time                       Source                Destination           Protocol Length Info
     30 2012-10-11 22:26:51.546634 192.168.0.71          85.236.101.18         UDP      63     Source port: 55800  Destination port: kingfisher

Frame 30: 63 bytes on wire (504 bits), 63 bytes captured (504 bits)
    Arrival Time: Oct 11, 2012 22:26:51.546634000 GTB Standard Time
    Epoch Time: 1349983611.546634000 seconds
    [Time delta from previous captured frame: 0.039920000 seconds]
    [Time delta from previous displayed frame: 0.039920000 seconds]
    [Time since reference or first frame: 1.259887000 seconds]
    Frame Number: 30
    Frame Length: 63 bytes (504 bits)
    Capture Length: 63 bytes (504 bits)
    [Frame is marked: False]
    [Frame is ignored: False]
    [Protocols in frame: eth:ip:udp:data]
    [Coloring Rule Name: UDP]
    [Coloring Rule String: udp]
Ethernet II, Src: SonyComp_ea:13:f9 (00:19:c5:ea:13:f9), Dst: ZyxelCom_8d:62:30 (40:4a:03:8d:62:30)
    Destination: ZyxelCom_8d:62:30 (40:4a:03:8d:62:30)
        Address: ZyxelCom_8d:62:30 (40:4a:03:8d:62:30)
        .... ...0 .... .... .... .... = IG bit: Individual address (unicast)
        .... ..0. .... .... .... .... = LG bit: Globally unique address (factory default)
    Source: SonyComp_ea:13:f9 (00:19:c5:ea:13:f9)
        Address: SonyComp_ea:13:f9 (00:19:c5:ea:13:f9)
        .... ...0 .... .... .... .... = IG bit: Individual address (unicast)
        .... ..0. .... .... .... .... = LG bit: Globally unique address (factory default)
    Type: IP (0x0800)
Internet Protocol Version 4, Src: 192.168.0.71 (192.168.0.71), Dst: 85.236.101.18 (85.236.101.18)
    Version: 4
    Header length: 20 bytes
    Differentiated Services Field: 0x00 (DSCP 0x00: Default; ECN: 0x00: Not-ECT (Not ECN-Capable Transport))
        0000 00.. = Differentiated Services Codepoint: Default (0x00)
        .... ..00 = Explicit Congestion Notification: Not-ECT (Not ECN-Capable Transport) (0x00)
    Total Length: 49
    Identification: 0x02cc (716)
    Flags: 0x00
        0... .... = Reserved bit: Not set
        .0.. .... = Don't fragment: Not set
        ..0. .... = More fragments: Not set
    Fragment offset: 0
    Time to live: 64
    Protocol: UDP (17)
    Header checksum: 0xfc02 [correct]
        [Good: True]
        [Bad: False]
    Source: 192.168.0.71 (192.168.0.71)
    Destination: 85.236.101.18 (85.236.101.18)
User Datagram Protocol, Src Port: 55800 (55800), Dst Port: kingfisher (4058)
    Source port: 55800 (55800)
    Destination port: kingfisher (4058)
    Length: 29
    Checksum: 0xa14b [validation disabled]
        [Good Checksum: False]
        [Bad Checksum: False]
Data (21 bytes)
    Data: 13000c0008501504c001ffffc0363843ab6b0a6c4e
    [Length: 21]

0000  40 4a 03 8d 62 30 00 19 c5 ea 13 f9 08 00 45 00   @J..b0........E.
0010  00 31 02 cc 00 00 40 11 fc 02 c0 a8 00 47 55 ec   .1....@......GU.
0020  65 12 d9 f8 0f da 00 1d a1 4b 13 00 0c 00 08 50   e........K.....P
0030  15 04 c0 01 ff ff c0 36 38 43 ab 6b 0a 6c 4e      .......68C.k.lN

No.     Time                       Source                Destination           Protocol Length Info
     31 2012-10-11 22:26:51.586771 192.168.0.71          85.236.101.18         UDP      63     Source port: 55800  Destination port: kingfisher

Frame 31: 63 bytes on wire (504 bits), 63 bytes captured (504 bits)
    Arrival Time: Oct 11, 2012 22:26:51.586771000 GTB Standard Time
    Epoch Time: 1349983611.586771000 seconds
    [Time delta from previous captured frame: 0.040137000 seconds]
    [Time delta from previous displayed frame: 0.040137000 seconds]
    [Time since reference or first frame: 1.300024000 seconds]
    Frame Number: 31
    Frame Length: 63 bytes (504 bits)
    Capture Length: 63 bytes (504 bits)
    [Frame is marked: False]
    [Frame is ignored: False]
    [Protocols in frame: eth:ip:udp:data]
    [Coloring Rule Name: UDP]
    [Coloring Rule String: udp]
Ethernet II, Src: SonyComp_ea:13:f9 (00:19:c5:ea:13:f9), Dst: ZyxelCom_8d:62:30 (40:4a:03:8d:62:30)
    Destination: ZyxelCom_8d:62:30 (40:4a:03:8d:62:30)
        Address: ZyxelCom_8d:62:30 (40:4a:03:8d:62:30)
        .... ...0 .... .... .... .... = IG bit: Individual address (unicast)
        .... ..0. .... .... .... .... = LG bit: Globally unique address (factory default)
    Source: SonyComp_ea:13:f9 (00:19:c5:ea:13:f9)
        Address: SonyComp_ea:13:f9 (00:19:c5:ea:13:f9)
        .... ...0 .... .... .... .... = IG bit: Individual address (unicast)
        .... ..0. .... .... .... .... = LG bit: Globally unique address (factory default)
    Type: IP (0x0800)
Internet Protocol Version 4, Src: 192.168.0.71 (192.168.0.71), Dst: 85.236.101.18 (85.236.101.18)
    Version: 4
    Header length: 20 bytes
    Differentiated Services Field: 0x00 (DSCP 0x00: Default; ECN: 0x00: Not-ECT (Not ECN-Capable Transport))
        0000 00.. = Differentiated Services Codepoint: Default (0x00)
        .... ..00 = Explicit Congestion Notification: Not-ECT (Not ECN-Capable Transport) (0x00)
    Total Length: 49
    Identification: 0x02cd (717)
    Flags: 0x00
        0... .... = Reserved bit: Not set
        .0.. .... = Don't fragment: Not set
        ..0. .... = More fragments: Not set
    Fragment offset: 0
    Time to live: 64
    Protocol: UDP (17)
    Header checksum: 0xfc01 [correct]
        [Good: True]
        [Bad: False]
    Source: 192.168.0.71 (192.168.0.71)
    Destination: 85.236.101.18 (85.236.101.18)
User Datagram Protocol, Src Port: 55800 (55800), Dst Port: kingfisher (4058)
    Source port: 55800 (55800)
    Destination port: kingfisher (4058)
    Length: 29
    Checksum: 0xa316 [validation disabled]
        [Good Checksum: False]
        [Bad Checksum: False]
Data (21 bytes)
    Data: 13000c0008501604c001ffffc06be36b0abcb8f292
    [Length: 21]

0000  40 4a 03 8d 62 30 00 19 c5 ea 13 f9 08 00 45 00   @J..b0........E.
0010  00 31 02 cd 00 00 40 11 fc 01 c0 a8 00 47 55 ec   .1....@......GU.
0020  65 12 d9 f8 0f da 00 1d a3 16 13 00 0c 00 08 50   e..............P
0030  16 04 c0 01 ff ff c0 6b e3 6b 0a bc b8 f2 92      .......k.k.....

No.     Time                       Source                Destination           Protocol Length Info
