No.     Time                       Source                Destination           Protocol Length Info
     55 2012-10-11 22:00:27.872835 192.168.0.71          62.148.192.130        DNS      89     Standard query A gate1.eu.dnas.playstation.org

Frame 55: 89 bytes on wire (712 bits), 89 bytes captured (712 bits)
    Arrival Time: Oct 11, 2012 22:00:27.872835000 GTB Standard Time
    Epoch Time: 1349982027.872835000 seconds
    [Time delta from previous captured frame: 0.000333000 seconds]
    [Time delta from previous displayed frame: 0.000000000 seconds]
    [Time since reference or first frame: 695.584938000 seconds]
    Frame Number: 55
    Frame Length: 89 bytes (712 bits)
    Capture Length: 89 bytes (712 bits)
    [Frame is marked: False]
    [Frame is ignored: False]
    [Protocols in frame: eth:ip:udp:dns]
    [Coloring Rule Name: UDP]
    [Coloring Rule String: udp]
Ethernet II, Src: SonyComp_ea:13:f9 (00:19:c5:ea:13:f9), Dst: ZyxelCom_8d:62:30 (40:4a:03:8d:62:30)
    Destination: ZyxelCom_8d:62:30 (40:4a:03:8d:62:30)
        Address: ZyxelCom_8d:62:30 (40:4a:03:8d:62:30)
        .... ...0 .... .... .... .... = IG bit: Individual address (unicast)
        .... ..0. .... .... .... .... = LG bit: Globally unique address (factory default)
    Source: SonyComp_ea:13:f9 (00:19:c5:ea:13:f9)
        Address: SonyComp_ea:13:f9 (00:19:c5:ea:13:f9)
        .... ...0 .... .... .... .... = IG bit: Individual address (unicast)
        .... ..0. .... .... .... .... = LG bit: Globally unique address (factory default)
    Type: IP (0x0800)
Internet Protocol Version 4, Src: 192.168.0.71 (192.168.0.71), Dst: 62.148.192.130 (62.148.192.130)
    Version: 4
    Header length: 20 bytes
    Differentiated Services Field: 0x00 (DSCP 0x00: Default; ECN: 0x00: Not-ECT (Not ECN-Capable Transport))
        0000 00.. = Differentiated Services Codepoint: Default (0x00)
        .... ..00 = Explicit Congestion Notification: Not-ECT (Not ECN-Capable Transport) (0x00)
    Total Length: 75
    Identification: 0x0000 (0)
    Flags: 0x00
        0... .... = Reserved bit: Not set
        .0.. .... = Don't fragment: Not set
        ..0. .... = More fragments: Not set
    Fragment offset: 0
    Time to live: 64
    Protocol: UDP (17)
    Header checksum: 0xba9c [correct]
        [Good: True]
        [Bad: False]
    Source: 192.168.0.71 (192.168.0.71)
    Destination: 62.148.192.130 (62.148.192.130)
User Datagram Protocol, Src Port: 55833 (55833), Dst Port: domain (53)
    Source port: 55833 (55833)
    Destination port: domain (53)
    Length: 55
    Checksum: 0x3de6 [validation disabled]
        [Good Checksum: False]
        [Bad Checksum: False]
Domain Name System (query)
    Transaction ID: 0x5b97
    Flags: 0x0100 (Standard query)
        0... .... .... .... = Response: Message is a query
        .000 0... .... .... = Opcode: Standard query (0)
        .... ..0. .... .... = Truncated: Message is not truncated
        .... ...1 .... .... = Recursion desired: Do query recursively
        .... .... .0.. .... = Z: reserved (0)
        .... .... ...0 .... = Non-authenticated data: Unacceptable
    Questions: 1
    Answer RRs: 0
    Authority RRs: 0
    Additional RRs: 0
    Queries
        gate1.eu.dnas.playstation.org: type A, class IN
            Name: gate1.eu.dnas.playstation.org
            Type: A (Host address)
            Class: IN (0x0001)

0000  40 4a 03 8d 62 30 00 19 c5 ea 13 f9 08 00 45 00   @J..b0........E.
0010  00 4b 00 00 00 00 40 11 ba 9c c0 a8 00 47 3e 94   .K....@......G>.
0020  c0 82 da 19 00 35 00 37 3d e6 5b 97 01 00 00 01   .....5.7=.[.....
0030  00 00 00 00 00 00 05 67 61 74 65 31 02 65 75 04   .......gate1.eu.
0040  64 6e 61 73 0b 70 6c 61 79 73 74 61 74 69 6f 6e   dnas.playstation
0050  03 6f 72 67 00 00 01 00 01                        .org.....

No.     Time                       Source                Destination           Protocol Length Info
     57 2012-10-11 22:00:28.128666 192.168.0.71          203.105.78.164        TCP      74     58638 > https [SYN] Seq=0 Win=16384 Len=0 MSS=1460 WS=1 TSval=3791 TSecr=0

Frame 57: 74 bytes on wire (592 bits), 74 bytes captured (592 bits)
    Arrival Time: Oct 11, 2012 22:00:28.128666000 GTB Standard Time
    Epoch Time: 1349982028.128666000 seconds
    [Time delta from previous captured frame: 0.000843000 seconds]
    [Time delta from previous displayed frame: 0.255831000 seconds]
    [Time since reference or first frame: 695.840769000 seconds]
    Frame Number: 57
    Frame Length: 74 bytes (592 bits)
    Capture Length: 74 bytes (592 bits)
    [Frame is marked: False]
    [Frame is ignored: False]
    [Protocols in frame: eth:ip:tcp]
    [Coloring Rule Name: TCP SYN/FIN]
    [Coloring Rule String: tcp.flags & 0x02 || tcp.flags.fin == 1]
Ethernet II, Src: SonyComp_ea:13:f9 (00:19:c5:ea:13:f9), Dst: ZyxelCom_8d:62:30 (40:4a:03:8d:62:30)
    Destination: ZyxelCom_8d:62:30 (40:4a:03:8d:62:30)
        Address: ZyxelCom_8d:62:30 (40:4a:03:8d:62:30)
        .... ...0 .... .... .... .... = IG bit: Individual address (unicast)
        .... ..0. .... .... .... .... = LG bit: Globally unique address (factory default)
    Source: SonyComp_ea:13:f9 (00:19:c5:ea:13:f9)
        Address: SonyComp_ea:13:f9 (00:19:c5:ea:13:f9)
        .... ...0 .... .... .... .... = IG bit: Individual address (unicast)
        .... ..0. .... .... .... .... = LG bit: Globally unique address (factory default)
    Type: IP (0x0800)
Internet Protocol Version 4, Src: 192.168.0.71 (192.168.0.71), Dst: 203.105.78.164 (203.105.78.164)
    Version: 4
    Header length: 20 bytes
    Differentiated Services Field: 0x00 (DSCP 0x00: Default; ECN: 0x00: Not-ECT (Not ECN-Capable Transport))
        0000 00.. = Differentiated Services Codepoint: Default (0x00)
        .... ..00 = Explicit Congestion Notification: Not-ECT (Not ECN-Capable Transport) (0x00)
    Total Length: 60
    Identification: 0x0001 (1)
    Flags: 0x02 (Don't Fragment)
        0... .... = Reserved bit: Not set
        .1.. .... = Don't fragment: Set
        ..0. .... = More fragments: Not set
    Fragment offset: 0
    Time to live: 64
    Protocol: TCP (6)
    Header checksum: 0x5fbe [correct]
        [Good: True]
        [Bad: False]
    Source: 192.168.0.71 (192.168.0.71)
    Destination: 203.105.78.164 (203.105.78.164)
Transmission Control Protocol, Src Port: 58638 (58638), Dst Port: https (443), Seq: 0, Len: 0
    Source port: 58638 (58638)
    Destination port: https (443)
    [Stream index: 3]
    Sequence number: 0    (relative sequence number)
    Header length: 40 bytes
    Flags: 0x002 (SYN)
        000. .... .... = Reserved: Not set
        ...0 .... .... = Nonce: Not set
        .... 0... .... = Congestion Window Reduced (CWR): Not set
        .... .0.. .... = ECN-Echo: Not set
        .... ..0. .... = Urgent: Not set
        .... ...0 .... = Acknowledgement: Not set
        .... .... 0... = Push: Not set
        .... .... .0.. = Reset: Not set
        .... .... ..1. = Syn: Set
            [Expert Info (Chat/Sequence): Connection establish request (SYN): server port https]
                [Message: Connection establish request (SYN): server port https]
                [Severity level: Chat]
                [Group: Sequence]
        .... .... ...0 = Fin: Not set
    Window size value: 16384
    [Calculated window size: 16384]
    Checksum: 0x37c4 [validation disabled]
        [Good Checksum: False]
        [Bad Checksum: False]
    Options: (20 bytes)
        Maximum segment size: 1460 bytes
        No-Operation (NOP)
        Window scale: 0 (multiply by 1)
            Kind: Window Scale (3)
            Length: 3
            Shift count: 0
            [Multiplier: 1]
        No-Operation (NOP)
        No-Operation (NOP)
        Timestamps: TSval 3791, TSecr 0
            Kind: Timestamp (8)
            Length: 10
            Timestamp value: 3791
            Timestamp echo reply: 0

0000  40 4a 03 8d 62 30 00 19 c5 ea 13 f9 08 00 45 00   @J..b0........E.
0010  00 3c 00 01 40 00 40 06 5f be c0 a8 00 47 cb 69   .<..@.@._....G.i
0020  4e a4 e5 0e 01 bb cf 57 33 56 00 00 00 00 a0 02   N......W3V......
0030  40 00 37 c4 00 00 02 04 05 b4 01 03 03 00 01 01   @.7.............
0040  08 0a 00 00 0e cf 00 00 00 00                     ..........

No.     Time                       Source                Destination           Protocol Length Info
     58 2012-10-11 22:00:28.440058 192.168.0.71          203.105.78.164        TCP      66     58638 > https [ACK] Seq=1 Ack=1 Win=17520 Len=0 TSval=3792 TSecr=189240938

Frame 58: 66 bytes on wire (528 bits), 66 bytes captured (528 bits)
    Arrival Time: Oct 11, 2012 22:00:28.440058000 GTB Standard Time
    Epoch Time: 1349982028.440058000 seconds
    [Time delta from previous captured frame: 0.311392000 seconds]
    [Time delta from previous displayed frame: 0.311392000 seconds]
    [Time since reference or first frame: 696.152161000 seconds]
    Frame Number: 58
    Frame Length: 66 bytes (528 bits)
    Capture Length: 66 bytes (528 bits)
    [Frame is marked: False]
    [Frame is ignored: False]
    [Protocols in frame: eth:ip:tcp]
    [Coloring Rule Name: TCP]
    [Coloring Rule String: tcp]
Ethernet II, Src: SonyComp_ea:13:f9 (00:19:c5:ea:13:f9), Dst: ZyxelCom_8d:62:30 (40:4a:03:8d:62:30)
    Destination: ZyxelCom_8d:62:30 (40:4a:03:8d:62:30)
        Address: ZyxelCom_8d:62:30 (40:4a:03:8d:62:30)
        .... ...0 .... .... .... .... = IG bit: Individual address (unicast)
        .... ..0. .... .... .... .... = LG bit: Globally unique address (factory default)
    Source: SonyComp_ea:13:f9 (00:19:c5:ea:13:f9)
        Address: SonyComp_ea:13:f9 (00:19:c5:ea:13:f9)
        .... ...0 .... .... .... .... = IG bit: Individual address (unicast)
        .... ..0. .... .... .... .... = LG bit: Globally unique address (factory default)
    Type: IP (0x0800)
Internet Protocol Version 4, Src: 192.168.0.71 (192.168.0.71), Dst: 203.105.78.164 (203.105.78.164)
    Version: 4
    Header length: 20 bytes
    Differentiated Services Field: 0x00 (DSCP 0x00: Default; ECN: 0x00: Not-ECT (Not ECN-Capable Transport))
        0000 00.. = Differentiated Services Codepoint: Default (0x00)
        .... ..00 = Explicit Congestion Notification: Not-ECT (Not ECN-Capable Transport) (0x00)
    Total Length: 52
    Identification: 0x0002 (2)
    Flags: 0x02 (Don't Fragment)
        0... .... = Reserved bit: Not set
        .1.. .... = Don't fragment: Set
        ..0. .... = More fragments: Not set
    Fragment offset: 0
    Time to live: 64
    Protocol: TCP (6)
    Header checksum: 0x5fc5 [correct]
        [Good: True]
        [Bad: False]
    Source: 192.168.0.71 (192.168.0.71)
    Destination: 203.105.78.164 (203.105.78.164)
Transmission Control Protocol, Src Port: 58638 (58638), Dst Port: https (443), Seq: 1, Ack: 1, Len: 0
    Source port: 58638 (58638)
    Destination port: https (443)
    [Stream index: 3]
    Sequence number: 1    (relative sequence number)
    Acknowledgement number: 1    (relative ack number)
    Header length: 32 bytes
    Flags: 0x010 (ACK)
        000. .... .... = Reserved: Not set
        ...0 .... .... = Nonce: Not set
        .... 0... .... = Congestion Window Reduced (CWR): Not set
        .... .0.. .... = ECN-Echo: Not set
        .... ..0. .... = Urgent: Not set
        .... ...1 .... = Acknowledgement: Set
        .... .... 0... = Push: Not set
        .... .... .0.. = Reset: Not set
        .... .... ..0. = Syn: Not set
        .... .... ...0 = Fin: Not set
    Window size value: 17520
    [Calculated window size: 17520]
    [Window size scaling factor: 1]
    Checksum: 0xede4 [validation disabled]
        [Good Checksum: False]
        [Bad Checksum: False]
    Options: (12 bytes)
        No-Operation (NOP)
        No-Operation (NOP)
        Timestamps: TSval 3792, TSecr 189240938
            Kind: Timestamp (8)
            Length: 10
            Timestamp value: 3792
            Timestamp echo reply: 189240938

0000  40 4a 03 8d 62 30 00 19 c5 ea 13 f9 08 00 45 00   @J..b0........E.
0010  00 34 00 02 40 00 40 06 5f c5 c0 a8 00 47 cb 69   .4..@.@._....G.i
0020  4e a4 e5 0e 01 bb cf 57 33 57 90 f9 3e 77 80 10   N......W3W..>w..
0030  44 70 ed e4 00 00 01 01 08 0a 00 00 0e d0 0b 47   Dp.............G
0040  96 6a                                             .j

No.     Time                       Source                Destination           Protocol Length Info
     59 2012-10-11 22:00:28.441306 192.168.0.71          203.105.78.164        SSLv2    168    Client Hello

Frame 59: 168 bytes on wire (1344 bits), 168 bytes captured (1344 bits)
    Arrival Time: Oct 11, 2012 22:00:28.441306000 GTB Standard Time
    Epoch Time: 1349982028.441306000 seconds
    [Time delta from previous captured frame: 0.001248000 seconds]
    [Time delta from previous displayed frame: 0.001248000 seconds]
    [Time since reference or first frame: 696.153409000 seconds]
    Frame Number: 59
    Frame Length: 168 bytes (1344 bits)
    Capture Length: 168 bytes (1344 bits)
    [Frame is marked: False]
    [Frame is ignored: False]
    [Protocols in frame: eth:ip:tcp:ssl]
    [Coloring Rule Name: TCP]
    [Coloring Rule String: tcp]
Ethernet II, Src: SonyComp_ea:13:f9 (00:19:c5:ea:13:f9), Dst: ZyxelCom_8d:62:30 (40:4a:03:8d:62:30)
    Destination: ZyxelCom_8d:62:30 (40:4a:03:8d:62:30)
        Address: ZyxelCom_8d:62:30 (40:4a:03:8d:62:30)
        .... ...0 .... .... .... .... = IG bit: Individual address (unicast)
        .... ..0. .... .... .... .... = LG bit: Globally unique address (factory default)
    Source: SonyComp_ea:13:f9 (00:19:c5:ea:13:f9)
        Address: SonyComp_ea:13:f9 (00:19:c5:ea:13:f9)
        .... ...0 .... .... .... .... = IG bit: Individual address (unicast)
        .... ..0. .... .... .... .... = LG bit: Globally unique address (factory default)
    Type: IP (0x0800)
Internet Protocol Version 4, Src: 192.168.0.71 (192.168.0.71), Dst: 203.105.78.164 (203.105.78.164)
    Version: 4
    Header length: 20 bytes
    Differentiated Services Field: 0x00 (DSCP 0x00: Default; ECN: 0x00: Not-ECT (Not ECN-Capable Transport))
        0000 00.. = Differentiated Services Codepoint: Default (0x00)
        .... ..00 = Explicit Congestion Notification: Not-ECT (Not ECN-Capable Transport) (0x00)
    Total Length: 154
    Identification: 0x0003 (3)
    Flags: 0x02 (Don't Fragment)
        0... .... = Reserved bit: Not set
        .1.. .... = Don't fragment: Set
        ..0. .... = More fragments: Not set
    Fragment offset: 0
    Time to live: 64
    Protocol: TCP (6)
    Header checksum: 0x5f5e [correct]
        [Good: True]
        [Bad: False]
    Source: 192.168.0.71 (192.168.0.71)
    Destination: 203.105.78.164 (203.105.78.164)
Transmission Control Protocol, Src Port: 58638 (58638), Dst Port: https (443), Seq: 1, Ack: 1, Len: 102
    Source port: 58638 (58638)
    Destination port: https (443)
    [Stream index: 3]
    Sequence number: 1    (relative sequence number)
    [Next sequence number: 103    (relative sequence number)]
    Acknowledgement number: 1    (relative ack number)
    Header length: 32 bytes
    Flags: 0x018 (PSH, ACK)
        000. .... .... = Reserved: Not set
        ...0 .... .... = Nonce: Not set
        .... 0... .... = Congestion Window Reduced (CWR): Not set
        .... .0.. .... = ECN-Echo: Not set
        .... ..0. .... = Urgent: Not set
        .... ...1 .... = Acknowledgement: Set
        .... .... 1... = Push: Set
        .... .... .0.. = Reset: Not set
        .... .... ..0. = Syn: Not set
        .... .... ...0 = Fin: Not set
    Window size value: 17520
    [Calculated window size: 17520]
    [Window size scaling factor: 1]
    Checksum: 0x8802 [validation disabled]
        [Good Checksum: False]
        [Bad Checksum: False]
    Options: (12 bytes)
        No-Operation (NOP)
        No-Operation (NOP)
        Timestamps: TSval 3792, TSecr 189240938
            Kind: Timestamp (8)
            Length: 10
            Timestamp value: 3792
            Timestamp echo reply: 189240938
    [SEQ/ACK analysis]
        [Bytes in flight: 103]
Secure Sockets Layer
    SSLv2 Record Layer: Client Hello
        [Version: SSL 2.0 (0x0002)]
        Length: 100
        Handshake Message Type: Client Hello (1)
        Version: TLS 1.0 (0x0301)
        Cipher Spec Length: 75
        Session ID Length: 0
        Challenge Length: 16
        Cipher Specs (25 specs)
            Cipher Spec: TLS_DHE_DSS_WITH_RC4_128_SHA (0x000066)
            Cipher Spec: TLS_DHE_RSA_WITH_3DES_EDE_CBC_SHA (0x000016)
            Cipher Spec: TLS_DHE_DSS_WITH_3DES_EDE_CBC_SHA (0x000013)
            Cipher Spec: TLS_RSA_WITH_3DES_EDE_CBC_SHA (0x00000a)
            Cipher Spec: TLS_RSA_WITH_RC4_128_SHA (0x000005)
            Cipher Spec: TLS_RSA_WITH_RC4_128_MD5 (0x000004)
            Cipher Spec: TLS_DHE_RSA_WITH_DES_CBC_SHA (0x000015)
            Cipher Spec: TLS_DHE_DSS_WITH_DES_CBC_SHA (0x000012)
            Cipher Spec: TLS_RSA_WITH_DES_CBC_SHA (0x000009)
            Cipher Spec: SSL2_DES_192_EDE3_CBC_WITH_MD5 (0x0700c0)
            Cipher Spec: SSL2_RC2_CBC_128_CBC_WITH_MD5 (0x030080)
            Cipher Spec: SSL2_RC4_128_WITH_MD5 (0x010080)
            Cipher Spec: SSL2_DES_64_CBC_WITH_MD5 (0x060040)
            Cipher Spec: TLS_DHE_DSS_EXPORT1024_WITH_DES_CBC_SHA (0x000063)
            Cipher Spec: TLS_DHE_DSS_EXPORT1024_WITH_RC4_56_SHA (0x000065)
            Cipher Spec: TLS_RSA_EXPORT1024_WITH_DES_CBC_SHA (0x000062)
            Cipher Spec: TLS_RSA_EXPORT1024_WITH_RC4_56_SHA (0x000064)
            Cipher Spec: TLS_DHE_RSA_EXPORT_WITH_DES40_CBC_SHA (0x000014)
            Cipher Spec: TLS_DHE_DSS_EXPORT_WITH_DES40_CBC_SHA (0x000011)
            Cipher Spec: TLS_RSA_EXPORT_WITH_DES40_CBC_SHA (0x000008)
            Cipher Spec: TLS_RSA_EXPORT_WITH_RC2_CBC_40_MD5 (0x000006)
            Cipher Spec: TLS_RSA_EXPORT_WITH_RC4_40_MD5 (0x000003)
            Cipher Spec: SSL2_RC2_CBC_128_CBC_WITH_MD5 (0x040080)
            Cipher Spec: SSL2_RC4_128_EXPORT40_WITH_MD5 (0x020080)
            Cipher Spec: SSL2_RC4_64_WITH_MD5 (0x080080)
        Challenge

0000  40 4a 03 8d 62 30 00 19 c5 ea 13 f9 08 00 45 00   @J..b0........E.
0010  00 9a 00 03 40 00 40 06 5f 5e c0 a8 00 47 cb 69   ....@.@._^...G.i
0020  4e a4 e5 0e 01 bb cf 57 33 57 90 f9 3e 77 80 18   N......W3W..>w..
0030  44 70 88 02 00 00 01 01 08 0a 00 00 0e d0 0b 47   Dp.............G
0040  96 6a 80 64 01 03 01 00 4b 00 00 00 10 00 00 66   .j.d....K......f
0050  00 00 16 00 00 13 00 00 0a 00 00 05 00 00 04 00   ................
0060  00 15 00 00 12 00 00 09 07 00 c0 03 00 80 01 00   ................
0070  80 06 00 40 00 00 63 00 00 65 00 00 62 00 00 64   ...@..c..e..b..d
0080  00 00 14 00 00 11 00 00 08 00 00 06 00 00 03 04   ................
0090  00 80 02 00 80 08 00 80 34 9d 0d dc 46 11 d5 8d   ........4...F...
00a0  81 79 38 ab 00 1c 88 5f                           .y8...._

No.     Time                       Source                Destination           Protocol Length Info
     60 2012-10-11 22:00:28.755807 192.168.0.71          203.105.78.164        TCP      66     58638 > https [ACK] Seq=103 Ack=2182 Win=15346 Len=0 TSval=3793 TSecr=189241253

Frame 60: 66 bytes on wire (528 bits), 66 bytes captured (528 bits)
    Arrival Time: Oct 11, 2012 22:00:28.755807000 GTB Standard Time
    Epoch Time: 1349982028.755807000 seconds
    [Time delta from previous captured frame: 0.314501000 seconds]
    [Time delta from previous displayed frame: 0.314501000 seconds]
    [Time since reference or first frame: 696.467910000 seconds]
    Frame Number: 60
    Frame Length: 66 bytes (528 bits)
    Capture Length: 66 bytes (528 bits)
    [Frame is marked: False]
    [Frame is ignored: False]
    [Protocols in frame: eth:ip:tcp]
    [Coloring Rule Name: TCP]
    [Coloring Rule String: tcp]
Ethernet II, Src: SonyComp_ea:13:f9 (00:19:c5:ea:13:f9), Dst: ZyxelCom_8d:62:30 (40:4a:03:8d:62:30)
    Destination: ZyxelCom_8d:62:30 (40:4a:03:8d:62:30)
        Address: ZyxelCom_8d:62:30 (40:4a:03:8d:62:30)
        .... ...0 .... .... .... .... = IG bit: Individual address (unicast)
        .... ..0. .... .... .... .... = LG bit: Globally unique address (factory default)
    Source: SonyComp_ea:13:f9 (00:19:c5:ea:13:f9)
        Address: SonyComp_ea:13:f9 (00:19:c5:ea:13:f9)
        .... ...0 .... .... .... .... = IG bit: Individual address (unicast)
        .... ..0. .... .... .... .... = LG bit: Globally unique address (factory default)
    Type: IP (0x0800)
Internet Protocol Version 4, Src: 192.168.0.71 (192.168.0.71), Dst: 203.105.78.164 (203.105.78.164)
    Version: 4
    Header length: 20 bytes
    Differentiated Services Field: 0x00 (DSCP 0x00: Default; ECN: 0x00: Not-ECT (Not ECN-Capable Transport))
        0000 00.. = Differentiated Services Codepoint: Default (0x00)
        .... ..00 = Explicit Congestion Notification: Not-ECT (Not ECN-Capable Transport) (0x00)
    Total Length: 52
    Identification: 0x0004 (4)
    Flags: 0x02 (Don't Fragment)
        0... .... = Reserved bit: Not set
        .1.. .... = Don't fragment: Set
        ..0. .... = More fragments: Not set
    Fragment offset: 0
    Time to live: 64
    Protocol: TCP (6)
    Header checksum: 0x5fc3 [correct]
        [Good: True]
        [Bad: False]
    Source: 192.168.0.71 (192.168.0.71)
    Destination: 203.105.78.164 (203.105.78.164)
Transmission Control Protocol, Src Port: 58638 (58638), Dst Port: https (443), Seq: 103, Ack: 2182, Len: 0
    Source port: 58638 (58638)
    Destination port: https (443)
    [Stream index: 3]
    Sequence number: 103    (relative sequence number)
    Acknowledgement number: 2182    (relative ack number)
    Header length: 32 bytes
    Flags: 0x010 (ACK)
        000. .... .... = Reserved: Not set
        ...0 .... .... = Nonce: Not set
        .... 0... .... = Congestion Window Reduced (CWR): Not set
        .... .0.. .... = ECN-Echo: Not set
        .... ..0. .... = Urgent: Not set
        .... ...1 .... = Acknowledgement: Set
        .... .... 0... = Push: Not set
        .... .... .0.. = Reset: Not set
        .... .... ..0. = Syn: Not set
        .... .... ...0 = Fin: Not set
    Window size value: 15346
    [Calculated window size: 15346]
    [Window size scaling factor: 1]
    Checksum: 0xec3b [validation disabled]
        [Good Checksum: False]
        [Bad Checksum: False]
    Options: (12 bytes)
        No-Operation (NOP)
        No-Operation (NOP)
        Timestamps: TSval 3793, TSecr 189241253
            Kind: Timestamp (8)
            Length: 10
            Timestamp value: 3793
            Timestamp echo reply: 189241253

0000  40 4a 03 8d 62 30 00 19 c5 ea 13 f9 08 00 45 00   @J..b0........E.
0010  00 34 00 04 40 00 40 06 5f c3 c0 a8 00 47 cb 69   .4..@.@._....G.i
0020  4e a4 e5 0e 01 bb cf 57 33 bd 90 f9 46 fc 80 10   N......W3...F...
0030  3b f2 ec 3b 00 00 01 01 08 0a 00 00 0e d1 0b 47   ;..;...........G
0040  97 a5                                             ..

No.     Time                       Source                Destination           Protocol Length Info
     61 2012-10-11 22:00:28.778808 192.168.0.71          203.105.78.164        TLSv1    256    Client Key Exchange, Change Cipher Spec, Encrypted Handshake Message

Frame 61: 256 bytes on wire (2048 bits), 256 bytes captured (2048 bits)
    Arrival Time: Oct 11, 2012 22:00:28.778808000 GTB Standard Time
    Epoch Time: 1349982028.778808000 seconds
    [Time delta from previous captured frame: 0.023001000 seconds]
    [Time delta from previous displayed frame: 0.023001000 seconds]
    [Time since reference or first frame: 696.490911000 seconds]
    Frame Number: 61
    Frame Length: 256 bytes (2048 bits)
    Capture Length: 256 bytes (2048 bits)
    [Frame is marked: False]
    [Frame is ignored: False]
    [Protocols in frame: eth:ip:tcp:ssl]
    [Coloring Rule Name: TCP]
    [Coloring Rule String: tcp]
Ethernet II, Src: SonyComp_ea:13:f9 (00:19:c5:ea:13:f9), Dst: ZyxelCom_8d:62:30 (40:4a:03:8d:62:30)
    Destination: ZyxelCom_8d:62:30 (40:4a:03:8d:62:30)
        Address: ZyxelCom_8d:62:30 (40:4a:03:8d:62:30)
        .... ...0 .... .... .... .... = IG bit: Individual address (unicast)
        .... ..0. .... .... .... .... = LG bit: Globally unique address (factory default)
    Source: SonyComp_ea:13:f9 (00:19:c5:ea:13:f9)
        Address: SonyComp_ea:13:f9 (00:19:c5:ea:13:f9)
        .... ...0 .... .... .... .... = IG bit: Individual address (unicast)
        .... ..0. .... .... .... .... = LG bit: Globally unique address (factory default)
    Type: IP (0x0800)
Internet Protocol Version 4, Src: 192.168.0.71 (192.168.0.71), Dst: 203.105.78.164 (203.105.78.164)
    Version: 4
    Header length: 20 bytes
    Differentiated Services Field: 0x00 (DSCP 0x00: Default; ECN: 0x00: Not-ECT (Not ECN-Capable Transport))
        0000 00.. = Differentiated Services Codepoint: Default (0x00)
        .... ..00 = Explicit Congestion Notification: Not-ECT (Not ECN-Capable Transport) (0x00)
    Total Length: 242
    Identification: 0x0005 (5)
    Flags: 0x02 (Don't Fragment)
        0... .... = Reserved bit: Not set
        .1.. .... = Don't fragment: Set
        ..0. .... = More fragments: Not set
    Fragment offset: 0
    Time to live: 64
    Protocol: TCP (6)
    Header checksum: 0x5f04 [correct]
        [Good: True]
        [Bad: False]
    Source: 192.168.0.71 (192.168.0.71)
    Destination: 203.105.78.164 (203.105.78.164)
Transmission Control Protocol, Src Port: 58638 (58638), Dst Port: https (443), Seq: 103, Ack: 2182, Len: 190
    Source port: 58638 (58638)
    Destination port: https (443)
    [Stream index: 3]
    Sequence number: 103    (relative sequence number)
    [Next sequence number: 293    (relative sequence number)]
    Acknowledgement number: 2182    (relative ack number)
    Header length: 32 bytes
    Flags: 0x018 (PSH, ACK)
        000. .... .... = Reserved: Not set
        ...0 .... .... = Nonce: Not set
        .... 0... .... = Congestion Window Reduced (CWR): Not set
        .... .0.. .... = ECN-Echo: Not set
        .... ..0. .... = Urgent: Not set
        .... ...1 .... = Acknowledgement: Set
        .... .... 1... = Push: Set
        .... .... .0.. = Reset: Not set
        .... .... ..0. = Syn: Not set
        .... .... ...0 = Fin: Not set
    Window size value: 17520
    [Calculated window size: 17520]
    [Window size scaling factor: 1]
    Checksum: 0xdc24 [validation disabled]
        [Good Checksum: False]
        [Bad Checksum: False]
    Options: (12 bytes)
        No-Operation (NOP)
        No-Operation (NOP)
        Timestamps: TSval 3793, TSecr 189241253
            Kind: Timestamp (8)
            Length: 10
            Timestamp value: 3793
            Timestamp echo reply: 189241253
    [SEQ/ACK analysis]
        [Bytes in flight: 293]
Secure Sockets Layer
    TLSv1 Record Layer: Handshake Protocol: Client Key Exchange
        Content Type: Handshake (22)
        Version: TLS 1.0 (0x0301)
        Length: 134
        Handshake Protocol: Client Key Exchange
            Handshake Type: Client Key Exchange (16)
            Length: 130
    TLSv1 Record Layer: Change Cipher Spec Protocol: Change Cipher Spec
        Content Type: Change Cipher Spec (20)
        Version: TLS 1.0 (0x0301)
        Length: 1
        Change Cipher Spec Message
    TLSv1 Record Layer: Handshake Protocol: Encrypted Handshake Message
        Content Type: Handshake (22)
        Version: TLS 1.0 (0x0301)
        Length: 40
        Handshake Protocol: Encrypted Handshake Message

0000  40 4a 03 8d 62 30 00 19 c5 ea 13 f9 08 00 45 00   @J..b0........E.
0010  00 f2 00 05 40 00 40 06 5f 04 c0 a8 00 47 cb 69   ....@.@._....G.i
0020  4e a4 e5 0e 01 bb cf 57 33 bd 90 f9 46 fc 80 18   N......W3...F...
0030  44 70 dc 24 00 00 01 01 08 0a 00 00 0e d1 0b 47   Dp.$...........G
0040  97 a5 16 03 01 00 86 10 00 00 82 00 80 b6 8a 9c   ................
0050  44 e1 c2 aa 8d b4 c9 a8 f0 5e 30 9b 4c 41 54 16   D........^0.LAT.
0060  fe 20 63 79 eb c6 99 dc a7 26 41 60 79 14 91 75   . cy.....&A`y..u
0070  5d 00 9f 65 c0 69 42 65 13 7f 45 6e 38 f8 af 85   ]..e.iBe..En8...
0080  da b9 e8 6a fe 00 31 9e 75 56 5b 24 58 22 76 e1   ...j..1.uV[$X"v.
0090  c0 3e 06 ba 0f 04 21 d4 c3 9e 5a b0 f7 41 9c c1   .>....!...Z..A..
00a0  d2 71 9c 89 7d a5 f8 4a 43 05 e7 2a 17 96 ec 71   .q..}..JC..*...q
00b0  ca 7a 08 42 7b 86 c0 97 ae 54 bf 7e 32 e7 c9 e9   .z.B{....T.~2...
00c0  78 0b c7 94 70 f5 a1 6b 43 19 8b 3c c0 14 03 01   x...p..kC..<....
00d0  00 01 01 16 03 01 00 28 e3 5e c5 7f 3f 2f 72 2b   .......(.^..?/r+
00e0  85 74 94 41 37 fe 50 33 be d5 c6 1e 43 ba e9 bc   .t.A7.P3....C...
00f0  24 f4 cf 8c 96 b0 a0 76 5b 39 e9 7e 25 53 ac 4a   $......v[9.~%S.J

No.     Time                       Source                Destination           Protocol Length Info
     62 2012-10-11 22:00:29.101903 192.168.0.71          203.105.78.164        TLSv1    519    Application Data

Frame 62: 519 bytes on wire (4152 bits), 519 bytes captured (4152 bits)
    Arrival Time: Oct 11, 2012 22:00:29.101903000 GTB Standard Time
    Epoch Time: 1349982029.101903000 seconds
    [Time delta from previous captured frame: 0.323095000 seconds]
    [Time delta from previous displayed frame: 0.323095000 seconds]
    [Time since reference or first frame: 696.814006000 seconds]
    Frame Number: 62
    Frame Length: 519 bytes (4152 bits)
    Capture Length: 519 bytes (4152 bits)
    [Frame is marked: False]
    [Frame is ignored: False]
    [Protocols in frame: eth:ip:tcp:ssl]
    [Coloring Rule Name: TCP]
    [Coloring Rule String: tcp]
Ethernet II, Src: SonyComp_ea:13:f9 (00:19:c5:ea:13:f9), Dst: ZyxelCom_8d:62:30 (40:4a:03:8d:62:30)
    Destination: ZyxelCom_8d:62:30 (40:4a:03:8d:62:30)
        Address: ZyxelCom_8d:62:30 (40:4a:03:8d:62:30)
        .... ...0 .... .... .... .... = IG bit: Individual address (unicast)
        .... ..0. .... .... .... .... = LG bit: Globally unique address (factory default)
    Source: SonyComp_ea:13:f9 (00:19:c5:ea:13:f9)
        Address: SonyComp_ea:13:f9 (00:19:c5:ea:13:f9)
        .... ...0 .... .... .... .... = IG bit: Individual address (unicast)
        .... ..0. .... .... .... .... = LG bit: Globally unique address (factory default)
    Type: IP (0x0800)
Internet Protocol Version 4, Src: 192.168.0.71 (192.168.0.71), Dst: 203.105.78.164 (203.105.78.164)
    Version: 4
    Header length: 20 bytes
    Differentiated Services Field: 0x00 (DSCP 0x00: Default; ECN: 0x00: Not-ECT (Not ECN-Capable Transport))
        0000 00.. = Differentiated Services Codepoint: Default (0x00)
        .... ..00 = Explicit Congestion Notification: Not-ECT (Not ECN-Capable Transport) (0x00)
    Total Length: 505
    Identification: 0x0006 (6)
    Flags: 0x02 (Don't Fragment)
        0... .... = Reserved bit: Not set
        .1.. .... = Don't fragment: Set
        ..0. .... = More fragments: Not set
    Fragment offset: 0
    Time to live: 64
    Protocol: TCP (6)
    Header checksum: 0x5dfc [correct]
        [Good: True]
        [Bad: False]
    Source: 192.168.0.71 (192.168.0.71)
    Destination: 203.105.78.164 (203.105.78.164)
Transmission Control Protocol, Src Port: 58638 (58638), Dst Port: https (443), Seq: 293, Ack: 2233, Len: 453
    Source port: 58638 (58638)
    Destination port: https (443)
    [Stream index: 3]
    Sequence number: 293    (relative sequence number)
    [Next sequence number: 746    (relative sequence number)]
    Acknowledgement number: 2233    (relative ack number)
    Header length: 32 bytes
    Flags: 0x018 (PSH, ACK)
        000. .... .... = Reserved: Not set
        ...0 .... .... = Nonce: Not set
        .... 0... .... = Congestion Window Reduced (CWR): Not set
        .... .0.. .... = ECN-Echo: Not set
        .... ..0. .... = Urgent: Not set
        .... ...1 .... = Acknowledgement: Set
        .... .... 1... = Push: Set
        .... .... .0.. = Reset: Not set
        .... .... ..0. = Syn: Not set
        .... .... ...0 = Fin: Not set
    Window size value: 17520
    [Calculated window size: 17520]
    [Window size scaling factor: 1]
    Checksum: 0x1b7f [validation disabled]
        [Good Checksum: False]
        [Bad Checksum: False]
    Options: (12 bytes)
        No-Operation (NOP)
        No-Operation (NOP)
        Timestamps: TSval 3793, TSecr 189241589
            Kind: Timestamp (8)
            Length: 10
            Timestamp value: 3793
            Timestamp echo reply: 189241589
    [SEQ/ACK analysis]
        [Bytes in flight: 746]
Secure Sockets Layer
    TLSv1 Record Layer: Application Data Protocol: http
        Content Type: Application Data (23)
        Version: TLS 1.0 (0x0301)
        Length: 448
        Encrypted Application Data: aa7b2da6901973226ca8af1a13aee910a23619af0e01dd70...

0000  40 4a 03 8d 62 30 00 19 c5 ea 13 f9 08 00 45 00   @J..b0........E.
0010  01 f9 00 06 40 00 40 06 5d fc c0 a8 00 47 cb 69   ....@.@.]....G.i
0020  4e a4 e5 0e 01 bb cf 57 34 7b 90 f9 47 2f 80 18   N......W4{..G/..
0030  44 70 1b 7f 00 00 01 01 08 0a 00 00 0e d1 0b 47   Dp.............G
0040  98 f5 17 03 01 01 c0 aa 7b 2d a6 90 19 73 22 6c   ........{-...s"l
0050  a8 af 1a 13 ae e9 10 a2 36 19 af 0e 01 dd 70 38   ........6.....p8
0060  65 1d e3 0f 56 a5 2d 67 e4 6a 07 3e e3 69 e5 14   e...V.-g.j.>.i..
0070  b1 6d 15 b6 3d 2d f9 d1 48 13 72 d4 0c de bd 6e   .m..=-..H.r....n
0080  f8 8d b5 4f 21 7e 0e 6b 9a 0a 76 d0 6f 44 dc 97   ...O!~.k..v.oD..
0090  6a d1 ce dd db fb 10 25 e2 49 ed ca ed 29 11 ac   j......%.I...)..
00a0  32 ba 81 8b 59 ba 64 6c 30 f9 79 b0 25 bf 0b 69   2...Y.dl0.y.%..i
00b0  01 23 74 bc 37 7e 25 5a 0c 1d be 82 66 12 db bd   .#t.7~%Z....f...
00c0  15 cc 05 bd 1c 31 4e 8a 96 c1 a9 bc 92 51 d3 2c   .....1N......Q.,
00d0  76 8f 13 5f ad e8 e0 47 7d 21 d5 78 bf 52 ca 65   v.._...G}!.x.R.e
00e0  6d 91 76 d7 ea ba 04 26 9f 03 4c 7c 9d f3 24 28   m.v....&..L|..$(
00f0  60 4c b5 d1 bd fa 07 27 df 30 e0 4e 82 2a 1a bb   `L.....'.0.N.*..
0100  77 2d 04 62 ad 68 80 24 ed c7 95 95 4c 88 fc 3d   w-.b.h.$....L..=
0110  39 2c a7 67 ea 42 99 d1 ba fe 39 45 79 00 95 e6   9,.g.B....9Ey...
0120  d0 b1 2e 6a 26 2d b0 43 c7 f2 10 bc 0e a9 13 7a   ...j&-.C.......z
0130  76 fc 96 9d 5e 21 55 dd c6 27 c8 03 f4 0a 6a 3a   v...^!U..'....j:
0140  ec 67 b7 98 8a 86 71 28 70 df c1 21 27 3c 84 5e   .g....q(p..!'<.^
0150  3d 69 5d f6 5c 95 a6 39 d4 73 96 33 55 98 7d fc   =i].\..9.s.3U.}.
0160  fa bd 6a 4d 55 24 9f ce 4b 97 6c f4 f8 8d 84 f4   ..jMU$..K.l.....
0170  2d 31 01 5d a2 a7 d8 89 78 10 65 06 2b 6b d0 09   -1.]....x.e.+k..
0180  a8 d3 e5 72 3a ce 42 d8 fb 9d dc c5 60 d5 56 07   ...r:.B.....`.V.
0190  7a de d4 6c 0e d6 5e 72 cb 4f d5 a3 5a 8b aa ac   z..l..^r.O..Z...
01a0  1e d2 29 c1 b8 76 a3 25 02 2d 09 da 75 17 20 55   ..)..v.%.-..u. U
01b0  05 b2 ba 82 8a 79 45 22 3a 1d 07 28 97 62 3c 72   .....yE":..(.b<r
01c0  0c e9 5c 34 89 1b 7b 3e e5 ed a8 ae 24 b1 40 14   ..\4..{>....$.@.
01d0  df 67 f2 35 e8 a0 8c 91 df 34 00 cb 56 38 8c fb   .g.5.....4..V8..
01e0  29 dd 85 86 a9 72 cf 90 a2 f9 71 18 e6 7f b1 6c   )....r....q....l
01f0  6a 72 8d ff a7 66 ca 79 5e cf a7 91 aa 5a f7 48   jr...f.y^....Z.H
0200  91 72 50 20 26 8f 71                              .rP &.q

No.     Time                       Source                Destination           Protocol Length Info
     63 2012-10-11 22:00:29.418020 192.168.0.71          203.105.78.164        TCP      66     58638 > https [ACK] Seq=746 Ack=2712 Win=17041 Len=0 TSval=3794 TSecr=189241916

Frame 63: 66 bytes on wire (528 bits), 66 bytes captured (528 bits)
    Arrival Time: Oct 11, 2012 22:00:29.418020000 GTB Standard Time
    Epoch Time: 1349982029.418020000 seconds
    [Time delta from previous captured frame: 0.316117000 seconds]
    [Time delta from previous displayed frame: 0.316117000 seconds]
    [Time since reference or first frame: 697.130123000 seconds]
    Frame Number: 63
    Frame Length: 66 bytes (528 bits)
    Capture Length: 66 bytes (528 bits)
    [Frame is marked: False]
    [Frame is ignored: False]
    [Protocols in frame: eth:ip:tcp]
    [Coloring Rule Name: TCP]
    [Coloring Rule String: tcp]
Ethernet II, Src: SonyComp_ea:13:f9 (00:19:c5:ea:13:f9), Dst: ZyxelCom_8d:62:30 (40:4a:03:8d:62:30)
    Destination: ZyxelCom_8d:62:30 (40:4a:03:8d:62:30)
        Address: ZyxelCom_8d:62:30 (40:4a:03:8d:62:30)
        .... ...0 .... .... .... .... = IG bit: Individual address (unicast)
        .... ..0. .... .... .... .... = LG bit: Globally unique address (factory default)
    Source: SonyComp_ea:13:f9 (00:19:c5:ea:13:f9)
        Address: SonyComp_ea:13:f9 (00:19:c5:ea:13:f9)
        .... ...0 .... .... .... .... = IG bit: Individual address (unicast)
        .... ..0. .... .... .... .... = LG bit: Globally unique address (factory default)
    Type: IP (0x0800)
Internet Protocol Version 4, Src: 192.168.0.71 (192.168.0.71), Dst: 203.105.78.164 (203.105.78.164)
    Version: 4
    Header length: 20 bytes
    Differentiated Services Field: 0x00 (DSCP 0x00: Default; ECN: 0x00: Not-ECT (Not ECN-Capable Transport))
        0000 00.. = Differentiated Services Codepoint: Default (0x00)
        .... ..00 = Explicit Congestion Notification: Not-ECT (Not ECN-Capable Transport) (0x00)
    Total Length: 52
    Identification: 0x0007 (7)
    Flags: 0x02 (Don't Fragment)
        0... .... = Reserved bit: Not set
        .1.. .... = Don't fragment: Set
        ..0. .... = More fragments: Not set
    Fragment offset: 0
    Time to live: 64
    Protocol: TCP (6)
    Header checksum: 0x5fc0 [correct]
        [Good: True]
        [Bad: False]
    Source: 192.168.0.71 (192.168.0.71)
    Destination: 203.105.78.164 (203.105.78.164)
Transmission Control Protocol, Src Port: 58638 (58638), Dst Port: https (443), Seq: 746, Ack: 2712, Len: 0
    Source port: 58638 (58638)
    Destination port: https (443)
    [Stream index: 3]
    Sequence number: 746    (relative sequence number)
    Acknowledgement number: 2712    (relative ack number)
    Header length: 32 bytes
    Flags: 0x010 (ACK)
        000. .... .... = Reserved: Not set
        ...0 .... .... = Nonce: Not set
        .... 0... .... = Congestion Window Reduced (CWR): Not set
        .... .0.. .... = ECN-Echo: Not set
        .... ..0. .... = Urgent: Not set
        .... ...1 .... = Acknowledgement: Set
        .... .... 0... = Push: Not set
        .... .... .0.. = Reset: Not set
        .... .... ..0. = Syn: Not set
        .... .... ...0 = Fin: Not set
    Window size value: 17041
    [Calculated window size: 17041]
    [Window size scaling factor: 1]
    Checksum: 0xde6f [validation disabled]
        [Good Checksum: False]
        [Bad Checksum: False]
    Options: (12 bytes)
        No-Operation (NOP)
        No-Operation (NOP)
        Timestamps: TSval 3794, TSecr 189241916
            Kind: Timestamp (8)
            Length: 10
            Timestamp value: 3794
            Timestamp echo reply: 189241916

0000  40 4a 03 8d 62 30 00 19 c5 ea 13 f9 08 00 45 00   @J..b0........E.
0010  00 34 00 07 40 00 40 06 5f c0 c0 a8 00 47 cb 69   .4..@.@._....G.i
0020  4e a4 e5 0e 01 bb cf 57 36 40 90 f9 49 0e 80 10   N......W6@..I...
0030  42 91 de 6f 00 00 01 01 08 0a 00 00 0e d2 0b 47   B..o...........G
0040  9a 3c                                             .<

No.     Time                       Source                Destination           Protocol Length Info
     64 2012-10-11 22:00:29.433298 192.168.0.71          203.105.78.164        TLSv1    95     Encrypted Alert

Frame 64: 95 bytes on wire (760 bits), 95 bytes captured (760 bits)
    Arrival Time: Oct 11, 2012 22:00:29.433298000 GTB Standard Time
    Epoch Time: 1349982029.433298000 seconds
    [Time delta from previous captured frame: 0.015278000 seconds]
    [Time delta from previous displayed frame: 0.015278000 seconds]
    [Time since reference or first frame: 697.145401000 seconds]
    Frame Number: 64
    Frame Length: 95 bytes (760 bits)
    Capture Length: 95 bytes (760 bits)
    [Frame is marked: False]
    [Frame is ignored: False]
    [Protocols in frame: eth:ip:tcp:ssl]
    [Coloring Rule Name: TCP]
    [Coloring Rule String: tcp]
Ethernet II, Src: SonyComp_ea:13:f9 (00:19:c5:ea:13:f9), Dst: ZyxelCom_8d:62:30 (40:4a:03:8d:62:30)
    Destination: ZyxelCom_8d:62:30 (40:4a:03:8d:62:30)
        Address: ZyxelCom_8d:62:30 (40:4a:03:8d:62:30)
        .... ...0 .... .... .... .... = IG bit: Individual address (unicast)
        .... ..0. .... .... .... .... = LG bit: Globally unique address (factory default)
    Source: SonyComp_ea:13:f9 (00:19:c5:ea:13:f9)
        Address: SonyComp_ea:13:f9 (00:19:c5:ea:13:f9)
        .... ...0 .... .... .... .... = IG bit: Individual address (unicast)
        .... ..0. .... .... .... .... = LG bit: Globally unique address (factory default)
    Type: IP (0x0800)
Internet Protocol Version 4, Src: 192.168.0.71 (192.168.0.71), Dst: 203.105.78.164 (203.105.78.164)
    Version: 4
    Header length: 20 bytes
    Differentiated Services Field: 0x00 (DSCP 0x00: Default; ECN: 0x00: Not-ECT (Not ECN-Capable Transport))
        0000 00.. = Differentiated Services Codepoint: Default (0x00)
        .... ..00 = Explicit Congestion Notification: Not-ECT (Not ECN-Capable Transport) (0x00)
    Total Length: 81
    Identification: 0x0008 (8)
    Flags: 0x02 (Don't Fragment)
        0... .... = Reserved bit: Not set
        .1.. .... = Don't fragment: Set
        ..0. .... = More fragments: Not set
    Fragment offset: 0
    Time to live: 64
    Protocol: TCP (6)
    Header checksum: 0x5fa2 [correct]
        [Good: True]
        [Bad: False]
    Source: 192.168.0.71 (192.168.0.71)
    Destination: 203.105.78.164 (203.105.78.164)
Transmission Control Protocol, Src Port: 58638 (58638), Dst Port: https (443), Seq: 746, Ack: 2712, Len: 29
    Source port: 58638 (58638)
    Destination port: https (443)
    [Stream index: 3]
    Sequence number: 746    (relative sequence number)
    [Next sequence number: 775    (relative sequence number)]
    Acknowledgement number: 2712    (relative ack number)
    Header length: 32 bytes
    Flags: 0x018 (PSH, ACK)
        000. .... .... = Reserved: Not set
        ...0 .... .... = Nonce: Not set
        .... 0... .... = Congestion Window Reduced (CWR): Not set
        .... .0.. .... = ECN-Echo: Not set
        .... ..0. .... = Urgent: Not set
        .... ...1 .... = Acknowledgement: Set
        .... .... 1... = Push: Set
        .... .... .0.. = Reset: Not set
        .... .... ..0. = Syn: Not set
        .... .... ...0 = Fin: Not set
    Window size value: 17491
    [Calculated window size: 17491]
    [Window size scaling factor: 1]
    Checksum: 0x0044 [validation disabled]
        [Good Checksum: False]
        [Bad Checksum: False]
    Options: (12 bytes)
        No-Operation (NOP)
        No-Operation (NOP)
        Timestamps: TSval 3794, TSecr 189241916
            Kind: Timestamp (8)
            Length: 10
            Timestamp value: 3794
            Timestamp echo reply: 189241916
    [SEQ/ACK analysis]
        [Bytes in flight: 775]
Secure Sockets Layer
    TLSv1 Record Layer: Encrypted Alert
        Content Type: Alert (21)
        Version: TLS 1.0 (0x0301)
        Length: 24
        Alert Message: Encrypted Alert

0000  40 4a 03 8d 62 30 00 19 c5 ea 13 f9 08 00 45 00   @J..b0........E.
0010  00 51 00 08 40 00 40 06 5f a2 c0 a8 00 47 cb 69   .Q..@.@._....G.i
0020  4e a4 e5 0e 01 bb cf 57 36 40 90 f9 49 0e 80 18   N......W6@..I...
0030  44 53 00 44 00 00 01 01 08 0a 00 00 0e d2 0b 47   DS.D...........G
0040  9a 3c 15 03 01 00 18 77 f9 17 c2 07 49 20 16 68   .<.....w....I .h
0050  4b 5a ea d4 0e cd 31 84 59 cf 45 5b 03 77 7a      KZ....1.Y.E[.wz

No.     Time                       Source                Destination           Protocol Length Info
     65 2012-10-11 22:00:29.434643 192.168.0.71          203.105.78.164        TCP      66     58638 > https [FIN, ACK] Seq=775 Ack=2712 Win=17491 Len=0 TSval=3794 TSecr=189241916

Frame 65: 66 bytes on wire (528 bits), 66 bytes captured (528 bits)
    Arrival Time: Oct 11, 2012 22:00:29.434643000 GTB Standard Time
    Epoch Time: 1349982029.434643000 seconds
    [Time delta from previous captured frame: 0.001345000 seconds]
    [Time delta from previous displayed frame: 0.001345000 seconds]
    [Time since reference or first frame: 697.146746000 seconds]
    Frame Number: 65
    Frame Length: 66 bytes (528 bits)
    Capture Length: 66 bytes (528 bits)
    [Frame is marked: False]
    [Frame is ignored: False]
    [Protocols in frame: eth:ip:tcp]
    [Coloring Rule Name: TCP SYN/FIN]
    [Coloring Rule String: tcp.flags & 0x02 || tcp.flags.fin == 1]
Ethernet II, Src: SonyComp_ea:13:f9 (00:19:c5:ea:13:f9), Dst: ZyxelCom_8d:62:30 (40:4a:03:8d:62:30)
    Destination: ZyxelCom_8d:62:30 (40:4a:03:8d:62:30)
        Address: ZyxelCom_8d:62:30 (40:4a:03:8d:62:30)
        .... ...0 .... .... .... .... = IG bit: Individual address (unicast)
        .... ..0. .... .... .... .... = LG bit: Globally unique address (factory default)
    Source: SonyComp_ea:13:f9 (00:19:c5:ea:13:f9)
        Address: SonyComp_ea:13:f9 (00:19:c5:ea:13:f9)
        .... ...0 .... .... .... .... = IG bit: Individual address (unicast)
        .... ..0. .... .... .... .... = LG bit: Globally unique address (factory default)
    Type: IP (0x0800)
Internet Protocol Version 4, Src: 192.168.0.71 (192.168.0.71), Dst: 203.105.78.164 (203.105.78.164)
    Version: 4
    Header length: 20 bytes
    Differentiated Services Field: 0x00 (DSCP 0x00: Default; ECN: 0x00: Not-ECT (Not ECN-Capable Transport))
        0000 00.. = Differentiated Services Codepoint: Default (0x00)
        .... ..00 = Explicit Congestion Notification: Not-ECT (Not ECN-Capable Transport) (0x00)
    Total Length: 52
    Identification: 0x0009 (9)
    Flags: 0x02 (Don't Fragment)
        0... .... = Reserved bit: Not set
        .1.. .... = Don't fragment: Set
        ..0. .... = More fragments: Not set
    Fragment offset: 0
    Time to live: 64
    Protocol: TCP (6)
    Header checksum: 0x5fbe [correct]
        [Good: True]
        [Bad: False]
    Source: 192.168.0.71 (192.168.0.71)
    Destination: 203.105.78.164 (203.105.78.164)
Transmission Control Protocol, Src Port: 58638 (58638), Dst Port: https (443), Seq: 775, Ack: 2712, Len: 0
    Source port: 58638 (58638)
    Destination port: https (443)
    [Stream index: 3]
    Sequence number: 775    (relative sequence number)
    Acknowledgement number: 2712    (relative ack number)
    Header length: 32 bytes
    Flags: 0x011 (FIN, ACK)
        000. .... .... = Reserved: Not set
        ...0 .... .... = Nonce: Not set
        .... 0... .... = Congestion Window Reduced (CWR): Not set
        .... .0.. .... = ECN-Echo: Not set
        .... ..0. .... = Urgent: Not set
        .... ...1 .... = Acknowledgement: Set
        .... .... 0... = Push: Not set
        .... .... .0.. = Reset: Not set
        .... .... ..0. = Syn: Not set
        .... .... ...1 = Fin: Set
            [Expert Info (Chat/Sequence): Connection finish (FIN)]
                [Message: Connection finish (FIN)]
                [Severity level: Chat]
                [Group: Sequence]
    Window size value: 17491
    [Calculated window size: 17491]
    [Window size scaling factor: 1]
    Checksum: 0xdc8f [validation disabled]
        [Good Checksum: False]
        [Bad Checksum: False]
    Options: (12 bytes)
        No-Operation (NOP)
        No-Operation (NOP)
        Timestamps: TSval 3794, TSecr 189241916
            Kind: Timestamp (8)
            Length: 10
            Timestamp value: 3794
            Timestamp echo reply: 189241916

0000  40 4a 03 8d 62 30 00 19 c5 ea 13 f9 08 00 45 00   @J..b0........E.
0010  00 34 00 09 40 00 40 06 5f be c0 a8 00 47 cb 69   .4..@.@._....G.i
0020  4e a4 e5 0e 01 bb cf 57 36 5d 90 f9 49 0e 80 11   N......W6]..I...
0030  44 53 dc 8f 00 00 01 01 08 0a 00 00 0e d2 0b 47   DS.............G
0040  9a 3c                                             .<

No.     Time                       Source                Destination           Protocol Length Info
     66 2012-10-11 22:00:29.521849 192.168.0.71          62.148.192.130        DNS      89     Standard query A gate1.eu.dnas.playstation.org

Frame 66: 89 bytes on wire (712 bits), 89 bytes captured (712 bits)
    Arrival Time: Oct 11, 2012 22:00:29.521849000 GTB Standard Time
    Epoch Time: 1349982029.521849000 seconds
    [Time delta from previous captured frame: 0.087206000 seconds]
    [Time delta from previous displayed frame: 0.087206000 seconds]
    [Time since reference or first frame: 697.233952000 seconds]
    Frame Number: 66
    Frame Length: 89 bytes (712 bits)
    Capture Length: 89 bytes (712 bits)
    [Frame is marked: False]
    [Frame is ignored: False]
    [Protocols in frame: eth:ip:udp:dns]
    [Coloring Rule Name: UDP]
    [Coloring Rule String: udp]
Ethernet II, Src: SonyComp_ea:13:f9 (00:19:c5:ea:13:f9), Dst: ZyxelCom_8d:62:30 (40:4a:03:8d:62:30)
    Destination: ZyxelCom_8d:62:30 (40:4a:03:8d:62:30)
        Address: ZyxelCom_8d:62:30 (40:4a:03:8d:62:30)
        .... ...0 .... .... .... .... = IG bit: Individual address (unicast)
        .... ..0. .... .... .... .... = LG bit: Globally unique address (factory default)
    Source: SonyComp_ea:13:f9 (00:19:c5:ea:13:f9)
        Address: SonyComp_ea:13:f9 (00:19:c5:ea:13:f9)
        .... ...0 .... .... .... .... = IG bit: Individual address (unicast)
        .... ..0. .... .... .... .... = LG bit: Globally unique address (factory default)
    Type: IP (0x0800)
Internet Protocol Version 4, Src: 192.168.0.71 (192.168.0.71), Dst: 62.148.192.130 (62.148.192.130)
    Version: 4
    Header length: 20 bytes
    Differentiated Services Field: 0x00 (DSCP 0x00: Default; ECN: 0x00: Not-ECT (Not ECN-Capable Transport))
        0000 00.. = Differentiated Services Codepoint: Default (0x00)
        .... ..00 = Explicit Congestion Notification: Not-ECT (Not ECN-Capable Transport) (0x00)
    Total Length: 75
    Identification: 0x000a (10)
    Flags: 0x00
        0... .... = Reserved bit: Not set
        .0.. .... = Don't fragment: Not set
        ..0. .... = More fragments: Not set
    Fragment offset: 0
    Time to live: 64
    Protocol: UDP (17)
    Header checksum: 0xba92 [correct]
        [Good: True]
        [Bad: False]
    Source: 192.168.0.71 (192.168.0.71)
    Destination: 62.148.192.130 (62.148.192.130)
User Datagram Protocol, Src Port: 55832 (55832), Dst Port: domain (53)
    Source port: 55832 (55832)
    Destination port: domain (53)
    Length: 55
    Checksum: 0x3de6 [validation disabled]
        [Good Checksum: False]
        [Bad Checksum: False]
Domain Name System (query)
    Transaction ID: 0x5b98
    Flags: 0x0100 (Standard query)
        0... .... .... .... = Response: Message is a query
        .000 0... .... .... = Opcode: Standard query (0)
        .... ..0. .... .... = Truncated: Message is not truncated
        .... ...1 .... .... = Recursion desired: Do query recursively
        .... .... .0.. .... = Z: reserved (0)
        .... .... ...0 .... = Non-authenticated data: Unacceptable
    Questions: 1
    Answer RRs: 0
    Authority RRs: 0
    Additional RRs: 0
    Queries
        gate1.eu.dnas.playstation.org: type A, class IN
            Name: gate1.eu.dnas.playstation.org
            Type: A (Host address)
            Class: IN (0x0001)

0000  40 4a 03 8d 62 30 00 19 c5 ea 13 f9 08 00 45 00   @J..b0........E.
0010  00 4b 00 0a 00 00 40 11 ba 92 c0 a8 00 47 3e 94   .K....@......G>.
0020  c0 82 da 18 00 35 00 37 3d e6 5b 98 01 00 00 01   .....5.7=.[.....
0030  00 00 00 00 00 00 05 67 61 74 65 31 02 65 75 04   .......gate1.eu.
0040  64 6e 61 73 0b 70 6c 61 79 73 74 61 74 69 6f 6e   dnas.playstation
0050  03 6f 72 67 00 00 01 00 01                        .org.....

No.     Time                       Source                Destination           Protocol Length Info
     67 2012-10-11 22:00:29.536607 192.168.0.71          203.105.78.164        TCP      74     58637 > https [SYN] Seq=0 Win=16384 Len=0 MSS=1460 WS=1 TSval=3794 TSecr=0

Frame 67: 74 bytes on wire (592 bits), 74 bytes captured (592 bits)
    Arrival Time: Oct 11, 2012 22:00:29.536607000 GTB Standard Time
    Epoch Time: 1349982029.536607000 seconds
    [Time delta from previous captured frame: 0.014758000 seconds]
    [Time delta from previous displayed frame: 0.014758000 seconds]
    [Time since reference or first frame: 697.248710000 seconds]
    Frame Number: 67
    Frame Length: 74 bytes (592 bits)
    Capture Length: 74 bytes (592 bits)
    [Frame is marked: False]
    [Frame is ignored: False]
    [Protocols in frame: eth:ip:tcp]
    [Coloring Rule Name: TCP SYN/FIN]
    [Coloring Rule String: tcp.flags & 0x02 || tcp.flags.fin == 1]
Ethernet II, Src: SonyComp_ea:13:f9 (00:19:c5:ea:13:f9), Dst: ZyxelCom_8d:62:30 (40:4a:03:8d:62:30)
    Destination: ZyxelCom_8d:62:30 (40:4a:03:8d:62:30)
        Address: ZyxelCom_8d:62:30 (40:4a:03:8d:62:30)
        .... ...0 .... .... .... .... = IG bit: Individual address (unicast)
        .... ..0. .... .... .... .... = LG bit: Globally unique address (factory default)
    Source: SonyComp_ea:13:f9 (00:19:c5:ea:13:f9)
        Address: SonyComp_ea:13:f9 (00:19:c5:ea:13:f9)
        .... ...0 .... .... .... .... = IG bit: Individual address (unicast)
        .... ..0. .... .... .... .... = LG bit: Globally unique address (factory default)
    Type: IP (0x0800)
Internet Protocol Version 4, Src: 192.168.0.71 (192.168.0.71), Dst: 203.105.78.164 (203.105.78.164)
    Version: 4
    Header length: 20 bytes
    Differentiated Services Field: 0x00 (DSCP 0x00: Default; ECN: 0x00: Not-ECT (Not ECN-Capable Transport))
        0000 00.. = Differentiated Services Codepoint: Default (0x00)
        .... ..00 = Explicit Congestion Notification: Not-ECT (Not ECN-Capable Transport) (0x00)
    Total Length: 60
    Identification: 0x000b (11)
    Flags: 0x02 (Don't Fragment)
        0... .... = Reserved bit: Not set
        .1.. .... = Don't fragment: Set
        ..0. .... = More fragments: Not set
    Fragment offset: 0
    Time to live: 64
    Protocol: TCP (6)
    Header checksum: 0x5fb4 [correct]
        [Good: True]
        [Bad: False]
    Source: 192.168.0.71 (192.168.0.71)
    Destination: 203.105.78.164 (203.105.78.164)
Transmission Control Protocol, Src Port: 58637 (58637), Dst Port: https (443), Seq: 0, Len: 0
    Source port: 58637 (58637)
    Destination port: https (443)
    [Stream index: 5]
    Sequence number: 0    (relative sequence number)
    Header length: 40 bytes
    Flags: 0x002 (SYN)
        000. .... .... = Reserved: Not set
        ...0 .... .... = Nonce: Not set
        .... 0... .... = Congestion Window Reduced (CWR): Not set
        .... .0.. .... = ECN-Echo: Not set
        .... ..0. .... = Urgent: Not set
        .... ...0 .... = Acknowledgement: Not set
        .... .... 0... = Push: Not set
        .... .... .0.. = Reset: Not set
        .... .... ..1. = Syn: Set
            [Expert Info (Chat/Sequence): Connection establish request (SYN): server port https]
                [Message: Connection establish request (SYN): server port https]
                [Severity level: Chat]
                [Group: Sequence]
        .... .... ...0 = Fin: Not set
    Window size value: 16384
    [Calculated window size: 16384]
    Checksum: 0x11b4 [validation disabled]
        [Good Checksum: False]
        [Bad Checksum: False]
    Options: (20 bytes)
        Maximum segment size: 1460 bytes
        No-Operation (NOP)
        Window scale: 0 (multiply by 1)
            Kind: Window Scale (3)
            Length: 3
            Shift count: 0
            [Multiplier: 1]
        No-Operation (NOP)
        No-Operation (NOP)
        Timestamps: TSval 3794, TSecr 0
            Kind: Timestamp (8)
            Length: 10
            Timestamp value: 3794
            Timestamp echo reply: 0

0000  40 4a 03 8d 62 30 00 19 c5 ea 13 f9 08 00 45 00   @J..b0........E.
0010  00 3c 00 0b 40 00 40 06 5f b4 c0 a8 00 47 cb 69   .<..@.@._....G.i
0020  4e a4 e5 0d 01 bb d3 eb 54 d0 00 00 00 00 a0 02   N.......T.......
0030  40 00 11 b4 00 00 02 04 05 b4 01 03 03 00 01 01   @...............
0040  08 0a 00 00 0e d2 00 00 00 00                     ..........

No.     Time                       Source                Destination           Protocol Length Info
     68 2012-10-11 22:00:29.748452 192.168.0.71          203.105.78.164        TCP      66     58638 > https [ACK] Seq=776 Ack=2713 Win=17490 Len=0 TSval=3795 TSecr=189242246

Frame 68: 66 bytes on wire (528 bits), 66 bytes captured (528 bits)
    Arrival Time: Oct 11, 2012 22:00:29.748452000 GTB Standard Time
    Epoch Time: 1349982029.748452000 seconds
    [Time delta from previous captured frame: 0.211845000 seconds]
    [Time delta from previous displayed frame: 0.211845000 seconds]
    [Time since reference or first frame: 697.460555000 seconds]
    Frame Number: 68
    Frame Length: 66 bytes (528 bits)
    Capture Length: 66 bytes (528 bits)
    [Frame is marked: False]
    [Frame is ignored: False]
    [Protocols in frame: eth:ip:tcp]
    [Coloring Rule Name: TCP]
    [Coloring Rule String: tcp]
Ethernet II, Src: SonyComp_ea:13:f9 (00:19:c5:ea:13:f9), Dst: ZyxelCom_8d:62:30 (40:4a:03:8d:62:30)
    Destination: ZyxelCom_8d:62:30 (40:4a:03:8d:62:30)
        Address: ZyxelCom_8d:62:30 (40:4a:03:8d:62:30)
        .... ...0 .... .... .... .... = IG bit: Individual address (unicast)
        .... ..0. .... .... .... .... = LG bit: Globally unique address (factory default)
    Source: SonyComp_ea:13:f9 (00:19:c5:ea:13:f9)
        Address: SonyComp_ea:13:f9 (00:19:c5:ea:13:f9)
        .... ...0 .... .... .... .... = IG bit: Individual address (unicast)
        .... ..0. .... .... .... .... = LG bit: Globally unique address (factory default)
    Type: IP (0x0800)
Internet Protocol Version 4, Src: 192.168.0.71 (192.168.0.71), Dst: 203.105.78.164 (203.105.78.164)
    Version: 4
    Header length: 20 bytes
    Differentiated Services Field: 0x00 (DSCP 0x00: Default; ECN: 0x00: Not-ECT (Not ECN-Capable Transport))
        0000 00.. = Differentiated Services Codepoint: Default (0x00)
        .... ..00 = Explicit Congestion Notification: Not-ECT (Not ECN-Capable Transport) (0x00)
    Total Length: 52
    Identification: 0x000c (12)
    Flags: 0x02 (Don't Fragment)
        0... .... = Reserved bit: Not set
        .1.. .... = Don't fragment: Set
        ..0. .... = More fragments: Not set
    Fragment offset: 0
    Time to live: 64
    Protocol: TCP (6)
    Header checksum: 0x5fbb [correct]
        [Good: True]
        [Bad: False]
    Source: 192.168.0.71 (192.168.0.71)
    Destination: 203.105.78.164 (203.105.78.164)
Transmission Control Protocol, Src Port: 58638 (58638), Dst Port: https (443), Seq: 776, Ack: 2713, Len: 0
    Source port: 58638 (58638)
    Destination port: https (443)
    [Stream index: 3]
    Sequence number: 776    (relative sequence number)
    Acknowledgement number: 2713    (relative ack number)
    Header length: 32 bytes
    Flags: 0x010 (ACK)
        000. .... .... = Reserved: Not set
        ...0 .... .... = Nonce: Not set
        .... 0... .... = Congestion Window Reduced (CWR): Not set
        .... .0.. .... = ECN-Echo: Not set
        .... ..0. .... = Urgent: Not set
        .... ...1 .... = Acknowledgement: Set
        .... .... 0... = Push: Not set
        .... .... .0.. = Reset: Not set
        .... .... ..0. = Syn: Not set
        .... .... ...0 = Fin: Not set
    Window size value: 17490
    [Calculated window size: 17490]
    [Window size scaling factor: 1]
    Checksum: 0xdb44 [validation disabled]
        [Good Checksum: False]
        [Bad Checksum: False]
    Options: (12 bytes)
        No-Operation (NOP)
        No-Operation (NOP)
        Timestamps: TSval 3795, TSecr 189242246
            Kind: Timestamp (8)
            Length: 10
            Timestamp value: 3795
            Timestamp echo reply: 189242246

0000  40 4a 03 8d 62 30 00 19 c5 ea 13 f9 08 00 45 00   @J..b0........E.
0010  00 34 00 0c 40 00 40 06 5f bb c0 a8 00 47 cb 69   .4..@.@._....G.i
0020  4e a4 e5 0e 01 bb cf 57 36 5e 90 f9 49 0f 80 10   N......W6^..I...
0030  44 52 db 44 00 00 01 01 08 0a 00 00 0e d3 0b 47   DR.D...........G
0040  9b 86                                             ..

No.     Time                       Source                Destination           Protocol Length Info
     69 2012-10-11 22:00:29.843946 192.168.0.71          203.105.78.164        TCP      66     58637 > https [ACK] Seq=1 Ack=1 Win=17520 Len=0 TSval=3795 TSecr=189242344

Frame 69: 66 bytes on wire (528 bits), 66 bytes captured (528 bits)
    Arrival Time: Oct 11, 2012 22:00:29.843946000 GTB Standard Time
    Epoch Time: 1349982029.843946000 seconds
    [Time delta from previous captured frame: 0.095494000 seconds]
    [Time delta from previous displayed frame: 0.095494000 seconds]
    [Time since reference or first frame: 697.556049000 seconds]
    Frame Number: 69
    Frame Length: 66 bytes (528 bits)
    Capture Length: 66 bytes (528 bits)
    [Frame is marked: False]
    [Frame is ignored: False]
    [Protocols in frame: eth:ip:tcp]
    [Coloring Rule Name: TCP]
    [Coloring Rule String: tcp]
Ethernet II, Src: SonyComp_ea:13:f9 (00:19:c5:ea:13:f9), Dst: ZyxelCom_8d:62:30 (40:4a:03:8d:62:30)
    Destination: ZyxelCom_8d:62:30 (40:4a:03:8d:62:30)
        Address: ZyxelCom_8d:62:30 (40:4a:03:8d:62:30)
        .... ...0 .... .... .... .... = IG bit: Individual address (unicast)
        .... ..0. .... .... .... .... = LG bit: Globally unique address (factory default)
    Source: SonyComp_ea:13:f9 (00:19:c5:ea:13:f9)
        Address: SonyComp_ea:13:f9 (00:19:c5:ea:13:f9)
        .... ...0 .... .... .... .... = IG bit: Individual address (unicast)
        .... ..0. .... .... .... .... = LG bit: Globally unique address (factory default)
    Type: IP (0x0800)
Internet Protocol Version 4, Src: 192.168.0.71 (192.168.0.71), Dst: 203.105.78.164 (203.105.78.164)
    Version: 4
    Header length: 20 bytes
    Differentiated Services Field: 0x00 (DSCP 0x00: Default; ECN: 0x00: Not-ECT (Not ECN-Capable Transport))
        0000 00.. = Differentiated Services Codepoint: Default (0x00)
        .... ..00 = Explicit Congestion Notification: Not-ECT (Not ECN-Capable Transport) (0x00)
    Total Length: 52
    Identification: 0x000d (13)
    Flags: 0x02 (Don't Fragment)
        0... .... = Reserved bit: Not set
        .1.. .... = Don't fragment: Set
        ..0. .... = More fragments: Not set
    Fragment offset: 0
    Time to live: 64
    Protocol: TCP (6)
    Header checksum: 0x5fba [correct]
        [Good: True]
        [Bad: False]
    Source: 192.168.0.71 (192.168.0.71)
    Destination: 203.105.78.164 (203.105.78.164)
Transmission Control Protocol, Src Port: 58637 (58637), Dst Port: https (443), Seq: 1, Ack: 1, Len: 0
    Source port: 58637 (58637)
    Destination port: https (443)
    [Stream index: 5]
    Sequence number: 1    (relative sequence number)
    Acknowledgement number: 1    (relative ack number)
    Header length: 32 bytes
    Flags: 0x010 (ACK)
        000. .... .... = Reserved: Not set
        ...0 .... .... = Nonce: Not set
        .... 0... .... = Congestion Window Reduced (CWR): Not set
        .... .0.. .... = ECN-Echo: Not set
        .... ..0. .... = Urgent: Not set
        .... ...1 .... = Acknowledgement: Set
        .... .... 0... = Push: Not set
        .... .... .0.. = Reset: Not set
        .... .... ..0. = Syn: Not set
        .... .... ...0 = Fin: Not set
    Window size value: 17520
    [Calculated window size: 17520]
    [Window size scaling factor: 1]
    Checksum: 0x9e34 [validation disabled]
        [Good Checksum: False]
        [Bad Checksum: False]
    Options: (12 bytes)
        No-Operation (NOP)
        No-Operation (NOP)
        Timestamps: TSval 3795, TSecr 189242344
            Kind: Timestamp (8)
            Length: 10
            Timestamp value: 3795
            Timestamp echo reply: 189242344

0000  40 4a 03 8d 62 30 00 19 c5 ea 13 f9 08 00 45 00   @J..b0........E.
0010  00 34 00 0d 40 00 40 06 5f ba c0 a8 00 47 cb 69   .4..@.@._....G.i
0020  4e a4 e5 0d 01 bb d3 eb 54 d1 2d 4e c6 44 80 10   N.......T.-N.D..
0030  44 70 9e 34 00 00 01 01 08 0a 00 00 0e d3 0b 47   Dp.4...........G
0040  9b e8                                             ..

No.     Time                       Source                Destination           Protocol Length Info
     70 2012-10-11 22:00:29.845203 192.168.0.71          203.105.78.164        SSLv2    168    Client Hello

Frame 70: 168 bytes on wire (1344 bits), 168 bytes captured (1344 bits)
    Arrival Time: Oct 11, 2012 22:00:29.845203000 GTB Standard Time
    Epoch Time: 1349982029.845203000 seconds
    [Time delta from previous captured frame: 0.001257000 seconds]
    [Time delta from previous displayed frame: 0.001257000 seconds]
    [Time since reference or first frame: 697.557306000 seconds]
    Frame Number: 70
    Frame Length: 168 bytes (1344 bits)
    Capture Length: 168 bytes (1344 bits)
    [Frame is marked: False]
    [Frame is ignored: False]
    [Protocols in frame: eth:ip:tcp:ssl]
    [Coloring Rule Name: TCP]
    [Coloring Rule String: tcp]
Ethernet II, Src: SonyComp_ea:13:f9 (00:19:c5:ea:13:f9), Dst: ZyxelCom_8d:62:30 (40:4a:03:8d:62:30)
    Destination: ZyxelCom_8d:62:30 (40:4a:03:8d:62:30)
        Address: ZyxelCom_8d:62:30 (40:4a:03:8d:62:30)
        .... ...0 .... .... .... .... = IG bit: Individual address (unicast)
        .... ..0. .... .... .... .... = LG bit: Globally unique address (factory default)
    Source: SonyComp_ea:13:f9 (00:19:c5:ea:13:f9)
        Address: SonyComp_ea:13:f9 (00:19:c5:ea:13:f9)
        .... ...0 .... .... .... .... = IG bit: Individual address (unicast)
        .... ..0. .... .... .... .... = LG bit: Globally unique address (factory default)
    Type: IP (0x0800)
Internet Protocol Version 4, Src: 192.168.0.71 (192.168.0.71), Dst: 203.105.78.164 (203.105.78.164)
    Version: 4
    Header length: 20 bytes
    Differentiated Services Field: 0x00 (DSCP 0x00: Default; ECN: 0x00: Not-ECT (Not ECN-Capable Transport))
        0000 00.. = Differentiated Services Codepoint: Default (0x00)
        .... ..00 = Explicit Congestion Notification: Not-ECT (Not ECN-Capable Transport) (0x00)
    Total Length: 154
    Identification: 0x000e (14)
    Flags: 0x02 (Don't Fragment)
        0... .... = Reserved bit: Not set
        .1.. .... = Don't fragment: Set
        ..0. .... = More fragments: Not set
    Fragment offset: 0
    Time to live: 64
    Protocol: TCP (6)
    Header checksum: 0x5f53 [correct]
        [Good: True]
        [Bad: False]
    Source: 192.168.0.71 (192.168.0.71)
    Destination: 203.105.78.164 (203.105.78.164)
Transmission Control Protocol, Src Port: 58637 (58637), Dst Port: https (443), Seq: 1, Ack: 1, Len: 102
    Source port: 58637 (58637)
    Destination port: https (443)
    [Stream index: 5]
    Sequence number: 1    (relative sequence number)
    [Next sequence number: 103    (relative sequence number)]
    Acknowledgement number: 1    (relative ack number)
    Header length: 32 bytes
    Flags: 0x018 (PSH, ACK)
        000. .... .... = Reserved: Not set
        ...0 .... .... = Nonce: Not set
        .... 0... .... = Congestion Window Reduced (CWR): Not set
        .... .0.. .... = ECN-Echo: Not set
        .... ..0. .... = Urgent: Not set
        .... ...1 .... = Acknowledgement: Set
        .... .... 1... = Push: Set
        .... .... .0.. = Reset: Not set
        .... .... ..0. = Syn: Not set
        .... .... ...0 = Fin: Not set
    Window size value: 17520
    [Calculated window size: 17520]
    [Window size scaling factor: 1]
    Checksum: 0xc2ce [validation disabled]
        [Good Checksum: False]
        [Bad Checksum: False]
    Options: (12 bytes)
        No-Operation (NOP)
        No-Operation (NOP)
        Timestamps: TSval 3795, TSecr 189242344
            Kind: Timestamp (8)
            Length: 10
            Timestamp value: 3795
            Timestamp echo reply: 189242344
    [SEQ/ACK analysis]
        [Bytes in flight: 103]
Secure Sockets Layer
    SSLv2 Record Layer: Client Hello
        [Version: SSL 2.0 (0x0002)]
        Length: 100
        Handshake Message Type: Client Hello (1)
        Version: TLS 1.0 (0x0301)
        Cipher Spec Length: 75
        Session ID Length: 0
        Challenge Length: 16
        Cipher Specs (25 specs)
            Cipher Spec: TLS_DHE_DSS_WITH_RC4_128_SHA (0x000066)
            Cipher Spec: TLS_DHE_RSA_WITH_3DES_EDE_CBC_SHA (0x000016)
            Cipher Spec: TLS_DHE_DSS_WITH_3DES_EDE_CBC_SHA (0x000013)
            Cipher Spec: TLS_RSA_WITH_3DES_EDE_CBC_SHA (0x00000a)
            Cipher Spec: TLS_RSA_WITH_RC4_128_SHA (0x000005)
            Cipher Spec: TLS_RSA_WITH_RC4_128_MD5 (0x000004)
            Cipher Spec: TLS_DHE_RSA_WITH_DES_CBC_SHA (0x000015)
            Cipher Spec: TLS_DHE_DSS_WITH_DES_CBC_SHA (0x000012)
            Cipher Spec: TLS_RSA_WITH_DES_CBC_SHA (0x000009)
            Cipher Spec: SSL2_DES_192_EDE3_CBC_WITH_MD5 (0x0700c0)
            Cipher Spec: SSL2_RC2_CBC_128_CBC_WITH_MD5 (0x030080)
            Cipher Spec: SSL2_RC4_128_WITH_MD5 (0x010080)
            Cipher Spec: SSL2_DES_64_CBC_WITH_MD5 (0x060040)
            Cipher Spec: TLS_DHE_DSS_EXPORT1024_WITH_DES_CBC_SHA (0x000063)
            Cipher Spec: TLS_DHE_DSS_EXPORT1024_WITH_RC4_56_SHA (0x000065)
            Cipher Spec: TLS_RSA_EXPORT1024_WITH_DES_CBC_SHA (0x000062)
            Cipher Spec: TLS_RSA_EXPORT1024_WITH_RC4_56_SHA (0x000064)
            Cipher Spec: TLS_DHE_RSA_EXPORT_WITH_DES40_CBC_SHA (0x000014)
            Cipher Spec: TLS_DHE_DSS_EXPORT_WITH_DES40_CBC_SHA (0x000011)
            Cipher Spec: TLS_RSA_EXPORT_WITH_DES40_CBC_SHA (0x000008)
            Cipher Spec: TLS_RSA_EXPORT_WITH_RC2_CBC_40_MD5 (0x000006)
            Cipher Spec: TLS_RSA_EXPORT_WITH_RC4_40_MD5 (0x000003)
            Cipher Spec: SSL2_RC2_CBC_128_CBC_WITH_MD5 (0x040080)
            Cipher Spec: SSL2_RC4_128_EXPORT40_WITH_MD5 (0x020080)
            Cipher Spec: SSL2_RC4_64_WITH_MD5 (0x080080)
        Challenge

0000  40 4a 03 8d 62 30 00 19 c5 ea 13 f9 08 00 45 00   @J..b0........E.
0010  00 9a 00 0e 40 00 40 06 5f 53 c0 a8 00 47 cb 69   ....@.@._S...G.i
0020  4e a4 e5 0d 01 bb d3 eb 54 d1 2d 4e c6 44 80 18   N.......T.-N.D..
0030  44 70 c2 ce 00 00 01 01 08 0a 00 00 0e d3 0b 47   Dp.............G
0040  9b e8 80 64 01 03 01 00 4b 00 00 00 10 00 00 66   ...d....K......f
0050  00 00 16 00 00 13 00 00 0a 00 00 05 00 00 04 00   ................
0060  00 15 00 00 12 00 00 09 07 00 c0 03 00 80 01 00   ................
0070  80 06 00 40 00 00 63 00 00 65 00 00 62 00 00 64   ...@..c..e..b..d
0080  00 00 14 00 00 11 00 00 08 00 00 06 00 00 03 04   ................
0090  00 80 02 00 80 08 00 80 75 c6 86 72 83 59 cd 16   ........u..r.Y..
00a0  6f 35 bb 1f 71 8e 2d af                           o5..q.-.

No.     Time                       Source                Destination           Protocol Length Info
     71 2012-10-11 22:00:30.155258 192.168.0.71          203.105.78.164        TCP      66     58637 > https [ACK] Seq=103 Ack=2182 Win=15346 Len=0 TSval=3795 TSecr=189242655

Frame 71: 66 bytes on wire (528 bits), 66 bytes captured (528 bits)
    Arrival Time: Oct 11, 2012 22:00:30.155258000 GTB Standard Time
    Epoch Time: 1349982030.155258000 seconds
    [Time delta from previous captured frame: 0.310055000 seconds]
    [Time delta from previous displayed frame: 0.310055000 seconds]
    [Time since reference or first frame: 697.867361000 seconds]
    Frame Number: 71
    Frame Length: 66 bytes (528 bits)
    Capture Length: 66 bytes (528 bits)
    [Frame is marked: False]
    [Frame is ignored: False]
    [Protocols in frame: eth:ip:tcp]
    [Coloring Rule Name: TCP]
    [Coloring Rule String: tcp]
Ethernet II, Src: SonyComp_ea:13:f9 (00:19:c5:ea:13:f9), Dst: ZyxelCom_8d:62:30 (40:4a:03:8d:62:30)
    Destination: ZyxelCom_8d:62:30 (40:4a:03:8d:62:30)
        Address: ZyxelCom_8d:62:30 (40:4a:03:8d:62:30)
        .... ...0 .... .... .... .... = IG bit: Individual address (unicast)
        .... ..0. .... .... .... .... = LG bit: Globally unique address (factory default)
    Source: SonyComp_ea:13:f9 (00:19:c5:ea:13:f9)
        Address: SonyComp_ea:13:f9 (00:19:c5:ea:13:f9)
        .... ...0 .... .... .... .... = IG bit: Individual address (unicast)
        .... ..0. .... .... .... .... = LG bit: Globally unique address (factory default)
    Type: IP (0x0800)
Internet Protocol Version 4, Src: 192.168.0.71 (192.168.0.71), Dst: 203.105.78.164 (203.105.78.164)
    Version: 4
    Header length: 20 bytes
    Differentiated Services Field: 0x00 (DSCP 0x00: Default; ECN: 0x00: Not-ECT (Not ECN-Capable Transport))
        0000 00.. = Differentiated Services Codepoint: Default (0x00)
        .... ..00 = Explicit Congestion Notification: Not-ECT (Not ECN-Capable Transport) (0x00)
    Total Length: 52
    Identification: 0x000f (15)
    Flags: 0x02 (Don't Fragment)
        0... .... = Reserved bit: Not set
        .1.. .... = Don't fragment: Set
        ..0. .... = More fragments: Not set
    Fragment offset: 0
    Time to live: 64
    Protocol: TCP (6)
    Header checksum: 0x5fb8 [correct]
        [Good: True]
        [Bad: False]
    Source: 192.168.0.71 (192.168.0.71)
    Destination: 203.105.78.164 (203.105.78.164)
Transmission Control Protocol, Src Port: 58637 (58637), Dst Port: https (443), Seq: 103, Ack: 2182, Len: 0
    Source port: 58637 (58637)
    Destination port: https (443)
    [Stream index: 5]
    Sequence number: 103    (relative sequence number)
    Acknowledgement number: 2182    (relative ack number)
    Header length: 32 bytes
    Flags: 0x010 (ACK)
        000. .... .... = Reserved: Not set
        ...0 .... .... = Nonce: Not set
        .... 0... .... = Congestion Window Reduced (CWR): Not set
        .... .0.. .... = ECN-Echo: Not set
        .... ..0. .... = Urgent: Not set
        .... ...1 .... = Acknowledgement: Set
        .... .... 0... = Push: Not set
        .... .... .0.. = Reset: Not set
        .... .... ..0. = Syn: Not set
        .... .... ...0 = Fin: Not set
    Window size value: 15346
    [Calculated window size: 15346]
    [Window size scaling factor: 1]
    Checksum: 0x9c90 [validation disabled]
        [Good Checksum: False]
        [Bad Checksum: False]
    Options: (12 bytes)
        No-Operation (NOP)
        No-Operation (NOP)
        Timestamps: TSval 3795, TSecr 189242655
            Kind: Timestamp (8)
            Length: 10
            Timestamp value: 3795
            Timestamp echo reply: 189242655

0000  40 4a 03 8d 62 30 00 19 c5 ea 13 f9 08 00 45 00   @J..b0........E.
0010  00 34 00 0f 40 00 40 06 5f b8 c0 a8 00 47 cb 69   .4..@.@._....G.i
0020  4e a4 e5 0d 01 bb d3 eb 55 37 2d 4e ce c9 80 10   N.......U7-N....
0030  3b f2 9c 90 00 00 01 01 08 0a 00 00 0e d3 0b 47   ;..............G
0040  9d 1f                                             ..

No.     Time                       Source                Destination           Protocol Length Info
     72 2012-10-11 22:00:30.178326 192.168.0.71          203.105.78.164        TLSv1    256    Client Key Exchange, Change Cipher Spec, Encrypted Handshake Message

Frame 72: 256 bytes on wire (2048 bits), 256 bytes captured (2048 bits)
    Arrival Time: Oct 11, 2012 22:00:30.178326000 GTB Standard Time
    Epoch Time: 1349982030.178326000 seconds
    [Time delta from previous captured frame: 0.023068000 seconds]
    [Time delta from previous displayed frame: 0.023068000 seconds]
    [Time since reference or first frame: 697.890429000 seconds]
    Frame Number: 72
    Frame Length: 256 bytes (2048 bits)
    Capture Length: 256 bytes (2048 bits)
    [Frame is marked: False]
    [Frame is ignored: False]
    [Protocols in frame: eth:ip:tcp:ssl]
    [Coloring Rule Name: TCP]
    [Coloring Rule String: tcp]
Ethernet II, Src: SonyComp_ea:13:f9 (00:19:c5:ea:13:f9), Dst: ZyxelCom_8d:62:30 (40:4a:03:8d:62:30)
    Destination: ZyxelCom_8d:62:30 (40:4a:03:8d:62:30)
        Address: ZyxelCom_8d:62:30 (40:4a:03:8d:62:30)
        .... ...0 .... .... .... .... = IG bit: Individual address (unicast)
        .... ..0. .... .... .... .... = LG bit: Globally unique address (factory default)
    Source: SonyComp_ea:13:f9 (00:19:c5:ea:13:f9)
        Address: SonyComp_ea:13:f9 (00:19:c5:ea:13:f9)
        .... ...0 .... .... .... .... = IG bit: Individual address (unicast)
        .... ..0. .... .... .... .... = LG bit: Globally unique address (factory default)
    Type: IP (0x0800)
Internet Protocol Version 4, Src: 192.168.0.71 (192.168.0.71), Dst: 203.105.78.164 (203.105.78.164)
    Version: 4
    Header length: 20 bytes
    Differentiated Services Field: 0x00 (DSCP 0x00: Default; ECN: 0x00: Not-ECT (Not ECN-Capable Transport))
        0000 00.. = Differentiated Services Codepoint: Default (0x00)
        .... ..00 = Explicit Congestion Notification: Not-ECT (Not ECN-Capable Transport) (0x00)
    Total Length: 242
    Identification: 0x0010 (16)
    Flags: 0x02 (Don't Fragment)
        0... .... = Reserved bit: Not set
        .1.. .... = Don't fragment: Set
        ..0. .... = More fragments: Not set
    Fragment offset: 0
    Time to live: 64
    Protocol: TCP (6)
    Header checksum: 0x5ef9 [correct]
        [Good: True]
        [Bad: False]
    Source: 192.168.0.71 (192.168.0.71)
    Destination: 203.105.78.164 (203.105.78.164)
Transmission Control Protocol, Src Port: 58637 (58637), Dst Port: https (443), Seq: 103, Ack: 2182, Len: 190
    Source port: 58637 (58637)
    Destination port: https (443)
    [Stream index: 5]
    Sequence number: 103    (relative sequence number)
    [Next sequence number: 293    (relative sequence number)]
    Acknowledgement number: 2182    (relative ack number)
    Header length: 32 bytes
    Flags: 0x018 (PSH, ACK)
        000. .... .... = Reserved: Not set
        ...0 .... .... = Nonce: Not set
        .... 0... .... = Congestion Window Reduced (CWR): Not set
        .... .0.. .... = ECN-Echo: Not set
        .... ..0. .... = Urgent: Not set
        .... ...1 .... = Acknowledgement: Set
        .... .... 1... = Push: Set
        .... .... .0.. = Reset: Not set
        .... .... ..0. = Syn: Not set
        .... .... ...0 = Fin: Not set
    Window size value: 17520
    [Calculated window size: 17520]
    [Window size scaling factor: 1]
    Checksum: 0xe842 [validation disabled]
        [Good Checksum: False]
        [Bad Checksum: False]
    Options: (12 bytes)
        No-Operation (NOP)
        No-Operation (NOP)
        Timestamps: TSval 3795, TSecr 189242655
            Kind: Timestamp (8)
            Length: 10
            Timestamp value: 3795
            Timestamp echo reply: 189242655
    [SEQ/ACK analysis]
        [Bytes in flight: 293]
Secure Sockets Layer
    TLSv1 Record Layer: Handshake Protocol: Client Key Exchange
        Content Type: Handshake (22)
        Version: TLS 1.0 (0x0301)
        Length: 134
        Handshake Protocol: Client Key Exchange
            Handshake Type: Client Key Exchange (16)
            Length: 130
    TLSv1 Record Layer: Change Cipher Spec Protocol: Change Cipher Spec
        Content Type: Change Cipher Spec (20)
        Version: TLS 1.0 (0x0301)
        Length: 1
        Change Cipher Spec Message
    TLSv1 Record Layer: Handshake Protocol: Encrypted Handshake Message
        Content Type: Handshake (22)
        Version: TLS 1.0 (0x0301)
        Length: 40
        Handshake Protocol: Encrypted Handshake Message

0000  40 4a 03 8d 62 30 00 19 c5 ea 13 f9 08 00 45 00   @J..b0........E.
0010  00 f2 00 10 40 00 40 06 5e f9 c0 a8 00 47 cb 69   ....@.@.^....G.i
0020  4e a4 e5 0d 01 bb d3 eb 55 37 2d 4e ce c9 80 18   N.......U7-N....
0030  44 70 e8 42 00 00 01 01 08 0a 00 00 0e d3 0b 47   Dp.B...........G
0040  9d 1f 16 03 01 00 86 10 00 00 82 00 80 08 48 f5   ..............H.
0050  20 7c 2c b7 c7 29 c1 a6 88 91 a8 ab b7 15 cf 95    |,..)..........
0060  cc f8 c4 55 f9 7c 94 d3 6a 15 c7 4d f1 ff fc 01   ...U.|..j..M....
0070  62 4d 21 5d 65 e4 79 83 c7 8c 59 9e 44 c8 d7 03   bM!]e.y...Y.D...
0080  07 bc c2 cb d2 7f de b5 bf d0 08 e8 d3 fb 0c f8   ................
0090  a3 19 66 74 78 28 a9 1b 14 2c 24 de 23 07 14 94   ..ftx(...,$.#...
00a0  d9 e8 2a a0 0f 5f 43 5b 4e f2 5f 83 8d 88 ef 34   ..*.._C[N._....4
00b0  a5 17 b4 0f 49 6c 2a e3 bf b0 24 84 29 81 f5 8c   ....Il*...$.)...
00c0  9c 63 c8 ff 5f d2 9f b5 14 d4 b6 ef a2 14 03 01   .c.._...........
00d0  00 01 01 16 03 01 00 28 40 b3 2f 98 61 fe 9e 88   .......(@./.a...
00e0  d8 8d 2a a1 e9 5c 5c 2f c2 3f ce 9a 17 88 3c 98   ..*..\\/.?....<.
00f0  8c 65 fb 38 fc 4b 02 f1 a4 c1 80 ed fa 10 22 c2   .e.8.K........".

No.     Time                       Source                Destination           Protocol Length Info
     73 2012-10-11 22:00:30.496115 192.168.0.71          203.105.78.164        TLSv1    391    Application Data

Frame 73: 391 bytes on wire (3128 bits), 391 bytes captured (3128 bits)
    Arrival Time: Oct 11, 2012 22:00:30.496115000 GTB Standard Time
    Epoch Time: 1349982030.496115000 seconds
    [Time delta from previous captured frame: 0.317789000 seconds]
    [Time delta from previous displayed frame: 0.317789000 seconds]
    [Time since reference or first frame: 698.208218000 seconds]
    Frame Number: 73
    Frame Length: 391 bytes (3128 bits)
    Capture Length: 391 bytes (3128 bits)
    [Frame is marked: False]
    [Frame is ignored: False]
    [Protocols in frame: eth:ip:tcp:ssl]
    [Coloring Rule Name: TCP]
    [Coloring Rule String: tcp]
Ethernet II, Src: SonyComp_ea:13:f9 (00:19:c5:ea:13:f9), Dst: ZyxelCom_8d:62:30 (40:4a:03:8d:62:30)
    Destination: ZyxelCom_8d:62:30 (40:4a:03:8d:62:30)
        Address: ZyxelCom_8d:62:30 (40:4a:03:8d:62:30)
        .... ...0 .... .... .... .... = IG bit: Individual address (unicast)
        .... ..0. .... .... .... .... = LG bit: Globally unique address (factory default)
    Source: SonyComp_ea:13:f9 (00:19:c5:ea:13:f9)
        Address: SonyComp_ea:13:f9 (00:19:c5:ea:13:f9)
        .... ...0 .... .... .... .... = IG bit: Individual address (unicast)
        .... ..0. .... .... .... .... = LG bit: Globally unique address (factory default)
    Type: IP (0x0800)
Internet Protocol Version 4, Src: 192.168.0.71 (192.168.0.71), Dst: 203.105.78.164 (203.105.78.164)
    Version: 4
    Header length: 20 bytes
    Differentiated Services Field: 0x00 (DSCP 0x00: Default; ECN: 0x00: Not-ECT (Not ECN-Capable Transport))
        0000 00.. = Differentiated Services Codepoint: Default (0x00)
        .... ..00 = Explicit Congestion Notification: Not-ECT (Not ECN-Capable Transport) (0x00)
    Total Length: 377
    Identification: 0x0011 (17)
    Flags: 0x02 (Don't Fragment)
        0... .... = Reserved bit: Not set
        .1.. .... = Don't fragment: Set
        ..0. .... = More fragments: Not set
    Fragment offset: 0
    Time to live: 64
    Protocol: TCP (6)
    Header checksum: 0x5e71 [correct]
        [Good: True]
        [Bad: False]
    Source: 192.168.0.71 (192.168.0.71)
    Destination: 203.105.78.164 (203.105.78.164)
Transmission Control Protocol, Src Port: 58637 (58637), Dst Port: https (443), Seq: 293, Ack: 2233, Len: 325
    Source port: 58637 (58637)
    Destination port: https (443)
    [Stream index: 5]
    Sequence number: 293    (relative sequence number)
    [Next sequence number: 618    (relative sequence number)]
    Acknowledgement number: 2233    (relative ack number)
    Header length: 32 bytes
    Flags: 0x018 (PSH, ACK)
        000. .... .... = Reserved: Not set
        ...0 .... .... = Nonce: Not set
        .... 0... .... = Congestion Window Reduced (CWR): Not set
        .... .0.. .... = ECN-Echo: Not set
        .... ..0. .... = Urgent: Not set
        .... ...1 .... = Acknowledgement: Set
        .... .... 1... = Push: Set
        .... .... .0.. = Reset: Not set
        .... .... ..0. = Syn: Not set
        .... .... ...0 = Fin: Not set
    Window size value: 17520
    [Calculated window size: 17520]
    [Window size scaling factor: 1]
    Checksum: 0x89f9 [validation disabled]
        [Good Checksum: False]
        [Bad Checksum: False]
    Options: (12 bytes)
        No-Operation (NOP)
        No-Operation (NOP)
        Timestamps: TSval 3796, TSecr 189242986
            Kind: Timestamp (8)
            Length: 10
            Timestamp value: 3796
            Timestamp echo reply: 189242986
    [SEQ/ACK analysis]
        [Bytes in flight: 618]
Secure Sockets Layer
    TLSv1 Record Layer: Application Data Protocol: http
        Content Type: Application Data (23)
        Version: TLS 1.0 (0x0301)
        Length: 320
        Encrypted Application Data: 47352582b45e12833b65dca47a722cdf9748f4d7109850b5...

0000  40 4a 03 8d 62 30 00 19 c5 ea 13 f9 08 00 45 00   @J..b0........E.
0010  01 79 00 11 40 00 40 06 5e 71 c0 a8 00 47 cb 69   .y..@.@.^q...G.i
0020  4e a4 e5 0d 01 bb d3 eb 55 f5 2d 4e ce fc 80 18   N.......U.-N....
0030  44 70 89 f9 00 00 01 01 08 0a 00 00 0e d4 0b 47   Dp.............G
0040  9e 6a 17 03 01 01 40 47 35 25 82 b4 5e 12 83 3b   .j....@G5%..^..;
0050  65 dc a4 7a 72 2c df 97 48 f4 d7 10 98 50 b5 dc   e..zr,..H....P..
0060  6b d3 fd b8 c0 cb b9 a2 ed 78 8a 10 6c 1d 76 a7   k........x..l.v.
0070  28 3b 75 14 b6 22 21 ae de 7a 72 67 db b2 c5 a2   (;u.."!..zrg....
0080  81 e8 8d 7f 96 1c 50 7a fd 7c c6 5a b2 bf 4b 0e   ......Pz.|.Z..K.
0090  1e 7d c2 ae 51 51 9d e9 2c 2f b8 c3 b0 a1 65 7e   .}..QQ..,/....e~
00a0  52 d6 59 a1 18 43 3f f5 40 a8 44 15 93 2f 9f 6c   R.Y..C?.@.D../.l
00b0  c1 74 f5 40 fc b8 24 b8 dc 0a 3c ec 22 8f 6b 66   .t.@..$...<.".kf
00c0  88 dd 58 3b eb a3 76 47 6e da f6 00 8c e0 c0 cb   ..X;..vGn.......
00d0  66 8a d2 77 43 79 86 c5 17 80 c6 6b 2e d8 81 3d   f..wCy.....k...=
00e0  7f e9 62 18 57 52 68 3d 14 f0 70 bb 05 73 f9 2a   ..b.WRh=..p..s.*
00f0  76 04 bf de 69 f6 4f 80 db 99 2a 28 c9 c1 62 70   v...i.O...*(..bp
0100  a0 c8 d2 a6 4e 5e d6 e6 0d e5 51 be 35 89 f7 fe   ....N^....Q.5...
0110  71 09 c0 26 e2 1e a8 22 90 31 f7 42 28 58 b7 83   q..&...".1.B(X..
0120  1a 7a c9 af cb e2 e8 3b e9 7e e9 3c bb ae 61 30   .z.....;.~.<..a0
0130  1a 99 84 91 ce c6 84 ab 6c dc a6 22 6b cb c8 8a   ........l.."k...
0140  23 97 ee e5 b5 51 f8 46 9c ed 26 92 b3 3d 25 71   #....Q.F..&..=%q
0150  1d 2a 02 e1 0c 5f 2d b9 a6 6b 31 8d 21 c1 5e 20   .*..._-..k1.!.^ 
0160  ef 83 4b d0 26 99 3c 63 e8 a6 b5 e0 76 d3 2a ef   ..K.&.<c....v.*.
0170  82 e5 20 f9 a0 68 44 5c a9 ce 77 54 29 a2 cb 6d   .. ..hD\..wT)..m
0180  0b bc c7 c7 5a 49 55                              ....ZIU

No.     Time                       Source                Destination           Protocol Length Info
     74 2012-10-11 22:00:30.807069 192.168.0.71          203.105.78.164        TCP      66     58637 > https [ACK] Seq=618 Ack=2552 Win=17201 Len=0 TSval=3797 TSecr=189243307

Frame 74: 66 bytes on wire (528 bits), 66 bytes captured (528 bits)
    Arrival Time: Oct 11, 2012 22:00:30.807069000 GTB Standard Time
    Epoch Time: 1349982030.807069000 seconds
    [Time delta from previous captured frame: 0.310954000 seconds]
    [Time delta from previous displayed frame: 0.310954000 seconds]
    [Time since reference or first frame: 698.519172000 seconds]
    Frame Number: 74
    Frame Length: 66 bytes (528 bits)
    Capture Length: 66 bytes (528 bits)
    [Frame is marked: False]
    [Frame is ignored: False]
    [Protocols in frame: eth:ip:tcp]
    [Coloring Rule Name: TCP]
    [Coloring Rule String: tcp]
Ethernet II, Src: SonyComp_ea:13:f9 (00:19:c5:ea:13:f9), Dst: ZyxelCom_8d:62:30 (40:4a:03:8d:62:30)
    Destination: ZyxelCom_8d:62:30 (40:4a:03:8d:62:30)
        Address: ZyxelCom_8d:62:30 (40:4a:03:8d:62:30)
        .... ...0 .... .... .... .... = IG bit: Individual address (unicast)
        .... ..0. .... .... .... .... = LG bit: Globally unique address (factory default)
    Source: SonyComp_ea:13:f9 (00:19:c5:ea:13:f9)
        Address: SonyComp_ea:13:f9 (00:19:c5:ea:13:f9)
        .... ...0 .... .... .... .... = IG bit: Individual address (unicast)
        .... ..0. .... .... .... .... = LG bit: Globally unique address (factory default)
    Type: IP (0x0800)
Internet Protocol Version 4, Src: 192.168.0.71 (192.168.0.71), Dst: 203.105.78.164 (203.105.78.164)
    Version: 4
    Header length: 20 bytes
    Differentiated Services Field: 0x00 (DSCP 0x00: Default; ECN: 0x00: Not-ECT (Not ECN-Capable Transport))
        0000 00.. = Differentiated Services Codepoint: Default (0x00)
        .... ..00 = Explicit Congestion Notification: Not-ECT (Not ECN-Capable Transport) (0x00)
    Total Length: 52
    Identification: 0x0012 (18)
    Flags: 0x02 (Don't Fragment)
        0... .... = Reserved bit: Not set
        .1.. .... = Don't fragment: Set
        ..0. .... = More fragments: Not set
    Fragment offset: 0
    Time to live: 64
    Protocol: TCP (6)
    Header checksum: 0x5fb5 [correct]
        [Good: True]
        [Bad: False]
    Source: 192.168.0.71 (192.168.0.71)
    Destination: 203.105.78.164 (203.105.78.164)
Transmission Control Protocol, Src Port: 58637 (58637), Dst Port: https (443), Seq: 618, Ack: 2552, Len: 0
    Source port: 58637 (58637)
    Destination port: https (443)
    [Stream index: 5]
    Sequence number: 618    (relative sequence number)
    Acknowledgement number: 2552    (relative ack number)
    Header length: 32 bytes
    Flags: 0x010 (ACK)
        000. .... .... = Reserved: Not set
        ...0 .... .... = Nonce: Not set
        .... 0... .... = Congestion Window Reduced (CWR): Not set
        .... .0.. .... = ECN-Echo: Not set
        .... ..0. .... = Urgent: Not set
        .... ...1 .... = Acknowledgement: Set
        .... .... 0... = Push: Not set
        .... .... .0.. = Reset: Not set
        .... .... ..0. = Syn: Not set
        .... .... ...0 = Fin: Not set
    Window size value: 17201
    [Calculated window size: 17201]
    [Window size scaling factor: 1]
    Checksum: 0x8f4e [validation disabled]
        [Good Checksum: False]
        [Bad Checksum: False]
    Options: (12 bytes)
        No-Operation (NOP)
        No-Operation (NOP)
        Timestamps: TSval 3797, TSecr 189243307
            Kind: Timestamp (8)
            Length: 10
            Timestamp value: 3797
            Timestamp echo reply: 189243307

0000  40 4a 03 8d 62 30 00 19 c5 ea 13 f9 08 00 45 00   @J..b0........E.
0010  00 34 00 12 40 00 40 06 5f b5 c0 a8 00 47 cb 69   .4..@.@._....G.i
0020  4e a4 e5 0d 01 bb d3 eb 57 3a 2d 4e d0 3b 80 10   N.......W:-N.;..
0030  43 31 8f 4e 00 00 01 01 08 0a 00 00 0e d5 0b 47   C1.N...........G
0040  9f ab                                             ..

No.     Time                       Source                Destination           Protocol Length Info
     75 2012-10-11 22:00:30.822200 192.168.0.71          203.105.78.164        TLSv1    95     Encrypted Alert

Frame 75: 95 bytes on wire (760 bits), 95 bytes captured (760 bits)
    Arrival Time: Oct 11, 2012 22:00:30.822200000 GTB Standard Time
    Epoch Time: 1349982030.822200000 seconds
    [Time delta from previous captured frame: 0.015131000 seconds]
    [Time delta from previous displayed frame: 0.015131000 seconds]
    [Time since reference or first frame: 698.534303000 seconds]
    Frame Number: 75
    Frame Length: 95 bytes (760 bits)
    Capture Length: 95 bytes (760 bits)
    [Frame is marked: False]
    [Frame is ignored: False]
    [Protocols in frame: eth:ip:tcp:ssl]
    [Coloring Rule Name: TCP]
    [Coloring Rule String: tcp]
Ethernet II, Src: SonyComp_ea:13:f9 (00:19:c5:ea:13:f9), Dst: ZyxelCom_8d:62:30 (40:4a:03:8d:62:30)
    Destination: ZyxelCom_8d:62:30 (40:4a:03:8d:62:30)
        Address: ZyxelCom_8d:62:30 (40:4a:03:8d:62:30)
        .... ...0 .... .... .... .... = IG bit: Individual address (unicast)
        .... ..0. .... .... .... .... = LG bit: Globally unique address (factory default)
    Source: SonyComp_ea:13:f9 (00:19:c5:ea:13:f9)
        Address: SonyComp_ea:13:f9 (00:19:c5:ea:13:f9)
        .... ...0 .... .... .... .... = IG bit: Individual address (unicast)
        .... ..0. .... .... .... .... = LG bit: Globally unique address (factory default)
    Type: IP (0x0800)
Internet Protocol Version 4, Src: 192.168.0.71 (192.168.0.71), Dst: 203.105.78.164 (203.105.78.164)
    Version: 4
    Header length: 20 bytes
    Differentiated Services Field: 0x00 (DSCP 0x00: Default; ECN: 0x00: Not-ECT (Not ECN-Capable Transport))
        0000 00.. = Differentiated Services Codepoint: Default (0x00)
        .... ..00 = Explicit Congestion Notification: Not-ECT (Not ECN-Capable Transport) (0x00)
    Total Length: 81
    Identification: 0x0013 (19)
    Flags: 0x02 (Don't Fragment)
        0... .... = Reserved bit: Not set
        .1.. .... = Don't fragment: Set
        ..0. .... = More fragments: Not set
    Fragment offset: 0
    Time to live: 64
    Protocol: TCP (6)
    Header checksum: 0x5f97 [correct]
        [Good: True]
        [Bad: False]
    Source: 192.168.0.71 (192.168.0.71)
    Destination: 203.105.78.164 (203.105.78.164)
Transmission Control Protocol, Src Port: 58637 (58637), Dst Port: https (443), Seq: 618, Ack: 2552, Len: 29
    Source port: 58637 (58637)
    Destination port: https (443)
    [Stream index: 5]
    Sequence number: 618    (relative sequence number)
    [Next sequence number: 647    (relative sequence number)]
    Acknowledgement number: 2552    (relative ack number)
    Header length: 32 bytes
    Flags: 0x018 (PSH, ACK)
        000. .... .... = Reserved: Not set
        ...0 .... .... = Nonce: Not set
        .... 0... .... = Congestion Window Reduced (CWR): Not set
        .... .0.. .... = ECN-Echo: Not set
        .... ..0. .... = Urgent: Not set
        .... ...1 .... = Acknowledgement: Set
        .... .... 1... = Push: Set
        .... .... .0.. = Reset: Not set
        .... .... ..0. = Syn: Not set
        .... .... ...0 = Fin: Not set
    Window size value: 17491
    [Calculated window size: 17491]
    [Window size scaling factor: 1]
    Checksum: 0x6716 [validation disabled]
        [Good Checksum: False]
        [Bad Checksum: False]
    Options: (12 bytes)
        No-Operation (NOP)
        No-Operation (NOP)
        Timestamps: TSval 3797, TSecr 189243307
            Kind: Timestamp (8)
            Length: 10
            Timestamp value: 3797
            Timestamp echo reply: 189243307
    [SEQ/ACK analysis]
        [Bytes in flight: 647]
Secure Sockets Layer
    TLSv1 Record Layer: Encrypted Alert
        Content Type: Alert (21)
        Version: TLS 1.0 (0x0301)
        Length: 24
        Alert Message: Encrypted Alert

0000  40 4a 03 8d 62 30 00 19 c5 ea 13 f9 08 00 45 00   @J..b0........E.
0010  00 51 00 13 40 00 40 06 5f 97 c0 a8 00 47 cb 69   .Q..@.@._....G.i
0020  4e a4 e5 0d 01 bb d3 eb 57 3a 2d 4e d0 3b 80 18   N.......W:-N.;..
0030  44 53 67 16 00 00 01 01 08 0a 00 00 0e d5 0b 47   DSg............G
0040  9f ab 15 03 01 00 18 28 4d 20 91 a6 31 da 30 c1   .......(M ..1.0.
0050  4a 69 b3 1d cf 0d 98 e0 ea 34 a3 17 90 a1 34      Ji.......4....4

No.     Time                       Source                Destination           Protocol Length Info
     76 2012-10-11 22:00:30.823505 192.168.0.71          203.105.78.164        TCP      66     58637 > https [FIN, ACK] Seq=647 Ack=2552 Win=17491 Len=0 TSval=3797 TSecr=189243307

Frame 76: 66 bytes on wire (528 bits), 66 bytes captured (528 bits)
    Arrival Time: Oct 11, 2012 22:00:30.823505000 GTB Standard Time
    Epoch Time: 1349982030.823505000 seconds
    [Time delta from previous captured frame: 0.001305000 seconds]
    [Time delta from previous displayed frame: 0.001305000 seconds]
    [Time since reference or first frame: 698.535608000 seconds]
    Frame Number: 76
    Frame Length: 66 bytes (528 bits)
    Capture Length: 66 bytes (528 bits)
    [Frame is marked: False]
    [Frame is ignored: False]
    [Protocols in frame: eth:ip:tcp]
    [Coloring Rule Name: TCP SYN/FIN]
    [Coloring Rule String: tcp.flags & 0x02 || tcp.flags.fin == 1]
Ethernet II, Src: SonyComp_ea:13:f9 (00:19:c5:ea:13:f9), Dst: ZyxelCom_8d:62:30 (40:4a:03:8d:62:30)
    Destination: ZyxelCom_8d:62:30 (40:4a:03:8d:62:30)
        Address: ZyxelCom_8d:62:30 (40:4a:03:8d:62:30)
        .... ...0 .... .... .... .... = IG bit: Individual address (unicast)
        .... ..0. .... .... .... .... = LG bit: Globally unique address (factory default)
    Source: SonyComp_ea:13:f9 (00:19:c5:ea:13:f9)
        Address: SonyComp_ea:13:f9 (00:19:c5:ea:13:f9)
        .... ...0 .... .... .... .... = IG bit: Individual address (unicast)
        .... ..0. .... .... .... .... = LG bit: Globally unique address (factory default)
    Type: IP (0x0800)
Internet Protocol Version 4, Src: 192.168.0.71 (192.168.0.71), Dst: 203.105.78.164 (203.105.78.164)
    Version: 4
    Header length: 20 bytes
    Differentiated Services Field: 0x00 (DSCP 0x00: Default; ECN: 0x00: Not-ECT (Not ECN-Capable Transport))
        0000 00.. = Differentiated Services Codepoint: Default (0x00)
        .... ..00 = Explicit Congestion Notification: Not-ECT (Not ECN-Capable Transport) (0x00)
    Total Length: 52
    Identification: 0x0014 (20)
    Flags: 0x02 (Don't Fragment)
        0... .... = Reserved bit: Not set
        .1.. .... = Don't fragment: Set
        ..0. .... = More fragments: Not set
    Fragment offset: 0
    Time to live: 64
    Protocol: TCP (6)
    Header checksum: 0x5fb3 [correct]
        [Good: True]
        [Bad: False]
    Source: 192.168.0.71 (192.168.0.71)
    Destination: 203.105.78.164 (203.105.78.164)
Transmission Control Protocol, Src Port: 58637 (58637), Dst Port: https (443), Seq: 647, Ack: 2552, Len: 0
    Source port: 58637 (58637)
    Destination port: https (443)
    [Stream index: 5]
    Sequence number: 647    (relative sequence number)
    Acknowledgement number: 2552    (relative ack number)
    Header length: 32 bytes
    Flags: 0x011 (FIN, ACK)
        000. .... .... = Reserved: Not set
        ...0 .... .... = Nonce: Not set
        .... 0... .... = Congestion Window Reduced (CWR): Not set
        .... .0.. .... = ECN-Echo: Not set
        .... ..0. .... = Urgent: Not set
