No.     Time                       Source                Destination           Protocol Length Info
      1 2012-10-11 22:08:42.005096 192.168.0.71          69.10.30.242          TCP      74     58625 > 29900 [SYN] Seq=0 Win=16384 Len=0 MSS=1460 WS=1 TSval=4779 TSecr=0

Frame 1: 74 bytes on wire (592 bits), 74 bytes captured (592 bits)
    Arrival Time: Oct 11, 2012 22:08:42.005096000 GTB Standard Time
    Epoch Time: 1349982522.005096000 seconds
    [Time delta from previous captured frame: 0.000000000 seconds]
    [Time delta from previous displayed frame: 0.000000000 seconds]
    [Time since reference or first frame: 0.000000000 seconds]
    Frame Number: 1
    Frame Length: 74 bytes (592 bits)
    Capture Length: 74 bytes (592 bits)
    [Frame is marked: False]
    [Frame is ignored: False]
    [Protocols in frame: eth:ip:tcp]
    [Coloring Rule Name: TCP SYN/FIN]
    [Coloring Rule String: tcp.flags & 0x02 || tcp.flags.fin == 1]
Ethernet II, Src: SonyComp_ea:13:f9 (00:19:c5:ea:13:f9), Dst: ZyxelCom_8d:62:30 (40:4a:03:8d:62:30)
    Destination: ZyxelCom_8d:62:30 (40:4a:03:8d:62:30)
        Address: ZyxelCom_8d:62:30 (40:4a:03:8d:62:30)
        .... ...0 .... .... .... .... = IG bit: Individual address (unicast)
        .... ..0. .... .... .... .... = LG bit: Globally unique address (factory default)
    Source: SonyComp_ea:13:f9 (00:19:c5:ea:13:f9)
        Address: SonyComp_ea:13:f9 (00:19:c5:ea:13:f9)
        .... ...0 .... .... .... .... = IG bit: Individual address (unicast)
        .... ..0. .... .... .... .... = LG bit: Globally unique address (factory default)
    Type: IP (0x0800)
Internet Protocol Version 4, Src: 192.168.0.71 (192.168.0.71), Dst: 69.10.30.242 (69.10.30.242)
    Version: 4
    Header length: 20 bytes
    Differentiated Services Field: 0x00 (DSCP 0x00: Default; ECN: 0x00: Not-ECT (Not ECN-Capable Transport))
        0000 00.. = Differentiated Services Codepoint: Default (0x00)
        .... ..00 = Explicit Congestion Notification: Not-ECT (Not ECN-Capable Transport) (0x00)
    Total Length: 60
    Identification: 0x008f (143)
    Flags: 0x02 (Don't Fragment)
        0... .... = Reserved bit: Not set
        .1.. .... = Don't fragment: Set
        ..0. .... = More fragments: Not set
    Fragment offset: 0
    Time to live: 64
    Protocol: TCP (6)
    Header checksum: 0x1542 [correct]
        [Good: True]
        [Bad: False]
    Source: 192.168.0.71 (192.168.0.71)
    Destination: 69.10.30.242 (69.10.30.242)
Transmission Control Protocol, Src Port: 58625 (58625), Dst Port: 29900 (29900), Seq: 0, Len: 0
    Source port: 58625 (58625)
    Destination port: 29900 (29900)
    [Stream index: 0]
    Sequence number: 0    (relative sequence number)
    Header length: 40 bytes
    Flags: 0x002 (SYN)
        000. .... .... = Reserved: Not set
        ...0 .... .... = Nonce: Not set
        .... 0... .... = Congestion Window Reduced (CWR): Not set
        .... .0.. .... = ECN-Echo: Not set
        .... ..0. .... = Urgent: Not set
        .... ...0 .... = Acknowledgement: Not set
        .... .... 0... = Push: Not set
        .... .... .0.. = Reset: Not set
        .... .... ..1. = Syn: Set
            [Expert Info (Chat/Sequence): Connection establish request (SYN): server port 29900]
                [Message: Connection establish request (SYN): server port 29900]
                [Severity level: Chat]
                [Group: Sequence]
        .... .... ...0 = Fin: Not set
    Window size value: 16384
    [Calculated window size: 16384]
    Checksum: 0xfdef [validation disabled]
        [Good Checksum: False]
        [Bad Checksum: False]
    Options: (20 bytes)
        Maximum segment size: 1460 bytes
        No-Operation (NOP)
        Window scale: 0 (multiply by 1)
            Kind: Window Scale (3)
            Length: 3
            Shift count: 0
            [Multiplier: 1]
        No-Operation (NOP)
        No-Operation (NOP)
        Timestamps: TSval 4779, TSecr 0
            Kind: Timestamp (8)
            Length: 10
            Timestamp value: 4779
            Timestamp echo reply: 0

0000  40 4a 03 8d 62 30 00 19 c5 ea 13 f9 08 00 45 00   @J..b0........E.
0010  00 3c 00 8f 40 00 40 06 15 42 c0 a8 00 47 45 0a   .<..@.@..B...GE.
0020  1e f2 e5 01 74 cc b8 50 c3 62 00 00 00 00 a0 02   ....t..P.b......
0030  40 00 fd ef 00 00 02 04 05 b4 01 03 03 00 01 01   @...............
0040  08 0a 00 00 12 ab 00 00 00 00                     ..........

No.     Time                       Source                Destination           Protocol Length Info
      3 2012-10-11 22:08:42.217714 192.168.0.71          69.10.30.242          TCP      66     58625 > 29900 [ACK] Seq=1 Ack=1 Win=17520 Len=0 TSval=4779 TSecr=0

Frame 3: 66 bytes on wire (528 bits), 66 bytes captured (528 bits)
    Arrival Time: Oct 11, 2012 22:08:42.217714000 GTB Standard Time
    Epoch Time: 1349982522.217714000 seconds
    [Time delta from previous captured frame: 0.000522000 seconds]
    [Time delta from previous displayed frame: 0.212618000 seconds]
    [Time since reference or first frame: 0.212618000 seconds]
    Frame Number: 3
    Frame Length: 66 bytes (528 bits)
    Capture Length: 66 bytes (528 bits)
    [Frame is marked: False]
    [Frame is ignored: False]
    [Protocols in frame: eth:ip:tcp]
    [Coloring Rule Name: TCP]
    [Coloring Rule String: tcp]
Ethernet II, Src: SonyComp_ea:13:f9 (00:19:c5:ea:13:f9), Dst: ZyxelCom_8d:62:30 (40:4a:03:8d:62:30)
    Destination: ZyxelCom_8d:62:30 (40:4a:03:8d:62:30)
        Address: ZyxelCom_8d:62:30 (40:4a:03:8d:62:30)
        .... ...0 .... .... .... .... = IG bit: Individual address (unicast)
        .... ..0. .... .... .... .... = LG bit: Globally unique address (factory default)
    Source: SonyComp_ea:13:f9 (00:19:c5:ea:13:f9)
        Address: SonyComp_ea:13:f9 (00:19:c5:ea:13:f9)
        .... ...0 .... .... .... .... = IG bit: Individual address (unicast)
        .... ..0. .... .... .... .... = LG bit: Globally unique address (factory default)
    Type: IP (0x0800)
Internet Protocol Version 4, Src: 192.168.0.71 (192.168.0.71), Dst: 69.10.30.242 (69.10.30.242)
    Version: 4
    Header length: 20 bytes
    Differentiated Services Field: 0x00 (DSCP 0x00: Default; ECN: 0x00: Not-ECT (Not ECN-Capable Transport))
        0000 00.. = Differentiated Services Codepoint: Default (0x00)
        .... ..00 = Explicit Congestion Notification: Not-ECT (Not ECN-Capable Transport) (0x00)
    Total Length: 52
    Identification: 0x0090 (144)
    Flags: 0x02 (Don't Fragment)
        0... .... = Reserved bit: Not set
        .1.. .... = Don't fragment: Set
        ..0. .... = More fragments: Not set
    Fragment offset: 0
    Time to live: 64
    Protocol: TCP (6)
    Header checksum: 0x1549 [correct]
        [Good: True]
        [Bad: False]
    Source: 192.168.0.71 (192.168.0.71)
    Destination: 69.10.30.242 (69.10.30.242)
Transmission Control Protocol, Src Port: 58625 (58625), Dst Port: 29900 (29900), Seq: 1, Ack: 1, Len: 0
    Source port: 58625 (58625)
    Destination port: 29900 (29900)
    [Stream index: 0]
    Sequence number: 1    (relative sequence number)
    Acknowledgement number: 1    (relative ack number)
    Header length: 32 bytes
    Flags: 0x010 (ACK)
        000. .... .... = Reserved: Not set
        ...0 .... .... = Nonce: Not set
        .... 0... .... = Congestion Window Reduced (CWR): Not set
        .... .0.. .... = ECN-Echo: Not set
        .... ..0. .... = Urgent: Not set
        .... ...1 .... = Acknowledgement: Set
        .... .... 0... = Push: Not set
        .... .... .0.. = Reset: Not set
        .... .... ..0. = Syn: Not set
        .... .... ...0 = Fin: Not set
    Window size value: 17520
    [Calculated window size: 17520]
    [Window size scaling factor: 1]
    Checksum: 0xf57b [validation disabled]
        [Good Checksum: False]
        [Bad Checksum: False]
    Options: (12 bytes)
        No-Operation (NOP)
        No-Operation (NOP)
        Timestamps: TSval 4779, TSecr 0
            Kind: Timestamp (8)
            Length: 10
            Timestamp value: 4779
            Timestamp echo reply: 0

0000  40 4a 03 8d 62 30 00 19 c5 ea 13 f9 08 00 45 00   @J..b0........E.
0010  00 34 00 90 40 00 40 06 15 49 c0 a8 00 47 45 0a   .4..@.@..I...GE.
0020  1e f2 e5 01 74 cc b8 50 c3 63 20 c9 0e ef 80 10   ....t..P.c .....
0030  44 70 f5 7b 00 00 01 01 08 0a 00 00 12 ab 00 00   Dp.{............
0040  00 00                                             ..

No.     Time                       Source                Destination           Protocol Length Info
      4 2012-10-11 22:08:42.464394 192.168.0.71          69.10.30.242          TCP      264    58625 > 29900 [PSH, ACK] Seq=1 Ack=39 Win=17520 Len=198 TSval=4780 TSecr=26298091

Frame 4: 264 bytes on wire (2112 bits), 264 bytes captured (2112 bits)
    Arrival Time: Oct 11, 2012 22:08:42.464394000 GTB Standard Time
    Epoch Time: 1349982522.464394000 seconds
    [Time delta from previous captured frame: 0.246680000 seconds]
    [Time delta from previous displayed frame: 0.246680000 seconds]
    [Time since reference or first frame: 0.459298000 seconds]
    Frame Number: 4
    Frame Length: 264 bytes (2112 bits)
    Capture Length: 264 bytes (2112 bits)
    [Frame is marked: False]
    [Frame is ignored: False]
    [Protocols in frame: eth:ip:tcp:data]
    [Coloring Rule Name: TCP]
    [Coloring Rule String: tcp]
Ethernet II, Src: SonyComp_ea:13:f9 (00:19:c5:ea:13:f9), Dst: ZyxelCom_8d:62:30 (40:4a:03:8d:62:30)
    Destination: ZyxelCom_8d:62:30 (40:4a:03:8d:62:30)
        Address: ZyxelCom_8d:62:30 (40:4a:03:8d:62:30)
        .... ...0 .... .... .... .... = IG bit: Individual address (unicast)
        .... ..0. .... .... .... .... = LG bit: Globally unique address (factory default)
    Source: SonyComp_ea:13:f9 (00:19:c5:ea:13:f9)
        Address: SonyComp_ea:13:f9 (00:19:c5:ea:13:f9)
        .... ...0 .... .... .... .... = IG bit: Individual address (unicast)
        .... ..0. .... .... .... .... = LG bit: Globally unique address (factory default)
    Type: IP (0x0800)
Internet Protocol Version 4, Src: 192.168.0.71 (192.168.0.71), Dst: 69.10.30.242 (69.10.30.242)
    Version: 4
    Header length: 20 bytes
    Differentiated Services Field: 0x00 (DSCP 0x00: Default; ECN: 0x00: Not-ECT (Not ECN-Capable Transport))
        0000 00.. = Differentiated Services Codepoint: Default (0x00)
        .... ..00 = Explicit Congestion Notification: Not-ECT (Not ECN-Capable Transport) (0x00)
    Total Length: 250
    Identification: 0x0091 (145)
    Flags: 0x02 (Don't Fragment)
        0... .... = Reserved bit: Not set
        .1.. .... = Don't fragment: Set
        ..0. .... = More fragments: Not set
    Fragment offset: 0
    Time to live: 64
    Protocol: TCP (6)
    Header checksum: 0x1482 [correct]
        [Good: True]
        [Bad: False]
    Source: 192.168.0.71 (192.168.0.71)
    Destination: 69.10.30.242 (69.10.30.242)
Transmission Control Protocol, Src Port: 58625 (58625), Dst Port: 29900 (29900), Seq: 1, Ack: 39, Len: 198
    Source port: 58625 (58625)
    Destination port: 29900 (29900)
    [Stream index: 0]
    Sequence number: 1    (relative sequence number)
    [Next sequence number: 199    (relative sequence number)]
    Acknowledgement number: 39    (relative ack number)
    Header length: 32 bytes
    Flags: 0x018 (PSH, ACK)
        000. .... .... = Reserved: Not set
        ...0 .... .... = Nonce: Not set
        .... 0... .... = Congestion Window Reduced (CWR): Not set
        .... .0.. .... = ECN-Echo: Not set
        .... ..0. .... = Urgent: Not set
        .... ...1 .... = Acknowledgement: Set
        .... .... 1... = Push: Set
        .... .... .0.. = Reset: Not set
        .... .... ..0. = Syn: Not set
        .... .... ...0 = Fin: Not set
    Window size value: 17520
    [Calculated window size: 17520]
    [Window size scaling factor: 1]
    Checksum: 0xe764 [validation disabled]
        [Good Checksum: False]
        [Bad Checksum: False]
    Options: (12 bytes)
        No-Operation (NOP)
        No-Operation (NOP)
        Timestamps: TSval 4780, TSecr 26298091
            Kind: Timestamp (8)
            Length: 10
            Timestamp value: 4780
            Timestamp echo reply: 26298091
    [SEQ/ACK analysis]
        [Bytes in flight: 199]
Data (198 bytes)
    Data: 5c6c6f67696e5c5c6368616c6c656e67655c485362416a4d...
    [Length: 198]

0000  40 4a 03 8d 62 30 00 19 c5 ea 13 f9 08 00 45 00   @J..b0........E.
0010  00 fa 00 91 40 00 40 06 14 82 c0 a8 00 47 45 0a   ....@.@......GE.
0020  1e f2 e5 01 74 cc b8 50 c3 63 20 c9 0f 15 80 18   ....t..P.c .....
0030  44 70 e7 64 00 00 01 01 08 0a 00 00 12 ac 01 91   Dp.d............
0040  46 eb 5c 6c 6f 67 69 6e 5c 5c 63 68 61 6c 6c 65   F.\login\\challe
0050  6e 67 65 5c 48 53 62 41 6a 4d 72 4d 68 57 4c 43   nge\HSbAjMrMhWLC
0060  68 61 5a 41 5a 65 31 4d 33 4b 56 4d 4e 77 4e 4f   haZAZe1M3KVMNwNO
0070  37 43 4e 38 5c 75 6e 69 71 75 65 6e 69 63 6b 5c   7CN8\uniquenick\
0080  62 61 6a 73 6d 61 6e 6e 65 6e 5c 72 65 73 70 6f   bajsmannen\respo
0090  6e 73 65 5c 32 34 39 38 34 66 65 38 37 62 64 63   nse\24984fe87bdc
00a0  39 35 64 36 32 65 30 65 63 37 37 65 31 66 34 36   95d62e0ec77e1f46
00b0  66 37 36 35 5c 66 69 72 65 77 61 6c 6c 5c 31 5c   f765\firewall\1\
00c0  70 6f 72 74 5c 30 5c 70 72 6f 64 75 63 74 69 64   port\0\productid
00d0  5c 31 30 33 30 37 5c 67 61 6d 65 6e 61 6d 65 5c   \10307\gamename\
00e0  62 66 69 65 6c 64 31 39 34 32 70 73 32 5c 6e 61   bfield1942ps2\na
00f0  6d 65 73 70 61 63 65 69 64 5c 31 33 5c 69 64 5c   mespaceid\13\id\
0100  31 5c 66 69 6e 61 6c 5c                           1\final\

No.     Time                       Source                Destination           Protocol Length Info
      5 2012-10-11 22:08:42.705273 192.168.0.71          69.10.24.135          TCP      74     58624 > http [SYN] Seq=0 Win=16384 Len=0 MSS=1460 WS=1 TSval=4780 TSecr=0

Frame 5: 74 bytes on wire (592 bits), 74 bytes captured (592 bits)
    Arrival Time: Oct 11, 2012 22:08:42.705273000 GTB Standard Time
    Epoch Time: 1349982522.705273000 seconds
    [Time delta from previous captured frame: 0.240879000 seconds]
    [Time delta from previous displayed frame: 0.240879000 seconds]
    [Time since reference or first frame: 0.700177000 seconds]
    Frame Number: 5
    Frame Length: 74 bytes (592 bits)
    Capture Length: 74 bytes (592 bits)
    [Frame is marked: False]
    [Frame is ignored: False]
    [Protocols in frame: eth:ip:tcp]
    [Coloring Rule Name: HTTP]
    [Coloring Rule String: http || tcp.port == 80]
Ethernet II, Src: SonyComp_ea:13:f9 (00:19:c5:ea:13:f9), Dst: ZyxelCom_8d:62:30 (40:4a:03:8d:62:30)
    Destination: ZyxelCom_8d:62:30 (40:4a:03:8d:62:30)
        Address: ZyxelCom_8d:62:30 (40:4a:03:8d:62:30)
        .... ...0 .... .... .... .... = IG bit: Individual address (unicast)
        .... ..0. .... .... .... .... = LG bit: Globally unique address (factory default)
    Source: SonyComp_ea:13:f9 (00:19:c5:ea:13:f9)
        Address: SonyComp_ea:13:f9 (00:19:c5:ea:13:f9)
        .... ...0 .... .... .... .... = IG bit: Individual address (unicast)
        .... ..0. .... .... .... .... = LG bit: Globally unique address (factory default)
    Type: IP (0x0800)
Internet Protocol Version 4, Src: 192.168.0.71 (192.168.0.71), Dst: 69.10.24.135 (69.10.24.135)
    Version: 4
    Header length: 20 bytes
    Differentiated Services Field: 0x00 (DSCP 0x00: Default; ECN: 0x00: Not-ECT (Not ECN-Capable Transport))
        0000 00.. = Differentiated Services Codepoint: Default (0x00)
        .... ..00 = Explicit Congestion Notification: Not-ECT (Not ECN-Capable Transport) (0x00)
    Total Length: 60
    Identification: 0x0092 (146)
    Flags: 0x02 (Don't Fragment)
        0... .... = Reserved bit: Not set
        .1.. .... = Don't fragment: Set
        ..0. .... = More fragments: Not set
    Fragment offset: 0
    Time to live: 64
    Protocol: TCP (6)
    Header checksum: 0x1baa [correct]
        [Good: True]
        [Bad: False]
    Source: 192.168.0.71 (192.168.0.71)
    Destination: 69.10.24.135 (69.10.24.135)
Transmission Control Protocol, Src Port: 58624 (58624), Dst Port: http (80), Seq: 0, Len: 0
    Source port: 58624 (58624)
    Destination port: http (80)
    [Stream index: 1]
    Sequence number: 0    (relative sequence number)
    Header length: 40 bytes
    Flags: 0x002 (SYN)
        000. .... .... = Reserved: Not set
        ...0 .... .... = Nonce: Not set
        .... 0... .... = Congestion Window Reduced (CWR): Not set
        .... .0.. .... = ECN-Echo: Not set
        .... ..0. .... = Urgent: Not set
        .... ...0 .... = Acknowledgement: Not set
        .... .... 0... = Push: Not set
        .... .... .0.. = Reset: Not set
        .... .... ..1. = Syn: Set
            [Expert Info (Chat/Sequence): Connection establish request (SYN): server port http]
                [Message: Connection establish request (SYN): server port http]
                [Severity level: Chat]
                [Group: Sequence]
        .... .... ...0 = Fin: Not set
    Window size value: 16384
    [Calculated window size: 16384]
    Checksum: 0xc567 [validation disabled]
        [Good Checksum: False]
        [Bad Checksum: False]
    Options: (20 bytes)
        Maximum segment size: 1460 bytes
        No-Operation (NOP)
        Window scale: 0 (multiply by 1)
            Kind: Window Scale (3)
            Length: 3
            Shift count: 0
            [Multiplier: 1]
        No-Operation (NOP)
        No-Operation (NOP)
        Timestamps: TSval 4780, TSecr 0
            Kind: Timestamp (8)
            Length: 10
            Timestamp value: 4780
            Timestamp echo reply: 0

0000  40 4a 03 8d 62 30 00 19 c5 ea 13 f9 08 00 45 00   @J..b0........E.
0010  00 3c 00 92 40 00 40 06 1b aa c0 a8 00 47 45 0a   .<..@.@......GE.
0020  18 87 e5 00 00 50 ba 4b 74 d7 00 00 00 00 a0 02   .....P.Kt.......
0030  40 00 c5 67 00 00 02 04 05 b4 01 03 03 00 01 01   @..g............
0040  08 0a 00 00 12 ac 00 00 00 00                     ..........

No.     Time                       Source                Destination           Protocol Length Info
      6 2012-10-11 22:08:42.705528 192.168.0.71          69.10.24.135          TCP      74     58623 > http [SYN] Seq=0 Win=16384 Len=0 MSS=1460 WS=1 TSval=4780 TSecr=0

Frame 6: 74 bytes on wire (592 bits), 74 bytes captured (592 bits)
    Arrival Time: Oct 11, 2012 22:08:42.705528000 GTB Standard Time
    Epoch Time: 1349982522.705528000 seconds
    [Time delta from previous captured frame: 0.000255000 seconds]
    [Time delta from previous displayed frame: 0.000255000 seconds]
    [Time since reference or first frame: 0.700432000 seconds]
    Frame Number: 6
    Frame Length: 74 bytes (592 bits)
    Capture Length: 74 bytes (592 bits)
    [Frame is marked: False]
    [Frame is ignored: False]
    [Protocols in frame: eth:ip:tcp]
Ethernet II, Src: SonyComp_ea:13:f9 (00:19:c5:ea:13:f9), Dst: ZyxelCom_8d:62:30 (40:4a:03:8d:62:30)
    Destination: ZyxelCom_8d:62:30 (40:4a:03:8d:62:30)
        Address: ZyxelCom_8d:62:30 (40:4a:03:8d:62:30)
        .... ...0 .... .... .... .... = IG bit: Individual address (unicast)
        .... ..0. .... .... .... .... = LG bit: Globally unique address (factory default)
    Source: SonyComp_ea:13:f9 (00:19:c5:ea:13:f9)
        Address: SonyComp_ea:13:f9 (00:19:c5:ea:13:f9)
        .... ...0 .... .... .... .... = IG bit: Individual address (unicast)
        .... ..0. .... .... .... .... = LG bit: Globally unique address (factory default)
    Type: IP (0x0800)
Internet Protocol Version 4, Src: 192.168.0.71 (192.168.0.71), Dst: 69.10.24.135 (69.10.24.135)
    Version: 4
    Header length: 20 bytes
    Differentiated Services Field: 0x00 (DSCP 0x00: Default; ECN: 0x00: Not-ECT (Not ECN-Capable Transport))
        0000 00.. = Differentiated Services Codepoint: Default (0x00)
        .... ..00 = Explicit Congestion Notification: Not-ECT (Not ECN-Capable Transport) (0x00)
    Total Length: 60
    Identification: 0x0093 (147)
    Flags: 0x02 (Don't Fragment)
        0... .... = Reserved bit: Not set
        .1.. .... = Don't fragment: Set
        ..0. .... = More fragments: Not set
    Fragment offset: 0
    Time to live: 64
    Protocol: TCP (6)
    Header checksum: 0x1ba9 [correct]
        [Good: True]
        [Bad: False]
    Source: 192.168.0.71 (192.168.0.71)
    Destination: 69.10.24.135 (69.10.24.135)
Transmission Control Protocol, Src Port: 58623 (58623), Dst Port: http (80), Seq: 0, Len: 0
    Source port: 58623 (58623)
    Destination port: http (80)
    [Stream index: 2]
    Sequence number: 0    (relative sequence number)
    Header length: 40 bytes
    Flags: 0x002 (SYN)
        000. .... .... = Reserved: Not set
        ...0 .... .... = Nonce: Not set
        .... 0... .... = Congestion Window Reduced (CWR): Not set
        .... .0.. .... = ECN-Echo: Not set
        .... ..0. .... = Urgent: Not set
        .... ...0 .... = Acknowledgement: Not set
        .... .... 0... = Push: Not set
        .... .... .0.. = Reset: Not set
        .... .... ..1. = Syn: Set
            [Expert Info (Chat/Sequence): Connection establish request (SYN): server port http]
                [Message: Connection establish request (SYN): server port http]
                [Severity level: Chat]
                [Group: Sequence]
        .... .... ...0 = Fin: Not set
    Window size value: 16384
    [Calculated window size: 16384]
    Checksum: 0x6318 [validation disabled]
        [Good Checksum: False]
        [Bad Checksum: False]
    Options: (20 bytes)
        Maximum segment size: 1460 bytes
        No-Operation (NOP)
        Window scale: 0 (multiply by 1)
            Kind: Window Scale (3)
            Length: 3
            Shift count: 0
            [Multiplier: 1]
        No-Operation (NOP)
        No-Operation (NOP)
        Timestamps: TSval 4780, TSecr 0
            Kind: Timestamp (8)
            Length: 10
            Timestamp value: 4780
            Timestamp echo reply: 0

0000  40 4a 03 8d 62 30 00 19 c5 ea 13 f9 08 00 45 00   @J..b0........E.
0010  00 3c 00 93 40 00 40 06 1b a9 c0 a8 00 47 45 0a   .<..@.@......GE.
0020  18 87 e4 ff 00 50 bb e3 d5 8f 00 00 00 00 a0 02   .....P..........
0030  40 00 63 18 00 00 02 04 05 b4 01 03 03 00 01 01   @.c.............
0040  08 0a 00 00 12 ac 00 00 00 00                     ..........

No.     Time                       Source                Destination           Protocol Length Info
      7 2012-10-11 22:08:42.705854 192.168.0.71          69.10.24.135          TCP      74     58622 > http [SYN] Seq=0 Win=16384 Len=0 MSS=1460 WS=1 TSval=4780 TSecr=0

Frame 7: 74 bytes on wire (592 bits), 74 bytes captured (592 bits)
    Arrival Time: Oct 11, 2012 22:08:42.705854000 GTB Standard Time
    Epoch Time: 1349982522.705854000 seconds
    [Time delta from previous captured frame: 0.000326000 seconds]
    [Time delta from previous displayed frame: 0.000326000 seconds]
    [Time since reference or first frame: 0.700758000 seconds]
    Frame Number: 7
    Frame Length: 74 bytes (592 bits)
    Capture Length: 74 bytes (592 bits)
    [Frame is marked: False]
    [Frame is ignored: False]
    [Protocols in frame: eth:ip:tcp]
Ethernet II, Src: SonyComp_ea:13:f9 (00:19:c5:ea:13:f9), Dst: ZyxelCom_8d:62:30 (40:4a:03:8d:62:30)
    Destination: ZyxelCom_8d:62:30 (40:4a:03:8d:62:30)
        Address: ZyxelCom_8d:62:30 (40:4a:03:8d:62:30)
        .... ...0 .... .... .... .... = IG bit: Individual address (unicast)
        .... ..0. .... .... .... .... = LG bit: Globally unique address (factory default)
    Source: SonyComp_ea:13:f9 (00:19:c5:ea:13:f9)
        Address: SonyComp_ea:13:f9 (00:19:c5:ea:13:f9)
        .... ...0 .... .... .... .... = IG bit: Individual address (unicast)
        .... ..0. .... .... .... .... = LG bit: Globally unique address (factory default)
    Type: IP (0x0800)
Internet Protocol Version 4, Src: 192.168.0.71 (192.168.0.71), Dst: 69.10.24.135 (69.10.24.135)
    Version: 4
    Header length: 20 bytes
    Differentiated Services Field: 0x00 (DSCP 0x00: Default; ECN: 0x00: Not-ECT (Not ECN-Capable Transport))
        0000 00.. = Differentiated Services Codepoint: Default (0x00)
        .... ..00 = Explicit Congestion Notification: Not-ECT (Not ECN-Capable Transport) (0x00)
    Total Length: 60
    Identification: 0x0094 (148)
    Flags: 0x02 (Don't Fragment)
        0... .... = Reserved bit: Not set
        .1.. .... = Don't fragment: Set
        ..0. .... = More fragments: Not set
    Fragment offset: 0
    Time to live: 64
    Protocol: TCP (6)
    Header checksum: 0x1ba8 [correct]
        [Good: True]
        [Bad: False]
    Source: 192.168.0.71 (192.168.0.71)
    Destination: 69.10.24.135 (69.10.24.135)
Transmission Control Protocol, Src Port: 58622 (58622), Dst Port: http (80), Seq: 0, Len: 0
    Source port: 58622 (58622)
    Destination port: http (80)
    [Stream index: 3]
    Sequence number: 0    (relative sequence number)
    Header length: 40 bytes
    Flags: 0x002 (SYN)
        000. .... .... = Reserved: Not set
        ...0 .... .... = Nonce: Not set
        .... 0... .... = Congestion Window Reduced (CWR): Not set
        .... .0.. .... = ECN-Echo: Not set
        .... ..0. .... = Urgent: Not set
        .... ...0 .... = Acknowledgement: Not set
        .... .... 0... = Push: Not set
        .... .... .0.. = Reset: Not set
        .... .... ..1. = Syn: Set
            [Expert Info (Chat/Sequence): Connection establish request (SYN): server port http]
                [Message: Connection establish request (SYN): server port http]
                [Severity level: Chat]
                [Group: Sequence]
        .... .... ...0 = Fin: Not set
    Window size value: 16384
    [Calculated window size: 16384]
    Checksum: 0x80e0 [validation disabled]
        [Good Checksum: False]
        [Bad Checksum: False]
    Options: (20 bytes)
        Maximum segment size: 1460 bytes
        No-Operation (NOP)
        Window scale: 0 (multiply by 1)
            Kind: Window Scale (3)
            Length: 3
            Shift count: 0
            [Multiplier: 1]
        No-Operation (NOP)
        No-Operation (NOP)
        Timestamps: TSval 4780, TSecr 0
            Kind: Timestamp (8)
            Length: 10
            Timestamp value: 4780
            Timestamp echo reply: 0

0000  40 4a 03 8d 62 30 00 19 c5 ea 13 f9 08 00 45 00   @J..b0........E.
0010  00 3c 00 94 40 00 40 06 1b a8 c0 a8 00 47 45 0a   .<..@.@......GE.
0020  18 87 e4 fe 00 50 bc d9 b6 d2 00 00 00 00 a0 02   .....P..........
0030  40 00 80 e0 00 00 02 04 05 b4 01 03 03 00 01 01   @...............
0040  08 0a 00 00 12 ac 00 00 00 00                     ..........

No.     Time                       Source                Destination           Protocol Length Info
      8 2012-10-11 22:08:42.725058 192.168.0.71          69.10.30.242          TCP      257    58625 > 29900 [PSH, ACK] Seq=199 Ack=200 Win=17520 Len=191 TSval=4780 TSecr=26298093

Frame 8: 257 bytes on wire (2056 bits), 257 bytes captured (2056 bits)
    Arrival Time: Oct 11, 2012 22:08:42.725058000 GTB Standard Time
    Epoch Time: 1349982522.725058000 seconds
    [Time delta from previous captured frame: 0.019204000 seconds]
    [Time delta from previous displayed frame: 0.019204000 seconds]
    [Time since reference or first frame: 0.719962000 seconds]
    Frame Number: 8
    Frame Length: 257 bytes (2056 bits)
    Capture Length: 257 bytes (2056 bits)
    [Frame is marked: False]
    [Frame is ignored: False]
    [Protocols in frame: eth:ip:tcp:data]
Ethernet II, Src: SonyComp_ea:13:f9 (00:19:c5:ea:13:f9), Dst: ZyxelCom_8d:62:30 (40:4a:03:8d:62:30)
    Destination: ZyxelCom_8d:62:30 (40:4a:03:8d:62:30)
        Address: ZyxelCom_8d:62:30 (40:4a:03:8d:62:30)
        .... ...0 .... .... .... .... = IG bit: Individual address (unicast)
        .... ..0. .... .... .... .... = LG bit: Globally unique address (factory default)
    Source: SonyComp_ea:13:f9 (00:19:c5:ea:13:f9)
        Address: SonyComp_ea:13:f9 (00:19:c5:ea:13:f9)
        .... ...0 .... .... .... .... = IG bit: Individual address (unicast)
        .... ..0. .... .... .... .... = LG bit: Globally unique address (factory default)
    Type: IP (0x0800)
Internet Protocol Version 4, Src: 192.168.0.71 (192.168.0.71), Dst: 69.10.30.242 (69.10.30.242)
    Version: 4
    Header length: 20 bytes
    Differentiated Services Field: 0x00 (DSCP 0x00: Default; ECN: 0x00: Not-ECT (Not ECN-Capable Transport))
        0000 00.. = Differentiated Services Codepoint: Default (0x00)
        .... ..00 = Explicit Congestion Notification: Not-ECT (Not ECN-Capable Transport) (0x00)
    Total Length: 243
    Identification: 0x0095 (149)
    Flags: 0x02 (Don't Fragment)
        0... .... = Reserved bit: Not set
        .1.. .... = Don't fragment: Set
        ..0. .... = More fragments: Not set
    Fragment offset: 0
    Time to live: 64
    Protocol: TCP (6)
    Header checksum: 0x1485 [correct]
        [Good: True]
        [Bad: False]
    Source: 192.168.0.71 (192.168.0.71)
    Destination: 69.10.30.242 (69.10.30.242)
Transmission Control Protocol, Src Port: 58625 (58625), Dst Port: 29900 (29900), Seq: 199, Ack: 200, Len: 191
    Source port: 58625 (58625)
    Destination port: 29900 (29900)
    [Stream index: 0]
    Sequence number: 199    (relative sequence number)
    [Next sequence number: 390    (relative sequence number)]
    Acknowledgement number: 200    (relative ack number)
    Header length: 32 bytes
    Flags: 0x018 (PSH, ACK)
        000. .... .... = Reserved: Not set
        ...0 .... .... = Nonce: Not set
        .... 0... .... = Congestion Window Reduced (CWR): Not set
        .... .0.. .... = ECN-Echo: Not set
        .... ..0. .... = Urgent: Not set
        .... ...1 .... = Acknowledgement: Set
        .... .... 1... = Push: Set
        .... .... .0.. = Reset: Not set
        .... .... ..0. = Syn: Not set
        .... .... ...0 = Fin: Not set
    Window size value: 17520
    [Calculated window size: 17520]
    [Window size scaling factor: 1]
    Checksum: 0x8bb5 [validation disabled]
        [Good Checksum: False]
        [Bad Checksum: False]
    Options: (12 bytes)
        No-Operation (NOP)
        No-Operation (NOP)
        Timestamps: TSval 4780, TSecr 26298093
            Kind: Timestamp (8)
            Length: 10
            Timestamp value: 4780
            Timestamp echo reply: 26298093
    [SEQ/ACK analysis]
        [Bytes in flight: 390]
Data (191 bytes)
    Data: 5c696e76697465746f5c5c736573736b65795c3130313634...
    [Length: 191]

0000  40 4a 03 8d 62 30 00 19 c5 ea 13 f9 08 00 45 00   @J..b0........E.
0010  00 f3 00 95 40 00 40 06 14 85 c0 a8 00 47 45 0a   ....@.@......GE.
0020  1e f2 e5 01 74 cc b8 50 c4 29 20 c9 0f b6 80 18   ....t..P.) .....
0030  44 70 8b b5 00 00 01 01 08 0a 00 00 12 ac 01 91   Dp..............
0040  46 ed 5c 69 6e 76 69 74 65 74 6f 5c 5c 73 65 73   F.\inviteto\\ses
0050  73 6b 65 79 5c 31 30 31 36 34 34 36 39 30 5c 70   skey\101644690\p
0060  72 6f 64 75 63 74 73 5c 31 30 33 30 37 5c 66 69   roducts\10307\fi
0070  6e 61 6c 5c 5c 67 65 74 70 72 6f 66 69 6c 65 5c   nal\\getprofile\
0080  5c 73 65 73 73 6b 65 79 5c 31 30 31 36 34 34 36   \sesskey\1016446
0090  39 30 5c 70 72 6f 66 69 6c 65 69 64 5c 34 31 31   90\profileid\411
00a0  30 31 30 37 30 32 5c 69 64 5c 34 5c 66 69 6e 61   010702\id\4\fina
00b0  6c 5c 5c 73 74 61 74 75 73 5c 31 5c 73 65 73 73   l\\status\1\sess
00c0  6b 65 79 5c 31 30 31 36 34 34 36 39 30 5c 73 74   key\101644690\st
00d0  61 74 73 74 72 69 6e 67 5c 52 65 73 74 69 6e 67   atstring\Resting
00e0  5c 6c 6f 63 73 74 72 69 6e 67 5c 62 66 69 65 6c   \locstring\bfiel
00f0  64 31 39 34 32 70 73 32 3a 2f 5c 66 69 6e 61 6c   d1942ps2:/\final
0100  5c                                                \

No.     Time                       Source                Destination           Protocol Length Info
      9 2012-10-11 22:08:42.725435 192.168.0.71          69.10.24.135          TCP      74     58621 > http [SYN] Seq=0 Win=16384 Len=0 MSS=1460 WS=1 TSval=4780 TSecr=0

Frame 9: 74 bytes on wire (592 bits), 74 bytes captured (592 bits)
    Arrival Time: Oct 11, 2012 22:08:42.725435000 GTB Standard Time
    Epoch Time: 1349982522.725435000 seconds
    [Time delta from previous captured frame: 0.000377000 seconds]
    [Time delta from previous displayed frame: 0.000377000 seconds]
    [Time since reference or first frame: 0.720339000 seconds]
    Frame Number: 9
    Frame Length: 74 bytes (592 bits)
    Capture Length: 74 bytes (592 bits)
    [Frame is marked: False]
    [Frame is ignored: False]
    [Protocols in frame: eth:ip:tcp]
Ethernet II, Src: SonyComp_ea:13:f9 (00:19:c5:ea:13:f9), Dst: ZyxelCom_8d:62:30 (40:4a:03:8d:62:30)
    Destination: ZyxelCom_8d:62:30 (40:4a:03:8d:62:30)
        Address: ZyxelCom_8d:62:30 (40:4a:03:8d:62:30)
        .... ...0 .... .... .... .... = IG bit: Individual address (unicast)
        .... ..0. .... .... .... .... = LG bit: Globally unique address (factory default)
    Source: SonyComp_ea:13:f9 (00:19:c5:ea:13:f9)
        Address: SonyComp_ea:13:f9 (00:19:c5:ea:13:f9)
        .... ...0 .... .... .... .... = IG bit: Individual address (unicast)
        .... ..0. .... .... .... .... = LG bit: Globally unique address (factory default)
    Type: IP (0x0800)
Internet Protocol Version 4, Src: 192.168.0.71 (192.168.0.71), Dst: 69.10.24.135 (69.10.24.135)
    Version: 4
    Header length: 20 bytes
    Differentiated Services Field: 0x00 (DSCP 0x00: Default; ECN: 0x00: Not-ECT (Not ECN-Capable Transport))
        0000 00.. = Differentiated Services Codepoint: Default (0x00)
        .... ..00 = Explicit Congestion Notification: Not-ECT (Not ECN-Capable Transport) (0x00)
    Total Length: 60
    Identification: 0x0096 (150)
    Flags: 0x02 (Don't Fragment)
        0... .... = Reserved bit: Not set
        .1.. .... = Don't fragment: Set
        ..0. .... = More fragments: Not set
    Fragment offset: 0
    Time to live: 64
    Protocol: TCP (6)
    Header checksum: 0x1ba6 [correct]
        [Good: True]
        [Bad: False]
    Source: 192.168.0.71 (192.168.0.71)
    Destination: 69.10.24.135 (69.10.24.135)
Transmission Control Protocol, Src Port: 58621 (58621), Dst Port: http (80), Seq: 0, Len: 0
    Source port: 58621 (58621)
    Destination port: http (80)
    [Stream index: 4]
    Sequence number: 0    (relative sequence number)
    Header length: 40 bytes
    Flags: 0x002 (SYN)
        000. .... .... = Reserved: Not set
        ...0 .... .... = Nonce: Not set
        .... 0... .... = Congestion Window Reduced (CWR): Not set
        .... .0.. .... = ECN-Echo: Not set
        .... ..0. .... = Urgent: Not set
        .... ...0 .... = Acknowledgement: Not set
        .... .... 0... = Push: Not set
        .... .... .0.. = Reset: Not set
        .... .... ..1. = Syn: Set
            [Expert Info (Chat/Sequence): Connection establish request (SYN): server port http]
                [Message: Connection establish request (SYN): server port http]
                [Severity level: Chat]
                [Group: Sequence]
        .... .... ...0 = Fin: Not set
    Window size value: 16384
    [Calculated window size: 16384]
    Checksum: 0x7cc0 [validation disabled]
        [Good Checksum: False]
        [Bad Checksum: False]
    Options: (20 bytes)
        Maximum segment size: 1460 bytes
        No-Operation (NOP)
        Window scale: 0 (multiply by 1)
            Kind: Window Scale (3)
            Length: 3
            Shift count: 0
            [Multiplier: 1]
        No-Operation (NOP)
        No-Operation (NOP)
        Timestamps: TSval 4780, TSecr 0
            Kind: Timestamp (8)
            Length: 10
            Timestamp value: 4780
            Timestamp echo reply: 0

0000  40 4a 03 8d 62 30 00 19 c5 ea 13 f9 08 00 45 00   @J..b0........E.
0010  00 3c 00 96 40 00 40 06 1b a6 c0 a8 00 47 45 0a   .<..@.@......GE.
0020  18 87 e4 fd 00 50 bd 71 ba 5b 00 00 00 00 a0 02   .....P.q.[......
0030  40 00 7c c0 00 00 02 04 05 b4 01 03 03 00 01 01   @.|.............
0040  08 0a 00 00 12 ac 00 00 00 00                     ..........

No.     Time                       Source                Destination           Protocol Length Info
     10 2012-10-11 22:08:42.725771 192.168.0.71          69.10.24.135          TCP      74     58620 > http [SYN] Seq=0 Win=16384 Len=0 MSS=1460 WS=1 TSval=4780 TSecr=0

Frame 10: 74 bytes on wire (592 bits), 74 bytes captured (592 bits)
    Arrival Time: Oct 11, 2012 22:08:42.725771000 GTB Standard Time
    Epoch Time: 1349982522.725771000 seconds
    [Time delta from previous captured frame: 0.000336000 seconds]
    [Time delta from previous displayed frame: 0.000336000 seconds]
    [Time since reference or first frame: 0.720675000 seconds]
    Frame Number: 10
    Frame Length: 74 bytes (592 bits)
    Capture Length: 74 bytes (592 bits)
    [Frame is marked: False]
    [Frame is ignored: False]
    [Protocols in frame: eth:ip:tcp]
Ethernet II, Src: SonyComp_ea:13:f9 (00:19:c5:ea:13:f9), Dst: ZyxelCom_8d:62:30 (40:4a:03:8d:62:30)
    Destination: ZyxelCom_8d:62:30 (40:4a:03:8d:62:30)
        Address: ZyxelCom_8d:62:30 (40:4a:03:8d:62:30)
        .... ...0 .... .... .... .... = IG bit: Individual address (unicast)
        .... ..0. .... .... .... .... = LG bit: Globally unique address (factory default)
    Source: SonyComp_ea:13:f9 (00:19:c5:ea:13:f9)
        Address: SonyComp_ea:13:f9 (00:19:c5:ea:13:f9)
        .... ...0 .... .... .... .... = IG bit: Individual address (unicast)
        .... ..0. .... .... .... .... = LG bit: Globally unique address (factory default)
    Type: IP (0x0800)
Internet Protocol Version 4, Src: 192.168.0.71 (192.168.0.71), Dst: 69.10.24.135 (69.10.24.135)
    Version: 4
    Header length: 20 bytes
    Differentiated Services Field: 0x00 (DSCP 0x00: Default; ECN: 0x00: Not-ECT (Not ECN-Capable Transport))
        0000 00.. = Differentiated Services Codepoint: Default (0x00)
        .... ..00 = Explicit Congestion Notification: Not-ECT (Not ECN-Capable Transport) (0x00)
    Total Length: 60
    Identification: 0x0097 (151)
    Flags: 0x02 (Don't Fragment)
        0... .... = Reserved bit: Not set
        .1.. .... = Don't fragment: Set
        ..0. .... = More fragments: Not set
    Fragment offset: 0
    Time to live: 64
    Protocol: TCP (6)
    Header checksum: 0x1ba5 [correct]
        [Good: True]
        [Bad: False]
    Source: 192.168.0.71 (192.168.0.71)
    Destination: 69.10.24.135 (69.10.24.135)
Transmission Control Protocol, Src Port: 58620 (58620), Dst Port: http (80), Seq: 0, Len: 0
    Source port: 58620 (58620)
    Destination port: http (80)
    [Stream index: 5]
    Sequence number: 0    (relative sequence number)
    Header length: 40 bytes
    Flags: 0x002 (SYN)
        000. .... .... = Reserved: Not set
        ...0 .... .... = Nonce: Not set
        .... 0... .... = Congestion Window Reduced (CWR): Not set
        .... .0.. .... = ECN-Echo: Not set
        .... ..0. .... = Urgent: Not set
        .... ...0 .... = Acknowledgement: Not set
        .... .... 0... = Push: Not set
        .... .... .0.. = Reset: Not set
        .... .... ..1. = Syn: Set
            [Expert Info (Chat/Sequence): Connection establish request (SYN): server port http]
                [Message: Connection establish request (SYN): server port http]
                [Severity level: Chat]
                [Group: Sequence]
        .... .... ...0 = Fin: Not set
    Window size value: 16384
    [Calculated window size: 16384]
    Checksum: 0x61f7 [validation disabled]
        [Good Checksum: False]
        [Bad Checksum: False]
    Options: (20 bytes)
        Maximum segment size: 1460 bytes
        No-Operation (NOP)
        Window scale: 0 (multiply by 1)
            Kind: Window Scale (3)
            Length: 3
            Shift count: 0
            [Multiplier: 1]
        No-Operation (NOP)
        No-Operation (NOP)
        Timestamps: TSval 4780, TSecr 0
            Kind: Timestamp (8)
            Length: 10
            Timestamp value: 4780
            Timestamp echo reply: 0

0000  40 4a 03 8d 62 30 00 19 c5 ea 13 f9 08 00 45 00   @J..b0........E.
0010  00 3c 00 97 40 00 40 06 1b a5 c0 a8 00 47 45 0a   .<..@.@......GE.
0020  18 87 e4 fc 00 50 be 81 d4 15 00 00 00 00 a0 02   .....P..........
0030  40 00 61 f7 00 00 02 04 05 b4 01 03 03 00 01 01   @.a.............
0040  08 0a 00 00 12 ac 00 00 00 00                     ..........

No.     Time                       Source                Destination           Protocol Length Info
     11 2012-10-11 22:08:42.726117 192.168.0.71          69.10.24.135          TCP      74     58619 > http [SYN] Seq=0 Win=16384 Len=0 MSS=1460 WS=1 TSval=4780 TSecr=0

Frame 11: 74 bytes on wire (592 bits), 74 bytes captured (592 bits)
    Arrival Time: Oct 11, 2012 22:08:42.726117000 GTB Standard Time
    Epoch Time: 1349982522.726117000 seconds
    [Time delta from previous captured frame: 0.000346000 seconds]
    [Time delta from previous displayed frame: 0.000346000 seconds]
    [Time since reference or first frame: 0.721021000 seconds]
    Frame Number: 11
    Frame Length: 74 bytes (592 bits)
    Capture Length: 74 bytes (592 bits)
    [Frame is marked: False]
    [Frame is ignored: False]
    [Protocols in frame: eth:ip:tcp]
Ethernet II, Src: SonyComp_ea:13:f9 (00:19:c5:ea:13:f9), Dst: ZyxelCom_8d:62:30 (40:4a:03:8d:62:30)
    Destination: ZyxelCom_8d:62:30 (40:4a:03:8d:62:30)
        Address: ZyxelCom_8d:62:30 (40:4a:03:8d:62:30)
        .... ...0 .... .... .... .... = IG bit: Individual address (unicast)
        .... ..0. .... .... .... .... = LG bit: Globally unique address (factory default)
    Source: SonyComp_ea:13:f9 (00:19:c5:ea:13:f9)
        Address: SonyComp_ea:13:f9 (00:19:c5:ea:13:f9)
        .... ...0 .... .... .... .... = IG bit: Individual address (unicast)
        .... ..0. .... .... .... .... = LG bit: Globally unique address (factory default)
    Type: IP (0x0800)
Internet Protocol Version 4, Src: 192.168.0.71 (192.168.0.71), Dst: 69.10.24.135 (69.10.24.135)
    Version: 4
    Header length: 20 bytes
    Differentiated Services Field: 0x00 (DSCP 0x00: Default; ECN: 0x00: Not-ECT (Not ECN-Capable Transport))
        0000 00.. = Differentiated Services Codepoint: Default (0x00)
        .... ..00 = Explicit Congestion Notification: Not-ECT (Not ECN-Capable Transport) (0x00)
    Total Length: 60
    Identification: 0x0098 (152)
    Flags: 0x02 (Don't Fragment)
        0... .... = Reserved bit: Not set
        .1.. .... = Don't fragment: Set
        ..0. .... = More fragments: Not set
    Fragment offset: 0
    Time to live: 64
    Protocol: TCP (6)
    Header checksum: 0x1ba4 [correct]
        [Good: True]
        [Bad: False]
    Source: 192.168.0.71 (192.168.0.71)
    Destination: 69.10.24.135 (69.10.24.135)
Transmission Control Protocol, Src Port: 58619 (58619), Dst Port: http (80), Seq: 0, Len: 0
    Source port: 58619 (58619)
    Destination port: http (80)
    [Stream index: 6]
    Sequence number: 0    (relative sequence number)
    Header length: 40 bytes
    Flags: 0x002 (SYN)
        000. .... .... = Reserved: Not set
        ...0 .... .... = Nonce: Not set
        .... 0... .... = Congestion Window Reduced (CWR): Not set
        .... .0.. .... = ECN-Echo: Not set
        .... ..0. .... = Urgent: Not set
        .... ...0 .... = Acknowledgement: Not set
        .... .... 0... = Push: Not set
        .... .... .0.. = Reset: Not set
        .... .... ..1. = Syn: Set
            [Expert Info (Chat/Sequence): Connection establish request (SYN): server port http]
                [Message: Connection establish request (SYN): server port http]
                [Severity level: Chat]
                [Group: Sequence]
        .... .... ...0 = Fin: Not set
    Window size value: 16384
    [Calculated window size: 16384]
    Checksum: 0x5241 [validation disabled]
        [Good Checksum: False]
        [Bad Checksum: False]
    Options: (20 bytes)
        Maximum segment size: 1460 bytes
        No-Operation (NOP)
        Window scale: 0 (multiply by 1)
            Kind: Window Scale (3)
            Length: 3
            Shift count: 0
            [Multiplier: 1]
        No-Operation (NOP)
        No-Operation (NOP)
        Timestamps: TSval 4780, TSecr 0
            Kind: Timestamp (8)
            Length: 10
            Timestamp value: 4780
            Timestamp echo reply: 0

0000  40 4a 03 8d 62 30 00 19 c5 ea 13 f9 08 00 45 00   @J..b0........E.
0010  00 3c 00 98 40 00 40 06 1b a4 c0 a8 00 47 45 0a   .<..@.@......GE.
0020  18 87 e4 fb 00 50 bf 8a e2 c3 00 00 00 00 a0 02   .....P..........
0030  40 00 52 41 00 00 02 04 05 b4 01 03 03 00 01 01   @.RA............
0040  08 0a 00 00 12 ac 00 00 00 00                     ..........

No.     Time                       Source                Destination           Protocol Length Info
     12 2012-10-11 22:08:42.916914 192.168.0.71          69.10.24.135          TCP      60     58624 > http [ACK] Seq=1 Ack=1 Win=17520 Len=0

Frame 12: 60 bytes on wire (480 bits), 60 bytes captured (480 bits)
    Arrival Time: Oct 11, 2012 22:08:42.916914000 GTB Standard Time
    Epoch Time: 1349982522.916914000 seconds
    [Time delta from previous captured frame: 0.190797000 seconds]
    [Time delta from previous displayed frame: 0.190797000 seconds]
    [Time since reference or first frame: 0.911818000 seconds]
    Frame Number: 12
    Frame Length: 60 bytes (480 bits)
    Capture Length: 60 bytes (480 bits)
    [Frame is marked: False]
    [Frame is ignored: False]
    [Protocols in frame: eth:ip:tcp]
Ethernet II, Src: SonyComp_ea:13:f9 (00:19:c5:ea:13:f9), Dst: ZyxelCom_8d:62:30 (40:4a:03:8d:62:30)
    Destination: ZyxelCom_8d:62:30 (40:4a:03:8d:62:30)
        Address: ZyxelCom_8d:62:30 (40:4a:03:8d:62:30)
        .... ...0 .... .... .... .... = IG bit: Individual address (unicast)
        .... ..0. .... .... .... .... = LG bit: Globally unique address (factory default)
    Source: SonyComp_ea:13:f9 (00:19:c5:ea:13:f9)
        Address: SonyComp_ea:13:f9 (00:19:c5:ea:13:f9)
        .... ...0 .... .... .... .... = IG bit: Individual address (unicast)
        .... ..0. .... .... .... .... = LG bit: Globally unique address (factory default)
    Type: IP (0x0800)
    Trailer: 000000000000
Internet Protocol Version 4, Src: 192.168.0.71 (192.168.0.71), Dst: 69.10.24.135 (69.10.24.135)
    Version: 4
    Header length: 20 bytes
    Differentiated Services Field: 0x00 (DSCP 0x00: Default; ECN: 0x00: Not-ECT (Not ECN-Capable Transport))
        0000 00.. = Differentiated Services Codepoint: Default (0x00)
        .... ..00 = Explicit Congestion Notification: Not-ECT (Not ECN-Capable Transport) (0x00)
    Total Length: 40
    Identification: 0x0099 (153)
    Flags: 0x02 (Don't Fragment)
        0... .... = Reserved bit: Not set
        .1.. .... = Don't fragment: Set
        ..0. .... = More fragments: Not set
    Fragment offset: 0
    Time to live: 64
    Protocol: TCP (6)
    Header checksum: 0x1bb7 [correct]
        [Good: True]
        [Bad: False]
    Source: 192.168.0.71 (192.168.0.71)
    Destination: 69.10.24.135 (69.10.24.135)
Transmission Control Protocol, Src Port: 58624 (58624), Dst Port: http (80), Seq: 1, Ack: 1, Len: 0
    Source port: 58624 (58624)
    Destination port: http (80)
    [Stream index: 1]
    Sequence number: 1    (relative sequence number)
    Acknowledgement number: 1    (relative ack number)
    Header length: 20 bytes
    Flags: 0x010 (ACK)
        000. .... .... = Reserved: Not set
        ...0 .... .... = Nonce: Not set
        .... 0... .... = Congestion Window Reduced (CWR): Not set
        .... .0.. .... = ECN-Echo: Not set
        .... ..0. .... = Urgent: Not set
        .... ...1 .... = Acknowledgement: Set
        .... .... 0... = Push: Not set
        .... .... .0.. = Reset: Not set
        .... .... ..0. = Syn: Not set
        .... .... ...0 = Fin: Not set
    Window size value: 17520
    [Calculated window size: 17520]
    [Window size scaling factor: 1]
    Checksum: 0xd818 [validation disabled]
        [Good Checksum: False]
        [Bad Checksum: False]

0000  40 4a 03 8d 62 30 00 19 c5 ea 13 f9 08 00 45 00   @J..b0........E.
0010  00 28 00 99 40 00 40 06 1b b7 c0 a8 00 47 45 0a   .(..@.@......GE.
0020  18 87 e5 00 00 50 ba 4b 74 d8 23 60 3c f6 50 10   .....P.Kt.#`<.P.
0030  44 70 d8 18 00 00 00 00 00 00 00 00               Dp..........

No.     Time                       Source                Destination           Protocol Length Info
     13 2012-10-11 22:08:42.920862 192.168.0.71          69.10.24.135          TCP      60     58622 > http [ACK] Seq=1 Ack=1 Win=17520 Len=0

Frame 13: 60 bytes on wire (480 bits), 60 bytes captured (480 bits)
    Arrival Time: Oct 11, 2012 22:08:42.920862000 GTB Standard Time
    Epoch Time: 1349982522.920862000 seconds
    [Time delta from previous captured frame: 0.003948000 seconds]
    [Time delta from previous displayed frame: 0.003948000 seconds]
    [Time since reference or first frame: 0.915766000 seconds]
    Frame Number: 13
    Frame Length: 60 bytes (480 bits)
    Capture Length: 60 bytes (480 bits)
    [Frame is marked: False]
    [Frame is ignored: False]
    [Protocols in frame: eth:ip:tcp]
Ethernet II, Src: SonyComp_ea:13:f9 (00:19:c5:ea:13:f9), Dst: ZyxelCom_8d:62:30 (40:4a:03:8d:62:30)
    Destination: ZyxelCom_8d:62:30 (40:4a:03:8d:62:30)
        Address: ZyxelCom_8d:62:30 (40:4a:03:8d:62:30)
        .... ...0 .... .... .... .... = IG bit: Individual address (unicast)
        .... ..0. .... .... .... .... = LG bit: Globally unique address (factory default)
    Source: SonyComp_ea:13:f9 (00:19:c5:ea:13:f9)
        Address: SonyComp_ea:13:f9 (00:19:c5:ea:13:f9)
        .... ...0 .... .... .... .... = IG bit: Individual address (unicast)
        .... ..0. .... .... .... .... = LG bit: Globally unique address (factory default)
    Type: IP (0x0800)
    Trailer: 000000000000
Internet Protocol Version 4, Src: 192.168.0.71 (192.168.0.71), Dst: 69.10.24.135 (69.10.24.135)
    Version: 4
    Header length: 20 bytes
    Differentiated Services Field: 0x00 (DSCP 0x00: Default; ECN: 0x00: Not-ECT (Not ECN-Capable Transport))
        0000 00.. = Differentiated Services Codepoint: Default (0x00)
        .... ..00 = Explicit Congestion Notification: Not-ECT (Not ECN-Capable Transport) (0x00)
    Total Length: 40
    Identification: 0x009a (154)
    Flags: 0x02 (Don't Fragment)
        0... .... = Reserved bit: Not set
        .1.. .... = Don't fragment: Set
        ..0. .... = More fragments: Not set
    Fragment offset: 0
    Time to live: 64
    Protocol: TCP (6)
    Header checksum: 0x1bb6 [correct]
        [Good: True]
        [Bad: False]
    Source: 192.168.0.71 (192.168.0.71)
    Destination: 69.10.24.135 (69.10.24.135)
Transmission Control Protocol, Src Port: 58622 (58622), Dst Port: http (80), Seq: 1, Ack: 1, Len: 0
    Source port: 58622 (58622)
    Destination port: http (80)
    [Stream index: 3]
    Sequence number: 1    (relative sequence number)
    Acknowledgement number: 1    (relative ack number)
    Header length: 20 bytes
    Flags: 0x010 (ACK)
        000. .... .... = Reserved: Not set
        ...0 .... .... = Nonce: Not set
        .... 0... .... = Congestion Window Reduced (CWR): Not set
        .... .0.. .... = ECN-Echo: Not set
        .... ..0. .... = Urgent: Not set
        .... ...1 .... = Acknowledgement: Set
        .... .... 0... = Push: Not set
        .... .... .0.. = Reset: Not set
        .... .... ..0. = Syn: Not set
        .... .... ...0 = Fin: Not set
    Window size value: 17520
    [Calculated window size: 17520]
    [Window size scaling factor: 1]
    Checksum: 0xe6f8 [validation disabled]
        [Good Checksum: False]
        [Bad Checksum: False]

0000  40 4a 03 8d 62 30 00 19 c5 ea 13 f9 08 00 45 00   @J..b0........E.
0010  00 28 00 9a 40 00 40 06 1b b6 c0 a8 00 47 45 0a   .(..@.@......GE.
0020  18 87 e4 fe 00 50 bc d9 b6 d3 cb cf 41 1f 50 10   .....P......A.P.
0030  44 70 e6 f8 00 00 00 00 00 00 00 00               Dp..........

No.     Time                       Source                Destination           Protocol Length Info
     14 2012-10-11 22:08:42.921087 192.168.0.71          69.10.24.135          TCP      60     58623 > http [ACK] Seq=1 Ack=1 Win=17520 Len=0

Frame 14: 60 bytes on wire (480 bits), 60 bytes captured (480 bits)
    Arrival Time: Oct 11, 2012 22:08:42.921087000 GTB Standard Time
    Epoch Time: 1349982522.921087000 seconds
    [Time delta from previous captured frame: 0.000225000 seconds]
    [Time delta from previous displayed frame: 0.000225000 seconds]
    [Time since reference or first frame: 0.915991000 seconds]
    Frame Number: 14
    Frame Length: 60 bytes (480 bits)
    Capture Length: 60 bytes (480 bits)
    [Frame is marked: False]
    [Frame is ignored: False]
    [Protocols in frame: eth:ip:tcp]
Ethernet II, Src: SonyComp_ea:13:f9 (00:19:c5:ea:13:f9), Dst: ZyxelCom_8d:62:30 (40:4a:03:8d:62:30)
    Destination: ZyxelCom_8d:62:30 (40:4a:03:8d:62:30)
        Address: ZyxelCom_8d:62:30 (40:4a:03:8d:62:30)
        .... ...0 .... .... .... .... = IG bit: Individual address (unicast)
        .... ..0. .... .... .... .... = LG bit: Globally unique address (factory default)
    Source: SonyComp_ea:13:f9 (00:19:c5:ea:13:f9)
        Address: SonyComp_ea:13:f9 (00:19:c5:ea:13:f9)
        .... ...0 .... .... .... .... = IG bit: Individual address (unicast)
        .... ..0. .... .... .... .... = LG bit: Globally unique address (factory default)
    Type: IP (0x0800)
    Trailer: 000000000000
Internet Protocol Version 4, Src: 192.168.0.71 (192.168.0.71), Dst: 69.10.24.135 (69.10.24.135)
    Version: 4
    Header length: 20 bytes
    Differentiated Services Field: 0x00 (DSCP 0x00: Default; ECN: 0x00: Not-ECT (Not ECN-Capable Transport))
        0000 00.. = Differentiated Services Codepoint: Default (0x00)
        .... ..00 = Explicit Congestion Notification: Not-ECT (Not ECN-Capable Transport) (0x00)
    Total Length: 40
    Identification: 0x009b (155)
    Flags: 0x02 (Don't Fragment)
        0... .... = Reserved bit: Not set
        .1.. .... = Don't fragment: Set
        ..0. .... = More fragments: Not set
    Fragment offset: 0
    Time to live: 64
    Protocol: TCP (6)
    Header checksum: 0x1bb5 [correct]
        [Good: True]
        [Bad: False]
    Source: 192.168.0.71 (192.168.0.71)
    Destination: 69.10.24.135 (69.10.24.135)
Transmission Control Protocol, Src Port: 58623 (58623), Dst Port: http (80), Seq: 1, Ack: 1, Len: 0
    Source port: 58623 (58623)
    Destination port: http (80)
    [Stream index: 2]
    Sequence number: 1    (relative sequence number)
    Acknowledgement number: 1    (relative ack number)
    Header length: 20 bytes
    Flags: 0x010 (ACK)
        000. .... .... = Reserved: Not set
        ...0 .... .... = Nonce: Not set
        .... 0... .... = Congestion Window Reduced (CWR): Not set
        .... .0.. .... = ECN-Echo: Not set
        .... ..0. .... = Urgent: Not set
        .... ...1 .... = Acknowledgement: Set
        .... .... 0... = Push: Not set
        .... .... .0.. = Reset: Not set
        .... .... ..0. = Syn: Not set
        .... .... ...0 = Fin: Not set
    Window size value: 17520
    [Calculated window size: 17520]
    [Window size scaling factor: 1]
    Checksum: 0x3941 [validation disabled]
        [Good Checksum: False]
        [Bad Checksum: False]

0000  40 4a 03 8d 62 30 00 19 c5 ea 13 f9 08 00 45 00   @J..b0........E.
0010  00 28 00 9b 40 00 40 06 1b b5 c0 a8 00 47 45 0a   .(..@.@......GE.
0020  18 87 e4 ff 00 50 bb e3 d5 90 df 48 bd 95 50 10   .....P.....H..P.
0030  44 70 39 41 00 00 00 00 00 00 00 00               Dp9A........

No.     Time                       Source                Destination           Protocol Length Info
     15 2012-10-11 22:08:42.925234 192.168.0.71          69.10.24.135          HTTP     188    GET /BFMC/Clans/claninfo.aspx?profileid=411010702 HTTP/1.1 

Frame 15: 188 bytes on wire (1504 bits), 188 bytes captured (1504 bits)
    Arrival Time: Oct 11, 2012 22:08:42.925234000 GTB Standard Time
    Epoch Time: 1349982522.925234000 seconds
    [Time delta from previous captured frame: 0.004147000 seconds]
    [Time delta from previous displayed frame: 0.004147000 seconds]
    [Time since reference or first frame: 0.920138000 seconds]
    Frame Number: 15
    Frame Length: 188 bytes (1504 bits)
    Capture Length: 188 bytes (1504 bits)
    [Frame is marked: False]
    [Frame is ignored: False]
    [Protocols in frame: eth:ip:tcp:http]
Ethernet II, Src: SonyComp_ea:13:f9 (00:19:c5:ea:13:f9), Dst: ZyxelCom_8d:62:30 (40:4a:03:8d:62:30)
    Destination: ZyxelCom_8d:62:30 (40:4a:03:8d:62:30)
        Address: ZyxelCom_8d:62:30 (40:4a:03:8d:62:30)
        .... ...0 .... .... .... .... = IG bit: Individual address (unicast)
        .... ..0. .... .... .... .... = LG bit: Globally unique address (factory default)
    Source: SonyComp_ea:13:f9 (00:19:c5:ea:13:f9)
        Address: SonyComp_ea:13:f9 (00:19:c5:ea:13:f9)
        .... ...0 .... .... .... .... = IG bit: Individual address (unicast)
        .... ..0. .... .... .... .... = LG bit: Globally unique address (factory default)
    Type: IP (0x0800)
Internet Protocol Version 4, Src: 192.168.0.71 (192.168.0.71), Dst: 69.10.24.135 (69.10.24.135)
    Version: 4
    Header length: 20 bytes
    Differentiated Services Field: 0x00 (DSCP 0x00: Default; ECN: 0x00: Not-ECT (Not ECN-Capable Transport))
        0000 00.. = Differentiated Services Codepoint: Default (0x00)
        .... ..00 = Explicit Congestion Notification: Not-ECT (Not ECN-Capable Transport) (0x00)
    Total Length: 174
    Identification: 0x009c (156)
    Flags: 0x02 (Don't Fragment)
        0... .... = Reserved bit: Not set
        .1.. .... = Don't fragment: Set
        ..0. .... = More fragments: Not set
    Fragment offset: 0
    Time to live: 64
    Protocol: TCP (6)
    Header checksum: 0x1b2e [correct]
        [Good: True]
        [Bad: False]
    Source: 192.168.0.71 (192.168.0.71)
    Destination: 69.10.24.135 (69.10.24.135)
Transmission Control Protocol, Src Port: 58624 (58624), Dst Port: http (80), Seq: 1, Ack: 1, Len: 134
    Source port: 58624 (58624)
    Destination port: http (80)
    [Stream index: 1]
    Sequence number: 1    (relative sequence number)
    [Next sequence number: 135    (relative sequence number)]
    Acknowledgement number: 1    (relative ack number)
    Header length: 20 bytes
    Flags: 0x018 (PSH, ACK)
        000. .... .... = Reserved: Not set
        ...0 .... .... = Nonce: Not set
        .... 0... .... = Congestion Window Reduced (CWR): Not set
        .... .0.. .... = ECN-Echo: Not set
        .... ..0. .... = Urgent: Not set
        .... ...1 .... = Acknowledgement: Set
        .... .... 1... = Push: Set
        .... .... .0.. = Reset: Not set
        .... .... ..0. = Syn: Not set
        .... .... ...0 = Fin: Not set
    Window size value: 17520
    [Calculated window size: 17520]
    [Window size scaling factor: 1]
    Checksum: 0x0f69 [validation disabled]
        [Good Checksum: False]
        [Bad Checksum: False]
    [SEQ/ACK analysis]
        [Bytes in flight: 135]
Hypertext Transfer Protocol
    GET /BFMC/Clans/claninfo.aspx?profileid=411010702 HTTP/1.1\r\n
        [Expert Info (Chat/Sequence): GET /BFMC/Clans/claninfo.aspx?profileid=411010702 HTTP/1.1\r\n]
            [Message: GET /BFMC/Clans/claninfo.aspx?profileid=411010702 HTTP/1.1\r\n]
            [Severity level: Chat]
            [Group: Sequence]
        Request Method: GET
        Request URI: /BFMC/Clans/claninfo.aspx?profileid=411010702
        Request Version: HTTP/1.1
    Host: bfmc.gamespy.com\r\n
    User-Agent: GameSpyHTTP/1.0\r\n
    Connection: close\r\n
    \r\n
    [Full request URI: http://bfmc.gamespy.com/BFMC/Clans/claninfo.aspx?profileid=411010702]

0000  40 4a 03 8d 62 30 00 19 c5 ea 13 f9 08 00 45 00   @J..b0........E.
0010  00 ae 00 9c 40 00 40 06 1b 2e c0 a8 00 47 45 0a   ....@.@......GE.
0020  18 87 e5 00 00 50 ba 4b 74 d8 23 60 3c f6 50 18   .....P.Kt.#`<.P.
0030  44 70 0f 69 00 00 47 45 54 20 2f 42 46 4d 43 2f   Dp.i..GET /BFMC/
0040  43 6c 61 6e 73 2f 63 6c 61 6e 69 6e 66 6f 2e 61   Clans/claninfo.a
0050  73 70 78 3f 70 72 6f 66 69 6c 65 69 64 3d 34 31   spx?profileid=41
0060  31 30 31 30 37 30 32 20 48 54 54 50 2f 31 2e 31   1010702 HTTP/1.1
0070  0d 0a 48 6f 73 74 3a 20 62 66 6d 63 2e 67 61 6d   ..Host: bfmc.gam
0080  65 73 70 79 2e 63 6f 6d 0d 0a 55 73 65 72 2d 41   espy.com..User-A
0090  67 65 6e 74 3a 20 47 61 6d 65 53 70 79 48 54 54   gent: GameSpyHTT
00a0  50 2f 31 2e 30 0d 0a 43 6f 6e 6e 65 63 74 69 6f   P/1.0..Connectio
00b0  6e 3a 20 63 6c 6f 73 65 0d 0a 0d 0a               n: close....

No.     Time                       Source                Destination           Protocol Length Info
     16 2012-10-11 22:08:42.925554 192.168.0.71          69.10.24.135          HTTP     307    GET /BFMC/Stats/getplayerinfo.aspx?pid=411010702&getarg=score,rank,pph,kills,suicides,time,lavd,mavd,havd,hed,pld,bod,k1,s1,k2,s2,k3,s3,k4,s4,k5,s5,tk,medals,ttb,mv,ngp HTTP/1.1 

Frame 16: 307 bytes on wire (2456 bits), 307 bytes captured (2456 bits)
    Arrival Time: Oct 11, 2012 22:08:42.925554000 GTB Standard Time
    Epoch Time: 1349982522.925554000 seconds
    [Time delta from previous captured frame: 0.000320000 seconds]
    [Time delta from previous displayed frame: 0.000320000 seconds]
    [Time since reference or first frame: 0.920458000 seconds]
    Frame Number: 16
    Frame Length: 307 bytes (2456 bits)
    Capture Length: 307 bytes (2456 bits)
    [Frame is marked: False]
    [Frame is ignored: False]
    [Protocols in frame: eth:ip:tcp:http]
Ethernet II, Src: SonyComp_ea:13:f9 (00:19:c5:ea:13:f9), Dst: ZyxelCom_8d:62:30 (40:4a:03:8d:62:30)
    Destination: ZyxelCom_8d:62:30 (40:4a:03:8d:62:30)
        Address: ZyxelCom_8d:62:30 (40:4a:03:8d:62:30)
        .... ...0 .... .... .... .... = IG bit: Individual address (unicast)
        .... ..0. .... .... .... .... = LG bit: Globally unique address (factory default)
    Source: SonyComp_ea:13:f9 (00:19:c5:ea:13:f9)
        Address: SonyComp_ea:13:f9 (00:19:c5:ea:13:f9)
        .... ...0 .... .... .... .... = IG bit: Individual address (unicast)
        .... ..0. .... .... .... .... = LG bit: Globally unique address (factory default)
    Type: IP (0x0800)
Internet Protocol Version 4, Src: 192.168.0.71 (192.168.0.71), Dst: 69.10.24.135 (69.10.24.135)
    Version: 4
    Header length: 20 bytes
    Differentiated Services Field: 0x00 (DSCP 0x00: Default; ECN: 0x00: Not-ECT (Not ECN-Capable Transport))
        0000 00.. = Differentiated Services Codepoint: Default (0x00)
        .... ..00 = Explicit Congestion Notification: Not-ECT (Not ECN-Capable Transport) (0x00)
    Total Length: 293
    Identification: 0x009d (157)
    Flags: 0x02 (Don't Fragment)
        0... .... = Reserved bit: Not set
        .1.. .... = Don't fragment: Set
        ..0. .... = More fragments: Not set
    Fragment offset: 0
    Time to live: 64
    Protocol: TCP (6)
    Header checksum: 0x1ab6 [correct]
        [Good: True]
        [Bad: False]
    Source: 192.168.0.71 (192.168.0.71)
    Destination: 69.10.24.135 (69.10.24.135)
Transmission Control Protocol, Src Port: 58623 (58623), Dst Port: http (80), Seq: 1, Ack: 1, Len: 253
    Source port: 58623 (58623)
    Destination port: http (80)
    [Stream index: 2]
    Sequence number: 1    (relative sequence number)
    [Next sequence number: 254    (relative sequence number)]
    Acknowledgement number: 1    (relative ack number)
    Header length: 20 bytes
    Flags: 0x018 (PSH, ACK)
        000. .... .... = Reserved: Not set
        ...0 .... .... = Nonce: Not set
        .... 0... .... = Congestion Window Reduced (CWR): Not set
        .... .0.. .... = ECN-Echo: Not set
        .... ..0. .... = Urgent: Not set
        .... ...1 .... = Acknowledgement: Set
        .... .... 1... = Push: Set
        .... .... .0.. = Reset: Not set
        .... .... ..0. = Syn: Not set
        .... .... ...0 = Fin: Not set
    Window size value: 17520
    [Calculated window size: 17520]
    [Window size scaling factor: 1]
    Checksum: 0x0155 [validation disabled]
        [Good Checksum: False]
        [Bad Checksum: False]
    [SEQ/ACK analysis]
        [Bytes in flight: 254]
Hypertext Transfer Protocol
    GET /BFMC/Stats/getplayerinfo.aspx?pid=411010702&getarg=score,rank,pph,kills,suicides,time,lavd,mavd,havd,hed,pld,bod,k1,s1,k2,s2,k3,s3,k4,s4,k5,s5,tk,medals,ttb,mv,ngp HTTP/1.1\r\n
        [Expert Info (Chat/Sequence): GET /BFMC/Stats/getplayerinfo.aspx?pid=411010702&getarg=score,rank,pph,kills,suicides,time,lavd,mavd,havd,hed,pld,bod,k1,s1,k2,s2,k3,s3,k4,s4,k5,s5,tk,medals,ttb,mv,ngp HTTP/1.1\r\n]
            [Message: GET /BFMC/Stats/getplayerinfo.aspx?pid=411010702&getarg=score,rank,pph,kills,suicides,time,lavd,mavd,havd,hed,pld,bod,k1,s1,k2,s2,k3,s3,k4,s4,k5,s5,tk,medals,ttb,mv,ngp HTTP/1.1\r\n]
            [Severity level: Chat]
            [Group: Sequence]
        Request Method: GET
        Request URI: /BFMC/Stats/getplayerinfo.aspx?pid=411010702&getarg=score,rank,pph,kills,suicides,time,lavd,mavd,havd,hed,pld,bod,k1,s1,k2,s2,k3,s3,k4,s4,k5,s5,tk,medals,ttb,mv,ngp
        Request Version: HTTP/1.1
    Host: bfmc.gamespy.com\r\n
    User-Agent: GameSpyHTTP/1.0\r\n
    Connection: close\r\n
    \r\n
    [Full request URI: http://bfmc.gamespy.com/BFMC/Stats/getplayerinfo.aspx?pid=411010702&getarg=score,rank,pph,kills,suicides,time,lavd,mavd,havd,hed,pld,bod,k1,s1,k2,s2,k3,s3,k4,s4,k5,s5,tk,medals,ttb,mv,ngp]

0000  40 4a 03 8d 62 30 00 19 c5 ea 13 f9 08 00 45 00   @J..b0........E.
0010  01 25 00 9d 40 00 40 06 1a b6 c0 a8 00 47 45 0a   .%..@.@......GE.
0020  18 87 e4 ff 00 50 bb e3 d5 90 df 48 bd 95 50 18   .....P.....H..P.
0030  44 70 01 55 00 00 47 45 54 20 2f 42 46 4d 43 2f   Dp.U..GET /BFMC/
0040  53 74 61 74 73 2f 67 65 74 70 6c 61 79 65 72 69   Stats/getplayeri
0050  6e 66 6f 2e 61 73 70 78 3f 70 69 64 3d 34 31 31   nfo.aspx?pid=411
0060  30 31 30 37 30 32 26 67 65 74 61 72 67 3d 73 63   010702&getarg=sc
0070  6f 72 65 2c 72 61 6e 6b 2c 70 70 68 2c 6b 69 6c   ore,rank,pph,kil
0080  6c 73 2c 73 75 69 63 69 64 65 73 2c 74 69 6d 65   ls,suicides,time
0090  2c 6c 61 76 64 2c 6d 61 76 64 2c 68 61 76 64 2c   ,lavd,mavd,havd,
00a0  68 65 64 2c 70 6c 64 2c 62 6f 64 2c 6b 31 2c 73   hed,pld,bod,k1,s
00b0  31 2c 6b 32 2c 73 32 2c 6b 33 2c 73 33 2c 6b 34   1,k2,s2,k3,s3,k4
00c0  2c 73 34 2c 6b 35 2c 73 35 2c 74 6b 2c 6d 65 64   ,s4,k5,s5,tk,med
00d0  61 6c 73 2c 74 74 62 2c 6d 76 2c 6e 67 70 20 48   als,ttb,mv,ngp H
00e0  54 54 50 2f 31 2e 31 0d 0a 48 6f 73 74 3a 20 62   TTP/1.1..Host: b
00f0  66 6d 63 2e 67 61 6d 65 73 70 79 2e 63 6f 6d 0d   fmc.gamespy.com.
0100  0a 55 73 65 72 2d 41 67 65 6e 74 3a 20 47 61 6d   .User-Agent: Gam
0110  65 53 70 79 48 54 54 50 2f 31 2e 30 0d 0a 43 6f   eSpyHTTP/1.0..Co
0120  6e 6e 65 63 74 69 6f 6e 3a 20 63 6c 6f 73 65 0d   nnection: close.
0130  0a 0d 0a                                          ...

No.     Time                       Source                Destination           Protocol Length Info
     17 2012-10-11 22:08:42.925835 192.168.0.71          69.10.24.135          HTTP     193    GET /BFMC/Clans/leaderboard.aspx?startrank=1&endrank=7 HTTP/1.1 

Frame 17: 193 bytes on wire (1544 bits), 193 bytes captured (1544 bits)
    Arrival Time: Oct 11, 2012 22:08:42.925835000 GTB Standard Time
    Epoch Time: 1349982522.925835000 seconds
    [Time delta from previous captured frame: 0.000281000 seconds]
    [Time delta from previous displayed frame: 0.000281000 seconds]
    [Time since reference or first frame: 0.920739000 seconds]
    Frame Number: 17
    Frame Length: 193 bytes (1544 bits)
    Capture Length: 193 bytes (1544 bits)
    [Frame is marked: False]
    [Frame is ignored: False]
    [Protocols in frame: eth:ip:tcp:http]
Ethernet II, Src: SonyComp_ea:13:f9 (00:19:c5:ea:13:f9), Dst: ZyxelCom_8d:62:30 (40:4a:03:8d:62:30)
    Destination: ZyxelCom_8d:62:30 (40:4a:03:8d:62:30)
        Address: ZyxelCom_8d:62:30 (40:4a:03:8d:62:30)
        .... ...0 .... .... .... .... = IG bit: Individual address (unicast)
        .... ..0. .... .... .... .... = LG bit: Globally unique address (factory default)
    Source: SonyComp_ea:13:f9 (00:19:c5:ea:13:f9)
        Address: SonyComp_ea:13:f9 (00:19:c5:ea:13:f9)
        .... ...0 .... .... .... .... = IG bit: Individual address (unicast)
        .... ..0. .... .... .... .... = LG bit: Globally unique address (factory default)
    Type: IP (0x0800)
Internet Protocol Version 4, Src: 192.168.0.71 (192.168.0.71), Dst: 69.10.24.135 (69.10.24.135)
    Version: 4
    Header length: 20 bytes
    Differentiated Services Field: 0x00 (DSCP 0x00: Default; ECN: 0x00: Not-ECT (Not ECN-Capable Transport))
        0000 00.. = Differentiated Services Codepoint: Default (0x00)
        .... ..00 = Explicit Congestion Notification: Not-ECT (Not ECN-Capable Transport) (0x00)
    Total Length: 179
    Identification: 0x009e (158)
    Flags: 0x02 (Don't Fragment)
        0... .... = Reserved bit: Not set
        .1.. .... = Don't fragment: Set
        ..0. .... = More fragments: Not set
    Fragment offset: 0
    Time to live: 64
    Protocol: TCP (6)
    Header checksum: 0x1b27 [correct]
        [Good: True]
        [Bad: False]
    Source: 192.168.0.71 (192.168.0.71)
    Destination: 69.10.24.135 (69.10.24.135)
Transmission Control Protocol, Src Port: 58622 (58622), Dst Port: http (80), Seq: 1, Ack: 1, Len: 139
    Source port: 58622 (58622)
    Destination port: http (80)
    [Stream index: 3]
    Sequence number: 1    (relative sequence number)
    [Next sequence number: 140    (relative sequence number)]
    Acknowledgement number: 1    (relative ack number)
    Header length: 20 bytes
    Flags: 0x018 (PSH, ACK)
        000. .... .... = Reserved: Not set
        ...0 .... .... = Nonce: Not set
        .... 0... .... = Congestion Window Reduced (CWR): Not set
        .... .0.. .... = ECN-Echo: Not set
        .... ..0. .... = Urgent: Not set
        .... ...1 .... = Acknowledgement: Set
        .... .... 1... = Push: Set
        .... .... .0.. = Reset: Not set
        .... .... ..0. = Syn: Not set
        .... .... ...0 = Fin: Not set
    Window size value: 17520
    [Calculated window size: 17520]
    [Window size scaling factor: 1]
    Checksum: 0xda4f [validation disabled]
        [Good Checksum: False]
        [Bad Checksum: False]
    [SEQ/ACK analysis]
        [Bytes in flight: 140]
Hypertext Transfer Protocol
    GET /BFMC/Clans/leaderboard.aspx?startrank=1&endrank=7 HTTP/1.1\r\n
        [Expert Info (Chat/Sequence): GET /BFMC/Clans/leaderboard.aspx?startrank=1&endrank=7 HTTP/1.1\r\n]
            [Message: GET /BFMC/Clans/leaderboard.aspx?startrank=1&endrank=7 HTTP/1.1\r\n]
            [Severity level: Chat]
            [Group: Sequence]
        Request Method: GET
        Request URI: /BFMC/Clans/leaderboard.aspx?startrank=1&endrank=7
        Request Version: HTTP/1.1
    Host: bfmc.gamespy.com\r\n
    User-Agent: GameSpyHTTP/1.0\r\n
    Connection: close\r\n
    \r\n
    [Full request URI: http://bfmc.gamespy.com/BFMC/Clans/leaderboard.aspx?startrank=1&endrank=7]

0000  40 4a 03 8d 62 30 00 19 c5 ea 13 f9 08 00 45 00   @J..b0........E.
0010  00 b3 00 9e 40 00 40 06 1b 27 c0 a8 00 47 45 0a   ....@.@..'...GE.
0020  18 87 e4 fe 00 50 bc d9 b6 d3 cb cf 41 1f 50 18   .....P......A.P.
0030  44 70 da 4f 00 00 47 45 54 20 2f 42 46 4d 43 2f   Dp.O..GET /BFMC/
0040  43 6c 61 6e 73 2f 6c 65 61 64 65 72 62 6f 61 72   Clans/leaderboar
0050  64 2e 61 73 70 78 3f 73 74 61 72 74 72 61 6e 6b   d.aspx?startrank
0060  3d 31 26 65 6e 64 72 61 6e 6b 3d 37 20 48 54 54   =1&endrank=7 HTT
0070  50 2f 31 2e 31 0d 0a 48 6f 73 74 3a 20 62 66 6d   P/1.1..Host: bfm
0080  63 2e 67 61 6d 65 73 70 79 2e 63 6f 6d 0d 0a 55   c.gamespy.com..U
0090  73 65 72 2d 41 67 65 6e 74 3a 20 47 61 6d 65 53   ser-Agent: GameS
00a0  70 79 48 54 54 50 2f 31 2e 30 0d 0a 43 6f 6e 6e   pyHTTP/1.0..Conn
00b0  65 63 74 69 6f 6e 3a 20 63 6c 6f 73 65 0d 0a 0d   ection: close...
00c0  0a                                                .

No.     Time                       Source                Destination           Protocol Length Info
     18 2012-10-11 22:08:42.937145 192.168.0.71          69.10.24.135          TCP      60     58621 > http [ACK] Seq=1 Ack=1 Win=17520 Len=0

Frame 18: 60 bytes on wire (480 bits), 60 bytes captured (480 bits)
    Arrival Time: Oct 11, 2012 22:08:42.937145000 GTB Standard Time
    Epoch Time: 1349982522.937145000 seconds
    [Time delta from previous captured frame: 0.011310000 seconds]
    [Time delta from previous displayed frame: 0.011310000 seconds]
    [Time since reference or first frame: 0.932049000 seconds]
    Frame Number: 18
    Frame Length: 60 bytes (480 bits)
    Capture Length: 60 bytes (480 bits)
    [Frame is marked: False]
    [Frame is ignored: False]
    [Protocols in frame: eth:ip:tcp]
Ethernet II, Src: SonyComp_ea:13:f9 (00:19:c5:ea:13:f9), Dst: ZyxelCom_8d:62:30 (40:4a:03:8d:62:30)
    Destination: ZyxelCom_8d:62:30 (40:4a:03:8d:62:30)
        Address: ZyxelCom_8d:62:30 (40:4a:03:8d:62:30)
        .... ...0 .... .... .... .... = IG bit: Individual address (unicast)
        .... ..0. .... .... .... .... = LG bit: Globally unique address (factory default)
    Source: SonyComp_ea:13:f9 (00:19:c5:ea:13:f9)
        Address: SonyComp_ea:13:f9 (00:19:c5:ea:13:f9)
        .... ...0 .... .... .... .... = IG bit: Individual address (unicast)
        .... ..0. .... .... .... .... = LG bit: Globally unique address (factory default)
    Type: IP (0x0800)
    Trailer: 000000000000
Internet Protocol Version 4, Src: 192.168.0.71 (192.168.0.71), Dst: 69.10.24.135 (69.10.24.135)
    Version: 4
    Header length: 20 bytes
    Differentiated Services Field: 0x00 (DSCP 0x00: Default; ECN: 0x00: Not-ECT (Not ECN-Capable Transport))
        0000 00.. = Differentiated Services Codepoint: Default (0x00)
        .... ..00 = Explicit Congestion Notification: Not-ECT (Not ECN-Capable Transport) (0x00)
    Total Length: 40
    Identification: 0x009f (159)
    Flags: 0x02 (Don't Fragment)
        0... .... = Reserved bit: Not set
        .1.. .... = Don't fragment: Set
        ..0. .... = More fragments: Not set
    Fragment offset: 0
    Time to live: 64
    Protocol: TCP (6)
    Header checksum: 0x1bb1 [correct]
        [Good: True]
        [Bad: False]
    Source: 192.168.0.71 (192.168.0.71)
    Destination: 69.10.24.135 (69.10.24.135)
Transmission Control Protocol, Src Port: 58621 (58621), Dst Port: http (80), Seq: 1, Ack: 1, Len: 0
    Source port: 58621 (58621)
    Destination port: http (80)
    [Stream index: 4]
    Sequence number: 1    (relative sequence number)
    Acknowledgement number: 1    (relative ack number)
    Header length: 20 bytes
    Flags: 0x010 (ACK)
        000. .... .... = Reserved: Not set
        ...0 .... .... = Nonce: Not set
        .... 0... .... = Congestion Window Reduced (CWR): Not set
        .... .0.. .... = ECN-Echo: Not set
        .... ..0. .... = Urgent: Not set
        .... ...1 .... = Acknowledgement: Set
        .... .... 0... = Push: Not set
        .... .... .0.. = Reset: Not set
        .... .... ..0. = Syn: Not set
        .... .... ...0 = Fin: Not set
    Window size value: 17520
    [Calculated window size: 17520]
    [Window size scaling factor: 1]
    Checksum: 0xc257 [validation disabled]
        [Good Checksum: False]
        [Bad Checksum: False]

0000  40 4a 03 8d 62 30 00 19 c5 ea 13 f9 08 00 45 00   @J..b0........E.
0010  00 28 00 9f 40 00 40 06 1b b1 c0 a8 00 47 45 0a   .(..@.@......GE.
0020  18 87 e4 fd 00 50 bd 71 ba 5c ff e7 2d 88 50 10   .....P.q.\..-.P.
0030  44 70 c2 57 00 00 00 00 00 00 00 00               Dp.W........

No.     Time                       Source                Destination           Protocol Length Info
     19 2012-10-11 22:08:42.937337 192.168.0.71          69.10.24.135          TCP      60     58619 > http [ACK] Seq=1 Ack=1 Win=17520 Len=0

Frame 19: 60 bytes on wire (480 bits), 60 bytes captured (480 bits)
    Arrival Time: Oct 11, 2012 22:08:42.937337000 GTB Standard Time
    Epoch Time: 1349982522.937337000 seconds
    [Time delta from previous captured frame: 0.000192000 seconds]
    [Time delta from previous displayed frame: 0.000192000 seconds]
    [Time since reference or first frame: 0.932241000 seconds]
    Frame Number: 19
    Frame Length: 60 bytes (480 bits)
    Capture Length: 60 bytes (480 bits)
    [Frame is marked: False]
    [Frame is ignored: False]
    [Protocols in frame: eth:ip:tcp]
Ethernet II, Src: SonyComp_ea:13:f9 (00:19:c5:ea:13:f9), Dst: ZyxelCom_8d:62:30 (40:4a:03:8d:62:30)
    Destination: ZyxelCom_8d:62:30 (40:4a:03:8d:62:30)
        Address: ZyxelCom_8d:62:30 (40:4a:03:8d:62:30)
        .... ...0 .... .... .... .... = IG bit: Individual address (unicast)
        .... ..0. .... .... .... .... = LG bit: Globally unique address (factory default)
    Source: SonyComp_ea:13:f9 (00:19:c5:ea:13:f9)
        Address: SonyComp_ea:13:f9 (00:19:c5:ea:13:f9)
        .... ...0 .... .... .... .... = IG bit: Individual address (unicast)
        .... ..0. .... .... .... .... = LG bit: Globally unique address (factory default)
    Type: IP (0x0800)
    Trailer: 000000000000
Internet Protocol Version 4, Src: 192.168.0.71 (192.168.0.71), Dst: 69.10.24.135 (69.10.24.135)
    Version: 4
    Header length: 20 bytes
    Differentiated Services Field: 0x00 (DSCP 0x00: Default; ECN: 0x00: Not-ECT (Not ECN-Capable Transport))
        0000 00.. = Differentiated Services Codepoint: Default (0x00)
        .... ..00 = Explicit Congestion Notification: Not-ECT (Not ECN-Capable Transport) (0x00)
    Total Length: 40
    Identification: 0x00a0 (160)
    Flags: 0x02 (Don't Fragment)
        0... .... = Reserved bit: Not set
        .1.. .... = Don't fragment: Set
        ..0. .... = More fragments: Not set
    Fragment offset: 0
    Time to live: 64
    Protocol: TCP (6)
    Header checksum: 0x1bb0 [correct]
        [Good: True]
        [Bad: False]
    Source: 192.168.0.71 (192.168.0.71)
    Destination: 69.10.24.135 (69.10.24.135)
Transmission Control Protocol, Src Port: 58619 (58619), Dst Port: http (80), Seq: 1, Ack: 1, Len: 0
    Source port: 58619 (58619)
    Destination port: http (80)
    [Stream index: 6]
    Sequence number: 1    (relative sequence number)
    Acknowledgement number: 1    (relative ack number)
    Header length: 20 bytes
    Flags: 0x010 (ACK)
        000. .... .... = Reserved: Not set
        ...0 .... .... = Nonce: Not set
        .... 0... .... = Congestion Window Reduced (CWR): Not set
        .... .0.. .... = ECN-Echo: Not set
        .... ..0. .... = Urgent: Not set
        .... ...1 .... = Acknowledgement: Set
        .... .... 0... = Push: Not set
        .... .... .0.. = Reset: Not set
        .... .... ..0. = Syn: Not set
        .... .... ...0 = Fin: Not set
    Window size value: 17520
    [Calculated window size: 17520]
    [Window size scaling factor: 1]
    Checksum: 0xdc6c [validation disabled]
        [Good Checksum: False]
        [Bad Checksum: False]

0000  40 4a 03 8d 62 30 00 19 c5 ea 13 f9 08 00 45 00   @J..b0........E.
0010  00 28 00 a0 40 00 40 06 1b b0 c0 a8 00 47 45 0a   .(..@.@......GE.
0020  18 87 e4 fb 00 50 bf 8a e2 c4 b7 9f 31 3c 50 10   .....P......1<P.
0030  44 70 dc 6c 00 00 00 00 00 00 00 00               Dp.l........

No.     Time                       Source                Destination           Protocol Length Info
     20 2012-10-11 22:08:42.937524 192.168.0.71          69.10.24.135          TCP      60     58620 > http [ACK] Seq=1 Ack=1 Win=17520 Len=0

Frame 20: 60 bytes on wire (480 bits), 60 bytes captured (480 bits)
    Arrival Time: Oct 11, 2012 22:08:42.937524000 GTB Standard Time
    Epoch Time: 1349982522.937524000 seconds
    [Time delta from previous captured frame: 0.000187000 seconds]
    [Time delta from previous displayed frame: 0.000187000 seconds]
    [Time since reference or first frame: 0.932428000 seconds]
    Frame Number: 20
    Frame Length: 60 bytes (480 bits)
    Capture Length: 60 bytes (480 bits)
    [Frame is marked: False]
    [Frame is ignored: False]
    [Protocols in frame: eth:ip:tcp]
Ethernet II, Src: SonyComp_ea:13:f9 (00:19:c5:ea:13:f9), Dst: ZyxelCom_8d:62:30 (40:4a:03:8d:62:30)
    Destination: ZyxelCom_8d:62:30 (40:4a:03:8d:62:30)
        Address: ZyxelCom_8d:62:30 (40:4a:03:8d:62:30)
        .... ...0 .... .... .... .... = IG bit: Individual address (unicast)
        .... ..0. .... .... .... .... = LG bit: Globally unique address (factory default)
    Source: SonyComp_ea:13:f9 (00:19:c5:ea:13:f9)
        Address: SonyComp_ea:13:f9 (00:19:c5:ea:13:f9)
        .... ...0 .... .... .... .... = IG bit: Individual address (unicast)
        .... ..0. .... .... .... .... = LG bit: Globally unique address (factory default)
    Type: IP (0x0800)
    Trailer: 000000000000
Internet Protocol Version 4, Src: 192.168.0.71 (192.168.0.71), Dst: 69.10.24.135 (69.10.24.135)
    Version: 4
    Header length: 20 bytes
    Differentiated Services Field: 0x00 (DSCP 0x00: Default; ECN: 0x00: Not-ECT (Not ECN-Capable Transport))
        0000 00.. = Differentiated Services Codepoint: Default (0x00)
        .... ..00 = Explicit Congestion Notification: Not-ECT (Not ECN-Capable Transport) (0x00)
    Total Length: 40
    Identification: 0x00a1 (161)
    Flags: 0x02 (Don't Fragment)
        0... .... = Reserved bit: Not set
        .1.. .... = Don't fragment: Set
        ..0. .... = More fragments: Not set
    Fragment offset: 0
    Time to live: 64
    Protocol: TCP (6)
    Header checksum: 0x1baf [correct]
        [Good: True]
        [Bad: False]
    Source: 192.168.0.71 (192.168.0.71)
    Destination: 69.10.24.135 (69.10.24.135)
Transmission Control Protocol, Src Port: 58620 (58620), Dst Port: http (80), Seq: 1, Ack: 1, Len: 0
    Source port: 58620 (58620)
    Destination port: http (80)
    [Stream index: 5]
    Sequence number: 1    (relative sequence number)
    Acknowledgement number: 1    (relative ack number)
    Header length: 20 bytes
    Flags: 0x010 (ACK)
        000. .... .... = Reserved: Not set
        ...0 .... .... = Nonce: Not set
        .... 0... .... = Congestion Window Reduced (CWR): Not set
        .... .0.. .... = ECN-Echo: Not set
        .... ..0. .... = Urgent: Not set
        .... ...1 .... = Acknowledgement: Set
        .... .... 0... = Push: Not set
        .... .... .0.. = Reset: Not set
        .... .... ..0. = Syn: Not set
        .... .... ...0 = Fin: Not set
    Window size value: 17520
    [Calculated window size: 17520]
    [Window size scaling factor: 1]
    Checksum: 0xa978 [validation disabled]
        [Good Checksum: False]
        [Bad Checksum: False]

0000  40 4a 03 8d 62 30 00 19 c5 ea 13 f9 08 00 45 00   @J..b0........E.
0010  00 28 00 a1 40 00 40 06 1b af c0 a8 00 47 45 0a   .(..@.@......GE.
0020  18 87 e4 fc 00 50 be 81 d4 16 43 97 e7 ee 50 10   .....P....C...P.
0030  44 70 a9 78 00 00 00 00 00 00 00 00               Dp.x........

No.     Time                       Source                Destination           Protocol Length Info
     21 2012-10-11 22:08:42.945217 192.168.0.71          69.10.24.135          HTTP     196    GET /BFMC/Stats/stats.aspx?sort=vehicles&pos=1&posafter=9 HTTP/1.1 

Frame 21: 196 bytes on wire (1568 bits), 196 bytes captured (1568 bits)
    Arrival Time: Oct 11, 2012 22:08:42.945217000 GTB Standard Time
    Epoch Time: 1349982522.945217000 seconds
    [Time delta from previous captured frame: 0.007693000 seconds]
    [Time delta from previous displayed frame: 0.007693000 seconds]
    [Time since reference or first frame: 0.940121000 seconds]
    Frame Number: 21
    Frame Length: 196 bytes (1568 bits)
    Capture Length: 196 bytes (1568 bits)
    [Frame is marked: False]
    [Frame is ignored: False]
    [Protocols in frame: eth:ip:tcp:http]
Ethernet II, Src: SonyComp_ea:13:f9 (00:19:c5:ea:13:f9), Dst: ZyxelCom_8d:62:30 (40:4a:03:8d:62:30)
    Destination: ZyxelCom_8d:62:30 (40:4a:03:8d:62:30)
        Address: ZyxelCom_8d:62:30 (40:4a:03:8d:62:30)
        .... ...0 .... .... .... .... = IG bit: Individual address (unicast)
        .... ..0. .... .... .... .... = LG bit: Globally unique address (factory default)
    Source: SonyComp_ea:13:f9 (00:19:c5:ea:13:f9)
        Address: SonyComp_ea:13:f9 (00:19:c5:ea:13:f9)
        .... ...0 .... .... .... .... = IG bit: Individual address (unicast)
        .... ..0. .... .... .... .... = LG bit: Globally unique address (factory default)
    Type: IP (0x0800)
Internet Protocol Version 4, Src: 192.168.0.71 (192.168.0.71), Dst: 69.10.24.135 (69.10.24.135)
    Version: 4
    Header length: 20 bytes
    Differentiated Services Field: 0x00 (DSCP 0x00: Default; ECN: 0x00: Not-ECT (Not ECN-Capable Transport))
        0000 00.. = Differentiated Services Codepoint: Default (0x00)
        .... ..00 = Explicit Congestion Notification: Not-ECT (Not ECN-Capable Transport) (0x00)
    Total Length: 182
    Identification: 0x00a2 (162)
    Flags: 0x02 (Don't Fragment)
        0... .... = Reserved bit: Not set
        .1.. .... = Don't fragment: Set
        ..0. .... = More fragments: Not set
    Fragment offset: 0
    Time to live: 64
    Protocol: TCP (6)
    Header checksum: 0x1b20 [correct]
        [Good: True]
        [Bad: False]
    Source: 192.168.0.71 (192.168.0.71)
    Destination: 69.10.24.135 (69.10.24.135)
Transmission Control Protocol, Src Port: 58621 (58621), Dst Port: http (80), Seq: 1, Ack: 1, Len: 142
    Source port: 58621 (58621)
    Destination port: http (80)
    [Stream index: 4]
    Sequence number: 1    (relative sequence number)
    [Next sequence number: 143    (relative sequence number)]
    Acknowledgement number: 1    (relative ack number)
    Header length: 20 bytes
    Flags: 0x018 (PSH, ACK)
        000. .... .... = Reserved: Not set
        ...0 .... .... = Nonce: Not set
        .... 0... .... = Congestion Window Reduced (CWR): Not set
        .... .0.. .... = ECN-Echo: Not set
        .... ..0. .... = Urgent: Not set
        .... ...1 .... = Acknowledgement: Set
        .... .... 1... = Push: Set
        .... .... .0.. = Reset: Not set
        .... .... ..0. = Syn: Not set
        .... .... ...0 = Fin: Not set
    Window size value: 17520
    [Calculated window size: 17520]
    [Window size scaling factor: 1]
    Checksum: 0xdc32 [validation disabled]
        [Good Checksum: False]
        [Bad Checksum: False]
    [SEQ/ACK analysis]
        [Bytes in flight: 143]
Hypertext Transfer Protocol
    GET /BFMC/Stats/stats.aspx?sort=vehicles&pos=1&posafter=9 HTTP/1.1\r\n
        [Expert Info (Chat/Sequence): GET /BFMC/Stats/stats.aspx?sort=vehicles&pos=1&posafter=9 HTTP/1.1\r\n]
            [Message: GET /BFMC/Stats/stats.aspx?sort=vehicles&pos=1&posafter=9 HTTP/1.1\r\n]
            [Severity level: Chat]
            [Group: Sequence]
        Request Method: GET
        Request URI: /BFMC/Stats/stats.aspx?sort=vehicles&pos=1&posafter=9
        Request Version: HTTP/1.1
    Host: bfmc.gamespy.com\r\n
    User-Agent: GameSpyHTTP/1.0\r\n
    Connection: close\r\n
    \r\n
    [Full request URI: http://bfmc.gamespy.com/BFMC/Stats/stats.aspx?sort=vehicles&pos=1&posafter=9]

0000  40 4a 03 8d 62 30 00 19 c5 ea 13 f9 08 00 45 00   @J..b0........E.
0010  00 b6 00 a2 40 00 40 06 1b 20 c0 a8 00 47 45 0a   ....@.@.. ...GE.
0020  18 87 e4 fd 00 50 bd 71 ba 5c ff e7 2d 88 50 18   .....P.q.\..-.P.
0030  44 70 dc 32 00 00 47 45 54 20 2f 42 46 4d 43 2f   Dp.2..GET /BFMC/
0040  53 74 61 74 73 2f 73 74 61 74 73 2e 61 73 70 78   Stats/stats.aspx
0050  3f 73 6f 72 74 3d 76 65 68 69 63 6c 65 73 26 70   ?sort=vehicles&p
0060  6f 73 3d 31 26 70 6f 73 61 66 74 65 72 3d 39 20   os=1&posafter=9 
0070  48 54 54 50 2f 31 2e 31 0d 0a 48 6f 73 74 3a 20   HTTP/1.1..Host: 
0080  62 66 6d 63 2e 67 61 6d 65 73 70 79 2e 63 6f 6d   bfmc.gamespy.com
0090  0d 0a 55 73 65 72 2d 41 67 65 6e 74 3a 20 47 61   ..User-Agent: Ga
00a0  6d 65 53 70 79 48 54 54 50 2f 31 2e 30 0d 0a 43   meSpyHTTP/1.0..C
00b0  6f 6e 6e 65 63 74 69 6f 6e 3a 20 63 6c 6f 73 65   onnection: close
00c0  0d 0a 0d 0a                                       ....

No.     Time                       Source                Destination           Protocol Length Info
     22 2012-10-11 22:08:42.945513 192.168.0.71          69.10.24.135          HTTP     216    GET /BFMC/Stats/stats.aspx?sort=vehicles&posbefore=4&posafter=5&pid=411010702 HTTP/1.1 

Frame 22: 216 bytes on wire (1728 bits), 216 bytes captured (1728 bits)
    Arrival Time: Oct 11, 2012 22:08:42.945513000 GTB Standard Time
    Epoch Time: 1349982522.945513000 seconds
    [Time delta from previous captured frame: 0.000296000 seconds]
    [Time delta from previous displayed frame: 0.000296000 seconds]
    [Time since reference or first frame: 0.940417000 seconds]
    Frame Number: 22
    Frame Length: 216 bytes (1728 bits)
    Capture Length: 216 bytes (1728 bits)
    [Frame is marked: False]
    [Frame is ignored: False]
    [Protocols in frame: eth:ip:tcp:http]
Ethernet II, Src: SonyComp_ea:13:f9 (00:19:c5:ea:13:f9), Dst: ZyxelCom_8d:62:30 (40:4a:03:8d:62:30)
    Destination: ZyxelCom_8d:62:30 (40:4a:03:8d:62:30)
        Address: ZyxelCom_8d:62:30 (40:4a:03:8d:62:30)
        .... ...0 .... .... .... .... = IG bit: Individual address (unicast)
        .... ..0. .... .... .... .... = LG bit: Globally unique address (factory default)
    Source: SonyComp_ea:13:f9 (00:19:c5:ea:13:f9)
        Address: SonyComp_ea:13:f9 (00:19:c5:ea:13:f9)
        .... ...0 .... .... .... .... = IG bit: Individual address (unicast)
        .... ..0. .... .... .... .... = LG bit: Globally unique address (factory default)
    Type: IP (0x0800)
Internet Protocol Version 4, Src: 192.168.0.71 (192.168.0.71), Dst: 69.10.24.135 (69.10.24.135)
    Version: 4
    Header length: 20 bytes
    Differentiated Services Field: 0x00 (DSCP 0x00: Default; ECN: 0x00: Not-ECT (Not ECN-Capable Transport))
        0000 00.. = Differentiated Services Codepoint: Default (0x00)
        .... ..00 = Explicit Congestion Notification: Not-ECT (Not ECN-Capable Transport) (0x00)
    Total Length: 202
    Identification: 0x00a3 (163)
    Flags: 0x02 (Don't Fragment)
        0... .... = Reserved bit: Not set
        .1.. .... = Don't fragment: Set
        ..0. .... = More fragments: Not set
    Fragment offset: 0
    Time to live: 64
    Protocol: TCP (6)
    Header checksum: 0x1b0b [correct]
        [Good: True]
        [Bad: False]
    Source: 192.168.0.71 (192.168.0.71)
    Destination: 69.10.24.135 (69.10.24.135)
Transmission Control Protocol, Src Port: 58620 (58620), Dst Port: http (80), Seq: 1, Ack: 1, Len: 162
    Source port: 58620 (58620)
    Destination port: http (80)
    [Stream index: 5]
    Sequence number: 1    (relative sequence number)
    [Next sequence number: 163    (relative sequence number)]
    Acknowledgement number: 1    (relative ack number)
    Header length: 20 bytes
    Flags: 0x018 (PSH, ACK)
        000. .... .... = Reserved: Not set
        ...0 .... .... = Nonce: Not set
        .... 0... .... = Congestion Window Reduced (CWR): Not set
        .... .0.. .... = ECN-Echo: Not set
        .... ..0. .... = Urgent: Not set
        .... ...1 .... = Acknowledgement: Set
        .... .... 1... = Push: Set
        .... .... .0.. = Reset: Not set
        .... .... ..0. = Syn: Not set
        .... .... ...0 = Fin: Not set
    Window size value: 17520
    [Calculated window size: 17520]
    [Window size scaling factor: 1]
    Checksum: 0xb773 [validation disabled]
        [Good Checksum: False]
        [Bad Checksum: False]
    [SEQ/ACK analysis]
        [Bytes in flight: 163]
Hypertext Transfer Protocol
    GET /BFMC/Stats/stats.aspx?sort=vehicles&posbefore=4&posafter=5&pid=411010702 HTTP/1.1\r\n
        [Expert Info (Chat/Sequence): GET /BFMC/Stats/stats.aspx?sort=vehicles&posbefore=4&posafter=5&pid=411010702 HTTP/1.1\r\n]
            [Message: GET /BFMC/Stats/stats.aspx?sort=vehicles&posbefore=4&posafter=5&pid=411010702 HTTP/1.1\r\n]
            [Severity level: Chat]
            [Group: Sequence]
        Request Method: GET
        Request URI: /BFMC/Stats/stats.aspx?sort=vehicles&posbefore=4&posafter=5&pid=411010702
        Request Version: HTTP/1.1
    Host: bfmc.gamespy.com\r\n
    User-Agent: GameSpyHTTP/1.0\r\n
    Connection: close\r\n
    \r\n
    [Full request URI: http://bfmc.gamespy.com/BFMC/Stats/stats.aspx?sort=vehicles&posbefore=4&posafter=5&pid=411010702]

0000  40 4a 03 8d 62 30 00 19 c5 ea 13 f9 08 00 45 00   @J..b0........E.
0010  00 ca 00 a3 40 00 40 06 1b 0b c0 a8 00 47 45 0a   ....@.@......GE.
0020  18 87 e4 fc 00 50 be 81 d4 16 43 97 e7 ee 50 18   .....P....C...P.
0030  44 70 b7 73 00 00 47 45 54 20 2f 42 46 4d 43 2f   Dp.s..GET /BFMC/
0040  53 74 61 74 73 2f 73 74 61 74 73 2e 61 73 70 78   Stats/stats.aspx
0050  3f 73 6f 72 74 3d 76 65 68 69 63 6c 65 73 26 70   ?sort=vehicles&p
0060  6f 73 62 65 66 6f 72 65 3d 34 26 70 6f 73 61 66   osbefore=4&posaf
0070  74 65 72 3d 35 26 70 69 64 3d 34 31 31 30 31 30   ter=5&pid=411010
0080  37 30 32 20 48 54 54 50 2f 31 2e 31 0d 0a 48 6f   702 HTTP/1.1..Ho
0090  73 74 3a 20 62 66 6d 63 2e 67 61 6d 65 73 70 79   st: bfmc.gamespy
00a0  2e 63 6f 6d 0d 0a 55 73 65 72 2d 41 67 65 6e 74   .com..User-Agent
00b0  3a 20 47 61 6d 65 53 70 79 48 54 54 50 2f 31 2e   : GameSpyHTTP/1.
00c0  30 0d 0a 43 6f 6e 6e 65 63 74 69 6f 6e 3a 20 63   0..Connection: c
00d0  6c 6f 73 65 0d 0a 0d 0a                           lose....

No.     Time                       Source                Destination           Protocol Length Info
     23 2012-10-11 22:08:42.945800 192.168.0.71          69.10.24.135          HTTP     193    GET /BFMC/Stats/stats.aspx?sort=vehicles&pid=411010702 HTTP/1.1 

Frame 23: 193 bytes on wire (1544 bits), 193 bytes captured (1544 bits)
    Arrival Time: Oct 11, 2012 22:08:42.945800000 GTB Standard Time
    Epoch Time: 1349982522.945800000 seconds
    [Time delta from previous captured frame: 0.000287000 seconds]
    [Time delta from previous displayed frame: 0.000287000 seconds]
    [Time since reference or first frame: 0.940704000 seconds]
    Frame Number: 23
    Frame Length: 193 bytes (1544 bits)
    Capture Length: 193 bytes (1544 bits)
    [Frame is marked: False]
    [Frame is ignored: False]
    [Protocols in frame: eth:ip:tcp:http]
Ethernet II, Src: SonyComp_ea:13:f9 (00:19:c5:ea:13:f9), Dst: ZyxelCom_8d:62:30 (40:4a:03:8d:62:30)
    Destination: ZyxelCom_8d:62:30 (40:4a:03:8d:62:30)
        Address: ZyxelCom_8d:62:30 (40:4a:03:8d:62:30)
        .... ...0 .... .... .... .... = IG bit: Individual address (unicast)
        .... ..0. .... .... .... .... = LG bit: Globally unique address (factory default)
    Source: SonyComp_ea:13:f9 (00:19:c5:ea:13:f9)
        Address: SonyComp_ea:13:f9 (00:19:c5:ea:13:f9)
        .... ...0 .... .... .... .... = IG bit: Individual address (unicast)
        .... ..0. .... .... .... .... = LG bit: Globally unique address (factory default)
    Type: IP (0x0800)
Internet Protocol Version 4, Src: 192.168.0.71 (192.168.0.71), Dst: 69.10.24.135 (69.10.24.135)
    Version: 4
    Header length: 20 bytes
    Differentiated Services Field: 0x00 (DSCP 0x00: Default; ECN: 0x00: Not-ECT (Not ECN-Capable Transport))
        0000 00.. = Differentiated Services Codepoint: Default (0x00)
        .... ..00 = Explicit Congestion Notification: Not-ECT (Not ECN-Capable Transport) (0x00)
    Total Length: 179
    Identification: 0x00a4 (164)
    Flags: 0x02 (Don't Fragment)
        0... .... = Reserved bit: Not set
        .1.. .... = Don't fragment: Set
        ..0. .... = More fragments: Not set
    Fragment offset: 0
    Time to live: 64
    Protocol: TCP (6)
    Header checksum: 0x1b21 [correct]
        [Good: True]
        [Bad: False]
    Source: 192.168.0.71 (192.168.0.71)
    Destination: 69.10.24.135 (69.10.24.135)
Transmission Control Protocol, Src Port: 58619 (58619), Dst Port: http (80), Seq: 1, Ack: 1, Len: 139
    Source port: 58619 (58619)
    Destination port: http (80)
    [Stream index: 6]
    Sequence number: 1    (relative sequence number)
    [Next sequence number: 140    (relative sequence number)]
    Acknowledgement number: 1    (relative ack number)
    Header length: 20 bytes
    Flags: 0x018 (PSH, ACK)
        000. .... .... = Reserved: Not set
        ...0 .... .... = Nonce: Not set
        .... 0... .... = Congestion Window Reduced (CWR): Not set
        .... .0.. .... = ECN-Echo: Not set
        .... ..0. .... = Urgent: Not set
        .... ...1 .... = Acknowledgement: Set
        .... .... 1... = Push: Set
        .... .... .0.. = Reset: Not set
        .... .... ..0. = Syn: Not set
        .... .... ...0 = Fin: Not set
    Window size value: 17520
    [Calculated window size: 17520]
    [Window size scaling factor: 1]
    Checksum: 0x7059 [validation disabled]
        [Good Checksum: False]
        [Bad Checksum: False]
    [SEQ/ACK analysis]
        [Bytes in flight: 140]
Hypertext Transfer Protocol
    GET /BFMC/Stats/stats.aspx?sort=vehicles&pid=411010702 HTTP/1.1\r\n
        [Expert Info (Chat/Sequence): GET /BFMC/Stats/stats.aspx?sort=vehicles&pid=411010702 HTTP/1.1\r\n]
            [Message: GET /BFMC/Stats/stats.aspx?sort=vehicles&pid=411010702 HTTP/1.1\r\n]
            [Severity level: Chat]
            [Group: Sequence]
        Request Method: GET
        Request URI: /BFMC/Stats/stats.aspx?sort=vehicles&pid=411010702
        Request Version: HTTP/1.1
    Host: bfmc.gamespy.com\r\n
    User-Agent: GameSpyHTTP/1.0\r\n
    Connection: close\r\n
    \r\n
    [Full request URI: http://bfmc.gamespy.com/BFMC/Stats/stats.aspx?sort=vehicles&pid=411010702]

0000  40 4a 03 8d 62 30 00 19 c5 ea 13 f9 08 00 45 00   @J..b0........E.
0010  00 b3 00 a4 40 00 40 06 1b 21 c0 a8 00 47 45 0a   ....@.@..!...GE.
0020  18 87 e4 fb 00 50 bf 8a e2 c4 b7 9f 31 3c 50 18   .....P......1<P.
